{
  "_format": "hh-sol-artifact-1",
  "contractName": "FixedPoint",
  "sourceName": "@uniswap/lib/contracts/libraries/FixedPoint.sol",
  "abi": [
    {
      "inputs": [],
      "name": "Q112",
      "outputs": [
        {
          "internalType": "uint256",
          "name": "",
          "type": "uint256"
        }
      ],
      "stateMutability": "view",
      "type": "function"
    },
    {
      "inputs": [],
      "name": "RESOLUTION",
      "outputs": [
        {
          "internalType": "uint8",
          "name": "",
          "type": "uint8"
        }
      ],
      "stateMutability": "view",
      "type": "function"
    }
  ],
  "bytecode": "0x60cb610025600b82828239805160001a60731461001857fe5b30600052607381538281f3fe7300000000000000000000000000000000000000003014608060405260043610603d5760003560e01c80633bf7a83e146042578063552f888a14605e575b600080fd5b6048607d565b6040518082815260200191505060405180910390f35b60646090565b604051808260ff16815260200191505060405180910390f35b6e01000000000000000000000000000081565b60708156fea26469706673582212202926d561d2065e90388125166d552cf58b24efe5778229c57f3584c26f55a1f864736f6c63430007030033",
  "linkReferences": {},
  "deployedLinkReferences": {}
}