{
  "contractName": "XFai",
  "abi": [
    {
      "inputs": [
        {
          "internalType": "contract Ixfit",
          "name": "_XFIT",
          "type": "address"
        },
        {
          "internalType": "address",
          "name": "_devaddr",
          "type": "address"
        },
        {
          "internalType": "uint256",
          "name": "_XFITPerBlock",
          "type": "uint256"
        },
        {
          "internalType": "uint256",
          "name": "_exitFeeFactor",
          "type": "uint256"
        },
        {
          "internalType": "uint256",
          "name": "_startBlock",
          "type": "uint256"
        },
        {
          "internalType": "uint256",
          "name": "_bonusEndBlock",
          "type": "uint256"
        },
        {
          "internalType": "uint256",
          "name": "_fundsSplitFactor",
          "type": "uint256"
        }
      ],
      "stateMutability": "nonpayable",
      "type": "constructor"
    },
    {
      "anonymous": false,
      "inputs": [
        {
          "indexed": true,
          "internalType": "address",
          "name": "user",
          "type": "address"
        },
        {
          "indexed": true,
          "internalType": "uint256",
          "name": "pid",
          "type": "uint256"
        },
        {
          "indexed": false,
          "internalType": "uint256",
          "name": "amount",
          "type": "uint256"
        }
      ],
      "name": "Deposit",
      "type": "event"
    },
    {
      "anonymous": false,
      "inputs": [
        {
          "indexed": true,
          "internalType": "address",
          "name": "user",
          "type": "address"
        },
        {
          "indexed": true,
          "internalType": "uint256",
          "name": "pid",
          "type": "uint256"
        },
        {
          "indexed": false,
          "internalType": "uint256",
          "name": "amount",
          "type": "uint256"
        }
      ],
      "name": "EmergencyWithdraw",
      "type": "event"
    },
    {
      "anonymous": false,
      "inputs": [
        {
          "indexed": true,
          "internalType": "address",
          "name": "previousOwner",
          "type": "address"
        },
        {
          "indexed": true,
          "internalType": "address",
          "name": "newOwner",
          "type": "address"
        }
      ],
      "name": "OwnershipTransferred",
      "type": "event"
    },
    {
      "anonymous": false,
      "inputs": [
        {
          "indexed": false,
          "internalType": "address",
          "name": "sender",
          "type": "address"
        },
        {
          "indexed": false,
          "internalType": "address",
          "name": "pool",
          "type": "address"
        },
        {
          "indexed": false,
          "internalType": "address",
          "name": "tokenA",
          "type": "address"
        },
        {
          "indexed": false,
          "internalType": "uint256",
          "name": "amountA",
          "type": "uint256"
        },
        {
          "indexed": false,
          "internalType": "address",
          "name": "tokenB",
          "type": "address"
        },
        {
          "indexed": false,
          "internalType": "uint256",
          "name": "amountB",
          "type": "uint256"
        }
      ],
      "name": "POOL_LIQUIDITY",
      "type": "event"
    },
    {
      "anonymous": false,
      "inputs": [
        {
          "indexed": false,
          "internalType": "address",
          "name": "account",
          "type": "address"
        }
      ],
      "name": "Paused",
      "type": "event"
    },
    {
      "anonymous": false,
      "inputs": [
        {
          "indexed": false,
          "internalType": "address",
          "name": "sender",
          "type": "address"
        },
        {
          "indexed": false,
          "internalType": "address",
          "name": "pool",
          "type": "address"
        },
        {
          "indexed": false,
          "internalType": "address",
          "name": "tokenA",
          "type": "address"
        },
        {
          "indexed": false,
          "internalType": "uint256",
          "name": "amountA",
          "type": "uint256"
        },
        {
          "indexed": false,
          "internalType": "address",
          "name": "tokenB",
          "type": "address"
        },
        {
          "indexed": false,
          "internalType": "uint256",
          "name": "amountB",
          "type": "uint256"
        }
      ],
      "name": "REMOVE_LIQUIDITY",
      "type": "event"
    },
    {
      "anonymous": false,
      "inputs": [
        {
          "indexed": false,
          "internalType": "address",
          "name": "sender",
          "type": "address"
        },
        {
          "indexed": false,
          "internalType": "uint256",
          "name": "amount",
          "type": "uint256"
        },
        {
          "indexed": false,
          "internalType": "address",
          "name": "fromToken",
          "type": "address"
        },
        {
          "indexed": false,
          "internalType": "address",
          "name": "toToken",
          "type": "address"
        }
      ],
      "name": "SWAP_TOKENS",
      "type": "event"
    },
    {
      "anonymous": false,
      "inputs": [
        {
          "indexed": false,
          "internalType": "address",
          "name": "account",
          "type": "address"
        }
      ],
      "name": "Unpaused",
      "type": "event"
    },
    {
      "anonymous": false,
      "inputs": [
        {
          "indexed": true,
          "internalType": "address",
          "name": "user",
          "type": "address"
        },
        {
          "indexed": true,
          "internalType": "uint256",
          "name": "pid",
          "type": "uint256"
        },
        {
          "indexed": false,
          "internalType": "uint256",
          "name": "amount",
          "type": "uint256"
        }
      ],
      "name": "Withdraw",
      "type": "event"
    },
    {
      "inputs": [],
      "name": "BONUS_MULTIPLIER",
      "outputs": [
        {
          "internalType": "uint256",
          "name": "",
          "type": "uint256"
        }
      ],
      "stateMutability": "view",
      "type": "function",
      "constant": true
    },
    {
      "inputs": [],
      "name": "REWARD_FACTOR",
      "outputs": [
        {
          "internalType": "uint256",
          "name": "",
          "type": "uint256"
        }
      ],
      "stateMutability": "view",
      "type": "function",
      "constant": true
    },
    {
      "inputs": [],
      "name": "XFIT",
      "outputs": [
        {
          "internalType": "contract Ixfit",
          "name": "",
          "type": "address"
        }
      ],
      "stateMutability": "view",
      "type": "function",
      "constant": true
    },
    {
      "inputs": [],
      "name": "XFITPerBlock",
      "outputs": [
        {
          "internalType": "uint256",
          "name": "",
          "type": "uint256"
        }
      ],
      "stateMutability": "view",
      "type": "function",
      "constant": true
    },
    {
      "inputs": [],
      "name": "bonusEndBlock",
      "outputs": [
        {
          "internalType": "uint256",
          "name": "",
          "type": "uint256"
        }
      ],
      "stateMutability": "view",
      "type": "function",
      "constant": true
    },
    {
      "inputs": [],
      "name": "devaddr",
      "outputs": [
        {
          "internalType": "address",
          "name": "",
          "type": "address"
        }
      ],
      "stateMutability": "view",
      "type": "function",
      "constant": true
    },
    {
      "inputs": [],
      "name": "exitFeeFactor",
      "outputs": [
        {
          "internalType": "uint256",
          "name": "",
          "type": "uint256"
        }
      ],
      "stateMutability": "view",
      "type": "function",
      "constant": true
    },
    {
      "inputs": [],
      "name": "fundsSplitFactor",
      "outputs": [
        {
          "internalType": "uint256",
          "name": "",
          "type": "uint256"
        }
      ],
      "stateMutability": "view",
      "type": "function",
      "constant": true
    },
    {
      "inputs": [],
      "name": "owner",
      "outputs": [
        {
          "internalType": "address",
          "name": "",
          "type": "address"
        }
      ],
      "stateMutability": "view",
      "type": "function",
      "constant": true
    },
    {
      "inputs": [],
      "name": "paused",
      "outputs": [
        {
          "internalType": "bool",
          "name": "",
          "type": "bool"
        }
      ],
      "stateMutability": "view",
      "type": "function",
      "constant": true
    },
    {
      "inputs": [
        {
          "internalType": "uint256",
          "name": "",
          "type": "uint256"
        }
      ],
      "name": "poolInfo",
      "outputs": [
        {
          "internalType": "contract IERC20",
          "name": "lpToken",
          "type": "address"
        },
        {
          "internalType": "contract IERC20",
          "name": "inputToken",
          "type": "address"
        },
        {
          "internalType": "contract IXPriceOracle",
          "name": "xPoolOracle",
          "type": "address"
        },
        {
          "internalType": "uint256",
          "name": "allocPoint",
          "type": "uint256"
        },
        {
          "internalType": "uint256",
          "name": "lastRewardBlock",
          "type": "uint256"
        },
        {
          "internalType": "uint256",
          "name": "accXFITPerShare",
          "type": "uint256"
        }
      ],
      "stateMutability": "view",
      "type": "function",
      "constant": true
    },
    {
      "inputs": [],
      "name": "renounceOwnership",
      "outputs": [],
      "stateMutability": "nonpayable",
      "type": "function"
    },
    {
      "inputs": [],
      "name": "startBlock",
      "outputs": [
        {
          "internalType": "uint256",
          "name": "",
          "type": "uint256"
        }
      ],
      "stateMutability": "view",
      "type": "function",
      "constant": true
    },
    {
      "inputs": [],
      "name": "totalAllocPoint",
      "outputs": [
        {
          "internalType": "uint256",
          "name": "",
          "type": "uint256"
        }
      ],
      "stateMutability": "view",
      "type": "function",
      "constant": true
    },
    {
      "inputs": [
        {
          "internalType": "address",
          "name": "newOwner",
          "type": "address"
        }
      ],
      "name": "transferOwnership",
      "outputs": [],
      "stateMutability": "nonpayable",
      "type": "function"
    },
    {
      "inputs": [
        {
          "internalType": "uint256",
          "name": "",
          "type": "uint256"
        }
      ],
      "name": "userAddresses",
      "outputs": [
        {
          "internalType": "address",
          "name": "",
          "type": "address"
        }
      ],
      "stateMutability": "view",
      "type": "function",
      "constant": true
    },
    {
      "inputs": [
        {
          "internalType": "uint256",
          "name": "",
          "type": "uint256"
        },
        {
          "internalType": "address",
          "name": "",
          "type": "address"
        }
      ],
      "name": "userInfo",
      "outputs": [
        {
          "internalType": "uint256",
          "name": "amount",
          "type": "uint256"
        },
        {
          "internalType": "uint256",
          "name": "rewardDebt",
          "type": "uint256"
        },
        {
          "internalType": "bool",
          "name": "enrolled",
          "type": "bool"
        }
      ],
      "stateMutability": "view",
      "type": "function",
      "constant": true
    },
    {
      "inputs": [],
      "name": "poolLength",
      "outputs": [
        {
          "internalType": "uint256",
          "name": "",
          "type": "uint256"
        }
      ],
      "stateMutability": "view",
      "type": "function",
      "constant": true
    },
    {
      "inputs": [],
      "name": "userAddressesLength",
      "outputs": [
        {
          "internalType": "uint256",
          "name": "",
          "type": "uint256"
        }
      ],
      "stateMutability": "view",
      "type": "function",
      "constant": true
    },
    {
      "inputs": [
        {
          "internalType": "uint256",
          "name": "_allocPoint",
          "type": "uint256"
        },
        {
          "internalType": "contract IERC20",
          "name": "_lpToken",
          "type": "address"
        },
        {
          "internalType": "contract IERC20",
          "name": "_inputToken",
          "type": "address"
        },
        {
          "internalType": "contract IXPriceOracle",
          "name": "_xPoolOracle",
          "type": "address"
        },
        {
          "internalType": "bool",
          "name": "_withUpdate",
          "type": "bool"
        }
      ],
      "name": "add",
      "outputs": [],
      "stateMutability": "nonpayable",
      "type": "function"
    },
    {
      "inputs": [
        {
          "internalType": "uint256",
          "name": "_pid",
          "type": "uint256"
        },
        {
          "internalType": "uint256",
          "name": "_allocPoint",
          "type": "uint256"
        },
        {
          "internalType": "bool",
          "name": "_withUpdate",
          "type": "bool"
        }
      ],
      "name": "set",
      "outputs": [],
      "stateMutability": "nonpayable",
      "type": "function"
    },
    {
      "inputs": [
        {
          "internalType": "uint256",
          "name": "_from",
          "type": "uint256"
        },
        {
          "internalType": "uint256",
          "name": "_to",
          "type": "uint256"
        }
      ],
      "name": "getMultiplier",
      "outputs": [
        {
          "internalType": "uint256",
          "name": "",
          "type": "uint256"
        }
      ],
      "stateMutability": "view",
      "type": "function",
      "constant": true
    },
    {
      "inputs": [
        {
          "internalType": "uint256",
          "name": "_pid",
          "type": "uint256"
        },
        {
          "internalType": "address",
          "name": "_user",
          "type": "address"
        }
      ],
      "name": "pendingXFIT",
      "outputs": [
        {
          "internalType": "uint256",
          "name": "",
          "type": "uint256"
        }
      ],
      "stateMutability": "view",
      "type": "function",
      "constant": true
    },
    {
      "inputs": [],
      "name": "massUpdatePools",
      "outputs": [],
      "stateMutability": "nonpayable",
      "type": "function"
    },
    {
      "inputs": [
        {
          "internalType": "uint256",
          "name": "_pid",
          "type": "uint256"
        }
      ],
      "name": "updatePool",
      "outputs": [],
      "stateMutability": "nonpayable",
      "type": "function"
    },
    {
      "inputs": [
        {
          "internalType": "uint256",
          "name": "_pid",
          "type": "uint256"
        },
        {
          "internalType": "uint256",
          "name": "_amount",
          "type": "uint256"
        },
        {
          "internalType": "uint256",
          "name": "_minPoolTokens",
          "type": "uint256"
        }
      ],
      "name": "depositLPWithToken",
      "outputs": [],
      "stateMutability": "payable",
      "type": "function",
      "payable": true
    },
    {
      "inputs": [
        {
          "internalType": "uint256",
          "name": "_pid",
          "type": "uint256"
        },
        {
          "internalType": "uint256",
          "name": "_amount",
          "type": "uint256"
        }
      ],
      "name": "depositLP",
      "outputs": [],
      "stateMutability": "nonpayable",
      "type": "function"
    },
    {
      "inputs": [
        {
          "internalType": "uint256",
          "name": "_pid",
          "type": "uint256"
        },
        {
          "internalType": "uint256",
          "name": "_amount",
          "type": "uint256"
        }
      ],
      "name": "withdrawLPWithToken",
      "outputs": [],
      "stateMutability": "nonpayable",
      "type": "function"
    },
    {
      "inputs": [
        {
          "internalType": "uint256",
          "name": "_pid",
          "type": "uint256"
        },
        {
          "internalType": "uint256",
          "name": "_amount",
          "type": "uint256"
        }
      ],
      "name": "withdrawLP",
      "outputs": [],
      "stateMutability": "nonpayable",
      "type": "function"
    },
    {
      "inputs": [
        {
          "internalType": "uint256",
          "name": "_pid",
          "type": "uint256"
        }
      ],
      "name": "emergencyWithdraw",
      "outputs": [],
      "stateMutability": "nonpayable",
      "type": "function"
    },
    {
      "inputs": [
        {
          "internalType": "address",
          "name": "_devaddr",
          "type": "address"
        }
      ],
      "name": "dev",
      "outputs": [],
      "stateMutability": "nonpayable",
      "type": "function"
    },
    {
      "inputs": [
        {
          "internalType": "uint256",
          "name": "_pid",
          "type": "uint256"
        },
        {
          "internalType": "contract IXPriceOracle",
          "name": "_xPoolOracle",
          "type": "address"
        }
      ],
      "name": "setPriceOracle",
      "outputs": [],
      "stateMutability": "nonpayable",
      "type": "function"
    },
    {
      "inputs": [],
      "name": "pauseDistribution",
      "outputs": [],
      "stateMutability": "nonpayable",
      "type": "function"
    },
    {
      "inputs": [],
      "name": "resumeDistribution",
      "outputs": [],
      "stateMutability": "nonpayable",
      "type": "function"
    },
    {
      "inputs": [
        {
          "internalType": "uint256",
          "name": "_newReward",
          "type": "uint256"
        }
      ],
      "name": "setXFITRewardPerBlock",
      "outputs": [],
      "stateMutability": "nonpayable",
      "type": "function"
    },
    {
      "inputs": [
        {
          "internalType": "uint256",
          "name": "_fundsSplitFactor",
          "type": "uint256"
        }
      ],
      "name": "setFundsSplitFactor",
      "outputs": [],
      "stateMutability": "nonpayable",
      "type": "function"
    },
    {
      "inputs": [
        {
          "internalType": "uint256",
          "name": "_newExitFeeFactor",
          "type": "uint256"
        }
      ],
      "name": "setExitFeeFactor",
      "outputs": [],
      "stateMutability": "nonpayable",
      "type": "function"
    },
    {
      "inputs": [
        {
          "internalType": "uint256",
          "name": "amount",
          "type": "uint256"
        }
      ],
      "name": "withdrawAdminXFIT",
      "outputs": [],
      "stateMutability": "nonpayable",
      "type": "function"
    }
  ],
  "bytecode": "0x60806040526000600a553480156200001657600080fd5b506040516200576538038062005765833981810160405260e08110156200003c57600080fd5b810190808051906020019092919080519060200190929190805190602001909291908051906020019092919080519060200190929190805190602001909291908051906020019092919050505060016000819055506000620000a36200020f60201b60201c565b905080600160006101000a81548173ffffffffffffffffffffffffffffffffffffffff021916908373ffffffffffffffffffffffffffffffffffffffff1602179055508073ffffffffffffffffffffffffffffffffffffffff16600073ffffffffffffffffffffffffffffffffffffffff167f8be0079c531659141344cd1fd0a4f28419497f9722a3daafe3b4186f6b6457e060405160405180910390a3506000600160146101000a81548160ff02191690831515021790555086600360006101000a81548173ffffffffffffffffffffffffffffffffffffffff021916908373ffffffffffffffffffffffffffffffffffffffff16021790555085600460006101000a81548173ffffffffffffffffffffffffffffffffffffffff021916908373ffffffffffffffffffffffffffffffffffffffff160217905550846006819055508160058190555082600b819055508360078190555080600c819055505050505050505062000217565b600033905090565b61553e80620002276000396000f3fe6080604052600436106102255760003560e01c8063630b5ba11161012357806393f1a40b116100ab578063bfe50f721161006f578063bfe50f7214610a9f578063d49e77cd14610ae4578063e3c947c914610b25578063ee5c23fd14610b60578063f2fde38b14610b9b57610225565b806393f1a40b146108ea57806395c64a3b14610969578063b47ab19e146109aa578063b7c69cb714610a05578063b97d0b8214610a7457610225565b80638aa28550116100f25780638aa285501461078f5780638d88a90e146107ba5780638da5cb5b1461080b5780638dbb1e3a1461084c57806391918d64146108a557610225565b8063630b5ba1146106d557806364482f79146106ec578063715018a61461073d578063739d58c01461075457610225565b80632b8c74ff116101b1578063502c9bd511610175578063502c9bd51461058b57806351eb05a6146105f05780635312ea8e1461062b5780635b395fdc146106665780635c975abb146106a857610225565b80632b8c74ff1461043257806331cec7a31461047757806347260cbb1461048e57806348cd4cb1146105355780634c046eb51461056057610225565b8063159a1f80116101f8578063159a1f801461035b57806317caf6f11461038657806318369be1146103b15780631aed6553146103dc5780632b782ebd1461040757610225565b8063081e3eda1461022a578063127f5b2b1461025557806313267805146102905780631526fe27146102a7575b600080fd5b34801561023657600080fd5b5061023f610bec565b6040518082815260200191505060405180910390f35b34801561026157600080fd5b5061028e6004803603602081101561027857600080fd5b8101908080359060200190929190505050610bf9565b005b34801561029c57600080fd5b506102a5610cb2565b005b3480156102b357600080fd5b506102e0600480360360208110156102ca57600080fd5b8101908080359060200190929190505050610d6b565b604051808773ffffffffffffffffffffffffffffffffffffffff1681526020018673ffffffffffffffffffffffffffffffffffffffff1681526020018573ffffffffffffffffffffffffffffffffffffffff168152602001848152602001838152602001828152602001965050505050505060405180910390f35b34801561036757600080fd5b50610370610e14565b6040518082815260200191505060405180910390f35b34801561039257600080fd5b5061039b610e1a565b6040518082815260200191505060405180910390f35b3480156103bd57600080fd5b506103c6610e20565b6040518082815260200191505060405180910390f35b3480156103e857600080fd5b506103f1610e25565b6040518082815260200191505060405180910390f35b34801561041357600080fd5b5061041c610e2b565b6040518082815260200191505060405180910390f35b34801561043e57600080fd5b506104756004803603604081101561045557600080fd5b810190808035906020019092919080359060200190929190505050610e31565b005b34801561048357600080fd5b5061048c610e96565b005b34801561049a57600080fd5b50610533600480360360a08110156104b157600080fd5b8101908080359060200190929190803573ffffffffffffffffffffffffffffffffffffffff169060200190929190803573ffffffffffffffffffffffffffffffffffffffff169060200190929190803573ffffffffffffffffffffffffffffffffffffffff169060200190929190803515159060200190929190505050610f4f565b005b34801561054157600080fd5b5061054a6111d7565b6040518082815260200191505060405180910390f35b34801561056c57600080fd5b506105756111dd565b6040518082815260200191505060405180910390f35b34801561059757600080fd5b506105c4600480360360208110156105ae57600080fd5b81019080803590602001909291905050506111e3565b604051808273ffffffffffffffffffffffffffffffffffffffff16815260200191505060405180910390f35b3480156105fc57600080fd5b506106296004803603602081101561061357600080fd5b810190808035906020019092919050505061121f565b005b34801561063757600080fd5b506106646004803603602081101561064e57600080fd5b81019080803590602001909291905050506114e4565b005b6106a66004803603606081101561067c57600080fd5b81019080803590602001909291908035906020019092919080359060200190929190505050611618565b005b3480156106b457600080fd5b506106bd611745565b60405180821515815260200191505060405180910390f35b3480156106e157600080fd5b506106ea61175c565b005b3480156106f857600080fd5b5061073b6004803603606081101561070f57600080fd5b810190808035906020019092919080359060200190929190803515159060200190929190505050611789565b005b34801561074957600080fd5b506107526118ba565b005b34801561076057600080fd5b5061078d6004803603602081101561077757600080fd5b8101908080359060200190929190505050611a2a565b005b34801561079b57600080fd5b506107a4611aeb565b6040518082815260200191505060405180910390f35b3480156107c657600080fd5b50610809600480360360208110156107dd57600080fd5b81019080803573ffffffffffffffffffffffffffffffffffffffff169060200190929190505050611af0565b005b34801561081757600080fd5b50610820611be3565b604051808273ffffffffffffffffffffffffffffffffffffffff16815260200191505060405180910390f35b34801561085857600080fd5b5061088f6004803603604081101561086f57600080fd5b810190808035906020019092919080359060200190929190505050611c0d565b6040518082815260200191505060405180910390f35b3480156108b157600080fd5b506108e8600480360360408110156108c857600080fd5b810190808035906020019092919080359060200190929190505050611cbf565b005b3480156108f657600080fd5b506109436004803603604081101561090d57600080fd5b8101908080359060200190929190803573ffffffffffffffffffffffffffffffffffffffff169060200190929190505050611d4b565b604051808481526020018381526020018215158152602001935050505060405180910390f35b34801561097557600080fd5b5061097e611d8f565b604051808273ffffffffffffffffffffffffffffffffffffffff16815260200191505060405180910390f35b3480156109b657600080fd5b50610a03600480360360408110156109cd57600080fd5b8101908080359060200190929190803573ffffffffffffffffffffffffffffffffffffffff169060200190929190505050611db5565b005b348015610a1157600080fd5b50610a5e60048036036040811015610a2857600080fd5b8101908080359060200190929190803573ffffffffffffffffffffffffffffffffffffffff169060200190929190505050611ecb565b6040518082815260200191505060405180910390f35b348015610a8057600080fd5b50610a89612111565b6040518082815260200191505060405180910390f35b348015610aab57600080fd5b50610ae260048036036040811015610ac257600080fd5b81019080803590602001909291908035906020019092919050505061211e565b005b348015610af057600080fd5b50610af96121a9565b604051808273ffffffffffffffffffffffffffffffffffffffff16815260200191505060405180910390f35b348015610b3157600080fd5b50610b5e60048036036020811015610b4857600080fd5b81019080803590602001909291905050506121cf565b005b348015610b6c57600080fd5b50610b9960048036036020811015610b8357600080fd5b8101908080359060200190929190505050612350565b005b348015610ba757600080fd5b50610bea60048036036020811015610bbe57600080fd5b81019080803573ffffffffffffffffffffffffffffffffffffffff169060200190929190505050612409565b005b6000600880549050905090565b610c016125fe565b73ffffffffffffffffffffffffffffffffffffffff16610c1f611be3565b73ffffffffffffffffffffffffffffffffffffffff1614610ca8576040517f08c379a00000000000000000000000000000000000000000000000000000000081526004018080602001828103825260208152602001807f4f776e61626c653a2063616c6c6572206973206e6f7420746865206f776e657281525060200191505060405180910390fd5b80600c8190555050565b610cba6125fe565b73ffffffffffffffffffffffffffffffffffffffff16610cd8611be3565b73ffffffffffffffffffffffffffffffffffffffff1614610d61576040517f08c379a00000000000000000000000000000000000000000000000000000000081526004018080602001828103825260208152602001807f4f776e61626c653a2063616c6c6572206973206e6f7420746865206f776e657281525060200191505060405180910390fd5b610d69612606565b565b60088181548110610d7857fe5b90600052602060002090600602016000915090508060000160009054906101000a900473ffffffffffffffffffffffffffffffffffffffff16908060010160009054906101000a900473ffffffffffffffffffffffffffffffffffffffff16908060020160009054906101000a900473ffffffffffffffffffffffffffffffffffffffff16908060030154908060040154908060050154905086565b60075481565b600a5481565b600a81565b60055481565b60065481565b6000610e3f838360006126f1565b9050600060088481548110610e5057fe5b90600052602060002090600602019050610e8e8160000160009054906101000a900473ffffffffffffffffffffffffffffffffffffffff1683612a49565b505050505050565b610e9e6125fe565b73ffffffffffffffffffffffffffffffffffffffff16610ebc611be3565b73ffffffffffffffffffffffffffffffffffffffff1614610f45576040517f08c379a00000000000000000000000000000000000000000000000000000000081526004018080602001828103825260208152602001807f4f776e61626c653a2063616c6c6572206973206e6f7420746865206f776e657281525060200191505060405180910390fd5b610f4d613177565b565b610f576125fe565b73ffffffffffffffffffffffffffffffffffffffff16610f75611be3565b73ffffffffffffffffffffffffffffffffffffffff1614610ffe576040517f08c379a00000000000000000000000000000000000000000000000000000000081526004018080602001828103825260208152602001807f4f776e61626c653a2063616c6c6572206973206e6f7420746865206f776e657281525060200191505060405180910390fd5b801561100d5761100c61175c565b5b6000600b54431161102057600b54611022565b435b905061103986600a5461326290919063ffffffff16565b600a8190555060086040518060c001604052808773ffffffffffffffffffffffffffffffffffffffff1681526020018673ffffffffffffffffffffffffffffffffffffffff1681526020018573ffffffffffffffffffffffffffffffffffffffff1681526020018881526020018381526020016000815250908060018154018082558091505060019003906000526020600020906006020160009091909190915060008201518160000160006101000a81548173ffffffffffffffffffffffffffffffffffffffff021916908373ffffffffffffffffffffffffffffffffffffffff16021790555060208201518160010160006101000a81548173ffffffffffffffffffffffffffffffffffffffff021916908373ffffffffffffffffffffffffffffffffffffffff16021790555060408201518160020160006101000a81548173ffffffffffffffffffffffffffffffffffffffff021916908373ffffffffffffffffffffffffffffffffffffffff160217905550606082015181600301556080820151816004015560a082015181600501555050505050505050565b600b5481565b600c5481565b600281815481106111f057fe5b906000526020600020016000915054906101000a900473ffffffffffffffffffffffffffffffffffffffff1681565b60006008828154811061122e57fe5b906000526020600020906006020190508060040154431161124f57506114e1565b60008160000160009054906101000a900473ffffffffffffffffffffffffffffffffffffffff1673ffffffffffffffffffffffffffffffffffffffff166370a08231306040518263ffffffff1660e01b8152600401808273ffffffffffffffffffffffffffffffffffffffff16815260200191505060206040518083038186803b1580156112dc57600080fd5b505afa1580156112f0573d6000803e3d6000fd5b505050506040513d602081101561130657600080fd5b8101908080519060200190929190505050905060008114156113325743826004018190555050506114e1565b6000611342836004015443611c0d565b90506000611385600a546113778660030154611369600654876132ea90919063ffffffff16565b6132ea90919063ffffffff16565b61337090919063ffffffff16565b9050600360009054906101000a900473ffffffffffffffffffffffffffffffffffffffff1673ffffffffffffffffffffffffffffffffffffffff1663a9059cbb600460009054906101000a900473ffffffffffffffffffffffffffffffffffffffff166113fc600a8561337090919063ffffffff16565b6040518363ffffffff1660e01b8152600401808373ffffffffffffffffffffffffffffffffffffffff16815260200182815260200192505050602060405180830381600087803b15801561144f57600080fd5b505af1158015611463573d6000803e3d6000fd5b505050506040513d602081101561147957600080fd5b8101908080519060200190929190505050506114cb6114b8846114aa64e8d4a51000856132ea90919063ffffffff16565b61337090919063ffffffff16565b856005015461326290919063ffffffff16565b8460050181905550438460040181905550505050505b50565b6000600882815481106114f357fe5b9060005260206000209060060201905060006009600084815260200190815260200160002060003373ffffffffffffffffffffffffffffffffffffffff1673ffffffffffffffffffffffffffffffffffffffff168152602001908152602001600020905060008160000154905060008260000181905550600082600101819055506115c333828560000160009054906101000a900473ffffffffffffffffffffffffffffffffffffffff1673ffffffffffffffffffffffffffffffffffffffff166133f99092919063ffffffff16565b833373ffffffffffffffffffffffffffffffffffffffff167fbb757047c2b5f3974fe26b7c10f732e7bce710b0952a71082702781e62ae0595836040518082815260200191505060405180910390a350505050565b611620611745565b15611693576040517f08c379a00000000000000000000000000000000000000000000000000000000081526004018080602001828103825260108152602001807f5061757361626c653a207061757365640000000000000000000000000000000081525060200191505060405180910390fd5b6000600884815481106116a257fe5b9060005260206000209060060201905060006117308260010160009054906101000a900473ffffffffffffffffffffffffffffffffffffffff168360000160009054906101000a900473ffffffffffffffffffffffffffffffffffffffff168460020160009054906101000a900473ffffffffffffffffffffffffffffffffffffffff168787600c5461349b565b905061173e85826000613687565b5050505050565b6000600160149054906101000a900460ff16905090565b6000600880549050905060005b818110156117855761177a8161121f565b806001019050611769565b5050565b6117916125fe565b73ffffffffffffffffffffffffffffffffffffffff166117af611be3565b73ffffffffffffffffffffffffffffffffffffffff1614611838576040517f08c379a00000000000000000000000000000000000000000000000000000000081526004018080602001828103825260208152602001807f4f776e61626c653a2063616c6c6572206973206e6f7420746865206f776e657281525060200191505060405180910390fd5b80156118475761184661175c565b5b61188c8261187e6008868154811061185b57fe5b906000526020600020906006020160030154600a5461392990919063ffffffff16565b61326290919063ffffffff16565b600a8190555081600884815481106118a057fe5b906000526020600020906006020160030181905550505050565b6118c26125fe565b73ffffffffffffffffffffffffffffffffffffffff166118e0611be3565b73ffffffffffffffffffffffffffffffffffffffff1614611969576040517f08c379a00000000000000000000000000000000000000000000000000000000081526004018080602001828103825260208152602001807f4f776e61626c653a2063616c6c6572206973206e6f7420746865206f776e657281525060200191505060405180910390fd5b600073ffffffffffffffffffffffffffffffffffffffff16600160009054906101000a900473ffffffffffffffffffffffffffffffffffffffff1673ffffffffffffffffffffffffffffffffffffffff167f8be0079c531659141344cd1fd0a4f28419497f9722a3daafe3b4186f6b6457e060405160405180910390a36000600160006101000a81548173ffffffffffffffffffffffffffffffffffffffff021916908373ffffffffffffffffffffffffffffffffffffffff160217905550565b611a326125fe565b73ffffffffffffffffffffffffffffffffffffffff16611a50611be3565b73ffffffffffffffffffffffffffffffffffffffff1614611ad9576040517f08c379a00000000000000000000000000000000000000000000000000000000081526004018080602001828103825260208152602001807f4f776e61626c653a2063616c6c6572206973206e6f7420746865206f776e657281525060200191505060405180910390fd5b611ae161175c565b8060068190555050565b600281565b611af86125fe565b73ffffffffffffffffffffffffffffffffffffffff16611b16611be3565b73ffffffffffffffffffffffffffffffffffffffff1614611b9f576040517f08c379a00000000000000000000000000000000000000000000000000000000081526004018080602001828103825260208152602001807f4f776e61626c653a2063616c6c6572206973206e6f7420746865206f776e657281525060200191505060405180910390fd5b80600460006101000a81548173ffffffffffffffffffffffffffffffffffffffff021916908373ffffffffffffffffffffffffffffffffffffffff16021790555050565b6000600160009054906101000a900473ffffffffffffffffffffffffffffffffffffffff16905090565b60006005548211611c4557611c3e6002611c30858561392990919063ffffffff16565b6132ea90919063ffffffff16565b9050611cb9565b6005548310611c6857611c61838361392990919063ffffffff16565b9050611cb9565b611cb6611c806005548461392990919063ffffffff16565b611ca86002611c9a8760055461392990919063ffffffff16565b6132ea90919063ffffffff16565b61326290919063ffffffff16565b90505b92915050565b611cc7611745565b15611d3a576040517f08c379a00000000000000000000000000000000000000000000000000000000081526004018080602001828103825260108152602001807f5061757361626c653a207061757365640000000000000000000000000000000081525060200191505060405180910390fd5b611d46828260016126f1565b505050565b6009602052816000526040600020602052806000526040600020600091509150508060000154908060010154908060020160009054906101000a900460ff16905083565b600360009054906101000a900473ffffffffffffffffffffffffffffffffffffffff1681565b611dbd6125fe565b73ffffffffffffffffffffffffffffffffffffffff16611ddb611be3565b73ffffffffffffffffffffffffffffffffffffffff1614611e64576040517f08c379a00000000000000000000000000000000000000000000000000000000081526004018080602001828103825260208152602001807f4f776e61626c653a2063616c6c6572206973206e6f7420746865206f776e657281525060200191505060405180910390fd5b600060088381548110611e7357fe5b90600052602060002090600602019050818160020160006101000a81548173ffffffffffffffffffffffffffffffffffffffff021916908373ffffffffffffffffffffffffffffffffffffffff160217905550505050565b60008060088481548110611edb57fe5b9060005260206000209060060201905060006009600086815260200190815260200160002060008573ffffffffffffffffffffffffffffffffffffffff1673ffffffffffffffffffffffffffffffffffffffff168152602001908152602001600020905060008260050154905060008360000160009054906101000a900473ffffffffffffffffffffffffffffffffffffffff1673ffffffffffffffffffffffffffffffffffffffff166370a08231306040518263ffffffff1660e01b8152600401808273ffffffffffffffffffffffffffffffffffffffff16815260200191505060206040518083038186803b158015611fd557600080fd5b505afa158015611fe9573d6000803e3d6000fd5b505050506040513d6020811015611fff57600080fd5b81019080805190602001909291905050509050836004015443118015612026575060008114155b156120c157600061203b856004015443611c0d565b9050600061207e600a546120708860030154612062600654876132ea90919063ffffffff16565b6132ea90919063ffffffff16565b61337090919063ffffffff16565b90506120bc6120ad8461209f64e8d4a51000856132ea90919063ffffffff16565b61337090919063ffffffff16565b8561326290919063ffffffff16565b935050505b61210583600101546120f764e8d4a510006120e98688600001546132ea90919063ffffffff16565b61337090919063ffffffff16565b61392990919063ffffffff16565b94505050505092915050565b6000600280549050905090565b612126611745565b15612199576040517f08c379a00000000000000000000000000000000000000000000000000000000081526004018080602001828103825260108152602001807f5061757361626c653a207061757365640000000000000000000000000000000081525060200191505060405180910390fd5b6121a582826001613687565b5050565b600460009054906101000a900473ffffffffffffffffffffffffffffffffffffffff1681565b6121d76125fe565b73ffffffffffffffffffffffffffffffffffffffff166121f5611be3565b73ffffffffffffffffffffffffffffffffffffffff161461227e576040517f08c379a00000000000000000000000000000000000000000000000000000000081526004018080602001828103825260208152602001807f4f776e61626c653a2063616c6c6572206973206e6f7420746865206f776e657281525060200191505060405180910390fd5b600360009054906101000a900473ffffffffffffffffffffffffffffffffffffffff1673ffffffffffffffffffffffffffffffffffffffff1663a9059cbb33836040518363ffffffff1660e01b8152600401808373ffffffffffffffffffffffffffffffffffffffff16815260200182815260200192505050602060405180830381600087803b15801561231157600080fd5b505af1158015612325573d6000803e3d6000fd5b505050506040513d602081101561233b57600080fd5b81019080805190602001909291905050505050565b6123586125fe565b73ffffffffffffffffffffffffffffffffffffffff16612376611be3565b73ffffffffffffffffffffffffffffffffffffffff16146123ff576040517f08c379a00000000000000000000000000000000000000000000000000000000081526004018080602001828103825260208152602001807f4f776e61626c653a2063616c6c6572206973206e6f7420746865206f776e657281525060200191505060405180910390fd5b8060078190555050565b6124116125fe565b73ffffffffffffffffffffffffffffffffffffffff1661242f611be3565b73ffffffffffffffffffffffffffffffffffffffff16146124b8576040517f08c379a00000000000000000000000000000000000000000000000000000000081526004018080602001828103825260208152602001807f4f776e61626c653a2063616c6c6572206973206e6f7420746865206f776e657281525060200191505060405180910390fd5b600073ffffffffffffffffffffffffffffffffffffffff168173ffffffffffffffffffffffffffffffffffffffff16141561253e576040517f08c379a00000000000000000000000000000000000000000000000000000000081526004018080602001828103825260268152602001806154026026913960400191505060405180910390fd5b8073ffffffffffffffffffffffffffffffffffffffff16600160009054906101000a900473ffffffffffffffffffffffffffffffffffffffff1673ffffffffffffffffffffffffffffffffffffffff167f8be0079c531659141344cd1fd0a4f28419497f9722a3daafe3b4186f6b6457e060405160405180910390a380600160006101000a81548173ffffffffffffffffffffffffffffffffffffffff021916908373ffffffffffffffffffffffffffffffffffffffff16021790555050565b600033905090565b61260e611745565b612680576040517f08c379a00000000000000000000000000000000000000000000000000000000081526004018080602001828103825260148152602001807f5061757361626c653a206e6f742070617573656400000000000000000000000081525060200191505060405180910390fd5b6000600160146101000a81548160ff0219169083151502179055507f5db9ee0a495bf2e6ff9c91a7834c1ba4fdd244a5e8aa4e537bd38aeae4b073aa6126c46125fe565b604051808273ffffffffffffffffffffffffffffffffffffffff16815260200191505060405180910390a1565b6000806008858154811061270157fe5b9060005260206000209060060201905060006009600087815260200190815260200160002060003373ffffffffffffffffffffffffffffffffffffffff1673ffffffffffffffffffffffffffffffffffffffff168152602001908152602001600020905084816000015410156127df576040517f08c379a00000000000000000000000000000000000000000000000000000000081526004018080602001828103825260128152602001807f77697468647261773a206e6f7420676f6f64000000000000000000000000000081525060200191505060405180910390fd5b6127e88661121f565b6000612832826001015461282464e8d4a51000612816876005015487600001546132ea90919063ffffffff16565b61337090919063ffffffff16565b61392990919063ffffffff16565b905060008111156128485761284733826139ac565b5b600086905060008711156129b25761286d87846000015461392990919063ffffffff16565b836000018190555060006128b9670de0b6b3a76400006128ab606461289d6007548d6132ea90919063ffffffff16565b61337090919063ffffffff16565b61337090919063ffffffff16565b905060011515871515141561292a57612929336128df838b61392990919063ffffffff16565b8760000160009054906101000a900473ffffffffffffffffffffffffffffffffffffffff1673ffffffffffffffffffffffffffffffffffffffff166133f99092919063ffffffff16565b5b61299b600460009054906101000a900473ffffffffffffffffffffffffffffffffffffffff16828760000160009054906101000a900473ffffffffffffffffffffffffffffffffffffffff1673ffffffffffffffffffffffffffffffffffffffff166133f99092919063ffffffff16565b6129ae818961392990919063ffffffff16565b9150505b6129e464e8d4a510006129d6866005015486600001546132ea90919063ffffffff16565b61337090919063ffffffff16565b8360010181905550873373ffffffffffffffffffffffffffffffffffffffff167ff279e6a1f5e320cca91135676d9cb6e44ca8a08c0b88342bcdb1144f6511b568896040518082815260200191505060405180910390a3809450505050509392505050565b60008060026000541415612ac5576040517f08c379a000000000000000000000000000000000000000000000000000000000815260040180806020018281038252601f8152602001807f5265656e7472616e637947756172643a207265656e7472616e742063616c6c0081525060200191505060405180910390fd5b60026000819055506000849050600073ffffffffffffffffffffffffffffffffffffffff168173ffffffffffffffffffffffffffffffffffffffff161415612b75576040517f08c379a000000000000000000000000000000000000000000000000000000000815260040180806020018281038252601e8152602001807f4572726f723a20496e76616c696420556e69706f6f6c2041646472657373000081525060200191505060405180910390fd5b60008173ffffffffffffffffffffffffffffffffffffffff16630dfe16816040518163ffffffff1660e01b815260040160206040518083038186803b158015612bbd57600080fd5b505afa158015612bd1573d6000803e3d6000fd5b505050506040513d6020811015612be757600080fd5b8101908080519060200190929190505050905060008273ffffffffffffffffffffffffffffffffffffffff1663d21220a76040518163ffffffff1660e01b815260040160206040518083038186803b158015612c4257600080fd5b505afa158015612c56573d6000803e3d6000fd5b505050506040513d6020811015612c6c57600080fd5b81019080805190602001909291905050509050612cbe737a250d5630b4cf539739df2c5dacb4c659f2488d878973ffffffffffffffffffffffffffffffffffffffff16613c259092919063ffffffff16565b60008073c02aaa39b223fe8d0a0e5c4f27ead9083c756cc273ffffffffffffffffffffffffffffffffffffffff168473ffffffffffffffffffffffffffffffffffffffff161480612d4e575073c02aaa39b223fe8d0a0e5c4f27ead9083c756cc273ffffffffffffffffffffffffffffffffffffffff168373ffffffffffffffffffffffffffffffffffffffff16145b15612f0957600073c02aaa39b223fe8d0a0e5c4f27ead9083c756cc273ffffffffffffffffffffffffffffffffffffffff168573ffffffffffffffffffffffffffffffffffffffff1614612da25784612da4565b835b9050737a250d5630b4cf539739df2c5dacb4c659f2488d73ffffffffffffffffffffffffffffffffffffffff166302751cec828b600180307ff0000000000000000000000000000000000000000000000000000000000000006040518763ffffffff1660e01b8152600401808773ffffffffffffffffffffffffffffffffffffffff1681526020018681526020018581526020018481526020018373ffffffffffffffffffffffffffffffffffffffff16815260200182815260200196505050505050506040805180830381600087803b158015612e8157600080fd5b505af1158015612e95573d6000803e3d6000fd5b505050506040513d6040811015612eab57600080fd5b8101908080519060200190929190805190602001909291905050508093508194505050612ef933848373ffffffffffffffffffffffffffffffffffffffff166133f99092919063ffffffff16565b612f033383613dea565b506130a6565b737a250d5630b4cf539739df2c5dacb4c659f2488d73ffffffffffffffffffffffffffffffffffffffff1663baa2abde85858b600180307ff0000000000000000000000000000000000000000000000000000000000000006040518863ffffffff1660e01b8152600401808873ffffffffffffffffffffffffffffffffffffffff1681526020018773ffffffffffffffffffffffffffffffffffffffff1681526020018681526020018581526020018481526020018373ffffffffffffffffffffffffffffffffffffffff1681526020018281526020019750505050505050506040805180830381600087803b15801561300257600080fd5b505af1158015613016573d6000803e3d6000fd5b505050506040513d604081101561302c57600080fd5b810190808051906020019092919080519060200190929190505050809250819350505061307a33838673ffffffffffffffffffffffffffffffffffffffff166133f99092919063ffffffff16565b6130a533828573ffffffffffffffffffffffffffffffffffffffff166133f99092919063ffffffff16565b5b7f8251496d51a0099361551b4a9901c85074f36c95f425405ad965a04c650a340b338a86858786604051808773ffffffffffffffffffffffffffffffffffffffff1681526020018673ffffffffffffffffffffffffffffffffffffffff1681526020018573ffffffffffffffffffffffffffffffffffffffff1681526020018481526020018373ffffffffffffffffffffffffffffffffffffffff168152602001828152602001965050505050505060405180910390a1818196509650505050505060016000819055509250929050565b61317f611745565b156131f2576040517f08c379a00000000000000000000000000000000000000000000000000000000081526004018080602001828103825260108152602001807f5061757361626c653a207061757365640000000000000000000000000000000081525060200191505060405180910390fd5b60018060146101000a81548160ff0219169083151502179055507f62e78cea01bee320cd4e420270b5ea74000d11b0c9f74754ebdbfc544b05a2586132356125fe565b604051808273ffffffffffffffffffffffffffffffffffffffff16815260200191505060405180910390a1565b6000808284019050838110156132e0576040517f08c379a000000000000000000000000000000000000000000000000000000000815260040180806020018281038252601b8152602001807f536166654d6174683a206164646974696f6e206f766572666c6f77000000000081525060200191505060405180910390fd5b8091505092915050565b6000808314156132fd576000905061336a565b600082840290508284828161330e57fe5b0414613365576040517f08c379a00000000000000000000000000000000000000000000000000000000081526004018080602001828103825260218152602001806154886021913960400191505060405180910390fd5b809150505b92915050565b60008082116133e7576040517f08c379a000000000000000000000000000000000000000000000000000000000815260040180806020018281038252601a8152602001807f536166654d6174683a206469766973696f6e206279207a65726f00000000000081525060200191505060405180910390fd5b8183816133f057fe5b04905092915050565b6134968363a9059cbb60e01b8484604051602401808373ffffffffffffffffffffffffffffffffffffffff16815260200182815260200192505050604051602081830303815290604052907bffffffffffffffffffffffffffffffffffffffffffffffffffffffff19166020820180517bffffffffffffffffffffffffffffffffffffffffffffffffffffffff8381831617835250505050613f24565b505050565b600060026000541415613516576040517f08c379a000000000000000000000000000000000000000000000000000000000815260040180806020018281038252601f8152602001807f5265656e7472616e637947756172643a207265656e7472616e742063616c6c0081525060200191505060405180910390fd5b6002600081905550600061352a8886614013565b9050600080600061353a8a6141ea565b915091508173ffffffffffffffffffffffffffffffffffffffff168b73ffffffffffffffffffffffffffffffffffffffff161415613587576135808b828c8c888b6142fe565b9250613598565b6135958b838c8c888b6142fe565b92505b8683101561360e576040517f08c379a00000000000000000000000000000000000000000000000000000000081526004018080602001828103825260128152602001807f4552523a204869676820536c697070616765000000000000000000000000000081525060200191505060405180910390fd5b8873ffffffffffffffffffffffffffffffffffffffff1663a2e620456040518163ffffffff1660e01b8152600401600060405180830381600087803b15801561365657600080fd5b505af115801561366a573d6000803e3d6000fd5b505050508294505050505060016000819055509695505050505050565b60006008848154811061369657fe5b9060005260206000209060060201905060006009600086815260200190815260200160002060003373ffffffffffffffffffffffffffffffffffffffff1673ffffffffffffffffffffffffffffffffffffffff1681526020019081526020016000209050600015158160020160009054906101000a900460ff1615151415613799576002339080600181540180825580915050600190039060005260206000200160009091909190916101000a81548173ffffffffffffffffffffffffffffffffffffffff021916908373ffffffffffffffffffffffffffffffffffffffff16021790555060018160020160006101000a81548160ff0219169083151502179055505b6137a28561121f565b6000816000015411156138115760006137f982600101546137eb64e8d4a510006137dd876005015487600001546132ea90919063ffffffff16565b61337090919063ffffffff16565b61392990919063ffffffff16565b9050600081111561380f5761380e33826139ac565b5b505b600084111561389957600115158315151415613879576138783330868560000160009054906101000a900473ffffffffffffffffffffffffffffffffffffffff1673ffffffffffffffffffffffffffffffffffffffff16614609909392919063ffffffff16565b5b61389084826000015461326290919063ffffffff16565b81600001819055505b6138cb64e8d4a510006138bd846005015484600001546132ea90919063ffffffff16565b61337090919063ffffffff16565b8160010181905550843373ffffffffffffffffffffffffffffffffffffffff167f90890809c654f11d6e72a28fa60149770a0d11ec6c92319d6ceb2bb0a4ea1a15866040518082815260200191505060405180910390a35050505050565b6000828211156139a1576040517f08c379a000000000000000000000000000000000000000000000000000000000815260040180806020018281038252601e8152602001807f536166654d6174683a207375627472616374696f6e206f766572666c6f77000081525060200191505060405180910390fd5b818303905092915050565b6000600360009054906101000a900473ffffffffffffffffffffffffffffffffffffffff1673ffffffffffffffffffffffffffffffffffffffff166370a08231306040518263ffffffff1660e01b8152600401808273ffffffffffffffffffffffffffffffffffffffff16815260200191505060206040518083038186803b158015613a3757600080fd5b505afa158015613a4b573d6000803e3d6000fd5b505050506040513d6020811015613a6157600080fd5b8101908080519060200190929190505050905080821115613b5057600360009054906101000a900473ffffffffffffffffffffffffffffffffffffffff1673ffffffffffffffffffffffffffffffffffffffff1663a9059cbb84836040518363ffffffff1660e01b8152600401808373ffffffffffffffffffffffffffffffffffffffff16815260200182815260200192505050602060405180830381600087803b158015613b0f57600080fd5b505af1158015613b23573d6000803e3d6000fd5b505050506040513d6020811015613b3957600080fd5b810190808051906020019092919050505050613c20565b600360009054906101000a900473ffffffffffffffffffffffffffffffffffffffff1673ffffffffffffffffffffffffffffffffffffffff1663a9059cbb84846040518363ffffffff1660e01b8152600401808373ffffffffffffffffffffffffffffffffffffffff16815260200182815260200192505050602060405180830381600087803b158015613be357600080fd5b505af1158015613bf7573d6000803e3d6000fd5b505050506040513d6020811015613c0d57600080fd5b8101908080519060200190929190505050505b505050565b6000811480613cf3575060008373ffffffffffffffffffffffffffffffffffffffff1663dd62ed3e30856040518363ffffffff1660e01b8152600401808373ffffffffffffffffffffffffffffffffffffffff1681526020018273ffffffffffffffffffffffffffffffffffffffff1681526020019250505060206040518083038186803b158015613cb657600080fd5b505afa158015613cca573d6000803e3d6000fd5b505050506040513d6020811015613ce057600080fd5b8101908080519060200190929190505050145b613d48576040517f08c379a00000000000000000000000000000000000000000000000000000000081526004018080602001828103825260368152602001806154d36036913960400191505060405180910390fd5b613de58363095ea7b360e01b8484604051602401808373ffffffffffffffffffffffffffffffffffffffff16815260200182815260200192505050604051602081830303815290604052907bffffffffffffffffffffffffffffffffffffffffffffffffffffffff19166020820180517bffffffffffffffffffffffffffffffffffffffffffffffffffffffff8381831617835250505050613f24565b505050565b80471015613e60576040517f08c379a000000000000000000000000000000000000000000000000000000000815260040180806020018281038252601d8152602001807f416464726573733a20696e73756666696369656e742062616c616e636500000081525060200191505060405180910390fd5b60008273ffffffffffffffffffffffffffffffffffffffff168260405180600001905060006040518083038185875af1925050503d8060008114613ec0576040519150601f19603f3d011682016040523d82523d6000602084013e613ec5565b606091505b5050905080613f1f576040517f08c379a000000000000000000000000000000000000000000000000000000000815260040180806020018281038252603a815260200180615428603a913960400191505060405180910390fd5b505050565b6060613f86826040518060400160405280602081526020017f5361666545524332303a206c6f772d6c6576656c2063616c6c206661696c65648152508573ffffffffffffffffffffffffffffffffffffffff166146ca9092919063ffffffff16565b905060008151111561400e57808060200190516020811015613fa757600080fd5b810190808051906020019092919050505061400d576040517f08c379a000000000000000000000000000000000000000000000000000000000815260040180806020018281038252602a8152602001806154a9602a913960400191505060405180910390fd5b5b505050565b60008073ffffffffffffffffffffffffffffffffffffffff168373ffffffffffffffffffffffffffffffffffffffff1614156140c757600034116140bf576040517f08c379a000000000000000000000000000000000000000000000000000000000815260040180806020018281038252600b8152602001807f4e6f206574682073656e7400000000000000000000000000000000000000000081525060200191505060405180910390fd5b3490506141e4565b6000821161413d576040517f08c379a00000000000000000000000000000000000000000000000000000000081526004018080602001828103825260148152602001807f496e76616c696420746f6b656e20616d6f756e7400000000000000000000000081525060200191505060405180910390fd5b600034146141b3576040517f08c379a00000000000000000000000000000000000000000000000000000000081526004018080602001828103825260138152602001807f4574682073656e74207769746820746f6b656e0000000000000000000000000081525060200191505060405180910390fd5b6141e03330848673ffffffffffffffffffffffffffffffffffffffff16614609909392919063ffffffff16565b8190505b92915050565b60008060008390508073ffffffffffffffffffffffffffffffffffffffff16630dfe16816040518163ffffffff1660e01b815260040160206040518083038186803b15801561423857600080fd5b505afa15801561424c573d6000803e3d6000fd5b505050506040513d602081101561426257600080fd5b810190808051906020019092919050505092508073ffffffffffffffffffffffffffffffffffffffff1663d21220a76040518163ffffffff1660e01b815260040160206040518083038186803b1580156142bb57600080fd5b505afa1580156142cf573d6000803e3d6000fd5b505050506040513d60208110156142e557600080fd5b8101908080519060200190929190505050915050915091565b60006143086153d2565b61431c60028561337090919063ffffffff16565b8160000181815250508473ffffffffffffffffffffffffffffffffffffffff16633ddac9538983600001516040518363ffffffff1660e01b8152600401808373ffffffffffffffffffffffffffffffffffffffff1681526020018281526020019250505060206040518083038186803b15801561439857600080fd5b505afa1580156143ac573d6000803e3d6000fd5b505050506040513d60208110156143c257600080fd5b8101908080519060200190929190505050816020018181525050600061440f670de0b6b3a76400006144018685600001516132ea90919063ffffffff16565b61337090919063ffffffff16565b90508773ffffffffffffffffffffffffffffffffffffffff166370a08231306040518263ffffffff1660e01b8152600401808273ffffffffffffffffffffffffffffffffffffffff16815260200191505060206040518083038186803b15801561447857600080fd5b505afa15801561448c573d6000803e3d6000fd5b505050506040513d60208110156144a257600080fd5b81019080805190602001909291905050508260800181815250508160800151826020015110156144f457816000015182604001818152505081602001518260600181815250506144f38989836146e2565b5b81608001518260200151106145215761450e8988876146f3565b8360400184606001828152508281525050505b600080600061453a8c8c876040015188606001516148a9565b9250925092507fe52a8d6444a86a0f9c4d5e4022c26ec5f9e2c0a873c0733b601b0ddc04a942d9338b8e858f86604051808773ffffffffffffffffffffffffffffffffffffffff1681526020018673ffffffffffffffffffffffffffffffffffffffff1681526020018573ffffffffffffffffffffffffffffffffffffffff1681526020018481526020018373ffffffffffffffffffffffffffffffffffffffff168152602001828152602001965050505050505060405180910390a182955050505050509695505050505050565b6146c4846323b872dd60e01b858585604051602401808473ffffffffffffffffffffffffffffffffffffffff1681526020018373ffffffffffffffffffffffffffffffffffffffff1681526020018281526020019350505050604051602081830303815290604052907bffffffffffffffffffffffffffffffffffffffffffffffffffffffff19166020820180517bffffffffffffffffffffffffffffffffffffffffffffffffffffffff8381831617835250505050613f24565b50505050565b60606146d98484600085614bd0565b90509392505050565b6146ed838383614d79565b50505050565b600080600080614702866141ea565b915091506000808773ffffffffffffffffffffffffffffffffffffffff16630902f1ac6040518163ffffffff1660e01b815260040160606040518083038186803b15801561474f57600080fd5b505afa158015614763573d6000803e3d6000fd5b505050506040513d606081101561477957600080fd5b81019080805190602001909291908051906020019092919080519060200190929190505050506dffffffffffffffffffffffffffff1691506dffffffffffffffffffffffffffff1691508373ffffffffffffffffffffffffffffffffffffffff168973ffffffffffffffffffffffffffffffffffffffff16141561484c576000614803838961520f565b9050600081116148245761482160028961337090919063ffffffff16565b90505b61482f8a8583614d79565b9550614844818961392990919063ffffffff16565b96505061489d565b6000614858828961520f565b9050600081116148795761487660028961337090919063ffffffff16565b90505b6148848a8683614d79565b9650614899818961392990919063ffffffff16565b9550505b50505050935093915050565b60008060006148ee737a250d5630b4cf539739df2c5dacb4c659f2488d60008973ffffffffffffffffffffffffffffffffffffffff16613c259092919063ffffffff16565b61492e737a250d5630b4cf539739df2c5dacb4c659f2488d60008873ffffffffffffffffffffffffffffffffffffffff16613c259092919063ffffffff16565b61496d737a250d5630b4cf539739df2c5dacb4c659f2488d868973ffffffffffffffffffffffffffffffffffffffff16613c259092919063ffffffff16565b6149ac737a250d5630b4cf539739df2c5dacb4c659f2488d858873ffffffffffffffffffffffffffffffffffffffff16613c259092919063ffffffff16565b6000806000737a250d5630b4cf539739df2c5dacb4c659f2488d73ffffffffffffffffffffffffffffffffffffffff1663e8e337008b8b8b8b600180307ff0000000000000000000000000000000000000000000000000000000000000006040518963ffffffff1660e01b8152600401808973ffffffffffffffffffffffffffffffffffffffff1681526020018873ffffffffffffffffffffffffffffffffffffffff1681526020018781526020018681526020018581526020018481526020018373ffffffffffffffffffffffffffffffffffffffff16815260200182815260200198505050505050505050606060405180830381600087803b158015614ab357600080fd5b505af1158015614ac7573d6000803e3d6000fd5b505050506040513d6060811015614add57600080fd5b810190808051906020019092919080519060200190929190805190602001909291905050509250925092506000614b1d848a61392990919063ffffffff16565b1115614b6157614b6033614b3a858b61392990919063ffffffff16565b8c73ffffffffffffffffffffffffffffffffffffffff166133f99092919063ffffffff16565b5b6000614b76838961392990919063ffffffff16565b1115614bba57614bb933614b93848a61392990919063ffffffff16565b8b73ffffffffffffffffffffffffffffffffffffffff166133f99092919063ffffffff16565b5b8083839550955095505050509450945094915050565b606082471015614c2b576040517f08c379a00000000000000000000000000000000000000000000000000000000081526004018080602001828103825260268152602001806154626026913960400191505060405180910390fd5b614c3485615291565b614ca6576040517f08c379a000000000000000000000000000000000000000000000000000000000815260040180806020018281038252601d8152602001807f416464726573733a2063616c6c20746f206e6f6e2d636f6e747261637400000081525060200191505060405180910390fd5b600060608673ffffffffffffffffffffffffffffffffffffffff1685876040518082805190602001908083835b60208310614cf65780518252602082019150602081019050602083039250614cd3565b6001836020036101000a03801982511681845116808217855250505050505090500191505060006040518083038185875af1925050503d8060008114614d58576040519150601f19603f3d011682016040523d82523d6000602084013e614d5d565b606091505b5091509150614d6d8282866152a4565b92505050949350505050565b60008273ffffffffffffffffffffffffffffffffffffffff168473ffffffffffffffffffffffffffffffffffffffff161415614db757819050615208565b614df7737a250d5630b4cf539739df2c5dacb4c659f2488d60008673ffffffffffffffffffffffffffffffffffffffff16613c259092919063ffffffff16565b614e36737a250d5630b4cf539739df2c5dacb4c659f2488d838673ffffffffffffffffffffffffffffffffffffffff16613c259092919063ffffffff16565b6060600267ffffffffffffffff81118015614e5057600080fd5b50604051908082528060200260200182016040528015614e7f5781602001602082028036833780820191505090505b5090508481600081518110614e9057fe5b602002602001019073ffffffffffffffffffffffffffffffffffffffff16908173ffffffffffffffffffffffffffffffffffffffff16815250508381600181518110614ed857fe5b602002602001019073ffffffffffffffffffffffffffffffffffffffff16908173ffffffffffffffffffffffffffffffffffffffff1681525050737a250d5630b4cf539739df2c5dacb4c659f2488d73ffffffffffffffffffffffffffffffffffffffff166338ed173984600184307ff0000000000000000000000000000000000000000000000000000000000000006040518663ffffffff1660e01b815260040180868152602001858152602001806020018473ffffffffffffffffffffffffffffffffffffffff168152602001838152602001828103825285818151815260200191508051906020019060200280838360005b83811015614fe8578082015181840152602081019050614fcd565b505050509050019650505050505050600060405180830381600087803b15801561501157600080fd5b505af1158015615025573d6000803e3d6000fd5b505050506040513d6000823e3d601f19601f82011682018060405250602081101561504f57600080fd5b810190808051604051939291908464010000000082111561506f57600080fd5b8382019150602082018581111561508557600080fd5b82518660208202830111640100000000821117156150a257600080fd5b8083526020830192505050908051906020019060200280838360005b838110156150d95780820151818401526020810190506150be565b505050509050016040525050506001825103815181106150f557fe5b6020026020010151915060008211615175576040517f08c379a00000000000000000000000000000000000000000000000000000000081526004018080602001828103825260178152602001807f4572726f72205377617070696e6720546f6b656e73203200000000000000000081525060200191505060405180910390fd5b7fb242fac543571b33f0bb49bcc84178771cbd74e5c7785b45981424829ba3c07533848787604051808573ffffffffffffffffffffffffffffffffffffffff1681526020018481526020018373ffffffffffffffffffffffffffffffffffffffff1681526020018273ffffffffffffffffffffffffffffffffffffffff16815260200194505050505060405180910390a1505b9392505050565b60006107ca61528161522c6107cd866132ea90919063ffffffff16565b61527361526e615248623cda29896132ea90919063ffffffff16565b61525e623cda20896132ea90919063ffffffff16565b01886132ea90919063ffffffff16565b615370565b61392990919063ffffffff16565b8161528857fe5b04905092915050565b600080823b905060008111915050919050565b606083156152b457829050615369565b6000835111156152c75782518084602001fd5b816040517f08c379a00000000000000000000000000000000000000000000000000000000081526004018080602001828103825283818151815260200191508051906020019080838360005b8381101561532e578082015181840152602081019050615313565b50505050905090810190601f16801561535b5780820380516001836020036101000a031916815260200191505b509250505060405180910390fd5b9392505050565b600060038211156153bf57819050600060016002848161538c57fe5b040190505b818110156153b9578091506002818285816153a857fe5b0401816153b157fe5b049050615391565b506153cd565b600082146153cc57600190505b5b919050565b6040518060a001604052806000815260200160008152602001600081526020016000815260200160008152509056fe4f776e61626c653a206e6577206f776e657220697320746865207a65726f2061646472657373416464726573733a20756e61626c6520746f2073656e642076616c75652c20726563697069656e74206d61792068617665207265766572746564416464726573733a20696e73756666696369656e742062616c616e636520666f722063616c6c536166654d6174683a206d756c7469706c69636174696f6e206f766572666c6f775361666545524332303a204552433230206f7065726174696f6e20646964206e6f7420737563636565645361666545524332303a20617070726f76652066726f6d206e6f6e2d7a65726f20746f206e6f6e2d7a65726f20616c6c6f77616e6365a2646970667358221220b25c825b2e500464618a746ad54bd9f0e9ee4b04c88a1d9fff45ab1977230ec364736f6c63430007000033",
  "immutableReferences": {},
  "source": "// SPDX-License-Identifier: MIT\n\npragma solidity ^0.7.0;\n\nimport \"@openzeppelin/contracts/token/ERC20/IERC20.sol\";\nimport \"@openzeppelin/contracts/token/ERC20/SafeERC20.sol\";\nimport \"@openzeppelin/contracts/utils/EnumerableSet.sol\";\nimport \"@openzeppelin/contracts/math/SafeMath.sol\";\nimport \"@openzeppelin/contracts/access/Ownable.sol\";\nimport \"@openzeppelin/contracts/utils/Pausable.sol\";\nimport \"./interfaces/Ixfit.sol\";\nimport \"../contracts/XPoolHandler.sol\";\n\n// Amplify is XFIT distibutor.\n//\n// Note that it's ownable and the owner wields tremendous power. The ownership\n// will be transferred to a governance smart contract once XFIT is sufficiently\n// distributed and the community can show to govern itself.\n\ncontract XFai is XPoolHandler, Pausable {\n    using SafeMath for uint256;\n    using SafeERC20 for IERC20;\n\n    // Info of each user.\n    struct UserInfo {\n        uint256 amount; // How many LP tokens the user has provided.\n        uint256 rewardDebt; // Reward debt. See explanation below.\n        bool enrolled;\n        //\n        // We do some fancy math here. Basically, any point in time, the amount of XFITs\n        // entitled to a user but is pending to be distributed is:\n        //\n        //   pending reward = (user.amount * pool.accXFITPerShare) - user.rewardDebt\n        //\n        // Whenever a user deposits or withdraws LP tokens to a pool. Here's what happens:\n        //   1. The pool's `accXFITPerShare` (and `lastRewardBlock`) gets updated.\n        //   2. User receives the pending reward sent to his/her address.\n        //   3. User's `amount` gets updated.\n        //   4. User's `rewardDebt` gets updated.\n    }\n\n    // Array which stores addresses of all the participants. Doesn't duplicate the address.\n    address[] public userAddresses;\n\n    // Info of each pool.\n    struct PoolInfo {\n        IERC20 lpToken; // Address of LP token contract.\n        IERC20 inputToken; // Token in which Single sided liquidity can be provided\n        IXPriceOracle xPoolOracle;\n        uint256 allocPoint; // How many allocation points assigned to this pool. XFITs to distribute per block.\n        uint256 lastRewardBlock; // Last block number that XFITs distribution occurs.\n        uint256 accXFITPerShare; // Accumulated XFITs per share, times 1e12. See below.\n    }\n\n    // The XFIT TOKEN!\n    Ixfit public XFIT;\n\n    // Dev address.\n    address public devaddr;\n    // Block number when bonus XFIT period ends.\n    uint256 public bonusEndBlock;\n    // XFIT tokens distributed per block.\n    uint256 public XFITPerBlock;\n    // Bonus muliplier for early XFIT farmers.\n    uint256 public constant BONUS_MULTIPLIER = 2;\n\n    uint256 public constant REWARD_FACTOR = 10;\n\n    // Exit fee in percentage, scaled by e18. e.g. if exit fee is 2%, then exitFeeFactor should be 2e18\n    uint256 public exitFeeFactor;\n    // Info of each pool.\n    PoolInfo[] public poolInfo;\n    // Info of each user that stakes LP tokens.\n    mapping(uint256 => mapping(address => UserInfo)) public userInfo;\n    // Total allocation points. Must be the sum of all allocation points in all pools.\n    uint256 public totalAllocPoint = 0;\n    // The block number when XFIT mining starts.\n    uint256 public startBlock;\n\n    uint256 public fundsSplitFactor;\n\n    event Deposit(address indexed user, uint256 indexed pid, uint256 amount);\n    event Withdraw(address indexed user, uint256 indexed pid, uint256 amount);\n    event EmergencyWithdraw(\n        address indexed user,\n        uint256 indexed pid,\n        uint256 amount\n    );\n\n    constructor(\n        Ixfit _XFIT,\n        address _devaddr,\n        uint256 _XFITPerBlock,\n        uint256 _exitFeeFactor,\n        uint256 _startBlock,\n        uint256 _bonusEndBlock,\n        uint256 _fundsSplitFactor\n    ) {\n        XFIT = _XFIT;\n        devaddr = _devaddr;\n        XFITPerBlock = _XFITPerBlock;\n        bonusEndBlock = _bonusEndBlock;\n        startBlock = _startBlock;\n        exitFeeFactor = _exitFeeFactor;\n        fundsSplitFactor = _fundsSplitFactor;\n    }\n\n    function poolLength() external view returns (uint256) {\n        return poolInfo.length;\n    }\n\n    function userAddressesLength() external view returns (uint256) {\n        return userAddresses.length;\n    }\n\n    // Add a new lp to the pool. Can only be called by the owner.\n    // XXX DO NOT add the same LP token more than once. Rewards will be messed up if you do.\n    function add(\n        uint256 _allocPoint,\n        IERC20 _lpToken,\n        IERC20 _inputToken,\n        IXPriceOracle _xPoolOracle,\n        bool _withUpdate\n    ) public onlyOwner {\n        if (_withUpdate) {\n            massUpdatePools();\n        }\n        uint256 lastRewardBlock =\n            block.number > startBlock ? block.number : startBlock;\n        totalAllocPoint = totalAllocPoint.add(_allocPoint);\n        poolInfo.push(\n            PoolInfo({\n                lpToken: _lpToken,\n                inputToken: _inputToken,\n                xPoolOracle: _xPoolOracle,\n                allocPoint: _allocPoint,\n                lastRewardBlock: lastRewardBlock,\n                accXFITPerShare: 0\n            })\n        );\n    }\n\n    // Update the given pool's XFIT allocation point. Can only be called by the owner.\n    function set(\n        uint256 _pid,\n        uint256 _allocPoint,\n        bool _withUpdate\n    ) public onlyOwner {\n        if (_withUpdate) {\n            massUpdatePools();\n        }\n        totalAllocPoint = totalAllocPoint.sub(poolInfo[_pid].allocPoint).add(\n            _allocPoint\n        );\n        poolInfo[_pid].allocPoint = _allocPoint;\n    }\n\n    // Return reward multiplier over the given _from to _to block.\n    function getMultiplier(uint256 _from, uint256 _to)\n        public\n        view\n        returns (uint256)\n    {\n        if (_to <= bonusEndBlock) {\n            return _to.sub(_from).mul(BONUS_MULTIPLIER);\n        } else if (_from >= bonusEndBlock) {\n            return _to.sub(_from);\n        } else {\n            return\n                bonusEndBlock.sub(_from).mul(BONUS_MULTIPLIER).add(\n                    _to.sub(bonusEndBlock)\n                );\n        }\n    }\n\n    // View function to see pending XFITs on frontend.\n    function pendingXFIT(uint256 _pid, address _user)\n        external\n        view\n        returns (uint256)\n    {\n        PoolInfo storage pool = poolInfo[_pid];\n        UserInfo storage user = userInfo[_pid][_user];\n        uint256 accXFITPerShare = pool.accXFITPerShare;\n        uint256 lpSupply = pool.lpToken.balanceOf(address(this));\n        if (block.number > pool.lastRewardBlock && lpSupply != 0) {\n            uint256 multiplier =\n                getMultiplier(pool.lastRewardBlock, block.number);\n            uint256 XFITReward =\n                multiplier.mul(XFITPerBlock).mul(pool.allocPoint).div(\n                    totalAllocPoint\n                );\n            accXFITPerShare = accXFITPerShare.add(\n                XFITReward.mul(1e12).div(lpSupply)\n            );\n        }\n        return user.amount.mul(accXFITPerShare).div(1e12).sub(user.rewardDebt);\n    }\n\n    // Update reward variables for all pools. Be careful of gas spending!\n    function massUpdatePools() public {\n        uint256 length = poolInfo.length;\n        for (uint256 pid = 0; pid < length; ++pid) {\n            updatePool(pid);\n        }\n    }\n\n    // Update reward variables of the given pool to be up-to-date.\n    function updatePool(uint256 _pid) public {\n        PoolInfo storage pool = poolInfo[_pid];\n        if (block.number <= pool.lastRewardBlock) {\n            return;\n        }\n        uint256 lpSupply = pool.lpToken.balanceOf(address(this));\n        if (lpSupply == 0) {\n            pool.lastRewardBlock = block.number;\n            return;\n        }\n        uint256 multiplier = getMultiplier(pool.lastRewardBlock, block.number);\n        uint256 XFITReward =\n            multiplier.mul(XFITPerBlock).mul(pool.allocPoint).div(\n                totalAllocPoint\n            );\n        XFIT.transfer(devaddr, XFITReward.div(REWARD_FACTOR));\n        pool.accXFITPerShare = pool.accXFITPerShare.add(\n            XFITReward.mul(1e12).div(lpSupply)\n        );\n        pool.lastRewardBlock = block.number;\n    }\n\n    function depositLPWithToken(\n        uint256 _pid,\n        uint256 _amount,\n        uint256 _minPoolTokens\n    ) public payable whenNotPaused {\n        PoolInfo storage pool = poolInfo[_pid];\n\n        uint256 lpTokensBought =\n            poolLiquidity(\n                address(pool.inputToken),\n                address(pool.lpToken),\n                address(pool.xPoolOracle),\n                _amount,\n                _minPoolTokens,\n                fundsSplitFactor\n            );\n        _depositInternal(_pid, lpTokensBought, false);\n    }\n\n    // Deposit LP tokens to Amplify for XFIT allocation.\n    function depositLP(uint256 _pid, uint256 _amount) public whenNotPaused {\n        _depositInternal(_pid, _amount, true);\n    }\n\n    function withdrawLPWithToken(uint256 _pid, uint256 _amount) public {\n        uint256 actualWithdrawAmount = _withdrawInternal(_pid, _amount, false);\n        PoolInfo storage pool = poolInfo[_pid];\n        redeemLPTokens(address(pool.lpToken), actualWithdrawAmount);\n    }\n\n    // Withdraw LP tokens from Amplify.\n    function withdrawLP(uint256 _pid, uint256 _amount) public whenNotPaused {\n        _withdrawInternal(_pid, _amount, true);\n    }\n\n    function _depositInternal(\n        uint256 _pid,\n        uint256 _amount,\n        bool withLPTokens\n    ) internal {\n        PoolInfo storage pool = poolInfo[_pid];\n        UserInfo storage user = userInfo[_pid][msg.sender];\n        if (user.enrolled == false) {\n            userAddresses.push(msg.sender);\n            user.enrolled = true;\n        }\n        updatePool(_pid);\n        if (user.amount > 0) {\n            uint256 pending =\n                user.amount.mul(pool.accXFITPerShare).div(1e12).sub(\n                    user.rewardDebt\n                );\n            if (pending > 0) {\n                safeXFITTransfer(msg.sender, pending);\n            }\n        }\n        if (_amount > 0) {\n            if (withLPTokens == true) {\n                pool.lpToken.safeTransferFrom(\n                    address(msg.sender),\n                    address(this),\n                    _amount\n                );\n            }\n            user.amount = user.amount.add(_amount);\n        }\n        user.rewardDebt = user.amount.mul(pool.accXFITPerShare).div(1e12);\n        emit Deposit(msg.sender, _pid, _amount);\n    }\n\n    function _withdrawInternal(\n        uint256 _pid,\n        uint256 _amount,\n        bool withLPTokens\n    ) internal returns (uint256) {\n        PoolInfo storage pool = poolInfo[_pid];\n        UserInfo storage user = userInfo[_pid][msg.sender];\n        require(user.amount >= _amount, \"withdraw: not good\");\n        updatePool(_pid);\n        uint256 pending =\n            user.amount.mul(pool.accXFITPerShare).div(1e12).sub(\n                user.rewardDebt\n            );\n        if (pending > 0) {\n            safeXFITTransfer(msg.sender, pending);\n        }\n        uint256 withdrawableAmount = _amount;\n        if (_amount > 0) {\n            user.amount = user.amount.sub(_amount);\n            uint256 exitFee = _amount.mul(exitFeeFactor).div(100).div(1e18);\n\n            if (withLPTokens == true) {\n                pool.lpToken.safeTransfer(\n                    address(msg.sender),\n                    _amount.sub(exitFee)\n                );\n            }\n            pool.lpToken.safeTransfer(devaddr, exitFee);\n            withdrawableAmount = _amount.sub(exitFee);\n        }\n        user.rewardDebt = user.amount.mul(pool.accXFITPerShare).div(1e12);\n        emit Withdraw(msg.sender, _pid, _amount);\n        return withdrawableAmount;\n    }\n\n    // Withdraw without caring about rewards. EMERGENCY ONLY.\n    function emergencyWithdraw(uint256 _pid) public {\n        PoolInfo storage pool = poolInfo[_pid];\n        UserInfo storage user = userInfo[_pid][msg.sender];\n        uint256 amount = user.amount;\n        user.amount = 0;\n        user.rewardDebt = 0;\n        pool.lpToken.safeTransfer(address(msg.sender), amount);\n        emit EmergencyWithdraw(msg.sender, _pid, amount);\n    }\n\n    // Safe XFIT transfer function, just in case if rounding error causes pool to not have enough XFITs.\n    function safeXFITTransfer(address _to, uint256 _amount) internal {\n        uint256 XFITBal = XFIT.balanceOf(address(this));\n        if (_amount > XFITBal) {\n            XFIT.transfer(_to, XFITBal);\n        } else {\n            XFIT.transfer(_to, _amount);\n        }\n    }\n\n    // ADMIN METHODS\n\n    // Update dev address by the admin.\n    function dev(address _devaddr) public onlyOwner {\n        devaddr = _devaddr;\n    }\n\n    function setPriceOracle(uint256 _pid, IXPriceOracle _xPoolOracle)\n        public\n        onlyOwner\n    {\n        PoolInfo storage pool = poolInfo[_pid];\n        pool.xPoolOracle = _xPoolOracle;\n    }\n\n    function pauseDistribution() public onlyOwner {\n        _pause();\n    }\n\n    function resumeDistribution() public onlyOwner {\n        _unpause();\n    }\n\n    function setXFITRewardPerBlock(uint256 _newReward) public onlyOwner {\n        massUpdatePools();\n        XFITPerBlock = _newReward;\n    }\n\n    function setFundsSplitFactor(uint256 _fundsSplitFactor) public onlyOwner {\n        fundsSplitFactor = _fundsSplitFactor;\n    }\n\n    function setExitFeeFactor(uint256 _newExitFeeFactor) public onlyOwner {\n        exitFeeFactor = _newExitFeeFactor;\n    }\n\n    function withdrawAdminXFIT(uint256 amount) public onlyOwner {\n        XFIT.transfer(msg.sender, amount);\n    }\n}\n",
  "sourcePath": "/Users/ayardi/Work/fetch/xfai-amplify/contracts/xfai.sol",
  "compiler": {
    "name": "solc",
    "version": "0.7.0+commit.9e61f92b.Emscripten.clang"
  },
  "schemaVersion": "3.3.2",
  "updatedAt": "2021-03-17T14:08:50.293Z",
  "networkType": "ethereum",
  "devdoc": {
    "kind": "dev",
    "methods": {
      "owner()": {
        "details": "Returns the address of the current owner."
      },
      "paused()": {
        "details": "Returns true if the contract is paused, and false otherwise."
      },
      "renounceOwnership()": {
        "details": "Leaves the contract without owner. It will not be possible to call `onlyOwner` functions anymore. Can only be called by the current owner. NOTE: Renouncing ownership will leave the contract without an owner, thereby removing any functionality that is only available to the owner."
      },
      "transferOwnership(address)": {
        "details": "Transfers ownership of the contract to a new account (`newOwner`). Can only be called by the current owner."
      }
    },
    "version": 1
  },
  "userdoc": {
    "kind": "user",
    "methods": {},
    "version": 1
  }
}