{
  "contractName": "XFai",
  "abi": [
    {
      "inputs": [
        {
          "internalType": "contract Ixfit",
          "name": "_XFIT",
          "type": "address"
        },
        {
          "internalType": "address",
          "name": "_devaddr",
          "type": "address"
        },
        {
          "internalType": "uint256",
          "name": "_XFITPerBlock",
          "type": "uint256"
        },
        {
          "internalType": "uint256",
          "name": "_startBlock",
          "type": "uint256"
        },
        {
          "internalType": "uint256",
          "name": "_bonusEndBlock",
          "type": "uint256"
        },
        {
          "internalType": "uint256",
          "name": "_xFitThreeshold",
          "type": "uint256"
        },
        {
          "internalType": "uint256",
          "name": "_fundsSplitFactor",
          "type": "uint256"
        }
      ],
      "stateMutability": "nonpayable",
      "type": "constructor"
    },
    {
      "anonymous": false,
      "inputs": [
        {
          "indexed": true,
          "internalType": "address",
          "name": "user",
          "type": "address"
        },
        {
          "indexed": true,
          "internalType": "uint256",
          "name": "pid",
          "type": "uint256"
        },
        {
          "indexed": false,
          "internalType": "uint256",
          "name": "amount",
          "type": "uint256"
        }
      ],
      "name": "Deposit",
      "type": "event"
    },
    {
      "anonymous": false,
      "inputs": [
        {
          "indexed": true,
          "internalType": "address",
          "name": "user",
          "type": "address"
        },
        {
          "indexed": true,
          "internalType": "uint256",
          "name": "pid",
          "type": "uint256"
        },
        {
          "indexed": false,
          "internalType": "uint256",
          "name": "amount",
          "type": "uint256"
        }
      ],
      "name": "EmergencyWithdraw",
      "type": "event"
    },
    {
      "anonymous": false,
      "inputs": [
        {
          "indexed": true,
          "internalType": "address",
          "name": "previousOwner",
          "type": "address"
        },
        {
          "indexed": true,
          "internalType": "address",
          "name": "newOwner",
          "type": "address"
        }
      ],
      "name": "OwnershipTransferred",
      "type": "event"
    },
    {
      "anonymous": false,
      "inputs": [
        {
          "indexed": false,
          "internalType": "address",
          "name": "sender",
          "type": "address"
        },
        {
          "indexed": false,
          "internalType": "address",
          "name": "pool",
          "type": "address"
        },
        {
          "indexed": false,
          "internalType": "address",
          "name": "tokenA",
          "type": "address"
        },
        {
          "indexed": false,
          "internalType": "uint256",
          "name": "amountA",
          "type": "uint256"
        },
        {
          "indexed": false,
          "internalType": "address",
          "name": "tokenB",
          "type": "address"
        },
        {
          "indexed": false,
          "internalType": "uint256",
          "name": "amountB",
          "type": "uint256"
        }
      ],
      "name": "POOL_LIQUIDITY",
      "type": "event"
    },
    {
      "anonymous": false,
      "inputs": [
        {
          "indexed": false,
          "internalType": "address",
          "name": "account",
          "type": "address"
        }
      ],
      "name": "Paused",
      "type": "event"
    },
    {
      "anonymous": false,
      "inputs": [
        {
          "indexed": false,
          "internalType": "address",
          "name": "sender",
          "type": "address"
        },
        {
          "indexed": false,
          "internalType": "address",
          "name": "pool",
          "type": "address"
        },
        {
          "indexed": false,
          "internalType": "address",
          "name": "tokenA",
          "type": "address"
        },
        {
          "indexed": false,
          "internalType": "uint256",
          "name": "amountA",
          "type": "uint256"
        },
        {
          "indexed": false,
          "internalType": "address",
          "name": "tokenB",
          "type": "address"
        },
        {
          "indexed": false,
          "internalType": "uint256",
          "name": "amountB",
          "type": "uint256"
        }
      ],
      "name": "REMOVE_LIQUIDITY",
      "type": "event"
    },
    {
      "anonymous": false,
      "inputs": [
        {
          "indexed": false,
          "internalType": "address",
          "name": "sender",
          "type": "address"
        },
        {
          "indexed": false,
          "internalType": "uint256",
          "name": "amount",
          "type": "uint256"
        },
        {
          "indexed": false,
          "internalType": "address",
          "name": "fromToken",
          "type": "address"
        },
        {
          "indexed": false,
          "internalType": "address",
          "name": "toToken",
          "type": "address"
        }
      ],
      "name": "SWAP_TOKENS",
      "type": "event"
    },
    {
      "anonymous": false,
      "inputs": [
        {
          "indexed": false,
          "internalType": "address",
          "name": "account",
          "type": "address"
        }
      ],
      "name": "Unpaused",
      "type": "event"
    },
    {
      "anonymous": false,
      "inputs": [
        {
          "indexed": true,
          "internalType": "address",
          "name": "user",
          "type": "address"
        },
        {
          "indexed": true,
          "internalType": "uint256",
          "name": "pid",
          "type": "uint256"
        },
        {
          "indexed": false,
          "internalType": "uint256",
          "name": "amount",
          "type": "uint256"
        }
      ],
      "name": "Withdraw",
      "type": "event"
    },
    {
      "inputs": [],
      "name": "BONUS_MULTIPLIER",
      "outputs": [
        {
          "internalType": "uint256",
          "name": "",
          "type": "uint256"
        }
      ],
      "stateMutability": "view",
      "type": "function",
      "constant": true
    },
    {
      "inputs": [],
      "name": "REWARD_FACTOR",
      "outputs": [
        {
          "internalType": "uint256",
          "name": "",
          "type": "uint256"
        }
      ],
      "stateMutability": "view",
      "type": "function",
      "constant": true
    },
    {
      "inputs": [],
      "name": "XFIT",
      "outputs": [
        {
          "internalType": "contract Ixfit",
          "name": "",
          "type": "address"
        }
      ],
      "stateMutability": "view",
      "type": "function",
      "constant": true
    },
    {
      "inputs": [],
      "name": "XFITPerBlock",
      "outputs": [
        {
          "internalType": "uint256",
          "name": "",
          "type": "uint256"
        }
      ],
      "stateMutability": "view",
      "type": "function",
      "constant": true
    },
    {
      "inputs": [
        {
          "internalType": "uint256",
          "name": "_amountIn",
          "type": "uint256"
        },
        {
          "internalType": "address",
          "name": "_FromTokenContractAddress",
          "type": "address"
        },
        {
          "internalType": "address",
          "name": "_pair",
          "type": "address"
        }
      ],
      "name": "_getEstimatedLPTokens",
      "outputs": [
        {
          "internalType": "uint256",
          "name": "estimatedLps",
          "type": "uint256"
        }
      ],
      "stateMutability": "view",
      "type": "function",
      "constant": true
    },
    {
      "inputs": [
        {
          "internalType": "uint256",
          "name": "_xFitThreeshold",
          "type": "uint256"
        }
      ],
      "name": "_setXFitThreeshold",
      "outputs": [],
      "stateMutability": "nonpayable",
      "type": "function"
    },
    {
      "inputs": [],
      "name": "bonusEndBlock",
      "outputs": [
        {
          "internalType": "uint256",
          "name": "",
          "type": "uint256"
        }
      ],
      "stateMutability": "view",
      "type": "function",
      "constant": true
    },
    {
      "inputs": [],
      "name": "devaddr",
      "outputs": [
        {
          "internalType": "address",
          "name": "",
          "type": "address"
        }
      ],
      "stateMutability": "view",
      "type": "function",
      "constant": true
    },
    {
      "inputs": [],
      "name": "fundsSplitFactor",
      "outputs": [
        {
          "internalType": "uint256",
          "name": "",
          "type": "uint256"
        }
      ],
      "stateMutability": "view",
      "type": "function",
      "constant": true
    },
    {
      "inputs": [],
      "name": "owner",
      "outputs": [
        {
          "internalType": "address",
          "name": "",
          "type": "address"
        }
      ],
      "stateMutability": "view",
      "type": "function",
      "constant": true
    },
    {
      "inputs": [],
      "name": "paused",
      "outputs": [
        {
          "internalType": "bool",
          "name": "",
          "type": "bool"
        }
      ],
      "stateMutability": "view",
      "type": "function",
      "constant": true
    },
    {
      "inputs": [
        {
          "internalType": "uint256",
          "name": "",
          "type": "uint256"
        }
      ],
      "name": "poolInfo",
      "outputs": [
        {
          "internalType": "contract IERC20",
          "name": "lpToken",
          "type": "address"
        },
        {
          "internalType": "contract IERC20",
          "name": "inputToken",
          "type": "address"
        },
        {
          "internalType": "contract IXPriceOracle",
          "name": "xPoolOracle",
          "type": "address"
        },
        {
          "internalType": "uint256",
          "name": "allocPoint",
          "type": "uint256"
        },
        {
          "internalType": "uint256",
          "name": "lastRewardBlock",
          "type": "uint256"
        },
        {
          "internalType": "uint256",
          "name": "accXFITPerShare",
          "type": "uint256"
        }
      ],
      "stateMutability": "view",
      "type": "function",
      "constant": true
    },
    {
      "inputs": [],
      "name": "renounceOwnership",
      "outputs": [],
      "stateMutability": "nonpayable",
      "type": "function"
    },
    {
      "inputs": [
        {
          "internalType": "uint256",
          "name": "_fundsSplitFactor",
          "type": "uint256"
        }
      ],
      "name": "setFundsSplitFactor",
      "outputs": [],
      "stateMutability": "nonpayable",
      "type": "function"
    },
    {
      "inputs": [],
      "name": "startBlock",
      "outputs": [
        {
          "internalType": "uint256",
          "name": "",
          "type": "uint256"
        }
      ],
      "stateMutability": "view",
      "type": "function",
      "constant": true
    },
    {
      "inputs": [],
      "name": "totalAllocPoint",
      "outputs": [
        {
          "internalType": "uint256",
          "name": "",
          "type": "uint256"
        }
      ],
      "stateMutability": "view",
      "type": "function",
      "constant": true
    },
    {
      "inputs": [],
      "name": "totalRaised",
      "outputs": [
        {
          "internalType": "uint256",
          "name": "",
          "type": "uint256"
        }
      ],
      "stateMutability": "view",
      "type": "function",
      "constant": true
    },
    {
      "inputs": [
        {
          "internalType": "address",
          "name": "newOwner",
          "type": "address"
        }
      ],
      "name": "transferOwnership",
      "outputs": [],
      "stateMutability": "nonpayable",
      "type": "function"
    },
    {
      "inputs": [
        {
          "internalType": "uint256",
          "name": "",
          "type": "uint256"
        }
      ],
      "name": "userAddresses",
      "outputs": [
        {
          "internalType": "address",
          "name": "",
          "type": "address"
        }
      ],
      "stateMutability": "view",
      "type": "function",
      "constant": true
    },
    {
      "inputs": [
        {
          "internalType": "uint256",
          "name": "",
          "type": "uint256"
        },
        {
          "internalType": "address",
          "name": "",
          "type": "address"
        }
      ],
      "name": "userInfo",
      "outputs": [
        {
          "internalType": "uint256",
          "name": "amount",
          "type": "uint256"
        },
        {
          "internalType": "uint256",
          "name": "rewardDebt",
          "type": "uint256"
        },
        {
          "internalType": "bool",
          "name": "enrolled",
          "type": "bool"
        },
        {
          "internalType": "uint256",
          "name": "lastDepositedBlock",
          "type": "uint256"
        }
      ],
      "stateMutability": "view",
      "type": "function",
      "constant": true
    },
    {
      "inputs": [],
      "name": "poolLength",
      "outputs": [
        {
          "internalType": "uint256",
          "name": "",
          "type": "uint256"
        }
      ],
      "stateMutability": "view",
      "type": "function",
      "constant": true
    },
    {
      "inputs": [],
      "name": "userAddressesLength",
      "outputs": [
        {
          "internalType": "uint256",
          "name": "",
          "type": "uint256"
        }
      ],
      "stateMutability": "view",
      "type": "function",
      "constant": true
    },
    {
      "inputs": [
        {
          "internalType": "contract IERC20",
          "name": "_lpToken",
          "type": "address"
        },
        {
          "internalType": "contract IERC20",
          "name": "_inputToken",
          "type": "address"
        },
        {
          "internalType": "contract IXPriceOracle",
          "name": "_xPoolOracle",
          "type": "address"
        },
        {
          "internalType": "bool",
          "name": "_withUpdate",
          "type": "bool"
        }
      ],
      "name": "add",
      "outputs": [],
      "stateMutability": "nonpayable",
      "type": "function"
    },
    {
      "inputs": [
        {
          "internalType": "uint256",
          "name": "_pid",
          "type": "uint256"
        },
        {
          "internalType": "uint256",
          "name": "_allocPoint",
          "type": "uint256"
        },
        {
          "internalType": "bool",
          "name": "_withUpdate",
          "type": "bool"
        }
      ],
      "name": "set",
      "outputs": [],
      "stateMutability": "nonpayable",
      "type": "function"
    },
    {
      "inputs": [
        {
          "internalType": "uint256",
          "name": "_from",
          "type": "uint256"
        },
        {
          "internalType": "uint256",
          "name": "_to",
          "type": "uint256"
        }
      ],
      "name": "getMultiplier",
      "outputs": [
        {
          "internalType": "uint256",
          "name": "",
          "type": "uint256"
        }
      ],
      "stateMutability": "view",
      "type": "function",
      "constant": true
    },
    {
      "inputs": [
        {
          "internalType": "uint256",
          "name": "_pid",
          "type": "uint256"
        },
        {
          "internalType": "address",
          "name": "_user",
          "type": "address"
        }
      ],
      "name": "pendingXFIT",
      "outputs": [
        {
          "internalType": "uint256",
          "name": "",
          "type": "uint256"
        }
      ],
      "stateMutability": "view",
      "type": "function",
      "constant": true
    },
    {
      "inputs": [],
      "name": "massUpdatePools",
      "outputs": [],
      "stateMutability": "nonpayable",
      "type": "function"
    },
    {
      "inputs": [
        {
          "internalType": "uint256",
          "name": "_pid",
          "type": "uint256"
        }
      ],
      "name": "updatePool",
      "outputs": [],
      "stateMutability": "nonpayable",
      "type": "function"
    },
    {
      "inputs": [
        {
          "internalType": "uint256",
          "name": "_pid",
          "type": "uint256"
        },
        {
          "internalType": "uint256",
          "name": "_amount",
          "type": "uint256"
        },
        {
          "internalType": "uint256",
          "name": "_minPoolTokens",
          "type": "uint256"
        }
      ],
      "name": "depositLPWithToken",
      "outputs": [],
      "stateMutability": "payable",
      "type": "function",
      "payable": true
    },
    {
      "inputs": [
        {
          "internalType": "uint256",
          "name": "_pid",
          "type": "uint256"
        },
        {
          "internalType": "uint256",
          "name": "_amount",
          "type": "uint256"
        }
      ],
      "name": "depositLP",
      "outputs": [],
      "stateMutability": "nonpayable",
      "type": "function"
    },
    {
      "inputs": [
        {
          "internalType": "uint256",
          "name": "_pid",
          "type": "uint256"
        },
        {
          "internalType": "uint256",
          "name": "_amount",
          "type": "uint256"
        }
      ],
      "name": "withdrawLPWithToken",
      "outputs": [],
      "stateMutability": "nonpayable",
      "type": "function"
    },
    {
      "inputs": [
        {
          "internalType": "uint256",
          "name": "_pid",
          "type": "uint256"
        },
        {
          "internalType": "uint256",
          "name": "_amount",
          "type": "uint256"
        }
      ],
      "name": "withdrawLP",
      "outputs": [],
      "stateMutability": "nonpayable",
      "type": "function"
    },
    {
      "inputs": [
        {
          "internalType": "uint256",
          "name": "_pid",
          "type": "uint256"
        }
      ],
      "name": "emergencyWithdraw",
      "outputs": [],
      "stateMutability": "nonpayable",
      "type": "function"
    },
    {
      "inputs": [
        {
          "internalType": "address",
          "name": "_devaddr",
          "type": "address"
        }
      ],
      "name": "dev",
      "outputs": [],
      "stateMutability": "nonpayable",
      "type": "function"
    },
    {
      "inputs": [
        {
          "internalType": "uint256",
          "name": "_pid",
          "type": "uint256"
        },
        {
          "internalType": "contract IXPriceOracle",
          "name": "_xPoolOracle",
          "type": "address"
        }
      ],
      "name": "setPriceOracle",
      "outputs": [],
      "stateMutability": "nonpayable",
      "type": "function"
    },
    {
      "inputs": [],
      "name": "pauseDistribution",
      "outputs": [],
      "stateMutability": "nonpayable",
      "type": "function"
    },
    {
      "inputs": [],
      "name": "resumeDistribution",
      "outputs": [],
      "stateMutability": "nonpayable",
      "type": "function"
    },
    {
      "inputs": [
        {
          "internalType": "uint256",
          "name": "_newReward",
          "type": "uint256"
        }
      ],
      "name": "setXFITRewardPerBlock",
      "outputs": [],
      "stateMutability": "nonpayable",
      "type": "function"
    },
    {
      "inputs": [
        {
          "internalType": "uint256",
          "name": "amount",
          "type": "uint256"
        }
      ],
      "name": "withdrawAdminXFIT",
      "outputs": [],
      "stateMutability": "nonpayable",
      "type": "function"
    },
    {
      "inputs": [
        {
          "internalType": "uint256",
          "name": "_pid",
          "type": "uint256"
        },
        {
          "internalType": "uint256",
          "name": "_amount",
          "type": "uint256"
        }
      ],
      "name": "withdrawAdminFunding",
      "outputs": [],
      "stateMutability": "nonpayable",
      "type": "function"
    }
  ],
  "bytecode": "0x60806040526000600e553480156200001657600080fd5b5060405162005f0738038062005f07833981810160405260e08110156200003c57600080fd5b8101908080519060200190929190805190602001909291908051906020019092919080519060200190929190805190602001909291908051906020019092919080519060200190929190505050818160016000819055506000620000a56200021360201b60201c565b905080600160006101000a81548173ffffffffffffffffffffffffffffffffffffffff021916908373ffffffffffffffffffffffffffffffffffffffff1602179055508073ffffffffffffffffffffffffffffffffffffffff16600073ffffffffffffffffffffffffffffffffffffffff167f8be0079c531659141344cd1fd0a4f28419497f9722a3daafe3b4186f6b6457e060405160405180910390a350816003819055508060048190555050506000600560006101000a81548160ff02191690831515021790555086600760006101000a81548173ffffffffffffffffffffffffffffffffffffffff021916908373ffffffffffffffffffffffffffffffffffffffff16021790555085600860006101000a81548173ffffffffffffffffffffffffffffffffffffffff021916908373ffffffffffffffffffffffffffffffffffffffff16021790555084600a819055508260098190555083600f81905550505050505050506200021b565b600033905090565b615cdc806200022b6000396000f3fe60806040526004361061023b5760003560e01c806364482f791161012e57806395c64a3b116100ab578063c5c4744c1161006f578063c5c4744c14610b3e578063d49e77cd14610b69578063e00b2f8414610baa578063e3c947c914610c47578063f2fde38b14610c825761023b565b806395c64a3b146109c3578063b47ab19e14610a04578063b7c69cb714610a5f578063b97d0b8214610ace578063bfe50f7214610af95761023b565b80638d88a90e116100f25780638d88a90e1461080d5780638da5cb5b1461085e5780638dbb1e3a1461089f57806391918d64146108f857806393f1a40b1461093d5761023b565b806364482f79146106b0578063715018a614610701578063739d58c014610718578063782719bf146107535780638aa28550146107e25761023b565b806331cec7a3116101bc57806351eb05a61161018057806351eb05a6146105b45780635312ea8e146105ef5780635b395fdc1461062a5780635c975abb1461066c578063630b5ba1146106995761023b565b806331cec7a3146104a75780633eaf0098146104be57806348cd4cb1146104f95780634c046eb514610524578063502c9bd51461054f5761023b565b806317caf6f11161020357806317caf6f1146103b657806318369be1146103e15780631aed65531461040c5780632b782ebd146104375780632b8c74ff146104625761023b565b8063081e3eda146102405780630ae108331461026b578063127f5b2b146102b057806313267805146102eb5780631526fe2714610302575b600080fd5b34801561024c57600080fd5b50610255610cd3565b6040518082815260200191505060405180910390f35b34801561027757600080fd5b506102ae6004803603604081101561028e57600080fd5b810190808035906020019092919080359060200190929190505050610ce0565b005b3480156102bc57600080fd5b506102e9600480360360208110156102d357600080fd5b8101908080359060200190929190505050610f13565b005b3480156102f757600080fd5b50610300610fcc565b005b34801561030e57600080fd5b5061033b6004803603602081101561032557600080fd5b8101908080359060200190929190505050611085565b604051808773ffffffffffffffffffffffffffffffffffffffff1681526020018673ffffffffffffffffffffffffffffffffffffffff1681526020018573ffffffffffffffffffffffffffffffffffffffff168152602001848152602001838152602001828152602001965050505050505060405180910390f35b3480156103c257600080fd5b506103cb61112e565b6040518082815260200191505060405180910390f35b3480156103ed57600080fd5b506103f6611134565b6040518082815260200191505060405180910390f35b34801561041857600080fd5b50610421611139565b6040518082815260200191505060405180910390f35b34801561044357600080fd5b5061044c61113f565b6040518082815260200191505060405180910390f35b34801561046e57600080fd5b506104a56004803603604081101561048557600080fd5b810190808035906020019092919080359060200190929190505050611145565b005b3480156104b357600080fd5b506104bc6111b3565b005b3480156104ca57600080fd5b506104f7600480360360208110156104e157600080fd5b810190808035906020019092919050505061126c565b005b34801561050557600080fd5b5061050e611325565b6040518082815260200191505060405180910390f35b34801561053057600080fd5b5061053961132b565b6040518082815260200191505060405180910390f35b34801561055b57600080fd5b506105886004803603602081101561057257600080fd5b8101908080359060200190929190505050611331565b604051808273ffffffffffffffffffffffffffffffffffffffff16815260200191505060405180910390f35b3480156105c057600080fd5b506105ed600480360360208110156105d757600080fd5b810190808035906020019092919050505061136d565b005b3480156105fb57600080fd5b506106286004803603602081101561061257600080fd5b8101908080359060200190929190505050611673565b005b61066a6004803603606081101561064057600080fd5b810190808035906020019092919080359060200190929190803590602001909291905050506117a7565b005b34801561067857600080fd5b5061068161194f565b60405180821515815260200191505060405180910390f35b3480156106a557600080fd5b506106ae611966565b005b3480156106bc57600080fd5b506106ff600480360360608110156106d357600080fd5b810190808035906020019092919080359060200190929190803515159060200190929190505050611993565b005b34801561070d57600080fd5b50610716611ac4565b005b34801561072457600080fd5b506107516004803603602081101561073b57600080fd5b8101908080359060200190929190505050611c34565b005b34801561075f57600080fd5b506107cc6004803603606081101561077657600080fd5b8101908080359060200190929190803573ffffffffffffffffffffffffffffffffffffffff169060200190929190803573ffffffffffffffffffffffffffffffffffffffff169060200190929190505050611cf5565b6040518082815260200191505060405180910390f35b3480156107ee57600080fd5b506107f7611fce565b6040518082815260200191505060405180910390f35b34801561081957600080fd5b5061085c6004803603602081101561083057600080fd5b81019080803573ffffffffffffffffffffffffffffffffffffffff169060200190929190505050611fd3565b005b34801561086a57600080fd5b506108736120c6565b604051808273ffffffffffffffffffffffffffffffffffffffff16815260200191505060405180910390f35b3480156108ab57600080fd5b506108e2600480360360408110156108c257600080fd5b8101908080359060200190929190803590602001909291905050506120f0565b6040518082815260200191505060405180910390f35b34801561090457600080fd5b5061093b6004803603604081101561091b57600080fd5b8101908080359060200190929190803590602001909291905050506121a2565b005b34801561094957600080fd5b506109966004803603604081101561096057600080fd5b8101908080359060200190929190803573ffffffffffffffffffffffffffffffffffffffff169060200190929190505050612237565b60405180858152602001848152602001831515815260200182815260200194505050505060405180910390f35b3480156109cf57600080fd5b506109d8612281565b604051808273ffffffffffffffffffffffffffffffffffffffff16815260200191505060405180910390f35b348015610a1057600080fd5b50610a5d60048036036040811015610a2757600080fd5b8101908080359060200190929190803573ffffffffffffffffffffffffffffffffffffffff1690602001909291905050506122a7565b005b348015610a6b57600080fd5b50610ab860048036036040811015610a8257600080fd5b8101908080359060200190929190803573ffffffffffffffffffffffffffffffffffffffff1690602001909291905050506123bd565b6040518082815260200191505060405180910390f35b348015610ada57600080fd5b50610ae3612603565b6040518082815260200191505060405180910390f35b348015610b0557600080fd5b50610b3c60048036036040811015610b1c57600080fd5b810190808035906020019092919080359060200190929190505050612610565b005b348015610b4a57600080fd5b50610b536126a4565b6040518082815260200191505060405180910390f35b348015610b7557600080fd5b50610b7e6126aa565b604051808273ffffffffffffffffffffffffffffffffffffffff16815260200191505060405180910390f35b348015610bb657600080fd5b50610c4560048036036080811015610bcd57600080fd5b81019080803573ffffffffffffffffffffffffffffffffffffffff169060200190929190803573ffffffffffffffffffffffffffffffffffffffff169060200190929190803573ffffffffffffffffffffffffffffffffffffffff1690602001909291908035151590602001909291905050506126d0565b005b348015610c5357600080fd5b50610c8060048036036020811015610c6a57600080fd5b810190808035906020019092919050505061293d565b005b348015610c8e57600080fd5b50610cd160048036036020811015610ca557600080fd5b81019080803573ffffffffffffffffffffffffffffffffffffffff169060200190929190505050612abe565b005b6000600c80549050905090565b610ce8612cb3565b73ffffffffffffffffffffffffffffffffffffffff16610d066120c6565b73ffffffffffffffffffffffffffffffffffffffff1614610d8f576040517f08c379a00000000000000000000000000000000000000000000000000000000081526004018080602001828103825260208152602001807f4f776e61626c653a2063616c6c6572206973206e6f7420746865206f776e657281525060200191505060405180910390fd5b610d97615acd565b600c8381548110610da457fe5b90600052602060002090600602016040518060c00160405290816000820160009054906101000a900473ffffffffffffffffffffffffffffffffffffffff1673ffffffffffffffffffffffffffffffffffffffff1673ffffffffffffffffffffffffffffffffffffffff1681526020016001820160009054906101000a900473ffffffffffffffffffffffffffffffffffffffff1673ffffffffffffffffffffffffffffffffffffffff1673ffffffffffffffffffffffffffffffffffffffff1681526020016002820160009054906101000a900473ffffffffffffffffffffffffffffffffffffffff1673ffffffffffffffffffffffffffffffffffffffff1673ffffffffffffffffffffffffffffffffffffffff16815260200160038201548152602001600482015481526020016005820154815250509050610f0e3383836020015173ffffffffffffffffffffffffffffffffffffffff16612cbb9092919063ffffffff16565b505050565b610f1b612cb3565b73ffffffffffffffffffffffffffffffffffffffff16610f396120c6565b73ffffffffffffffffffffffffffffffffffffffff1614610fc2576040517f08c379a00000000000000000000000000000000000000000000000000000000081526004018080602001828103825260208152602001807f4f776e61626c653a2063616c6c6572206973206e6f7420746865206f776e657281525060200191505060405180910390fd5b8060048190555050565b610fd4612cb3565b73ffffffffffffffffffffffffffffffffffffffff16610ff26120c6565b73ffffffffffffffffffffffffffffffffffffffff161461107b576040517f08c379a00000000000000000000000000000000000000000000000000000000081526004018080602001828103825260208152602001807f4f776e61626c653a2063616c6c6572206973206e6f7420746865206f776e657281525060200191505060405180910390fd5b611083612d5d565b565b600c818154811061109257fe5b90600052602060002090600602016000915090508060000160009054906101000a900473ffffffffffffffffffffffffffffffffffffffff16908060010160009054906101000a900473ffffffffffffffffffffffffffffffffffffffff16908060020160009054906101000a900473ffffffffffffffffffffffffffffffffffffffff16908060030154908060040154908060050154905086565b600e5481565b600a81565b60095481565b600a5481565b61114e8261136d565b600061115c83836000612e48565b90506000600c848154811061116d57fe5b906000526020600020906006020190506111ab8160000160009054906101000a900473ffffffffffffffffffffffffffffffffffffffff168361313d565b505050505050565b6111bb612cb3565b73ffffffffffffffffffffffffffffffffffffffff166111d96120c6565b73ffffffffffffffffffffffffffffffffffffffff1614611262576040517f08c379a00000000000000000000000000000000000000000000000000000000081526004018080602001828103825260208152602001807f4f776e61626c653a2063616c6c6572206973206e6f7420746865206f776e657281525060200191505060405180910390fd5b61126a61386b565b565b611274612cb3565b73ffffffffffffffffffffffffffffffffffffffff166112926120c6565b73ffffffffffffffffffffffffffffffffffffffff161461131b576040517f08c379a00000000000000000000000000000000000000000000000000000000081526004018080602001828103825260208152602001807f4f776e61626c653a2063616c6c6572206973206e6f7420746865206f776e657281525060200191505060405180910390fd5b8060038190555050565b600f5481565b60045481565b6006818154811061133e57fe5b906000526020600020016000915054906101000a900473ffffffffffffffffffffffffffffffffffffffff1681565b6000600c828154811061137c57fe5b906000526020600020906006020190508060040154431161139d5750611670565b60008160000160009054906101000a900473ffffffffffffffffffffffffffffffffffffffff1673ffffffffffffffffffffffffffffffffffffffff166370a08231306040518263ffffffff1660e01b8152600401808273ffffffffffffffffffffffffffffffffffffffff16815260200191505060206040518083038186803b15801561142a57600080fd5b505afa15801561143e573d6000803e3d6000fd5b505050506040513d602081101561145457600080fd5b810190808051906020019092919050505090506000811415611480574382600401819055505050611670565b6000600b5411156114c1576114c0836114b9600b546114ab620f42408661395790919063ffffffff16565b6139dd90919063ffffffff16565b6000611993565b5b60006114d18360040154436120f0565b90506000611514600e5461150686600301546114f8600a548761395790919063ffffffff16565b61395790919063ffffffff16565b6139dd90919063ffffffff16565b9050600760009054906101000a900473ffffffffffffffffffffffffffffffffffffffff1673ffffffffffffffffffffffffffffffffffffffff1663a9059cbb600860009054906101000a900473ffffffffffffffffffffffffffffffffffffffff1661158b600a856139dd90919063ffffffff16565b6040518363ffffffff1660e01b8152600401808373ffffffffffffffffffffffffffffffffffffffff16815260200182815260200192505050602060405180830381600087803b1580156115de57600080fd5b505af11580156115f2573d6000803e3d6000fd5b505050506040513d602081101561160857600080fd5b81019080805190602001909291905050505061165a6116478461163964e8d4a510008561395790919063ffffffff16565b6139dd90919063ffffffff16565b8560050154613a6690919063ffffffff16565b8460050181905550438460040181905550505050505b50565b6000600c828154811061168257fe5b906000526020600020906006020190506000600d600084815260200190815260200160002060003373ffffffffffffffffffffffffffffffffffffffff1673ffffffffffffffffffffffffffffffffffffffff1681526020019081526020016000209050600081600001549050600082600001819055506000826001018190555061175233828560000160009054906101000a900473ffffffffffffffffffffffffffffffffffffffff1673ffffffffffffffffffffffffffffffffffffffff16612cbb9092919063ffffffff16565b833373ffffffffffffffffffffffffffffffffffffffff167fbb757047c2b5f3974fe26b7c10f732e7bce710b0952a71082702781e62ae0595836040518082815260200191505060405180910390a350505050565b6117af61194f565b15611822576040517f08c379a00000000000000000000000000000000000000000000000000000000081526004018080602001828103825260108152602001807f5061757361626c653a207061757365640000000000000000000000000000000081525060200191505060405180910390fd5b6000600c848154811061183157fe5b9060005260206000209060060201905061184a8461136d565b6000806118c68360010160009054906101000a900473ffffffffffffffffffffffffffffffffffffffff168460000160009054906101000a900473ffffffffffffffffffffffffffffffffffffffff168560020160009054906101000a900473ffffffffffffffffffffffffffffffffffffffff168888613aee565b9150915061193b600860009054906101000a900473ffffffffffffffffffffffffffffffffffffffff16828560010160009054906101000a900473ffffffffffffffffffffffffffffffffffffffff1673ffffffffffffffffffffffffffffffffffffffff16612cbb9092919063ffffffff16565b61194786836000613cea565b505050505050565b6000600560009054906101000a900460ff16905090565b6000600c80549050905060005b8181101561198f576119848161136d565b806001019050611973565b5050565b61199b612cb3565b73ffffffffffffffffffffffffffffffffffffffff166119b96120c6565b73ffffffffffffffffffffffffffffffffffffffff1614611a42576040517f08c379a00000000000000000000000000000000000000000000000000000000081526004018080602001828103825260208152602001807f4f776e61626c653a2063616c6c6572206973206e6f7420746865206f776e657281525060200191505060405180910390fd5b8015611a5157611a50611966565b5b611a9682611a88600c8681548110611a6557fe5b906000526020600020906006020160030154600e54613f9e90919063ffffffff16565b613a6690919063ffffffff16565b600e8190555081600c8481548110611aaa57fe5b906000526020600020906006020160030181905550505050565b611acc612cb3565b73ffffffffffffffffffffffffffffffffffffffff16611aea6120c6565b73ffffffffffffffffffffffffffffffffffffffff1614611b73576040517f08c379a00000000000000000000000000000000000000000000000000000000081526004018080602001828103825260208152602001807f4f776e61626c653a2063616c6c6572206973206e6f7420746865206f776e657281525060200191505060405180910390fd5b600073ffffffffffffffffffffffffffffffffffffffff16600160009054906101000a900473ffffffffffffffffffffffffffffffffffffffff1673ffffffffffffffffffffffffffffffffffffffff167f8be0079c531659141344cd1fd0a4f28419497f9722a3daafe3b4186f6b6457e060405160405180910390a36000600160006101000a81548173ffffffffffffffffffffffffffffffffffffffff021916908373ffffffffffffffffffffffffffffffffffffffff160217905550565b611c3c612cb3565b73ffffffffffffffffffffffffffffffffffffffff16611c5a6120c6565b73ffffffffffffffffffffffffffffffffffffffff1614611ce3576040517f08c379a00000000000000000000000000000000000000000000000000000000081526004018080602001828103825260208152602001807f4f776e61626c653a2063616c6c6572206973206e6f7420746865206f776e657281525060200191505060405180910390fd5b611ceb611966565b80600a8190555050565b60008060008373ffffffffffffffffffffffffffffffffffffffff16630902f1ac6040518163ffffffff1660e01b815260040160606040518083038186803b158015611d4057600080fd5b505afa158015611d54573d6000803e3d6000fd5b505050506040513d6060811015611d6a57600080fd5b81019080805190602001909291908051906020019092919080519060200190929190505050506dffffffffffffffffffffffffffff1691506dffffffffffffffffffffffffffff169150600080611dc086614021565b915091508173ffffffffffffffffffffffffffffffffffffffff168773ffffffffffffffffffffffffffffffffffffffff161415611ec5576000611e04858a614135565b9050611ebd85611eaf8973ffffffffffffffffffffffffffffffffffffffff166318160ddd6040518163ffffffff1660e01b815260040160206040518083038186803b158015611e5357600080fd5b505afa158015611e67573d6000803e3d6000fd5b505050506040513d6020811015611e7d57600080fd5b8101908080519060200190929190505050611ea1858e613f9e90919063ffffffff16565b61395790919063ffffffff16565b6139dd90919063ffffffff16565b955050611fc3565b8073ffffffffffffffffffffffffffffffffffffffff168773ffffffffffffffffffffffffffffffffffffffff161415611fc2576000611f05848a614135565b9050611fbe84611fb08973ffffffffffffffffffffffffffffffffffffffff166318160ddd6040518163ffffffff1660e01b815260040160206040518083038186803b158015611f5457600080fd5b505afa158015611f68573d6000803e3d6000fd5b505050506040513d6020811015611f7e57600080fd5b8101908080519060200190929190505050611fa2858e613f9e90919063ffffffff16565b61395790919063ffffffff16565b6139dd90919063ffffffff16565b9550505b5b505050509392505050565b600281565b611fdb612cb3565b73ffffffffffffffffffffffffffffffffffffffff16611ff96120c6565b73ffffffffffffffffffffffffffffffffffffffff1614612082576040517f08c379a00000000000000000000000000000000000000000000000000000000081526004018080602001828103825260208152602001807f4f776e61626c653a2063616c6c6572206973206e6f7420746865206f776e657281525060200191505060405180910390fd5b80600860006101000a81548173ffffffffffffffffffffffffffffffffffffffff021916908373ffffffffffffffffffffffffffffffffffffffff16021790555050565b6000600160009054906101000a900473ffffffffffffffffffffffffffffffffffffffff16905090565b600060095482116121285761212160026121138585613f9e90919063ffffffff16565b61395790919063ffffffff16565b905061219c565b600954831061214b576121448383613f9e90919063ffffffff16565b905061219c565b61219961216360095484613f9e90919063ffffffff16565b61218b600261217d87600954613f9e90919063ffffffff16565b61395790919063ffffffff16565b613a6690919063ffffffff16565b90505b92915050565b6121aa61194f565b1561221d576040517f08c379a00000000000000000000000000000000000000000000000000000000081526004018080602001828103825260108152602001807f5061757361626c653a207061757365640000000000000000000000000000000081525060200191505060405180910390fd5b6122268261136d565b61223282826001612e48565b505050565b600d602052816000526040600020602052806000526040600020600091509150508060000154908060010154908060020160009054906101000a900460ff16908060030154905084565b600760009054906101000a900473ffffffffffffffffffffffffffffffffffffffff1681565b6122af612cb3565b73ffffffffffffffffffffffffffffffffffffffff166122cd6120c6565b73ffffffffffffffffffffffffffffffffffffffff1614612356576040517f08c379a00000000000000000000000000000000000000000000000000000000081526004018080602001828103825260208152602001807f4f776e61626c653a2063616c6c6572206973206e6f7420746865206f776e657281525060200191505060405180910390fd5b6000600c838154811061236557fe5b90600052602060002090600602019050818160020160006101000a81548173ffffffffffffffffffffffffffffffffffffffff021916908373ffffffffffffffffffffffffffffffffffffffff160217905550505050565b600080600c84815481106123cd57fe5b906000526020600020906006020190506000600d600086815260200190815260200160002060008573ffffffffffffffffffffffffffffffffffffffff1673ffffffffffffffffffffffffffffffffffffffff168152602001908152602001600020905060008260050154905060008360000160009054906101000a900473ffffffffffffffffffffffffffffffffffffffff1673ffffffffffffffffffffffffffffffffffffffff166370a08231306040518263ffffffff1660e01b8152600401808273ffffffffffffffffffffffffffffffffffffffff16815260200191505060206040518083038186803b1580156124c757600080fd5b505afa1580156124db573d6000803e3d6000fd5b505050506040513d60208110156124f157600080fd5b81019080805190602001909291905050509050836004015443118015612518575060008114155b156125b357600061252d8560040154436120f0565b90506000612570600e546125628860030154612554600a548761395790919063ffffffff16565b61395790919063ffffffff16565b6139dd90919063ffffffff16565b90506125ae61259f8461259164e8d4a510008561395790919063ffffffff16565b6139dd90919063ffffffff16565b85613a6690919063ffffffff16565b935050505b6125f783600101546125e964e8d4a510006125db86886000015461395790919063ffffffff16565b6139dd90919063ffffffff16565b613f9e90919063ffffffff16565b94505050505092915050565b6000600680549050905090565b61261861194f565b1561268b576040517f08c379a00000000000000000000000000000000000000000000000000000000081526004018080602001828103825260108152602001807f5061757361626c653a207061757365640000000000000000000000000000000081525060200191505060405180910390fd5b6126948261136d565b6126a082826001613cea565b5050565b60025481565b600860009054906101000a900473ffffffffffffffffffffffffffffffffffffffff1681565b6126d8612cb3565b73ffffffffffffffffffffffffffffffffffffffff166126f66120c6565b73ffffffffffffffffffffffffffffffffffffffff161461277f576040517f08c379a00000000000000000000000000000000000000000000000000000000081526004018080602001828103825260208152602001807f4f776e61626c653a2063616c6c6572206973206e6f7420746865206f776e657281525060200191505060405180910390fd5b801561278e5761278d611966565b5b6000600f5443116127a157600f546127a3565b435b9050600c6040518060c001604052808773ffffffffffffffffffffffffffffffffffffffff1681526020018673ffffffffffffffffffffffffffffffffffffffff1681526020018573ffffffffffffffffffffffffffffffffffffffff168152602001600081526020018381526020016000815250908060018154018082558091505060019003906000526020600020906006020160009091909190915060008201518160000160006101000a81548173ffffffffffffffffffffffffffffffffffffffff021916908373ffffffffffffffffffffffffffffffffffffffff16021790555060208201518160010160006101000a81548173ffffffffffffffffffffffffffffffffffffffff021916908373ffffffffffffffffffffffffffffffffffffffff16021790555060408201518160020160006101000a81548173ffffffffffffffffffffffffffffffffffffffff021916908373ffffffffffffffffffffffffffffffffffffffff160217905550606082015181600301556080820151816004015560a0820151816005015550505050505050565b612945612cb3565b73ffffffffffffffffffffffffffffffffffffffff166129636120c6565b73ffffffffffffffffffffffffffffffffffffffff16146129ec576040517f08c379a00000000000000000000000000000000000000000000000000000000081526004018080602001828103825260208152602001807f4f776e61626c653a2063616c6c6572206973206e6f7420746865206f776e657281525060200191505060405180910390fd5b600760009054906101000a900473ffffffffffffffffffffffffffffffffffffffff1673ffffffffffffffffffffffffffffffffffffffff1663a9059cbb33836040518363ffffffff1660e01b8152600401808373ffffffffffffffffffffffffffffffffffffffff16815260200182815260200192505050602060405180830381600087803b158015612a7f57600080fd5b505af1158015612a93573d6000803e3d6000fd5b505050506040513d6020811015612aa957600080fd5b81019080805190602001909291905050505050565b612ac6612cb3565b73ffffffffffffffffffffffffffffffffffffffff16612ae46120c6565b73ffffffffffffffffffffffffffffffffffffffff1614612b6d576040517f08c379a00000000000000000000000000000000000000000000000000000000081526004018080602001828103825260208152602001807f4f776e61626c653a2063616c6c6572206973206e6f7420746865206f776e657281525060200191505060405180910390fd5b600073ffffffffffffffffffffffffffffffffffffffff168173ffffffffffffffffffffffffffffffffffffffff161415612bf3576040517f08c379a0000000000000000000000000000000000000000000000000000000008152600401808060200182810382526026815260200180615b756026913960400191505060405180910390fd5b8073ffffffffffffffffffffffffffffffffffffffff16600160009054906101000a900473ffffffffffffffffffffffffffffffffffffffff1673ffffffffffffffffffffffffffffffffffffffff167f8be0079c531659141344cd1fd0a4f28419497f9722a3daafe3b4186f6b6457e060405160405180910390a380600160006101000a81548173ffffffffffffffffffffffffffffffffffffffff021916908373ffffffffffffffffffffffffffffffffffffffff16021790555050565b600033905090565b612d588363a9059cbb60e01b8484604051602401808373ffffffffffffffffffffffffffffffffffffffff16815260200182815260200192505050604051602081830303815290604052907bffffffffffffffffffffffffffffffffffffffffffffffffffffffff19166020820180517bffffffffffffffffffffffffffffffffffffffffffffffffffffffff83818316178352505050506141b7565b505050565b612d6561194f565b612dd7576040517f08c379a00000000000000000000000000000000000000000000000000000000081526004018080602001828103825260148152602001807f5061757361626c653a206e6f742070617573656400000000000000000000000081525060200191505060405180910390fd5b6000600560006101000a81548160ff0219169083151502179055507f5db9ee0a495bf2e6ff9c91a7834c1ba4fdd244a5e8aa4e537bd38aeae4b073aa612e1b612cb3565b604051808273ffffffffffffffffffffffffffffffffffffffff16815260200191505060405180910390a1565b600080600c8581548110612e5857fe5b906000526020600020906006020190506000600d600087815260200190815260200160002060003373ffffffffffffffffffffffffffffffffffffffff1673ffffffffffffffffffffffffffffffffffffffff1681526020019081526020016000209050612ed4600a8260030154613a6690919063ffffffff16565b431015612f2c576040517f08c379a000000000000000000000000000000000000000000000000000000000815260040180806020018281038252602b815260200180615c7c602b913960400191505060405180910390fd5b8481600001541015612fa6576040517f08c379a00000000000000000000000000000000000000000000000000000000081526004018080602001828103825260128152602001807f77697468647261773a206e6f7420676f6f64000000000000000000000000000081525060200191505060405180910390fd5b6000612ff08260010154612fe264e8d4a51000612fd48760050154876000015461395790919063ffffffff16565b6139dd90919063ffffffff16565b613f9e90919063ffffffff16565b905060008111156130065761300533826142a6565b5b600086111561308c57613026868360000154613f9e90919063ffffffff16565b826000018190555060011515851515141561308b5761308a33878560000160009054906101000a900473ffffffffffffffffffffffffffffffffffffffff1673ffffffffffffffffffffffffffffffffffffffff16612cbb9092919063ffffffff16565b5b5b6130a186600b54613f9e90919063ffffffff16565b600b819055506130d964e8d4a510006130cb8560050154856000015461395790919063ffffffff16565b6139dd90919063ffffffff16565b8260010181905550863373ffffffffffffffffffffffffffffffffffffffff167ff279e6a1f5e320cca91135676d9cb6e44ca8a08c0b88342bcdb1144f6511b568886040518082815260200191505060405180910390a38593505050509392505050565b600080600260005414156131b9576040517f08c379a000000000000000000000000000000000000000000000000000000000815260040180806020018281038252601f8152602001807f5265656e7472616e637947756172643a207265656e7472616e742063616c6c0081525060200191505060405180910390fd5b60026000819055506000849050600073ffffffffffffffffffffffffffffffffffffffff168173ffffffffffffffffffffffffffffffffffffffff161415613269576040517f08c379a000000000000000000000000000000000000000000000000000000000815260040180806020018281038252601e8152602001807f4572726f723a20496e76616c696420556e69706f6f6c2041646472657373000081525060200191505060405180910390fd5b60008173ffffffffffffffffffffffffffffffffffffffff16630dfe16816040518163ffffffff1660e01b815260040160206040518083038186803b1580156132b157600080fd5b505afa1580156132c5573d6000803e3d6000fd5b505050506040513d60208110156132db57600080fd5b8101908080519060200190929190505050905060008273ffffffffffffffffffffffffffffffffffffffff1663d21220a76040518163ffffffff1660e01b815260040160206040518083038186803b15801561333657600080fd5b505afa15801561334a573d6000803e3d6000fd5b505050506040513d602081101561336057600080fd5b810190808051906020019092919050505090506133b2737a250d5630b4cf539739df2c5dacb4c659f2488d878973ffffffffffffffffffffffffffffffffffffffff1661451f9092919063ffffffff16565b60008073c02aaa39b223fe8d0a0e5c4f27ead9083c756cc273ffffffffffffffffffffffffffffffffffffffff168473ffffffffffffffffffffffffffffffffffffffff161480613442575073c02aaa39b223fe8d0a0e5c4f27ead9083c756cc273ffffffffffffffffffffffffffffffffffffffff168373ffffffffffffffffffffffffffffffffffffffff16145b156135fd57600073c02aaa39b223fe8d0a0e5c4f27ead9083c756cc273ffffffffffffffffffffffffffffffffffffffff168573ffffffffffffffffffffffffffffffffffffffff16146134965784613498565b835b9050737a250d5630b4cf539739df2c5dacb4c659f2488d73ffffffffffffffffffffffffffffffffffffffff166302751cec828b600180307ff0000000000000000000000000000000000000000000000000000000000000006040518763ffffffff1660e01b8152600401808773ffffffffffffffffffffffffffffffffffffffff1681526020018681526020018581526020018481526020018373ffffffffffffffffffffffffffffffffffffffff16815260200182815260200196505050505050506040805180830381600087803b15801561357557600080fd5b505af1158015613589573d6000803e3d6000fd5b505050506040513d604081101561359f57600080fd5b81019080805190602001909291908051906020019092919050505080935081945050506135ed33848373ffffffffffffffffffffffffffffffffffffffff16612cbb9092919063ffffffff16565b6135f733836146e4565b5061379a565b737a250d5630b4cf539739df2c5dacb4c659f2488d73ffffffffffffffffffffffffffffffffffffffff1663baa2abde85858b600180307ff0000000000000000000000000000000000000000000000000000000000000006040518863ffffffff1660e01b8152600401808873ffffffffffffffffffffffffffffffffffffffff1681526020018773ffffffffffffffffffffffffffffffffffffffff1681526020018681526020018581526020018481526020018373ffffffffffffffffffffffffffffffffffffffff1681526020018281526020019750505050505050506040805180830381600087803b1580156136f657600080fd5b505af115801561370a573d6000803e3d6000fd5b505050506040513d604081101561372057600080fd5b810190808051906020019092919080519060200190929190505050809250819350505061376e33838673ffffffffffffffffffffffffffffffffffffffff16612cbb9092919063ffffffff16565b61379933828573ffffffffffffffffffffffffffffffffffffffff16612cbb9092919063ffffffff16565b5b7f8251496d51a0099361551b4a9901c85074f36c95f425405ad965a04c650a340b338a86858786604051808773ffffffffffffffffffffffffffffffffffffffff1681526020018673ffffffffffffffffffffffffffffffffffffffff1681526020018573ffffffffffffffffffffffffffffffffffffffff1681526020018481526020018373ffffffffffffffffffffffffffffffffffffffff168152602001828152602001965050505050505060405180910390a1818196509650505050505060016000819055509250929050565b61387361194f565b156138e6576040517f08c379a00000000000000000000000000000000000000000000000000000000081526004018080602001828103825260108152602001807f5061757361626c653a207061757365640000000000000000000000000000000081525060200191505060405180910390fd5b6001600560006101000a81548160ff0219169083151502179055507f62e78cea01bee320cd4e420270b5ea74000d11b0c9f74754ebdbfc544b05a25861392a612cb3565b604051808273ffffffffffffffffffffffffffffffffffffffff16815260200191505060405180910390a1565b60008083141561396a57600090506139d7565b600082840290508284828161397b57fe5b04146139d2576040517f08c379a0000000000000000000000000000000000000000000000000000000008152600401808060200182810382526021815260200180615bfb6021913960400191505060405180910390fd5b809150505b92915050565b6000808211613a54576040517f08c379a000000000000000000000000000000000000000000000000000000000815260040180806020018281038252601a8152602001807f536166654d6174683a206469766973696f6e206279207a65726f00000000000081525060200191505060405180910390fd5b818381613a5d57fe5b04905092915050565b600080828401905083811015613ae4576040517f08c379a000000000000000000000000000000000000000000000000000000000815260040180806020018281038252601b8152602001807f536166654d6174683a206164646974696f6e206f766572666c6f77000000000081525060200191505060405180910390fd5b8091505092915050565b60008060026000541415613b6a576040517f08c379a000000000000000000000000000000000000000000000000000000000815260040180806020018281038252601f8152602001807f5265656e7472616e637947756172643a207265656e7472616e742063616c6c0081525060200191505060405180910390fd5b60026000819055506000613b7e888661481e565b9050600080600080613b8f8b614021565b915091508173ffffffffffffffffffffffffffffffffffffffff168c73ffffffffffffffffffffffffffffffffffffffff161415613be157613bd48c828d8d896149f5565b8094508195505050613bf7565b613bee8c838d8d896149f5565b80945081955050505b87841015613c6d576040517f08c379a00000000000000000000000000000000000000000000000000000000081526004018080602001828103825260128152602001807f4552523a204869676820536c697070616765000000000000000000000000000081525060200191505060405180910390fd5b8973ffffffffffffffffffffffffffffffffffffffff1663a2e620456040518163ffffffff1660e01b8152600401600060405180830381600087803b158015613cb557600080fd5b505af1158015613cc9573d6000803e3d6000fd5b50505050838396509650505050505060016000819055509550959350505050565b6000600c8481548110613cf957fe5b906000526020600020906006020190506000600d600086815260200190815260200160002060003373ffffffffffffffffffffffffffffffffffffffff1673ffffffffffffffffffffffffffffffffffffffff1681526020019081526020016000209050600015158160020160009054906101000a900460ff1615151415613dfc576006339080600181540180825580915050600190039060005260206000200160009091909190916101000a81548173ffffffffffffffffffffffffffffffffffffffff021916908373ffffffffffffffffffffffffffffffffffffffff16021790555060018160020160006101000a81548160ff0219169083151502179055505b600081600001541115613e6b576000613e538260010154613e4564e8d4a51000613e378760050154876000015461395790919063ffffffff16565b6139dd90919063ffffffff16565b613f9e90919063ffffffff16565b90506000811115613e6957613e6833826142a6565b5b505b6000841115613ef357600115158315151415613ed357613ed23330868560000160009054906101000a900473ffffffffffffffffffffffffffffffffffffffff1673ffffffffffffffffffffffffffffffffffffffff16614d86909392919063ffffffff16565b5b613eea848260000154613a6690919063ffffffff16565b81600001819055505b613f0884600b54613a6690919063ffffffff16565b600b81905550613f4064e8d4a51000613f328460050154846000015461395790919063ffffffff16565b6139dd90919063ffffffff16565b8160010181905550843373ffffffffffffffffffffffffffffffffffffffff167f90890809c654f11d6e72a28fa60149770a0d11ec6c92319d6ceb2bb0a4ea1a15866040518082815260200191505060405180910390a35050505050565b600082821115614016576040517f08c379a000000000000000000000000000000000000000000000000000000000815260040180806020018281038252601e8152602001807f536166654d6174683a207375627472616374696f6e206f766572666c6f77000081525060200191505060405180910390fd5b818303905092915050565b60008060008390508073ffffffffffffffffffffffffffffffffffffffff16630dfe16816040518163ffffffff1660e01b815260040160206040518083038186803b15801561406f57600080fd5b505afa158015614083573d6000803e3d6000fd5b505050506040513d602081101561409957600080fd5b810190808051906020019092919050505092508073ffffffffffffffffffffffffffffffffffffffff1663d21220a76040518163ffffffff1660e01b815260040160206040518083038186803b1580156140f257600080fd5b505afa158015614106573d6000803e3d6000fd5b505050506040513d602081101561411c57600080fd5b8101908080519060200190929190505050915050915091565b60006107ca6141a76141526107cd8661395790919063ffffffff16565b61419961419461416e623cda298961395790919063ffffffff16565b614184623cda208961395790919063ffffffff16565b018861395790919063ffffffff16565b614e47565b613f9e90919063ffffffff16565b816141ae57fe5b04905092915050565b6060614219826040518060400160405280602081526020017f5361666545524332303a206c6f772d6c6576656c2063616c6c206661696c65648152508573ffffffffffffffffffffffffffffffffffffffff16614ea99092919063ffffffff16565b90506000815111156142a15780806020019051602081101561423a57600080fd5b81019080805190602001909291905050506142a0576040517f08c379a000000000000000000000000000000000000000000000000000000000815260040180806020018281038252602a815260200180615c1c602a913960400191505060405180910390fd5b5b505050565b6000600760009054906101000a900473ffffffffffffffffffffffffffffffffffffffff1673ffffffffffffffffffffffffffffffffffffffff166370a08231306040518263ffffffff1660e01b8152600401808273ffffffffffffffffffffffffffffffffffffffff16815260200191505060206040518083038186803b15801561433157600080fd5b505afa158015614345573d6000803e3d6000fd5b505050506040513d602081101561435b57600080fd5b810190808051906020019092919050505090508082111561444a57600760009054906101000a900473ffffffffffffffffffffffffffffffffffffffff1673ffffffffffffffffffffffffffffffffffffffff1663a9059cbb84836040518363ffffffff1660e01b8152600401808373ffffffffffffffffffffffffffffffffffffffff16815260200182815260200192505050602060405180830381600087803b15801561440957600080fd5b505af115801561441d573d6000803e3d6000fd5b505050506040513d602081101561443357600080fd5b81019080805190602001909291905050505061451a565b600760009054906101000a900473ffffffffffffffffffffffffffffffffffffffff1673ffffffffffffffffffffffffffffffffffffffff1663a9059cbb84846040518363ffffffff1660e01b8152600401808373ffffffffffffffffffffffffffffffffffffffff16815260200182815260200192505050602060405180830381600087803b1580156144dd57600080fd5b505af11580156144f1573d6000803e3d6000fd5b505050506040513d602081101561450757600080fd5b8101908080519060200190929190505050505b505050565b60008114806145ed575060008373ffffffffffffffffffffffffffffffffffffffff1663dd62ed3e30856040518363ffffffff1660e01b8152600401808373ffffffffffffffffffffffffffffffffffffffff1681526020018273ffffffffffffffffffffffffffffffffffffffff1681526020019250505060206040518083038186803b1580156145b057600080fd5b505afa1580156145c4573d6000803e3d6000fd5b505050506040513d60208110156145da57600080fd5b8101908080519060200190929190505050145b614642576040517f08c379a0000000000000000000000000000000000000000000000000000000008152600401808060200182810382526036815260200180615c466036913960400191505060405180910390fd5b6146df8363095ea7b360e01b8484604051602401808373ffffffffffffffffffffffffffffffffffffffff16815260200182815260200192505050604051602081830303815290604052907bffffffffffffffffffffffffffffffffffffffffffffffffffffffff19166020820180517bffffffffffffffffffffffffffffffffffffffffffffffffffffffff83818316178352505050506141b7565b505050565b8047101561475a576040517f08c379a000000000000000000000000000000000000000000000000000000000815260040180806020018281038252601d8152602001807f416464726573733a20696e73756666696369656e742062616c616e636500000081525060200191505060405180910390fd5b60008273ffffffffffffffffffffffffffffffffffffffff168260405180600001905060006040518083038185875af1925050503d80600081146147ba576040519150601f19603f3d011682016040523d82523d6000602084013e6147bf565b606091505b5050905080614819576040517f08c379a000000000000000000000000000000000000000000000000000000000815260040180806020018281038252603a815260200180615b9b603a913960400191505060405180910390fd5b505050565b60008073ffffffffffffffffffffffffffffffffffffffff168373ffffffffffffffffffffffffffffffffffffffff1614156148d257600034116148ca576040517f08c379a000000000000000000000000000000000000000000000000000000000815260040180806020018281038252600b8152602001807f4e6f206574682073656e7400000000000000000000000000000000000000000081525060200191505060405180910390fd5b3490506149ef565b60008211614948576040517f08c379a00000000000000000000000000000000000000000000000000000000081526004018080602001828103825260148152602001807f496e76616c696420746f6b656e20616d6f756e7400000000000000000000000081525060200191505060405180910390fd5b600034146149be576040517f08c379a00000000000000000000000000000000000000000000000000000000081526004018080602001828103825260138152602001807f4574682073656e74207769746820746f6b656e0000000000000000000000000081525060200191505060405180910390fd5b6149eb3330848673ffffffffffffffffffffffffffffffffffffffff16614d86909392919063ffffffff16565b8190505b92915050565b600080614a00615b45565b614a146002856139dd90919063ffffffff16565b8160000181815250508473ffffffffffffffffffffffffffffffffffffffff16633ddac9538983600001516040518363ffffffff1660e01b8152600401808373ffffffffffffffffffffffffffffffffffffffff1681526020018281526020019250505060206040518083038186803b158015614a9057600080fd5b505afa158015614aa4573d6000803e3d6000fd5b505050506040513d6020811015614aba57600080fd5b81019080805190602001909291905050508160200181815250506000614b09670de0b6b3a7640000614afb600454856000015161395790919063ffffffff16565b6139dd90919063ffffffff16565b90508773ffffffffffffffffffffffffffffffffffffffff166370a08231306040518263ffffffff1660e01b8152600401808273ffffffffffffffffffffffffffffffffffffffff16815260200191505060206040518083038186803b158015614b7257600080fd5b505afa158015614b86573d6000803e3d6000fd5b505050506040513d6020811015614b9c57600080fd5b81019080805190602001909291905050508260800181815250506003548260800151118015614be65750614bdf6003548360800151613f9e90919063ffffffff16565b8260200151105b15614c445781600001518260400181815250508160200151826060018181525050614c12898983614ec1565b614c3d614c2c828460000151613f9e90919063ffffffff16565b600254613a6690919063ffffffff16565b6002819055505b614c5d6003548360800151613f9e90919063ffffffff16565b826020015110614c8557614c72898887614ed2565b8360400184606001828152508281525050505b6000806000614c9e8c8c87604001518860600151615088565b9250925092507fe52a8d6444a86a0f9c4d5e4022c26ec5f9e2c0a873c0733b601b0ddc04a942d9338b8e858f86604051808773ffffffffffffffffffffffffffffffffffffffff1681526020018673ffffffffffffffffffffffffffffffffffffffff1681526020018573ffffffffffffffffffffffffffffffffffffffff1681526020018481526020018373ffffffffffffffffffffffffffffffffffffffff168152602001828152602001965050505050505060405180910390a182614d73858760000151613f9e90919063ffffffff16565b9650965050505050509550959350505050565b614e41846323b872dd60e01b858585604051602401808473ffffffffffffffffffffffffffffffffffffffff1681526020018373ffffffffffffffffffffffffffffffffffffffff1681526020018281526020019350505050604051602081830303815290604052907bffffffffffffffffffffffffffffffffffffffffffffffffffffffff19166020820180517bffffffffffffffffffffffffffffffffffffffffffffffffffffffff83818316178352505050506141b7565b50505050565b60006003821115614e96578190506000600160028481614e6357fe5b040190505b81811015614e9057809150600281828581614e7f57fe5b040181614e8857fe5b049050614e68565b50614ea4565b60008214614ea357600190505b5b919050565b6060614eb884846000856153af565b90509392505050565b614ecc838383615558565b50505050565b600080600080614ee186614021565b915091506000808773ffffffffffffffffffffffffffffffffffffffff16630902f1ac6040518163ffffffff1660e01b815260040160606040518083038186803b158015614f2e57600080fd5b505afa158015614f42573d6000803e3d6000fd5b505050506040513d6060811015614f5857600080fd5b81019080805190602001909291908051906020019092919080519060200190929190505050506dffffffffffffffffffffffffffff1691506dffffffffffffffffffffffffffff1691508373ffffffffffffffffffffffffffffffffffffffff168973ffffffffffffffffffffffffffffffffffffffff16141561502b576000614fe28389614135565b905060008111615003576150006002896139dd90919063ffffffff16565b90505b61500e8a8583615558565b95506150238189613f9e90919063ffffffff16565b96505061507c565b60006150378289614135565b905060008111615058576150556002896139dd90919063ffffffff16565b90505b6150638a8683615558565b96506150788189613f9e90919063ffffffff16565b9550505b50505050935093915050565b60008060006150cd737a250d5630b4cf539739df2c5dacb4c659f2488d60008973ffffffffffffffffffffffffffffffffffffffff1661451f9092919063ffffffff16565b61510d737a250d5630b4cf539739df2c5dacb4c659f2488d60008873ffffffffffffffffffffffffffffffffffffffff1661451f9092919063ffffffff16565b61514c737a250d5630b4cf539739df2c5dacb4c659f2488d868973ffffffffffffffffffffffffffffffffffffffff1661451f9092919063ffffffff16565b61518b737a250d5630b4cf539739df2c5dacb4c659f2488d858873ffffffffffffffffffffffffffffffffffffffff1661451f9092919063ffffffff16565b6000806000737a250d5630b4cf539739df2c5dacb4c659f2488d73ffffffffffffffffffffffffffffffffffffffff1663e8e337008b8b8b8b600180307ff0000000000000000000000000000000000000000000000000000000000000006040518963ffffffff1660e01b8152600401808973ffffffffffffffffffffffffffffffffffffffff1681526020018873ffffffffffffffffffffffffffffffffffffffff1681526020018781526020018681526020018581526020018481526020018373ffffffffffffffffffffffffffffffffffffffff16815260200182815260200198505050505050505050606060405180830381600087803b15801561529257600080fd5b505af11580156152a6573d6000803e3d6000fd5b505050506040513d60608110156152bc57600080fd5b8101908080519060200190929190805190602001909291908051906020019092919050505092509250925060006152fc848a613f9e90919063ffffffff16565b11156153405761533f33615319858b613f9e90919063ffffffff16565b8c73ffffffffffffffffffffffffffffffffffffffff16612cbb9092919063ffffffff16565b5b60006153558389613f9e90919063ffffffff16565b11156153995761539833615372848a613f9e90919063ffffffff16565b8b73ffffffffffffffffffffffffffffffffffffffff16612cbb9092919063ffffffff16565b5b8083839550955095505050509450945094915050565b60608247101561540a576040517f08c379a0000000000000000000000000000000000000000000000000000000008152600401808060200182810382526026815260200180615bd56026913960400191505060405180910390fd5b615413856159ee565b615485576040517f08c379a000000000000000000000000000000000000000000000000000000000815260040180806020018281038252601d8152602001807f416464726573733a2063616c6c20746f206e6f6e2d636f6e747261637400000081525060200191505060405180910390fd5b600060608673ffffffffffffffffffffffffffffffffffffffff1685876040518082805190602001908083835b602083106154d557805182526020820191506020810190506020830392506154b2565b6001836020036101000a03801982511681845116808217855250505050505090500191505060006040518083038185875af1925050503d8060008114615537576040519150601f19603f3d011682016040523d82523d6000602084013e61553c565b606091505b509150915061554c828286615a01565b92505050949350505050565b60008273ffffffffffffffffffffffffffffffffffffffff168473ffffffffffffffffffffffffffffffffffffffff161415615596578190506159e7565b6155d6737a250d5630b4cf539739df2c5dacb4c659f2488d60008673ffffffffffffffffffffffffffffffffffffffff1661451f9092919063ffffffff16565b615615737a250d5630b4cf539739df2c5dacb4c659f2488d838673ffffffffffffffffffffffffffffffffffffffff1661451f9092919063ffffffff16565b6060600267ffffffffffffffff8111801561562f57600080fd5b5060405190808252806020026020018201604052801561565e5781602001602082028036833780820191505090505b509050848160008151811061566f57fe5b602002602001019073ffffffffffffffffffffffffffffffffffffffff16908173ffffffffffffffffffffffffffffffffffffffff168152505083816001815181106156b757fe5b602002602001019073ffffffffffffffffffffffffffffffffffffffff16908173ffffffffffffffffffffffffffffffffffffffff1681525050737a250d5630b4cf539739df2c5dacb4c659f2488d73ffffffffffffffffffffffffffffffffffffffff166338ed173984600184307ff0000000000000000000000000000000000000000000000000000000000000006040518663ffffffff1660e01b815260040180868152602001858152602001806020018473ffffffffffffffffffffffffffffffffffffffff168152602001838152602001828103825285818151815260200191508051906020019060200280838360005b838110156157c75780820151818401526020810190506157ac565b505050509050019650505050505050600060405180830381600087803b1580156157f057600080fd5b505af1158015615804573d6000803e3d6000fd5b505050506040513d6000823e3d601f19601f82011682018060405250602081101561582e57600080fd5b810190808051604051939291908464010000000082111561584e57600080fd5b8382019150602082018581111561586457600080fd5b825186602082028301116401000000008211171561588157600080fd5b8083526020830192505050908051906020019060200280838360005b838110156158b857808201518184015260208101905061589d565b505050509050016040525050506001825103815181106158d457fe5b6020026020010151915060008211615954576040517f08c379a00000000000000000000000000000000000000000000000000000000081526004018080602001828103825260178152602001807f4572726f72205377617070696e6720546f6b656e73203200000000000000000081525060200191505060405180910390fd5b7fb242fac543571b33f0bb49bcc84178771cbd74e5c7785b45981424829ba3c07533848787604051808573ffffffffffffffffffffffffffffffffffffffff1681526020018481526020018373ffffffffffffffffffffffffffffffffffffffff1681526020018273ffffffffffffffffffffffffffffffffffffffff16815260200194505050505060405180910390a1505b9392505050565b600080823b905060008111915050919050565b60608315615a1157829050615ac6565b600083511115615a245782518084602001fd5b816040517f08c379a00000000000000000000000000000000000000000000000000000000081526004018080602001828103825283818151815260200191508051906020019080838360005b83811015615a8b578082015181840152602081019050615a70565b50505050905090810190601f168015615ab85780820380516001836020036101000a031916815260200191505b509250505060405180910390fd5b9392505050565b6040518060c00160405280600073ffffffffffffffffffffffffffffffffffffffff168152602001600073ffffffffffffffffffffffffffffffffffffffff168152602001600073ffffffffffffffffffffffffffffffffffffffff1681526020016000815260200160008152602001600081525090565b6040518060a001604052806000815260200160008152602001600081526020016000815260200160008152509056fe4f776e61626c653a206e6577206f776e657220697320746865207a65726f2061646472657373416464726573733a20756e61626c6520746f2073656e642076616c75652c20726563697069656e74206d61792068617665207265766572746564416464726573733a20696e73756666696369656e742062616c616e636520666f722063616c6c536166654d6174683a206d756c7469706c69636174696f6e206f766572666c6f775361666545524332303a204552433230206f7065726174696f6e20646964206e6f7420737563636565645361666545524332303a20617070726f76652066726f6d206e6f6e2d7a65726f20746f206e6f6e2d7a65726f20616c6c6f77616e636557697468647261773a2043616e206f6e6c7920776974686472617720616674657220313020626c6f636b73a2646970667358221220414c8bd48d1cce1412b5e336a95c0400a8d036b98f90aae7faa74cff457eea5f64736f6c63430007000033",
  "immutableReferences": {},
  "source": "// SPDX-License-Identifier: MIT\n\npragma solidity ^0.7.0;\n\nimport \"@openzeppelin/contracts/token/ERC20/IERC20.sol\";\nimport \"@openzeppelin/contracts/token/ERC20/SafeERC20.sol\";\nimport \"@openzeppelin/contracts/utils/EnumerableSet.sol\";\nimport \"@openzeppelin/contracts/math/SafeMath.sol\";\nimport \"@openzeppelin/contracts/access/Ownable.sol\";\nimport \"@openzeppelin/contracts/utils/Pausable.sol\";\nimport \"./interfaces/Ixfit.sol\";\nimport \"../contracts/XPoolHandler.sol\";\n\n// Amplify is XFIT distibutor.\n//\n// Note that it's ownable and the owner wields tremendous power. The ownership\n// will be transferred to a governance smart contract once XFIT is sufficiently\n// distributed and the community can show to govern itself.\n\ncontract XFai is XPoolHandler, Pausable {\n    using SafeMath for uint256;\n    using SafeERC20 for IERC20;\n\n    // Info of each user.\n    struct UserInfo {\n        uint256 amount; // How many LP tokens the user has provided.\n        uint256 rewardDebt; // Reward debt. See explanation below.\n        bool enrolled;\n        uint256 lastDepositedBlock;\n        //\n        // We do some fancy math here. Basically, any point in time, the amount of XFITs\n        // entitled to a user but is pending to be distributed is:\n        //\n        //   pending reward = (user.amount * pool.accXFITPerShare) - user.rewardDebt\n        //\n        // Whenever a user deposits or withdraws LP tokens to a pool. Here's what happens:\n        //   1. The pool's `accXFITPerShare` (and `lastRewardBlock`) gets updated.\n        //   2. User receives the pending reward sent to his/her address.\n        //   3. User's `amount` gets updated.\n        //   4. User's `rewardDebt` gets updated.\n    }\n\n    // Array which stores addresses of all the participants. Doesn't duplicate the address.\n    address[] public userAddresses;\n\n    // Info of each pool.\n    struct PoolInfo {\n        IERC20 lpToken; // Address of LP token contract.\n        IERC20 inputToken; // Token in which Single sided liquidity can be provided\n        IXPriceOracle xPoolOracle;\n        uint256 allocPoint; // How many allocation points assigned to this pool. XFITs to distribute per block.\n        uint256 lastRewardBlock; // Last block number that XFITs distribution occurs.\n        uint256 accXFITPerShare; // Accumulated XFITs per share, times 1e12. See below.\n    }\n\n    // The XFIT TOKEN!\n    Ixfit public XFIT;\n\n    // Dev address.\n    address public devaddr;\n    // Block number when bonus XFIT period ends.\n    uint256 public bonusEndBlock;\n    // XFIT tokens distributed per block.\n    uint256 public XFITPerBlock;\n\n    uint256 totalLiquidity;\n\n    // Bonus muliplier for early XFIT farmers.\n    uint256 public constant BONUS_MULTIPLIER = 2;\n\n    uint256 public constant REWARD_FACTOR = 10;\n\n    // Info of each pool.\n    PoolInfo[] public poolInfo;\n    // Info of each user that stakes LP tokens.\n    mapping(uint256 => mapping(address => UserInfo)) public userInfo;\n    // Total allocation points. Must be the sum of all allocation points in all pools.\n    uint256 public totalAllocPoint = 0;\n    // The block number when XFIT mining starts.\n    uint256 public startBlock;\n\n    event Deposit(address indexed user, uint256 indexed pid, uint256 amount);\n    event Withdraw(address indexed user, uint256 indexed pid, uint256 amount);\n    event EmergencyWithdraw(\n        address indexed user,\n        uint256 indexed pid,\n        uint256 amount\n    );\n\n    constructor(\n        Ixfit _XFIT,\n        address _devaddr,\n        uint256 _XFITPerBlock,\n        uint256 _startBlock,\n        uint256 _bonusEndBlock,\n        uint256 _xFitThreeshold,\n        uint256 _fundsSplitFactor\n    ) XPoolHandler(_xFitThreeshold, _fundsSplitFactor) {\n        XFIT = _XFIT;\n        devaddr = _devaddr;\n        XFITPerBlock = _XFITPerBlock;\n        bonusEndBlock = _bonusEndBlock;\n        startBlock = _startBlock;\n    }\n\n    function poolLength() external view returns (uint256) {\n        return poolInfo.length;\n    }\n\n    function userAddressesLength() external view returns (uint256) {\n        return userAddresses.length;\n    }\n\n    // Add a new lp to the pool. Can only be called by the owner.\n    // XXX DO NOT add the same LP token more than once. Rewards will be messed up if you do.\n    function add(\n        IERC20 _lpToken,\n        IERC20 _inputToken,\n        IXPriceOracle _xPoolOracle,\n        bool _withUpdate\n    ) public onlyOwner {\n        if (_withUpdate) {\n            massUpdatePools();\n        }\n        uint256 lastRewardBlock =\n            block.number > startBlock ? block.number : startBlock;\n        poolInfo.push(\n            PoolInfo({\n                lpToken: _lpToken,\n                inputToken: _inputToken,\n                xPoolOracle: _xPoolOracle,\n                allocPoint: 0,\n                lastRewardBlock: lastRewardBlock,\n                accXFITPerShare: 0\n            })\n        );\n    }\n\n    // Update the given pool's XFIT allocation point. Can only be called by the owner.\n    function set(\n        uint256 _pid,\n        uint256 _allocPoint,\n        bool _withUpdate\n    ) public onlyOwner {\n        if (_withUpdate) {\n            massUpdatePools();\n        }\n        totalAllocPoint = totalAllocPoint.sub(poolInfo[_pid].allocPoint).add(\n            _allocPoint\n        );\n        poolInfo[_pid].allocPoint = _allocPoint;\n    }\n\n    // Return reward multiplier over the given _from to _to block.\n    function getMultiplier(uint256 _from, uint256 _to)\n        public\n        view\n        returns (uint256)\n    {\n        if (_to <= bonusEndBlock) {\n            return _to.sub(_from).mul(BONUS_MULTIPLIER);\n        } else if (_from >= bonusEndBlock) {\n            return _to.sub(_from);\n        } else {\n            return\n                bonusEndBlock.sub(_from).mul(BONUS_MULTIPLIER).add(\n                    _to.sub(bonusEndBlock)\n                );\n        }\n    }\n\n    // View function to see pending XFITs on frontend.\n    function pendingXFIT(uint256 _pid, address _user)\n        external\n        view\n        returns (uint256)\n    {\n        PoolInfo storage pool = poolInfo[_pid];\n        UserInfo storage user = userInfo[_pid][_user];\n        uint256 accXFITPerShare = pool.accXFITPerShare;\n        uint256 lpSupply = pool.lpToken.balanceOf(address(this));\n        if (block.number > pool.lastRewardBlock && lpSupply != 0) {\n            uint256 multiplier =\n                getMultiplier(pool.lastRewardBlock, block.number);\n            uint256 XFITReward =\n                multiplier.mul(XFITPerBlock).mul(pool.allocPoint).div(\n                    totalAllocPoint\n                );\n            accXFITPerShare = accXFITPerShare.add(\n                XFITReward.mul(1e12).div(lpSupply)\n            );\n        }\n        return user.amount.mul(accXFITPerShare).div(1e12).sub(user.rewardDebt);\n    }\n\n    // Update reward variables for all pools. Be careful of gas spending!\n    function massUpdatePools() public {\n        uint256 length = poolInfo.length;\n        for (uint256 pid = 0; pid < length; ++pid) {\n            updatePool(pid);\n        }\n    }\n\n    // Update reward variables of the given pool to be up-to-date.\n    function updatePool(uint256 _pid) public {\n        PoolInfo storage pool = poolInfo[_pid];\n        if (block.number <= pool.lastRewardBlock) {\n            return;\n        }\n        uint256 lpSupply = pool.lpToken.balanceOf(address(this));\n        if (lpSupply == 0) {\n            pool.lastRewardBlock = block.number;\n            return;\n        }\n        if (totalLiquidity > 0) {\n            set(_pid, lpSupply.mul(1e6).div(totalLiquidity), false);\n        }\n        uint256 multiplier = getMultiplier(pool.lastRewardBlock, block.number);\n        uint256 XFITReward =\n            multiplier.mul(XFITPerBlock).mul(pool.allocPoint).div(\n                totalAllocPoint\n            );\n        XFIT.transfer(devaddr, XFITReward.div(REWARD_FACTOR));\n        pool.accXFITPerShare = pool.accXFITPerShare.add(\n            XFITReward.mul(1e12).div(lpSupply)\n        );\n        pool.lastRewardBlock = block.number;\n    }\n\n    function depositLPWithToken(\n        uint256 _pid,\n        uint256 _amount,\n        uint256 _minPoolTokens\n    ) public payable whenNotPaused {\n        PoolInfo storage pool = poolInfo[_pid];\n        updatePool(_pid);\n\n        (uint256 lpTokensBought, uint256 fundingRaised) =\n            poolLiquidity(\n                address(pool.inputToken),\n                address(pool.lpToken),\n                address(pool.xPoolOracle),\n                _amount,\n                _minPoolTokens\n            );\n        // Continous funding to devAddress\n        pool.inputToken.safeTransfer(devaddr, fundingRaised);\n        _depositInternal(_pid, lpTokensBought, false);\n    }\n\n    // Deposit LP tokens to Amplify for XFIT allocation.\n    function depositLP(uint256 _pid, uint256 _amount) public whenNotPaused {\n        updatePool(_pid);\n        _depositInternal(_pid, _amount, true);\n    }\n\n    function withdrawLPWithToken(uint256 _pid, uint256 _amount) public {\n        updatePool(_pid);\n        uint256 actualWithdrawAmount = _withdrawInternal(_pid, _amount, false);\n        PoolInfo storage pool = poolInfo[_pid];\n        redeemLPTokens(address(pool.lpToken), actualWithdrawAmount);\n    }\n\n    // Withdraw LP tokens from Amplify.\n    function withdrawLP(uint256 _pid, uint256 _amount) public whenNotPaused {\n        updatePool(_pid);\n        _withdrawInternal(_pid, _amount, true);\n    }\n\n    function _depositInternal(\n        uint256 _pid,\n        uint256 _amount,\n        bool withLPTokens\n    ) internal {\n        PoolInfo storage pool = poolInfo[_pid];\n        UserInfo storage user = userInfo[_pid][msg.sender];\n        if (user.enrolled == false) {\n            userAddresses.push(msg.sender);\n            user.enrolled = true;\n        }\n        if (user.amount > 0) {\n            uint256 pending =\n                user.amount.mul(pool.accXFITPerShare).div(1e12).sub(\n                    user.rewardDebt\n                );\n            if (pending > 0) {\n                safeXFITTransfer(msg.sender, pending);\n            }\n        }\n        if (_amount > 0) {\n            if (withLPTokens == true) {\n                pool.lpToken.safeTransferFrom(\n                    address(msg.sender),\n                    address(this),\n                    _amount\n                );\n            }\n            user.amount = user.amount.add(_amount);\n        }\n        totalLiquidity = totalLiquidity.add(_amount);\n        user.rewardDebt = user.amount.mul(pool.accXFITPerShare).div(1e12);\n        emit Deposit(msg.sender, _pid, _amount);\n    }\n\n    function _withdrawInternal(\n        uint256 _pid,\n        uint256 _amount,\n        bool withLPTokens\n    ) internal returns (uint256) {\n        PoolInfo storage pool = poolInfo[_pid];\n        UserInfo storage user = userInfo[_pid][msg.sender];\n        require(\n            block.number >= user.lastDepositedBlock.add(10),\n            \"Withdraw: Can only withdraw after 10 blocks\"\n        );\n        require(user.amount >= _amount, \"withdraw: not good\");\n        uint256 pending =\n            user.amount.mul(pool.accXFITPerShare).div(1e12).sub(\n                user.rewardDebt\n            );\n        if (pending > 0) {\n            safeXFITTransfer(msg.sender, pending);\n        }\n        if (_amount > 0) {\n            user.amount = user.amount.sub(_amount);\n            if (withLPTokens == true) {\n                pool.lpToken.safeTransfer(address(msg.sender), _amount);\n            }\n        }\n        totalLiquidity = totalLiquidity.sub(_amount);\n        user.rewardDebt = user.amount.mul(pool.accXFITPerShare).div(1e12);\n        emit Withdraw(msg.sender, _pid, _amount);\n        return _amount;\n    }\n\n    // Withdraw without caring about rewards. EMERGENCY ONLY.\n    function emergencyWithdraw(uint256 _pid) public {\n        PoolInfo storage pool = poolInfo[_pid];\n        UserInfo storage user = userInfo[_pid][msg.sender];\n        uint256 amount = user.amount;\n        user.amount = 0;\n        user.rewardDebt = 0;\n        pool.lpToken.safeTransfer(address(msg.sender), amount);\n        emit EmergencyWithdraw(msg.sender, _pid, amount);\n    }\n\n    // Safe XFIT transfer function, just in case if rounding error causes pool to not have enough XFITs.\n    function safeXFITTransfer(address _to, uint256 _amount) internal {\n        uint256 XFITBal = XFIT.balanceOf(address(this));\n        if (_amount > XFITBal) {\n            XFIT.transfer(_to, XFITBal);\n        } else {\n            XFIT.transfer(_to, _amount);\n        }\n    }\n\n    // ADMIN METHODS\n\n    // Update dev address by the admin.\n    function dev(address _devaddr) public onlyOwner {\n        devaddr = _devaddr;\n    }\n\n    function setPriceOracle(uint256 _pid, IXPriceOracle _xPoolOracle)\n        public\n        onlyOwner\n    {\n        PoolInfo storage pool = poolInfo[_pid];\n        pool.xPoolOracle = _xPoolOracle;\n    }\n\n    function pauseDistribution() public onlyOwner {\n        _pause();\n    }\n\n    function resumeDistribution() public onlyOwner {\n        _unpause();\n    }\n\n    function setXFITRewardPerBlock(uint256 _newReward) public onlyOwner {\n        massUpdatePools();\n        XFITPerBlock = _newReward;\n    }\n\n    function withdrawAdminXFIT(uint256 amount) public onlyOwner {\n        XFIT.transfer(msg.sender, amount);\n    }\n\n    function withdrawAdminFunding(uint256 _pid, uint256 _amount)\n        public\n        onlyOwner\n    {\n        PoolInfo memory pool = poolInfo[_pid];\n        pool.inputToken.safeTransfer(msg.sender, _amount);\n    }\n}\n",
  "sourcePath": "/Users/ayardi/Work/fetch/xfai-amplify/contracts/xfai.sol",
  "compiler": {
    "name": "solc",
    "version": "0.7.0+commit.9e61f92b.Emscripten.clang"
  },
  "schemaVersion": "3.3.2",
  "updatedAt": "2021-03-30T12:02:46.110Z",
  "networkType": "ethereum",
  "devdoc": {
    "kind": "dev",
    "methods": {
      "owner()": {
        "details": "Returns the address of the current owner."
      },
      "paused()": {
        "details": "Returns true if the contract is paused, and false otherwise."
      },
      "renounceOwnership()": {
        "details": "Leaves the contract without owner. It will not be possible to call `onlyOwner` functions anymore. Can only be called by the current owner. NOTE: Renouncing ownership will leave the contract without an owner, thereby removing any functionality that is only available to the owner."
      },
      "transferOwnership(address)": {
        "details": "Transfers ownership of the contract to a new account (`newOwner`). Can only be called by the current owner."
      }
    },
    "version": 1
  },
  "userdoc": {
    "kind": "user",
    "methods": {},
    "version": 1
  }
}