{
  "contractName": "XFai",
  "abi": [
    {
      "inputs": [
        {
          "internalType": "contract Ixfit",
          "name": "_XFIT",
          "type": "address"
        },
        {
          "internalType": "address",
          "name": "_devaddr",
          "type": "address"
        },
        {
          "internalType": "uint256",
          "name": "_XFITPerBlock",
          "type": "uint256"
        },
        {
          "internalType": "uint256",
          "name": "_exitFeeFactor",
          "type": "uint256"
        },
        {
          "internalType": "uint256",
          "name": "_startBlock",
          "type": "uint256"
        },
        {
          "internalType": "uint256",
          "name": "_bonusEndBlock",
          "type": "uint256"
        },
        {
          "internalType": "uint256",
          "name": "_xFitThreeshold",
          "type": "uint256"
        },
        {
          "internalType": "uint256",
          "name": "_fundsSplitFactor",
          "type": "uint256"
        }
      ],
      "stateMutability": "nonpayable",
      "type": "constructor"
    },
    {
      "anonymous": false,
      "inputs": [
        {
          "indexed": true,
          "internalType": "address",
          "name": "user",
          "type": "address"
        },
        {
          "indexed": true,
          "internalType": "uint256",
          "name": "pid",
          "type": "uint256"
        },
        {
          "indexed": false,
          "internalType": "uint256",
          "name": "amount",
          "type": "uint256"
        }
      ],
      "name": "Deposit",
      "type": "event"
    },
    {
      "anonymous": false,
      "inputs": [
        {
          "indexed": true,
          "internalType": "address",
          "name": "user",
          "type": "address"
        },
        {
          "indexed": true,
          "internalType": "uint256",
          "name": "pid",
          "type": "uint256"
        },
        {
          "indexed": false,
          "internalType": "uint256",
          "name": "amount",
          "type": "uint256"
        }
      ],
      "name": "EmergencyWithdraw",
      "type": "event"
    },
    {
      "anonymous": false,
      "inputs": [
        {
          "indexed": true,
          "internalType": "address",
          "name": "previousOwner",
          "type": "address"
        },
        {
          "indexed": true,
          "internalType": "address",
          "name": "newOwner",
          "type": "address"
        }
      ],
      "name": "OwnershipTransferred",
      "type": "event"
    },
    {
      "anonymous": false,
      "inputs": [
        {
          "indexed": false,
          "internalType": "address",
          "name": "sender",
          "type": "address"
        },
        {
          "indexed": false,
          "internalType": "address",
          "name": "pool",
          "type": "address"
        },
        {
          "indexed": false,
          "internalType": "address",
          "name": "tokenA",
          "type": "address"
        },
        {
          "indexed": false,
          "internalType": "uint256",
          "name": "amountA",
          "type": "uint256"
        },
        {
          "indexed": false,
          "internalType": "address",
          "name": "tokenB",
          "type": "address"
        },
        {
          "indexed": false,
          "internalType": "uint256",
          "name": "amountB",
          "type": "uint256"
        }
      ],
      "name": "POOL_LIQUIDITY",
      "type": "event"
    },
    {
      "anonymous": false,
      "inputs": [
        {
          "indexed": false,
          "internalType": "address",
          "name": "account",
          "type": "address"
        }
      ],
      "name": "Paused",
      "type": "event"
    },
    {
      "anonymous": false,
      "inputs": [
        {
          "indexed": false,
          "internalType": "address",
          "name": "sender",
          "type": "address"
        },
        {
          "indexed": false,
          "internalType": "address",
          "name": "pool",
          "type": "address"
        },
        {
          "indexed": false,
          "internalType": "address",
          "name": "tokenA",
          "type": "address"
        },
        {
          "indexed": false,
          "internalType": "uint256",
          "name": "amountA",
          "type": "uint256"
        },
        {
          "indexed": false,
          "internalType": "address",
          "name": "tokenB",
          "type": "address"
        },
        {
          "indexed": false,
          "internalType": "uint256",
          "name": "amountB",
          "type": "uint256"
        }
      ],
      "name": "REMOVE_LIQUIDITY",
      "type": "event"
    },
    {
      "anonymous": false,
      "inputs": [
        {
          "indexed": false,
          "internalType": "address",
          "name": "sender",
          "type": "address"
        },
        {
          "indexed": false,
          "internalType": "uint256",
          "name": "amount",
          "type": "uint256"
        },
        {
          "indexed": false,
          "internalType": "address",
          "name": "fromToken",
          "type": "address"
        },
        {
          "indexed": false,
          "internalType": "address",
          "name": "toToken",
          "type": "address"
        }
      ],
      "name": "SWAP_TOKENS",
      "type": "event"
    },
    {
      "anonymous": false,
      "inputs": [
        {
          "indexed": false,
          "internalType": "address",
          "name": "account",
          "type": "address"
        }
      ],
      "name": "Unpaused",
      "type": "event"
    },
    {
      "anonymous": false,
      "inputs": [
        {
          "indexed": true,
          "internalType": "address",
          "name": "user",
          "type": "address"
        },
        {
          "indexed": true,
          "internalType": "uint256",
          "name": "pid",
          "type": "uint256"
        },
        {
          "indexed": false,
          "internalType": "uint256",
          "name": "amount",
          "type": "uint256"
        }
      ],
      "name": "Withdraw",
      "type": "event"
    },
    {
      "inputs": [],
      "name": "BONUS_MULTIPLIER",
      "outputs": [
        {
          "internalType": "uint256",
          "name": "",
          "type": "uint256"
        }
      ],
      "stateMutability": "view",
      "type": "function"
    },
    {
      "inputs": [],
      "name": "REWARD_FACTOR",
      "outputs": [
        {
          "internalType": "uint256",
          "name": "",
          "type": "uint256"
        }
      ],
      "stateMutability": "view",
      "type": "function"
    },
    {
      "inputs": [],
      "name": "XFIT",
      "outputs": [
        {
          "internalType": "contract Ixfit",
          "name": "",
          "type": "address"
        }
      ],
      "stateMutability": "view",
      "type": "function"
    },
    {
      "inputs": [],
      "name": "XFITPerBlock",
      "outputs": [
        {
          "internalType": "uint256",
          "name": "",
          "type": "uint256"
        }
      ],
      "stateMutability": "view",
      "type": "function"
    },
    {
      "inputs": [
        {
          "internalType": "uint256",
          "name": "_xFitThreeshold",
          "type": "uint256"
        }
      ],
      "name": "_setXFitThreeshold",
      "outputs": [],
      "stateMutability": "nonpayable",
      "type": "function"
    },
    {
      "inputs": [],
      "name": "bonusEndBlock",
      "outputs": [
        {
          "internalType": "uint256",
          "name": "",
          "type": "uint256"
        }
      ],
      "stateMutability": "view",
      "type": "function"
    },
    {
      "inputs": [],
      "name": "devaddr",
      "outputs": [
        {
          "internalType": "address",
          "name": "",
          "type": "address"
        }
      ],
      "stateMutability": "view",
      "type": "function"
    },
    {
      "inputs": [],
      "name": "exitFeeFactor",
      "outputs": [
        {
          "internalType": "uint256",
          "name": "",
          "type": "uint256"
        }
      ],
      "stateMutability": "view",
      "type": "function"
    },
    {
      "inputs": [],
      "name": "fundsSplitFactor",
      "outputs": [
        {
          "internalType": "uint256",
          "name": "",
          "type": "uint256"
        }
      ],
      "stateMutability": "view",
      "type": "function"
    },
    {
      "inputs": [],
      "name": "owner",
      "outputs": [
        {
          "internalType": "address",
          "name": "",
          "type": "address"
        }
      ],
      "stateMutability": "view",
      "type": "function"
    },
    {
      "inputs": [],
      "name": "paused",
      "outputs": [
        {
          "internalType": "bool",
          "name": "",
          "type": "bool"
        }
      ],
      "stateMutability": "view",
      "type": "function"
    },
    {
      "inputs": [
        {
          "internalType": "uint256",
          "name": "",
          "type": "uint256"
        }
      ],
      "name": "poolInfo",
      "outputs": [
        {
          "internalType": "contract IERC20",
          "name": "lpToken",
          "type": "address"
        },
        {
          "internalType": "contract IERC20",
          "name": "inputToken",
          "type": "address"
        },
        {
          "internalType": "contract IXPriceOracle",
          "name": "xPoolOracle",
          "type": "address"
        },
        {
          "internalType": "uint256",
          "name": "allocPoint",
          "type": "uint256"
        },
        {
          "internalType": "uint256",
          "name": "lastRewardBlock",
          "type": "uint256"
        },
        {
          "internalType": "uint256",
          "name": "accXFITPerShare",
          "type": "uint256"
        }
      ],
      "stateMutability": "view",
      "type": "function"
    },
    {
      "inputs": [],
      "name": "renounceOwnership",
      "outputs": [],
      "stateMutability": "nonpayable",
      "type": "function"
    },
    {
      "inputs": [
        {
          "internalType": "uint256",
          "name": "_fundsSplitFactor",
          "type": "uint256"
        }
      ],
      "name": "setFundsSplitFactor",
      "outputs": [],
      "stateMutability": "nonpayable",
      "type": "function"
    },
    {
      "inputs": [],
      "name": "startBlock",
      "outputs": [
        {
          "internalType": "uint256",
          "name": "",
          "type": "uint256"
        }
      ],
      "stateMutability": "view",
      "type": "function"
    },
    {
      "inputs": [],
      "name": "totalAllocPoint",
      "outputs": [
        {
          "internalType": "uint256",
          "name": "",
          "type": "uint256"
        }
      ],
      "stateMutability": "view",
      "type": "function"
    },
    {
      "inputs": [],
      "name": "totalRaised",
      "outputs": [
        {
          "internalType": "uint256",
          "name": "",
          "type": "uint256"
        }
      ],
      "stateMutability": "view",
      "type": "function"
    },
    {
      "inputs": [
        {
          "internalType": "address",
          "name": "newOwner",
          "type": "address"
        }
      ],
      "name": "transferOwnership",
      "outputs": [],
      "stateMutability": "nonpayable",
      "type": "function"
    },
    {
      "inputs": [
        {
          "internalType": "uint256",
          "name": "",
          "type": "uint256"
        }
      ],
      "name": "userAddresses",
      "outputs": [
        {
          "internalType": "address",
          "name": "",
          "type": "address"
        }
      ],
      "stateMutability": "view",
      "type": "function"
    },
    {
      "inputs": [
        {
          "internalType": "uint256",
          "name": "",
          "type": "uint256"
        },
        {
          "internalType": "address",
          "name": "",
          "type": "address"
        }
      ],
      "name": "userInfo",
      "outputs": [
        {
          "internalType": "uint256",
          "name": "amount",
          "type": "uint256"
        },
        {
          "internalType": "uint256",
          "name": "rewardDebt",
          "type": "uint256"
        },
        {
          "internalType": "bool",
          "name": "enrolled",
          "type": "bool"
        }
      ],
      "stateMutability": "view",
      "type": "function"
    },
    {
      "inputs": [],
      "name": "poolLength",
      "outputs": [
        {
          "internalType": "uint256",
          "name": "",
          "type": "uint256"
        }
      ],
      "stateMutability": "view",
      "type": "function"
    },
    {
      "inputs": [],
      "name": "userAddressesLength",
      "outputs": [
        {
          "internalType": "uint256",
          "name": "",
          "type": "uint256"
        }
      ],
      "stateMutability": "view",
      "type": "function"
    },
    {
      "inputs": [
        {
          "internalType": "uint256",
          "name": "_allocPoint",
          "type": "uint256"
        },
        {
          "internalType": "contract IERC20",
          "name": "_lpToken",
          "type": "address"
        },
        {
          "internalType": "contract IERC20",
          "name": "_inputToken",
          "type": "address"
        },
        {
          "internalType": "contract IXPriceOracle",
          "name": "_xPoolOracle",
          "type": "address"
        },
        {
          "internalType": "bool",
          "name": "_withUpdate",
          "type": "bool"
        }
      ],
      "name": "add",
      "outputs": [],
      "stateMutability": "nonpayable",
      "type": "function"
    },
    {
      "inputs": [
        {
          "internalType": "uint256",
          "name": "_pid",
          "type": "uint256"
        },
        {
          "internalType": "uint256",
          "name": "_allocPoint",
          "type": "uint256"
        },
        {
          "internalType": "bool",
          "name": "_withUpdate",
          "type": "bool"
        }
      ],
      "name": "set",
      "outputs": [],
      "stateMutability": "nonpayable",
      "type": "function"
    },
    {
      "inputs": [
        {
          "internalType": "uint256",
          "name": "_from",
          "type": "uint256"
        },
        {
          "internalType": "uint256",
          "name": "_to",
          "type": "uint256"
        }
      ],
      "name": "getMultiplier",
      "outputs": [
        {
          "internalType": "uint256",
          "name": "",
          "type": "uint256"
        }
      ],
      "stateMutability": "view",
      "type": "function"
    },
    {
      "inputs": [
        {
          "internalType": "uint256",
          "name": "_pid",
          "type": "uint256"
        },
        {
          "internalType": "address",
          "name": "_user",
          "type": "address"
        }
      ],
      "name": "pendingXFIT",
      "outputs": [
        {
          "internalType": "uint256",
          "name": "",
          "type": "uint256"
        }
      ],
      "stateMutability": "view",
      "type": "function"
    },
    {
      "inputs": [],
      "name": "massUpdatePools",
      "outputs": [],
      "stateMutability": "nonpayable",
      "type": "function"
    },
    {
      "inputs": [
        {
          "internalType": "uint256",
          "name": "_pid",
          "type": "uint256"
        }
      ],
      "name": "updatePool",
      "outputs": [],
      "stateMutability": "nonpayable",
      "type": "function"
    },
    {
      "inputs": [
        {
          "internalType": "uint256",
          "name": "_pid",
          "type": "uint256"
        },
        {
          "internalType": "uint256",
          "name": "_amount",
          "type": "uint256"
        },
        {
          "internalType": "uint256",
          "name": "_minPoolTokens",
          "type": "uint256"
        }
      ],
      "name": "depositLPWithToken",
      "outputs": [],
      "stateMutability": "payable",
      "type": "function"
    },
    {
      "inputs": [
        {
          "internalType": "uint256",
          "name": "_pid",
          "type": "uint256"
        },
        {
          "internalType": "uint256",
          "name": "_amount",
          "type": "uint256"
        }
      ],
      "name": "depositLP",
      "outputs": [],
      "stateMutability": "nonpayable",
      "type": "function"
    },
    {
      "inputs": [
        {
          "internalType": "uint256",
          "name": "_pid",
          "type": "uint256"
        },
        {
          "internalType": "uint256",
          "name": "_amount",
          "type": "uint256"
        }
      ],
      "name": "withdrawLPWithToken",
      "outputs": [],
      "stateMutability": "nonpayable",
      "type": "function"
    },
    {
      "inputs": [
        {
          "internalType": "uint256",
          "name": "_pid",
          "type": "uint256"
        },
        {
          "internalType": "uint256",
          "name": "_amount",
          "type": "uint256"
        }
      ],
      "name": "withdrawLP",
      "outputs": [],
      "stateMutability": "nonpayable",
      "type": "function"
    },
    {
      "inputs": [
        {
          "internalType": "uint256",
          "name": "_pid",
          "type": "uint256"
        }
      ],
      "name": "emergencyWithdraw",
      "outputs": [],
      "stateMutability": "nonpayable",
      "type": "function"
    },
    {
      "inputs": [
        {
          "internalType": "address",
          "name": "_devaddr",
          "type": "address"
        }
      ],
      "name": "dev",
      "outputs": [],
      "stateMutability": "nonpayable",
      "type": "function"
    },
    {
      "inputs": [
        {
          "internalType": "uint256",
          "name": "_pid",
          "type": "uint256"
        },
        {
          "internalType": "contract IXPriceOracle",
          "name": "_xPoolOracle",
          "type": "address"
        }
      ],
      "name": "setPriceOracle",
      "outputs": [],
      "stateMutability": "nonpayable",
      "type": "function"
    },
    {
      "inputs": [],
      "name": "pauseDistribution",
      "outputs": [],
      "stateMutability": "nonpayable",
      "type": "function"
    },
    {
      "inputs": [],
      "name": "resumeDistribution",
      "outputs": [],
      "stateMutability": "nonpayable",
      "type": "function"
    },
    {
      "inputs": [
        {
          "internalType": "uint256",
          "name": "_newReward",
          "type": "uint256"
        }
      ],
      "name": "setXFITRewardPerBlock",
      "outputs": [],
      "stateMutability": "nonpayable",
      "type": "function"
    },
    {
      "inputs": [
        {
          "internalType": "uint256",
          "name": "_newExitFeeFactor",
          "type": "uint256"
        }
      ],
      "name": "setExitFeeFactor",
      "outputs": [],
      "stateMutability": "nonpayable",
      "type": "function"
    },
    {
      "inputs": [
        {
          "internalType": "uint256",
          "name": "amount",
          "type": "uint256"
        }
      ],
      "name": "withdrawAdminXFIT",
      "outputs": [],
      "stateMutability": "nonpayable",
      "type": "function"
    },
    {
      "inputs": [
        {
          "internalType": "uint256",
          "name": "_pid",
          "type": "uint256"
        },
        {
          "internalType": "uint256",
          "name": "_amount",
          "type": "uint256"
        }
      ],
      "name": "withdrawAdminFunding",
      "outputs": [],
      "stateMutability": "nonpayable",
      "type": "function"
    }
  ],
  "bytecode": "0x60806040526000600e553480156200001657600080fd5b5060405162005c0738038062005c0783398181016040526101008110156200003d57600080fd5b810190808051906020019092919080519060200190929190805190602001909291908051906020019092919080519060200190929190805190602001909291908051906020019092919080519060200190929190505050818160016000819055506000620000b06200022660201b60201c565b905080600160006101000a81548173ffffffffffffffffffffffffffffffffffffffff021916908373ffffffffffffffffffffffffffffffffffffffff1602179055508073ffffffffffffffffffffffffffffffffffffffff16600073ffffffffffffffffffffffffffffffffffffffff167f8be0079c531659141344cd1fd0a4f28419497f9722a3daafe3b4186f6b6457e060405160405180910390a350816003819055508060048190555050506000600560006101000a81548160ff02191690831515021790555087600760006101000a81548173ffffffffffffffffffffffffffffffffffffffff021916908373ffffffffffffffffffffffffffffffffffffffff16021790555086600860006101000a81548173ffffffffffffffffffffffffffffffffffffffff021916908373ffffffffffffffffffffffffffffffffffffffff16021790555085600a819055508260098190555083600f8190555084600b8190555050505050505050506200022e565b600033905090565b6159c9806200023e6000396000f3fe6080604052600436106102465760003560e01c80635c975abb1161013957806393f1a40b116100b6578063bfe50f721161007a578063bfe50f7214610b40578063c5c4744c14610b85578063d49e77cd14610bb0578063e3c947c914610bf1578063ee5c23fd14610c2c578063f2fde38b14610c6757610246565b806393f1a40b1461098b57806395c64a3b14610a0a578063b47ab19e14610a4b578063b7c69cb714610aa6578063b97d0b8214610b1557610246565b80638aa28550116100fd5780638aa28550146108305780638d88a90e1461085b5780638da5cb5b146108ac5780638dbb1e3a146108ed57806391918d641461094657610246565b80635c975abb14610749578063630b5ba11461077657806364482f791461078d578063715018a6146107de578063739d58c0146107f557610246565b80632b8c74ff116101c75780634c046eb51161018b5780634c046eb514610601578063502c9bd51461062c57806351eb05a6146106915780635312ea8e146106cc5780635b395fdc1461070757610246565b80632b8c74ff1461049857806331cec7a3146104dd5780633eaf0098146104f457806347260cbb1461052f57806348cd4cb1146105d657610246565b8063159a1f801161020e578063159a1f80146103c157806317caf6f1146103ec57806318369be1146104175780631aed6553146104425780632b782ebd1461046d57610246565b8063081e3eda1461024b5780630ae1083314610276578063127f5b2b146102bb57806313267805146102f65780631526fe271461030d575b600080fd5b34801561025757600080fd5b50610260610cb8565b6040518082815260200191505060405180910390f35b34801561028257600080fd5b506102b96004803603604081101561029957600080fd5b810190808035906020019092919080359060200190929190505050610cc5565b005b3480156102c757600080fd5b506102f4600480360360208110156102de57600080fd5b8101908080359060200190929190505050610ef8565b005b34801561030257600080fd5b5061030b610fb1565b005b34801561031957600080fd5b506103466004803603602081101561033057600080fd5b810190808035906020019092919050505061106a565b604051808773ffffffffffffffffffffffffffffffffffffffff1681526020018673ffffffffffffffffffffffffffffffffffffffff1681526020018573ffffffffffffffffffffffffffffffffffffffff168152602001848152602001838152602001828152602001965050505050505060405180910390f35b3480156103cd57600080fd5b506103d6611113565b6040518082815260200191505060405180910390f35b3480156103f857600080fd5b50610401611119565b6040518082815260200191505060405180910390f35b34801561042357600080fd5b5061042c61111f565b6040518082815260200191505060405180910390f35b34801561044e57600080fd5b50610457611124565b6040518082815260200191505060405180910390f35b34801561047957600080fd5b5061048261112a565b6040518082815260200191505060405180910390f35b3480156104a457600080fd5b506104db600480360360408110156104bb57600080fd5b810190808035906020019092919080359060200190929190505050611130565b005b3480156104e957600080fd5b506104f2611195565b005b34801561050057600080fd5b5061052d6004803603602081101561051757600080fd5b810190808035906020019092919050505061124e565b005b34801561053b57600080fd5b506105d4600480360360a081101561055257600080fd5b8101908080359060200190929190803573ffffffffffffffffffffffffffffffffffffffff169060200190929190803573ffffffffffffffffffffffffffffffffffffffff169060200190929190803573ffffffffffffffffffffffffffffffffffffffff169060200190929190803515159060200190929190505050611307565b005b3480156105e257600080fd5b506105eb61158f565b6040518082815260200191505060405180910390f35b34801561060d57600080fd5b50610616611595565b6040518082815260200191505060405180910390f35b34801561063857600080fd5b506106656004803603602081101561064f57600080fd5b810190808035906020019092919050505061159b565b604051808273ffffffffffffffffffffffffffffffffffffffff16815260200191505060405180910390f35b34801561069d57600080fd5b506106ca600480360360208110156106b457600080fd5b81019080803590602001909291905050506115d7565b005b3480156106d857600080fd5b50610705600480360360208110156106ef57600080fd5b810190808035906020019092919050505061189c565b005b6107476004803603606081101561071d57600080fd5b810190808035906020019092919080359060200190929190803590602001909291905050506119d0565b005b34801561075557600080fd5b5061075e611afa565b60405180821515815260200191505060405180910390f35b34801561078257600080fd5b5061078b611b11565b005b34801561079957600080fd5b506107dc600480360360608110156107b057600080fd5b810190808035906020019092919080359060200190929190803515159060200190929190505050611b3e565b005b3480156107ea57600080fd5b506107f3611c6f565b005b34801561080157600080fd5b5061082e6004803603602081101561081857600080fd5b8101908080359060200190929190505050611ddf565b005b34801561083c57600080fd5b50610845611ea0565b6040518082815260200191505060405180910390f35b34801561086757600080fd5b506108aa6004803603602081101561087e57600080fd5b81019080803573ffffffffffffffffffffffffffffffffffffffff169060200190929190505050611ea5565b005b3480156108b857600080fd5b506108c1611f98565b604051808273ffffffffffffffffffffffffffffffffffffffff16815260200191505060405180910390f35b3480156108f957600080fd5b506109306004803603604081101561091057600080fd5b810190808035906020019092919080359060200190929190505050611fc2565b6040518082815260200191505060405180910390f35b34801561095257600080fd5b506109896004803603604081101561096957600080fd5b810190808035906020019092919080359060200190929190505050612074565b005b34801561099757600080fd5b506109e4600480360360408110156109ae57600080fd5b8101908080359060200190929190803573ffffffffffffffffffffffffffffffffffffffff169060200190929190505050612100565b604051808481526020018381526020018215158152602001935050505060405180910390f35b348015610a1657600080fd5b50610a1f612144565b604051808273ffffffffffffffffffffffffffffffffffffffff16815260200191505060405180910390f35b348015610a5757600080fd5b50610aa460048036036040811015610a6e57600080fd5b8101908080359060200190929190803573ffffffffffffffffffffffffffffffffffffffff16906020019092919050505061216a565b005b348015610ab257600080fd5b50610aff60048036036040811015610ac957600080fd5b8101908080359060200190929190803573ffffffffffffffffffffffffffffffffffffffff169060200190929190505050612280565b6040518082815260200191505060405180910390f35b348015610b2157600080fd5b50610b2a6124c6565b6040518082815260200191505060405180910390f35b348015610b4c57600080fd5b50610b8360048036036040811015610b6357600080fd5b8101908080359060200190929190803590602001909291905050506124d3565b005b348015610b9157600080fd5b50610b9a61255e565b6040518082815260200191505060405180910390f35b348015610bbc57600080fd5b50610bc5612564565b604051808273ffffffffffffffffffffffffffffffffffffffff16815260200191505060405180910390f35b348015610bfd57600080fd5b50610c2a60048036036020811015610c1457600080fd5b810190808035906020019092919050505061258a565b005b348015610c3857600080fd5b50610c6560048036036020811015610c4f57600080fd5b810190808035906020019092919050505061270b565b005b348015610c7357600080fd5b50610cb660048036036020811015610c8a57600080fd5b81019080803573ffffffffffffffffffffffffffffffffffffffff1690602001909291905050506127c4565b005b6000600c80549050905090565b610ccd6129b9565b73ffffffffffffffffffffffffffffffffffffffff16610ceb611f98565b73ffffffffffffffffffffffffffffffffffffffff1614610d74576040517f08c379a00000000000000000000000000000000000000000000000000000000081526004018080602001828103825260208152602001807f4f776e61626c653a2063616c6c6572206973206e6f7420746865206f776e657281525060200191505060405180910390fd5b610d7c6157e5565b600c8381548110610d8957fe5b90600052602060002090600602016040518060c00160405290816000820160009054906101000a900473ffffffffffffffffffffffffffffffffffffffff1673ffffffffffffffffffffffffffffffffffffffff1673ffffffffffffffffffffffffffffffffffffffff1681526020016001820160009054906101000a900473ffffffffffffffffffffffffffffffffffffffff1673ffffffffffffffffffffffffffffffffffffffff1673ffffffffffffffffffffffffffffffffffffffff1681526020016002820160009054906101000a900473ffffffffffffffffffffffffffffffffffffffff1673ffffffffffffffffffffffffffffffffffffffff1673ffffffffffffffffffffffffffffffffffffffff16815260200160038201548152602001600482015481526020016005820154815250509050610ef33383836020015173ffffffffffffffffffffffffffffffffffffffff166129c19092919063ffffffff16565b505050565b610f006129b9565b73ffffffffffffffffffffffffffffffffffffffff16610f1e611f98565b73ffffffffffffffffffffffffffffffffffffffff1614610fa7576040517f08c379a00000000000000000000000000000000000000000000000000000000081526004018080602001828103825260208152602001807f4f776e61626c653a2063616c6c6572206973206e6f7420746865206f776e657281525060200191505060405180910390fd5b8060048190555050565b610fb96129b9565b73ffffffffffffffffffffffffffffffffffffffff16610fd7611f98565b73ffffffffffffffffffffffffffffffffffffffff1614611060576040517f08c379a00000000000000000000000000000000000000000000000000000000081526004018080602001828103825260208152602001807f4f776e61626c653a2063616c6c6572206973206e6f7420746865206f776e657281525060200191505060405180910390fd5b611068612a63565b565b600c818154811061107757fe5b90600052602060002090600602016000915090508060000160009054906101000a900473ffffffffffffffffffffffffffffffffffffffff16908060010160009054906101000a900473ffffffffffffffffffffffffffffffffffffffff16908060020160009054906101000a900473ffffffffffffffffffffffffffffffffffffffff16908060030154908060040154908060050154905086565b600b5481565b600e5481565b600a81565b60095481565b600a5481565b600061113e83836000612b4e565b90506000600c848154811061114f57fe5b9060005260206000209060060201905061118d8160000160009054906101000a900473ffffffffffffffffffffffffffffffffffffffff1683612ea6565b505050505050565b61119d6129b9565b73ffffffffffffffffffffffffffffffffffffffff166111bb611f98565b73ffffffffffffffffffffffffffffffffffffffff1614611244576040517f08c379a00000000000000000000000000000000000000000000000000000000081526004018080602001828103825260208152602001807f4f776e61626c653a2063616c6c6572206973206e6f7420746865206f776e657281525060200191505060405180910390fd5b61124c6135d4565b565b6112566129b9565b73ffffffffffffffffffffffffffffffffffffffff16611274611f98565b73ffffffffffffffffffffffffffffffffffffffff16146112fd576040517f08c379a00000000000000000000000000000000000000000000000000000000081526004018080602001828103825260208152602001807f4f776e61626c653a2063616c6c6572206973206e6f7420746865206f776e657281525060200191505060405180910390fd5b8060038190555050565b61130f6129b9565b73ffffffffffffffffffffffffffffffffffffffff1661132d611f98565b73ffffffffffffffffffffffffffffffffffffffff16146113b6576040517f08c379a00000000000000000000000000000000000000000000000000000000081526004018080602001828103825260208152602001807f4f776e61626c653a2063616c6c6572206973206e6f7420746865206f776e657281525060200191505060405180910390fd5b80156113c5576113c4611b11565b5b6000600f5443116113d857600f546113da565b435b90506113f186600e546136c090919063ffffffff16565b600e81905550600c6040518060c001604052808773ffffffffffffffffffffffffffffffffffffffff1681526020018673ffffffffffffffffffffffffffffffffffffffff1681526020018573ffffffffffffffffffffffffffffffffffffffff1681526020018881526020018381526020016000815250908060018154018082558091505060019003906000526020600020906006020160009091909190915060008201518160000160006101000a81548173ffffffffffffffffffffffffffffffffffffffff021916908373ffffffffffffffffffffffffffffffffffffffff16021790555060208201518160010160006101000a81548173ffffffffffffffffffffffffffffffffffffffff021916908373ffffffffffffffffffffffffffffffffffffffff16021790555060408201518160020160006101000a81548173ffffffffffffffffffffffffffffffffffffffff021916908373ffffffffffffffffffffffffffffffffffffffff160217905550606082015181600301556080820151816004015560a082015181600501555050505050505050565b600f5481565b60045481565b600681815481106115a857fe5b906000526020600020016000915054906101000a900473ffffffffffffffffffffffffffffffffffffffff1681565b6000600c82815481106115e657fe5b90600052602060002090600602019050806004015443116116075750611899565b60008160000160009054906101000a900473ffffffffffffffffffffffffffffffffffffffff1673ffffffffffffffffffffffffffffffffffffffff166370a08231306040518263ffffffff1660e01b8152600401808273ffffffffffffffffffffffffffffffffffffffff16815260200191505060206040518083038186803b15801561169457600080fd5b505afa1580156116a8573d6000803e3d6000fd5b505050506040513d60208110156116be57600080fd5b8101908080519060200190929190505050905060008114156116ea574382600401819055505050611899565b60006116fa836004015443611fc2565b9050600061173d600e5461172f8660030154611721600a548761374890919063ffffffff16565b61374890919063ffffffff16565b6137ce90919063ffffffff16565b9050600760009054906101000a900473ffffffffffffffffffffffffffffffffffffffff1673ffffffffffffffffffffffffffffffffffffffff1663a9059cbb600860009054906101000a900473ffffffffffffffffffffffffffffffffffffffff166117b4600a856137ce90919063ffffffff16565b6040518363ffffffff1660e01b8152600401808373ffffffffffffffffffffffffffffffffffffffff16815260200182815260200192505050602060405180830381600087803b15801561180757600080fd5b505af115801561181b573d6000803e3d6000fd5b505050506040513d602081101561183157600080fd5b8101908080519060200190929190505050506118836118708461186264e8d4a510008561374890919063ffffffff16565b6137ce90919063ffffffff16565b85600501546136c090919063ffffffff16565b8460050181905550438460040181905550505050505b50565b6000600c82815481106118ab57fe5b906000526020600020906006020190506000600d600084815260200190815260200160002060003373ffffffffffffffffffffffffffffffffffffffff1673ffffffffffffffffffffffffffffffffffffffff1681526020019081526020016000209050600081600001549050600082600001819055506000826001018190555061197b33828560000160009054906101000a900473ffffffffffffffffffffffffffffffffffffffff1673ffffffffffffffffffffffffffffffffffffffff166129c19092919063ffffffff16565b833373ffffffffffffffffffffffffffffffffffffffff167fbb757047c2b5f3974fe26b7c10f732e7bce710b0952a71082702781e62ae0595836040518082815260200191505060405180910390a350505050565b6119d8611afa565b15611a4b576040517f08c379a00000000000000000000000000000000000000000000000000000000081526004018080602001828103825260108152602001807f5061757361626c653a207061757365640000000000000000000000000000000081525060200191505060405180910390fd5b6000600c8481548110611a5a57fe5b906000526020600020906006020190506000611ae58260010160009054906101000a900473ffffffffffffffffffffffffffffffffffffffff168360000160009054906101000a900473ffffffffffffffffffffffffffffffffffffffff168460020160009054906101000a900473ffffffffffffffffffffffffffffffffffffffff168787613857565b9050611af385826000613a40565b5050505050565b6000600560009054906101000a900460ff16905090565b6000600c80549050905060005b81811015611b3a57611b2f816115d7565b806001019050611b1e565b5050565b611b466129b9565b73ffffffffffffffffffffffffffffffffffffffff16611b64611f98565b73ffffffffffffffffffffffffffffffffffffffff1614611bed576040517f08c379a00000000000000000000000000000000000000000000000000000000081526004018080602001828103825260208152602001807f4f776e61626c653a2063616c6c6572206973206e6f7420746865206f776e657281525060200191505060405180910390fd5b8015611bfc57611bfb611b11565b5b611c4182611c33600c8681548110611c1057fe5b906000526020600020906006020160030154600e54613ce290919063ffffffff16565b6136c090919063ffffffff16565b600e8190555081600c8481548110611c5557fe5b906000526020600020906006020160030181905550505050565b611c776129b9565b73ffffffffffffffffffffffffffffffffffffffff16611c95611f98565b73ffffffffffffffffffffffffffffffffffffffff1614611d1e576040517f08c379a00000000000000000000000000000000000000000000000000000000081526004018080602001828103825260208152602001807f4f776e61626c653a2063616c6c6572206973206e6f7420746865206f776e657281525060200191505060405180910390fd5b600073ffffffffffffffffffffffffffffffffffffffff16600160009054906101000a900473ffffffffffffffffffffffffffffffffffffffff1673ffffffffffffffffffffffffffffffffffffffff167f8be0079c531659141344cd1fd0a4f28419497f9722a3daafe3b4186f6b6457e060405160405180910390a36000600160006101000a81548173ffffffffffffffffffffffffffffffffffffffff021916908373ffffffffffffffffffffffffffffffffffffffff160217905550565b611de76129b9565b73ffffffffffffffffffffffffffffffffffffffff16611e05611f98565b73ffffffffffffffffffffffffffffffffffffffff1614611e8e576040517f08c379a00000000000000000000000000000000000000000000000000000000081526004018080602001828103825260208152602001807f4f776e61626c653a2063616c6c6572206973206e6f7420746865206f776e657281525060200191505060405180910390fd5b611e96611b11565b80600a8190555050565b600281565b611ead6129b9565b73ffffffffffffffffffffffffffffffffffffffff16611ecb611f98565b73ffffffffffffffffffffffffffffffffffffffff1614611f54576040517f08c379a00000000000000000000000000000000000000000000000000000000081526004018080602001828103825260208152602001807f4f776e61626c653a2063616c6c6572206973206e6f7420746865206f776e657281525060200191505060405180910390fd5b80600860006101000a81548173ffffffffffffffffffffffffffffffffffffffff021916908373ffffffffffffffffffffffffffffffffffffffff16021790555050565b6000600160009054906101000a900473ffffffffffffffffffffffffffffffffffffffff16905090565b60006009548211611ffa57611ff36002611fe58585613ce290919063ffffffff16565b61374890919063ffffffff16565b905061206e565b600954831061201d576120168383613ce290919063ffffffff16565b905061206e565b61206b61203560095484613ce290919063ffffffff16565b61205d600261204f87600954613ce290919063ffffffff16565b61374890919063ffffffff16565b6136c090919063ffffffff16565b90505b92915050565b61207c611afa565b156120ef576040517f08c379a00000000000000000000000000000000000000000000000000000000081526004018080602001828103825260108152602001807f5061757361626c653a207061757365640000000000000000000000000000000081525060200191505060405180910390fd5b6120fb82826001612b4e565b505050565b600d602052816000526040600020602052806000526040600020600091509150508060000154908060010154908060020160009054906101000a900460ff16905083565b600760009054906101000a900473ffffffffffffffffffffffffffffffffffffffff1681565b6121726129b9565b73ffffffffffffffffffffffffffffffffffffffff16612190611f98565b73ffffffffffffffffffffffffffffffffffffffff1614612219576040517f08c379a00000000000000000000000000000000000000000000000000000000081526004018080602001828103825260208152602001807f4f776e61626c653a2063616c6c6572206973206e6f7420746865206f776e657281525060200191505060405180910390fd5b6000600c838154811061222857fe5b90600052602060002090600602019050818160020160006101000a81548173ffffffffffffffffffffffffffffffffffffffff021916908373ffffffffffffffffffffffffffffffffffffffff160217905550505050565b600080600c848154811061229057fe5b906000526020600020906006020190506000600d600086815260200190815260200160002060008573ffffffffffffffffffffffffffffffffffffffff1673ffffffffffffffffffffffffffffffffffffffff168152602001908152602001600020905060008260050154905060008360000160009054906101000a900473ffffffffffffffffffffffffffffffffffffffff1673ffffffffffffffffffffffffffffffffffffffff166370a08231306040518263ffffffff1660e01b8152600401808273ffffffffffffffffffffffffffffffffffffffff16815260200191505060206040518083038186803b15801561238a57600080fd5b505afa15801561239e573d6000803e3d6000fd5b505050506040513d60208110156123b457600080fd5b810190808051906020019092919050505090508360040154431180156123db575060008114155b156124765760006123f0856004015443611fc2565b90506000612433600e546124258860030154612417600a548761374890919063ffffffff16565b61374890919063ffffffff16565b6137ce90919063ffffffff16565b90506124716124628461245464e8d4a510008561374890919063ffffffff16565b6137ce90919063ffffffff16565b856136c090919063ffffffff16565b935050505b6124ba83600101546124ac64e8d4a5100061249e86886000015461374890919063ffffffff16565b6137ce90919063ffffffff16565b613ce290919063ffffffff16565b94505050505092915050565b6000600680549050905090565b6124db611afa565b1561254e576040517f08c379a00000000000000000000000000000000000000000000000000000000081526004018080602001828103825260108152602001807f5061757361626c653a207061757365640000000000000000000000000000000081525060200191505060405180910390fd5b61255a82826001613a40565b5050565b60025481565b600860009054906101000a900473ffffffffffffffffffffffffffffffffffffffff1681565b6125926129b9565b73ffffffffffffffffffffffffffffffffffffffff166125b0611f98565b73ffffffffffffffffffffffffffffffffffffffff1614612639576040517f08c379a00000000000000000000000000000000000000000000000000000000081526004018080602001828103825260208152602001807f4f776e61626c653a2063616c6c6572206973206e6f7420746865206f776e657281525060200191505060405180910390fd5b600760009054906101000a900473ffffffffffffffffffffffffffffffffffffffff1673ffffffffffffffffffffffffffffffffffffffff1663a9059cbb33836040518363ffffffff1660e01b8152600401808373ffffffffffffffffffffffffffffffffffffffff16815260200182815260200192505050602060405180830381600087803b1580156126cc57600080fd5b505af11580156126e0573d6000803e3d6000fd5b505050506040513d60208110156126f657600080fd5b81019080805190602001909291905050505050565b6127136129b9565b73ffffffffffffffffffffffffffffffffffffffff16612731611f98565b73ffffffffffffffffffffffffffffffffffffffff16146127ba576040517f08c379a00000000000000000000000000000000000000000000000000000000081526004018080602001828103825260208152602001807f4f776e61626c653a2063616c6c6572206973206e6f7420746865206f776e657281525060200191505060405180910390fd5b80600b8190555050565b6127cc6129b9565b73ffffffffffffffffffffffffffffffffffffffff166127ea611f98565b73ffffffffffffffffffffffffffffffffffffffff1614612873576040517f08c379a00000000000000000000000000000000000000000000000000000000081526004018080602001828103825260208152602001807f4f776e61626c653a2063616c6c6572206973206e6f7420746865206f776e657281525060200191505060405180910390fd5b600073ffffffffffffffffffffffffffffffffffffffff168173ffffffffffffffffffffffffffffffffffffffff1614156128f9576040517f08c379a000000000000000000000000000000000000000000000000000000000815260040180806020018281038252602681526020018061588d6026913960400191505060405180910390fd5b8073ffffffffffffffffffffffffffffffffffffffff16600160009054906101000a900473ffffffffffffffffffffffffffffffffffffffff1673ffffffffffffffffffffffffffffffffffffffff167f8be0079c531659141344cd1fd0a4f28419497f9722a3daafe3b4186f6b6457e060405160405180910390a380600160006101000a81548173ffffffffffffffffffffffffffffffffffffffff021916908373ffffffffffffffffffffffffffffffffffffffff16021790555050565b600033905090565b612a5e8363a9059cbb60e01b8484604051602401808373ffffffffffffffffffffffffffffffffffffffff16815260200182815260200192505050604051602081830303815290604052907bffffffffffffffffffffffffffffffffffffffffffffffffffffffff19166020820180517bffffffffffffffffffffffffffffffffffffffffffffffffffffffff8381831617835250505050613d65565b505050565b612a6b611afa565b612add576040517f08c379a00000000000000000000000000000000000000000000000000000000081526004018080602001828103825260148152602001807f5061757361626c653a206e6f742070617573656400000000000000000000000081525060200191505060405180910390fd5b6000600560006101000a81548160ff0219169083151502179055507f5db9ee0a495bf2e6ff9c91a7834c1ba4fdd244a5e8aa4e537bd38aeae4b073aa612b216129b9565b604051808273ffffffffffffffffffffffffffffffffffffffff16815260200191505060405180910390a1565b600080600c8581548110612b5e57fe5b906000526020600020906006020190506000600d600087815260200190815260200160002060003373ffffffffffffffffffffffffffffffffffffffff1673ffffffffffffffffffffffffffffffffffffffff16815260200190815260200160002090508481600001541015612c3c576040517f08c379a00000000000000000000000000000000000000000000000000000000081526004018080602001828103825260128152602001807f77697468647261773a206e6f7420676f6f64000000000000000000000000000081525060200191505060405180910390fd5b612c45866115d7565b6000612c8f8260010154612c8164e8d4a51000612c738760050154876000015461374890919063ffffffff16565b6137ce90919063ffffffff16565b613ce290919063ffffffff16565b90506000811115612ca557612ca43382613e54565b5b60008690506000871115612e0f57612cca878460000154613ce290919063ffffffff16565b83600001819055506000612d16670de0b6b3a7640000612d086064612cfa600b548d61374890919063ffffffff16565b6137ce90919063ffffffff16565b6137ce90919063ffffffff16565b9050600115158715151415612d8757612d8633612d3c838b613ce290919063ffffffff16565b8760000160009054906101000a900473ffffffffffffffffffffffffffffffffffffffff1673ffffffffffffffffffffffffffffffffffffffff166129c19092919063ffffffff16565b5b612df8600860009054906101000a900473ffffffffffffffffffffffffffffffffffffffff16828760000160009054906101000a900473ffffffffffffffffffffffffffffffffffffffff1673ffffffffffffffffffffffffffffffffffffffff166129c19092919063ffffffff16565b612e0b8189613ce290919063ffffffff16565b9150505b612e4164e8d4a51000612e338660050154866000015461374890919063ffffffff16565b6137ce90919063ffffffff16565b8360010181905550873373ffffffffffffffffffffffffffffffffffffffff167ff279e6a1f5e320cca91135676d9cb6e44ca8a08c0b88342bcdb1144f6511b568896040518082815260200191505060405180910390a3809450505050509392505050565b60008060026000541415612f22576040517f08c379a000000000000000000000000000000000000000000000000000000000815260040180806020018281038252601f8152602001807f5265656e7472616e637947756172643a207265656e7472616e742063616c6c0081525060200191505060405180910390fd5b60026000819055506000849050600073ffffffffffffffffffffffffffffffffffffffff168173ffffffffffffffffffffffffffffffffffffffff161415612fd2576040517f08c379a000000000000000000000000000000000000000000000000000000000815260040180806020018281038252601e8152602001807f4572726f723a20496e76616c696420556e69706f6f6c2041646472657373000081525060200191505060405180910390fd5b60008173ffffffffffffffffffffffffffffffffffffffff16630dfe16816040518163ffffffff1660e01b815260040160206040518083038186803b15801561301a57600080fd5b505afa15801561302e573d6000803e3d6000fd5b505050506040513d602081101561304457600080fd5b8101908080519060200190929190505050905060008273ffffffffffffffffffffffffffffffffffffffff1663d21220a76040518163ffffffff1660e01b815260040160206040518083038186803b15801561309f57600080fd5b505afa1580156130b3573d6000803e3d6000fd5b505050506040513d60208110156130c957600080fd5b8101908080519060200190929190505050905061311b737a250d5630b4cf539739df2c5dacb4c659f2488d878973ffffffffffffffffffffffffffffffffffffffff166140cd9092919063ffffffff16565b60008073c02aaa39b223fe8d0a0e5c4f27ead9083c756cc273ffffffffffffffffffffffffffffffffffffffff168473ffffffffffffffffffffffffffffffffffffffff1614806131ab575073c02aaa39b223fe8d0a0e5c4f27ead9083c756cc273ffffffffffffffffffffffffffffffffffffffff168373ffffffffffffffffffffffffffffffffffffffff16145b1561336657600073c02aaa39b223fe8d0a0e5c4f27ead9083c756cc273ffffffffffffffffffffffffffffffffffffffff168573ffffffffffffffffffffffffffffffffffffffff16146131ff5784613201565b835b9050737a250d5630b4cf539739df2c5dacb4c659f2488d73ffffffffffffffffffffffffffffffffffffffff166302751cec828b600180307ff0000000000000000000000000000000000000000000000000000000000000006040518763ffffffff1660e01b8152600401808773ffffffffffffffffffffffffffffffffffffffff1681526020018681526020018581526020018481526020018373ffffffffffffffffffffffffffffffffffffffff16815260200182815260200196505050505050506040805180830381600087803b1580156132de57600080fd5b505af11580156132f2573d6000803e3d6000fd5b505050506040513d604081101561330857600080fd5b810190808051906020019092919080519060200190929190505050809350819450505061335633848373ffffffffffffffffffffffffffffffffffffffff166129c19092919063ffffffff16565b6133603383614292565b50613503565b737a250d5630b4cf539739df2c5dacb4c659f2488d73ffffffffffffffffffffffffffffffffffffffff1663baa2abde85858b600180307ff0000000000000000000000000000000000000000000000000000000000000006040518863ffffffff1660e01b8152600401808873ffffffffffffffffffffffffffffffffffffffff1681526020018773ffffffffffffffffffffffffffffffffffffffff1681526020018681526020018581526020018481526020018373ffffffffffffffffffffffffffffffffffffffff1681526020018281526020019750505050505050506040805180830381600087803b15801561345f57600080fd5b505af1158015613473573d6000803e3d6000fd5b505050506040513d604081101561348957600080fd5b81019080805190602001909291908051906020019092919050505080925081935050506134d733838673ffffffffffffffffffffffffffffffffffffffff166129c19092919063ffffffff16565b61350233828573ffffffffffffffffffffffffffffffffffffffff166129c19092919063ffffffff16565b5b7f8251496d51a0099361551b4a9901c85074f36c95f425405ad965a04c650a340b338a86858786604051808773ffffffffffffffffffffffffffffffffffffffff1681526020018673ffffffffffffffffffffffffffffffffffffffff1681526020018573ffffffffffffffffffffffffffffffffffffffff1681526020018481526020018373ffffffffffffffffffffffffffffffffffffffff168152602001828152602001965050505050505060405180910390a1818196509650505050505060016000819055509250929050565b6135dc611afa565b1561364f576040517f08c379a00000000000000000000000000000000000000000000000000000000081526004018080602001828103825260108152602001807f5061757361626c653a207061757365640000000000000000000000000000000081525060200191505060405180910390fd5b6001600560006101000a81548160ff0219169083151502179055507f62e78cea01bee320cd4e420270b5ea74000d11b0c9f74754ebdbfc544b05a2586136936129b9565b604051808273ffffffffffffffffffffffffffffffffffffffff16815260200191505060405180910390a1565b60008082840190508381101561373e576040517f08c379a000000000000000000000000000000000000000000000000000000000815260040180806020018281038252601b8152602001807f536166654d6174683a206164646974696f6e206f766572666c6f77000000000081525060200191505060405180910390fd5b8091505092915050565b60008083141561375b57600090506137c8565b600082840290508284828161376c57fe5b04146137c3576040517f08c379a00000000000000000000000000000000000000000000000000000000081526004018080602001828103825260218152602001806159136021913960400191505060405180910390fd5b809150505b92915050565b6000808211613845576040517f08c379a000000000000000000000000000000000000000000000000000000000815260040180806020018281038252601a8152602001807f536166654d6174683a206469766973696f6e206279207a65726f00000000000081525060200191505060405180910390fd5b81838161384e57fe5b04905092915050565b6000600260005414156138d2576040517f08c379a000000000000000000000000000000000000000000000000000000000815260040180806020018281038252601f8152602001807f5265656e7472616e637947756172643a207265656e7472616e742063616c6c0081525060200191505060405180910390fd5b600260008190555060006138e687856143cc565b905060008060006138f6896145a3565b915091508173ffffffffffffffffffffffffffffffffffffffff168a73ffffffffffffffffffffffffffffffffffffffff1614156139425761393b8a828b8b886146b7565b9250613952565b61394f8a838b8b886146b7565b92505b858310156139c8576040517f08c379a00000000000000000000000000000000000000000000000000000000081526004018080602001828103825260128152602001807f4552523a204869676820536c697070616765000000000000000000000000000081525060200191505060405180910390fd5b8773ffffffffffffffffffffffffffffffffffffffff1663a2e620456040518163ffffffff1660e01b8152600401600060405180830381600087803b158015613a1057600080fd5b505af1158015613a24573d6000803e3d6000fd5b5050505082945050505050600160008190555095945050505050565b6000600c8481548110613a4f57fe5b906000526020600020906006020190506000600d600086815260200190815260200160002060003373ffffffffffffffffffffffffffffffffffffffff1673ffffffffffffffffffffffffffffffffffffffff1681526020019081526020016000209050600015158160020160009054906101000a900460ff1615151415613b52576006339080600181540180825580915050600190039060005260206000200160009091909190916101000a81548173ffffffffffffffffffffffffffffffffffffffff021916908373ffffffffffffffffffffffffffffffffffffffff16021790555060018160020160006101000a81548160ff0219169083151502179055505b613b5b856115d7565b600081600001541115613bca576000613bb28260010154613ba464e8d4a51000613b968760050154876000015461374890919063ffffffff16565b6137ce90919063ffffffff16565b613ce290919063ffffffff16565b90506000811115613bc857613bc73382613e54565b5b505b6000841115613c5257600115158315151415613c3257613c313330868560000160009054906101000a900473ffffffffffffffffffffffffffffffffffffffff1673ffffffffffffffffffffffffffffffffffffffff16614a1c909392919063ffffffff16565b5b613c498482600001546136c090919063ffffffff16565b81600001819055505b613c8464e8d4a51000613c768460050154846000015461374890919063ffffffff16565b6137ce90919063ffffffff16565b8160010181905550843373ffffffffffffffffffffffffffffffffffffffff167f90890809c654f11d6e72a28fa60149770a0d11ec6c92319d6ceb2bb0a4ea1a15866040518082815260200191505060405180910390a35050505050565b600082821115613d5a576040517f08c379a000000000000000000000000000000000000000000000000000000000815260040180806020018281038252601e8152602001807f536166654d6174683a207375627472616374696f6e206f766572666c6f77000081525060200191505060405180910390fd5b818303905092915050565b6060613dc7826040518060400160405280602081526020017f5361666545524332303a206c6f772d6c6576656c2063616c6c206661696c65648152508573ffffffffffffffffffffffffffffffffffffffff16614add9092919063ffffffff16565b9050600081511115613e4f57808060200190516020811015613de857600080fd5b8101908080519060200190929190505050613e4e576040517f08c379a000000000000000000000000000000000000000000000000000000000815260040180806020018281038252602a815260200180615934602a913960400191505060405180910390fd5b5b505050565b6000600760009054906101000a900473ffffffffffffffffffffffffffffffffffffffff1673ffffffffffffffffffffffffffffffffffffffff166370a08231306040518263ffffffff1660e01b8152600401808273ffffffffffffffffffffffffffffffffffffffff16815260200191505060206040518083038186803b158015613edf57600080fd5b505afa158015613ef3573d6000803e3d6000fd5b505050506040513d6020811015613f0957600080fd5b8101908080519060200190929190505050905080821115613ff857600760009054906101000a900473ffffffffffffffffffffffffffffffffffffffff1673ffffffffffffffffffffffffffffffffffffffff1663a9059cbb84836040518363ffffffff1660e01b8152600401808373ffffffffffffffffffffffffffffffffffffffff16815260200182815260200192505050602060405180830381600087803b158015613fb757600080fd5b505af1158015613fcb573d6000803e3d6000fd5b505050506040513d6020811015613fe157600080fd5b8101908080519060200190929190505050506140c8565b600760009054906101000a900473ffffffffffffffffffffffffffffffffffffffff1673ffffffffffffffffffffffffffffffffffffffff1663a9059cbb84846040518363ffffffff1660e01b8152600401808373ffffffffffffffffffffffffffffffffffffffff16815260200182815260200192505050602060405180830381600087803b15801561408b57600080fd5b505af115801561409f573d6000803e3d6000fd5b505050506040513d60208110156140b557600080fd5b8101908080519060200190929190505050505b505050565b600081148061419b575060008373ffffffffffffffffffffffffffffffffffffffff1663dd62ed3e30856040518363ffffffff1660e01b8152600401808373ffffffffffffffffffffffffffffffffffffffff1681526020018273ffffffffffffffffffffffffffffffffffffffff1681526020019250505060206040518083038186803b15801561415e57600080fd5b505afa158015614172573d6000803e3d6000fd5b505050506040513d602081101561418857600080fd5b8101908080519060200190929190505050145b6141f0576040517f08c379a000000000000000000000000000000000000000000000000000000000815260040180806020018281038252603681526020018061595e6036913960400191505060405180910390fd5b61428d8363095ea7b360e01b8484604051602401808373ffffffffffffffffffffffffffffffffffffffff16815260200182815260200192505050604051602081830303815290604052907bffffffffffffffffffffffffffffffffffffffffffffffffffffffff19166020820180517bffffffffffffffffffffffffffffffffffffffffffffffffffffffff8381831617835250505050613d65565b505050565b80471015614308576040517f08c379a000000000000000000000000000000000000000000000000000000000815260040180806020018281038252601d8152602001807f416464726573733a20696e73756666696369656e742062616c616e636500000081525060200191505060405180910390fd5b60008273ffffffffffffffffffffffffffffffffffffffff168260405180600001905060006040518083038185875af1925050503d8060008114614368576040519150601f19603f3d011682016040523d82523d6000602084013e61436d565b606091505b50509050806143c7576040517f08c379a000000000000000000000000000000000000000000000000000000000815260040180806020018281038252603a8152602001806158b3603a913960400191505060405180910390fd5b505050565b60008073ffffffffffffffffffffffffffffffffffffffff168373ffffffffffffffffffffffffffffffffffffffff1614156144805760003411614478576040517f08c379a000000000000000000000000000000000000000000000000000000000815260040180806020018281038252600b8152602001807f4e6f206574682073656e7400000000000000000000000000000000000000000081525060200191505060405180910390fd5b34905061459d565b600082116144f6576040517f08c379a00000000000000000000000000000000000000000000000000000000081526004018080602001828103825260148152602001807f496e76616c696420746f6b656e20616d6f756e7400000000000000000000000081525060200191505060405180910390fd5b6000341461456c576040517f08c379a00000000000000000000000000000000000000000000000000000000081526004018080602001828103825260138152602001807f4574682073656e74207769746820746f6b656e0000000000000000000000000081525060200191505060405180910390fd5b6145993330848673ffffffffffffffffffffffffffffffffffffffff16614a1c909392919063ffffffff16565b8190505b92915050565b60008060008390508073ffffffffffffffffffffffffffffffffffffffff16630dfe16816040518163ffffffff1660e01b815260040160206040518083038186803b1580156145f157600080fd5b505afa158015614605573d6000803e3d6000fd5b505050506040513d602081101561461b57600080fd5b810190808051906020019092919050505092508073ffffffffffffffffffffffffffffffffffffffff1663d21220a76040518163ffffffff1660e01b815260040160206040518083038186803b15801561467457600080fd5b505afa158015614688573d6000803e3d6000fd5b505050506040513d602081101561469e57600080fd5b8101908080519060200190929190505050915050915091565b60006146c161585d565b6146d56002846137ce90919063ffffffff16565b8160000181815250508373ffffffffffffffffffffffffffffffffffffffff16633ddac9538883600001516040518363ffffffff1660e01b8152600401808373ffffffffffffffffffffffffffffffffffffffff1681526020018281526020019250505060206040518083038186803b15801561475157600080fd5b505afa158015614765573d6000803e3d6000fd5b505050506040513d602081101561477b57600080fd5b810190808051906020019092919050505081602001818152505060006147ca670de0b6b3a76400006147bc600454856000015161374890919063ffffffff16565b6137ce90919063ffffffff16565b90508673ffffffffffffffffffffffffffffffffffffffff166370a08231306040518263ffffffff1660e01b8152600401808273ffffffffffffffffffffffffffffffffffffffff16815260200191505060206040518083038186803b15801561483357600080fd5b505afa158015614847573d6000803e3d6000fd5b505050506040513d602081101561485d57600080fd5b81019080805190602001909291905050508260800181815250506148906003548360800151613ce290919063ffffffff16565b826020015110156148f457816000015182604001818152505081602001518260600181815250506148c2888883614af5565b6148ed6148dc828460000151613ce290919063ffffffff16565b6002546136c090919063ffffffff16565b6002819055505b61490d6003548360800151613ce290919063ffffffff16565b82602001511061493557614922888786614b06565b8360400184606001828152508281525050505b600080600061494e8b8b87604001518860600151614cbc565b9250925092507fe52a8d6444a86a0f9c4d5e4022c26ec5f9e2c0a873c0733b601b0ddc04a942d9338a8d858e86604051808773ffffffffffffffffffffffffffffffffffffffff1681526020018673ffffffffffffffffffffffffffffffffffffffff1681526020018573ffffffffffffffffffffffffffffffffffffffff1681526020018481526020018373ffffffffffffffffffffffffffffffffffffffff168152602001828152602001965050505050505060405180910390a1829550505050505095945050505050565b614ad7846323b872dd60e01b858585604051602401808473ffffffffffffffffffffffffffffffffffffffff1681526020018373ffffffffffffffffffffffffffffffffffffffff1681526020018281526020019350505050604051602081830303815290604052907bffffffffffffffffffffffffffffffffffffffffffffffffffffffff19166020820180517bffffffffffffffffffffffffffffffffffffffffffffffffffffffff8381831617835250505050613d65565b50505050565b6060614aec8484600085614fe3565b90509392505050565b614b0083838361518c565b50505050565b600080600080614b15866145a3565b915091506000808773ffffffffffffffffffffffffffffffffffffffff16630902f1ac6040518163ffffffff1660e01b815260040160606040518083038186803b158015614b6257600080fd5b505afa158015614b76573d6000803e3d6000fd5b505050506040513d6060811015614b8c57600080fd5b81019080805190602001909291908051906020019092919080519060200190929190505050506dffffffffffffffffffffffffffff1691506dffffffffffffffffffffffffffff1691508373ffffffffffffffffffffffffffffffffffffffff168973ffffffffffffffffffffffffffffffffffffffff161415614c5f576000614c168389615622565b905060008111614c3757614c346002896137ce90919063ffffffff16565b90505b614c428a858361518c565b9550614c578189613ce290919063ffffffff16565b965050614cb0565b6000614c6b8289615622565b905060008111614c8c57614c896002896137ce90919063ffffffff16565b90505b614c978a868361518c565b9650614cac8189613ce290919063ffffffff16565b9550505b50505050935093915050565b6000806000614d01737a250d5630b4cf539739df2c5dacb4c659f2488d60008973ffffffffffffffffffffffffffffffffffffffff166140cd9092919063ffffffff16565b614d41737a250d5630b4cf539739df2c5dacb4c659f2488d60008873ffffffffffffffffffffffffffffffffffffffff166140cd9092919063ffffffff16565b614d80737a250d5630b4cf539739df2c5dacb4c659f2488d868973ffffffffffffffffffffffffffffffffffffffff166140cd9092919063ffffffff16565b614dbf737a250d5630b4cf539739df2c5dacb4c659f2488d858873ffffffffffffffffffffffffffffffffffffffff166140cd9092919063ffffffff16565b6000806000737a250d5630b4cf539739df2c5dacb4c659f2488d73ffffffffffffffffffffffffffffffffffffffff1663e8e337008b8b8b8b600180307ff0000000000000000000000000000000000000000000000000000000000000006040518963ffffffff1660e01b8152600401808973ffffffffffffffffffffffffffffffffffffffff1681526020018873ffffffffffffffffffffffffffffffffffffffff1681526020018781526020018681526020018581526020018481526020018373ffffffffffffffffffffffffffffffffffffffff16815260200182815260200198505050505050505050606060405180830381600087803b158015614ec657600080fd5b505af1158015614eda573d6000803e3d6000fd5b505050506040513d6060811015614ef057600080fd5b810190808051906020019092919080519060200190929190805190602001909291905050509250925092506000614f30848a613ce290919063ffffffff16565b1115614f7457614f7333614f4d858b613ce290919063ffffffff16565b8c73ffffffffffffffffffffffffffffffffffffffff166129c19092919063ffffffff16565b5b6000614f898389613ce290919063ffffffff16565b1115614fcd57614fcc33614fa6848a613ce290919063ffffffff16565b8b73ffffffffffffffffffffffffffffffffffffffff166129c19092919063ffffffff16565b5b8083839550955095505050509450945094915050565b60608247101561503e576040517f08c379a00000000000000000000000000000000000000000000000000000000081526004018080602001828103825260268152602001806158ed6026913960400191505060405180910390fd5b615047856156a4565b6150b9576040517f08c379a000000000000000000000000000000000000000000000000000000000815260040180806020018281038252601d8152602001807f416464726573733a2063616c6c20746f206e6f6e2d636f6e747261637400000081525060200191505060405180910390fd5b600060608673ffffffffffffffffffffffffffffffffffffffff1685876040518082805190602001908083835b6020831061510957805182526020820191506020810190506020830392506150e6565b6001836020036101000a03801982511681845116808217855250505050505090500191505060006040518083038185875af1925050503d806000811461516b576040519150601f19603f3d011682016040523d82523d6000602084013e615170565b606091505b50915091506151808282866156b7565b92505050949350505050565b60008273ffffffffffffffffffffffffffffffffffffffff168473ffffffffffffffffffffffffffffffffffffffff1614156151ca5781905061561b565b61520a737a250d5630b4cf539739df2c5dacb4c659f2488d60008673ffffffffffffffffffffffffffffffffffffffff166140cd9092919063ffffffff16565b615249737a250d5630b4cf539739df2c5dacb4c659f2488d838673ffffffffffffffffffffffffffffffffffffffff166140cd9092919063ffffffff16565b6060600267ffffffffffffffff8111801561526357600080fd5b506040519080825280602002602001820160405280156152925781602001602082028036833780820191505090505b50905084816000815181106152a357fe5b602002602001019073ffffffffffffffffffffffffffffffffffffffff16908173ffffffffffffffffffffffffffffffffffffffff168152505083816001815181106152eb57fe5b602002602001019073ffffffffffffffffffffffffffffffffffffffff16908173ffffffffffffffffffffffffffffffffffffffff1681525050737a250d5630b4cf539739df2c5dacb4c659f2488d73ffffffffffffffffffffffffffffffffffffffff166338ed173984600184307ff0000000000000000000000000000000000000000000000000000000000000006040518663ffffffff1660e01b815260040180868152602001858152602001806020018473ffffffffffffffffffffffffffffffffffffffff168152602001838152602001828103825285818151815260200191508051906020019060200280838360005b838110156153fb5780820151818401526020810190506153e0565b505050509050019650505050505050600060405180830381600087803b15801561542457600080fd5b505af1158015615438573d6000803e3d6000fd5b505050506040513d6000823e3d601f19601f82011682018060405250602081101561546257600080fd5b810190808051604051939291908464010000000082111561548257600080fd5b8382019150602082018581111561549857600080fd5b82518660208202830111640100000000821117156154b557600080fd5b8083526020830192505050908051906020019060200280838360005b838110156154ec5780820151818401526020810190506154d1565b5050505090500160405250505060018251038151811061550857fe5b6020026020010151915060008211615588576040517f08c379a00000000000000000000000000000000000000000000000000000000081526004018080602001828103825260178152602001807f4572726f72205377617070696e6720546f6b656e73203200000000000000000081525060200191505060405180910390fd5b7fb242fac543571b33f0bb49bcc84178771cbd74e5c7785b45981424829ba3c07533848787604051808573ffffffffffffffffffffffffffffffffffffffff1681526020018481526020018373ffffffffffffffffffffffffffffffffffffffff1681526020018273ffffffffffffffffffffffffffffffffffffffff16815260200194505050505060405180910390a1505b9392505050565b60006107ca61569461563f6107cd8661374890919063ffffffff16565b61568661568161565b623cda298961374890919063ffffffff16565b615671623cda208961374890919063ffffffff16565b018861374890919063ffffffff16565b615783565b613ce290919063ffffffff16565b8161569b57fe5b04905092915050565b600080823b905060008111915050919050565b606083156156c75782905061577c565b6000835111156156da5782518084602001fd5b816040517f08c379a00000000000000000000000000000000000000000000000000000000081526004018080602001828103825283818151815260200191508051906020019080838360005b83811015615741578082015181840152602081019050615726565b50505050905090810190601f16801561576e5780820380516001836020036101000a031916815260200191505b509250505060405180910390fd5b9392505050565b600060038211156157d257819050600060016002848161579f57fe5b040190505b818110156157cc578091506002818285816157bb57fe5b0401816157c457fe5b0490506157a4565b506157e0565b600082146157df57600190505b5b919050565b6040518060c00160405280600073ffffffffffffffffffffffffffffffffffffffff168152602001600073ffffffffffffffffffffffffffffffffffffffff168152602001600073ffffffffffffffffffffffffffffffffffffffff1681526020016000815260200160008152602001600081525090565b6040518060a001604052806000815260200160008152602001600081526020016000815260200160008152509056fe4f776e61626c653a206e6577206f776e657220697320746865207a65726f2061646472657373416464726573733a20756e61626c6520746f2073656e642076616c75652c20726563697069656e74206d61792068617665207265766572746564416464726573733a20696e73756666696369656e742062616c616e636520666f722063616c6c536166654d6174683a206d756c7469706c69636174696f6e206f766572666c6f775361666545524332303a204552433230206f7065726174696f6e20646964206e6f7420737563636565645361666545524332303a20617070726f76652066726f6d206e6f6e2d7a65726f20746f206e6f6e2d7a65726f20616c6c6f77616e6365a26469706673582212203e33c96c0f43bcfa0a739b305207f50835fa6842b34d2e0234a6cc43b7c9cf9964736f6c63430007000033",
  "immutableReferences": {},
  "source": "// SPDX-License-Identifier: MIT\n\npragma solidity ^0.7.0;\n\nimport \"@openzeppelin/contracts/token/ERC20/IERC20.sol\";\nimport \"@openzeppelin/contracts/token/ERC20/SafeERC20.sol\";\nimport \"@openzeppelin/contracts/utils/EnumerableSet.sol\";\nimport \"@openzeppelin/contracts/math/SafeMath.sol\";\nimport \"@openzeppelin/contracts/access/Ownable.sol\";\nimport \"@openzeppelin/contracts/utils/Pausable.sol\";\nimport \"./interfaces/Ixfit.sol\";\nimport \"../contracts/XPoolHandler.sol\";\n\n// Amplify is XFIT distibutor.\n//\n// Note that it's ownable and the owner wields tremendous power. The ownership\n// will be transferred to a governance smart contract once XFIT is sufficiently\n// distributed and the community can show to govern itself.\n\ncontract XFai is XPoolHandler, Pausable {\n    using SafeMath for uint256;\n    using SafeERC20 for IERC20;\n\n    // Info of each user.\n    struct UserInfo {\n        uint256 amount; // How many LP tokens the user has provided.\n        uint256 rewardDebt; // Reward debt. See explanation below.\n        bool enrolled;\n        //\n        // We do some fancy math here. Basically, any point in time, the amount of XFITs\n        // entitled to a user but is pending to be distributed is:\n        //\n        //   pending reward = (user.amount * pool.accXFITPerShare) - user.rewardDebt\n        //\n        // Whenever a user deposits or withdraws LP tokens to a pool. Here's what happens:\n        //   1. The pool's `accXFITPerShare` (and `lastRewardBlock`) gets updated.\n        //   2. User receives the pending reward sent to his/her address.\n        //   3. User's `amount` gets updated.\n        //   4. User's `rewardDebt` gets updated.\n    }\n\n    // Array which stores addresses of all the participants. Doesn't duplicate the address.\n    address[] public userAddresses;\n\n    // Info of each pool.\n    struct PoolInfo {\n        IERC20 lpToken; // Address of LP token contract.\n        IERC20 inputToken; // Token in which Single sided liquidity can be provided\n        IXPriceOracle xPoolOracle;\n        uint256 allocPoint; // How many allocation points assigned to this pool. XFITs to distribute per block.\n        uint256 lastRewardBlock; // Last block number that XFITs distribution occurs.\n        uint256 accXFITPerShare; // Accumulated XFITs per share, times 1e12. See below.\n    }\n\n    // The XFIT TOKEN!\n    Ixfit public XFIT;\n\n    // Dev address.\n    address public devaddr;\n    // Block number when bonus XFIT period ends.\n    uint256 public bonusEndBlock;\n    // XFIT tokens distributed per block.\n    uint256 public XFITPerBlock;\n    // Bonus muliplier for early XFIT farmers.\n    uint256 public constant BONUS_MULTIPLIER = 2;\n\n    uint256 public constant REWARD_FACTOR = 10;\n\n    // Exit fee in percentage, scaled by e18. e.g. if exit fee is 2%, then exitFeeFactor should be 2e18\n    uint256 public exitFeeFactor;\n    // Info of each pool.\n    PoolInfo[] public poolInfo;\n    // Info of each user that stakes LP tokens.\n    mapping(uint256 => mapping(address => UserInfo)) public userInfo;\n    // Total allocation points. Must be the sum of all allocation points in all pools.\n    uint256 public totalAllocPoint = 0;\n    // The block number when XFIT mining starts.\n    uint256 public startBlock;\n\n    event Deposit(address indexed user, uint256 indexed pid, uint256 amount);\n    event Withdraw(address indexed user, uint256 indexed pid, uint256 amount);\n    event EmergencyWithdraw(\n        address indexed user,\n        uint256 indexed pid,\n        uint256 amount\n    );\n\n    constructor(\n        Ixfit _XFIT,\n        address _devaddr,\n        uint256 _XFITPerBlock,\n        uint256 _exitFeeFactor,\n        uint256 _startBlock,\n        uint256 _bonusEndBlock,\n        uint256 _xFitThreeshold,\n        uint256 _fundsSplitFactor\n    ) XPoolHandler(_xFitThreeshold, _fundsSplitFactor) {\n        XFIT = _XFIT;\n        devaddr = _devaddr;\n        XFITPerBlock = _XFITPerBlock;\n        bonusEndBlock = _bonusEndBlock;\n        startBlock = _startBlock;\n        exitFeeFactor = _exitFeeFactor;\n    }\n\n    function poolLength() external view returns (uint256) {\n        return poolInfo.length;\n    }\n\n    function userAddressesLength() external view returns (uint256) {\n        return userAddresses.length;\n    }\n\n    // Add a new lp to the pool. Can only be called by the owner.\n    // XXX DO NOT add the same LP token more than once. Rewards will be messed up if you do.\n    function add(\n        uint256 _allocPoint,\n        IERC20 _lpToken,\n        IERC20 _inputToken,\n        IXPriceOracle _xPoolOracle,\n        bool _withUpdate\n    ) public onlyOwner {\n        if (_withUpdate) {\n            massUpdatePools();\n        }\n        uint256 lastRewardBlock =\n            block.number > startBlock ? block.number : startBlock;\n        totalAllocPoint = totalAllocPoint.add(_allocPoint);\n        poolInfo.push(\n            PoolInfo({\n                lpToken: _lpToken,\n                inputToken: _inputToken,\n                xPoolOracle: _xPoolOracle,\n                allocPoint: _allocPoint,\n                lastRewardBlock: lastRewardBlock,\n                accXFITPerShare: 0\n            })\n        );\n    }\n\n    // Update the given pool's XFIT allocation point. Can only be called by the owner.\n    function set(\n        uint256 _pid,\n        uint256 _allocPoint,\n        bool _withUpdate\n    ) public onlyOwner {\n        if (_withUpdate) {\n            massUpdatePools();\n        }\n        totalAllocPoint = totalAllocPoint.sub(poolInfo[_pid].allocPoint).add(\n            _allocPoint\n        );\n        poolInfo[_pid].allocPoint = _allocPoint;\n    }\n\n    // Return reward multiplier over the given _from to _to block.\n    function getMultiplier(uint256 _from, uint256 _to)\n        public\n        view\n        returns (uint256)\n    {\n        if (_to <= bonusEndBlock) {\n            return _to.sub(_from).mul(BONUS_MULTIPLIER);\n        } else if (_from >= bonusEndBlock) {\n            return _to.sub(_from);\n        } else {\n            return\n                bonusEndBlock.sub(_from).mul(BONUS_MULTIPLIER).add(\n                    _to.sub(bonusEndBlock)\n                );\n        }\n    }\n\n    // View function to see pending XFITs on frontend.\n    function pendingXFIT(uint256 _pid, address _user)\n        external\n        view\n        returns (uint256)\n    {\n        PoolInfo storage pool = poolInfo[_pid];\n        UserInfo storage user = userInfo[_pid][_user];\n        uint256 accXFITPerShare = pool.accXFITPerShare;\n        uint256 lpSupply = pool.lpToken.balanceOf(address(this));\n        if (block.number > pool.lastRewardBlock && lpSupply != 0) {\n            uint256 multiplier =\n                getMultiplier(pool.lastRewardBlock, block.number);\n            uint256 XFITReward =\n                multiplier.mul(XFITPerBlock).mul(pool.allocPoint).div(\n                    totalAllocPoint\n                );\n            accXFITPerShare = accXFITPerShare.add(\n                XFITReward.mul(1e12).div(lpSupply)\n            );\n        }\n        return user.amount.mul(accXFITPerShare).div(1e12).sub(user.rewardDebt);\n    }\n\n    // Update reward variables for all pools. Be careful of gas spending!\n    function massUpdatePools() public {\n        uint256 length = poolInfo.length;\n        for (uint256 pid = 0; pid < length; ++pid) {\n            updatePool(pid);\n        }\n    }\n\n    // Update reward variables of the given pool to be up-to-date.\n    function updatePool(uint256 _pid) public {\n        PoolInfo storage pool = poolInfo[_pid];\n        if (block.number <= pool.lastRewardBlock) {\n            return;\n        }\n        uint256 lpSupply = pool.lpToken.balanceOf(address(this));\n        if (lpSupply == 0) {\n            pool.lastRewardBlock = block.number;\n            return;\n        }\n        uint256 multiplier = getMultiplier(pool.lastRewardBlock, block.number);\n        uint256 XFITReward =\n            multiplier.mul(XFITPerBlock).mul(pool.allocPoint).div(\n                totalAllocPoint\n            );\n        XFIT.transfer(devaddr, XFITReward.div(REWARD_FACTOR));\n        pool.accXFITPerShare = pool.accXFITPerShare.add(\n            XFITReward.mul(1e12).div(lpSupply)\n        );\n        pool.lastRewardBlock = block.number;\n    }\n\n    function depositLPWithToken(\n        uint256 _pid,\n        uint256 _amount,\n        uint256 _minPoolTokens\n    ) public payable whenNotPaused {\n        PoolInfo storage pool = poolInfo[_pid];\n\n        uint256 lpTokensBought =\n            poolLiquidity(\n                address(pool.inputToken),\n                address(pool.lpToken),\n                address(pool.xPoolOracle),\n                _amount,\n                _minPoolTokens\n            );\n        _depositInternal(_pid, lpTokensBought, false);\n    }\n\n    // Deposit LP tokens to Amplify for XFIT allocation.\n    function depositLP(uint256 _pid, uint256 _amount) public whenNotPaused {\n        _depositInternal(_pid, _amount, true);\n    }\n\n    function withdrawLPWithToken(uint256 _pid, uint256 _amount) public {\n        uint256 actualWithdrawAmount = _withdrawInternal(_pid, _amount, false);\n        PoolInfo storage pool = poolInfo[_pid];\n        redeemLPTokens(address(pool.lpToken), actualWithdrawAmount);\n    }\n\n    // Withdraw LP tokens from Amplify.\n    function withdrawLP(uint256 _pid, uint256 _amount) public whenNotPaused {\n        _withdrawInternal(_pid, _amount, true);\n    }\n\n    function _depositInternal(\n        uint256 _pid,\n        uint256 _amount,\n        bool withLPTokens\n    ) internal {\n        PoolInfo storage pool = poolInfo[_pid];\n        UserInfo storage user = userInfo[_pid][msg.sender];\n        if (user.enrolled == false) {\n            userAddresses.push(msg.sender);\n            user.enrolled = true;\n        }\n        updatePool(_pid);\n        if (user.amount > 0) {\n            uint256 pending =\n                user.amount.mul(pool.accXFITPerShare).div(1e12).sub(\n                    user.rewardDebt\n                );\n            if (pending > 0) {\n                safeXFITTransfer(msg.sender, pending);\n            }\n        }\n        if (_amount > 0) {\n            if (withLPTokens == true) {\n                pool.lpToken.safeTransferFrom(\n                    address(msg.sender),\n                    address(this),\n                    _amount\n                );\n            }\n            user.amount = user.amount.add(_amount);\n        }\n        user.rewardDebt = user.amount.mul(pool.accXFITPerShare).div(1e12);\n        emit Deposit(msg.sender, _pid, _amount);\n    }\n\n    function _withdrawInternal(\n        uint256 _pid,\n        uint256 _amount,\n        bool withLPTokens\n    ) internal returns (uint256) {\n        PoolInfo storage pool = poolInfo[_pid];\n        UserInfo storage user = userInfo[_pid][msg.sender];\n        require(user.amount >= _amount, \"withdraw: not good\");\n        updatePool(_pid);\n        uint256 pending =\n            user.amount.mul(pool.accXFITPerShare).div(1e12).sub(\n                user.rewardDebt\n            );\n        if (pending > 0) {\n            safeXFITTransfer(msg.sender, pending);\n        }\n        uint256 withdrawableAmount = _amount;\n        if (_amount > 0) {\n            user.amount = user.amount.sub(_amount);\n            uint256 exitFee = _amount.mul(exitFeeFactor).div(100).div(1e18);\n\n            if (withLPTokens == true) {\n                pool.lpToken.safeTransfer(\n                    address(msg.sender),\n                    _amount.sub(exitFee)\n                );\n            }\n            pool.lpToken.safeTransfer(devaddr, exitFee);\n            withdrawableAmount = _amount.sub(exitFee);\n        }\n        user.rewardDebt = user.amount.mul(pool.accXFITPerShare).div(1e12);\n        emit Withdraw(msg.sender, _pid, _amount);\n        return withdrawableAmount;\n    }\n\n    // Withdraw without caring about rewards. EMERGENCY ONLY.\n    function emergencyWithdraw(uint256 _pid) public {\n        PoolInfo storage pool = poolInfo[_pid];\n        UserInfo storage user = userInfo[_pid][msg.sender];\n        uint256 amount = user.amount;\n        user.amount = 0;\n        user.rewardDebt = 0;\n        pool.lpToken.safeTransfer(address(msg.sender), amount);\n        emit EmergencyWithdraw(msg.sender, _pid, amount);\n    }\n\n    // Safe XFIT transfer function, just in case if rounding error causes pool to not have enough XFITs.\n    function safeXFITTransfer(address _to, uint256 _amount) internal {\n        uint256 XFITBal = XFIT.balanceOf(address(this));\n        if (_amount > XFITBal) {\n            XFIT.transfer(_to, XFITBal);\n        } else {\n            XFIT.transfer(_to, _amount);\n        }\n    }\n\n    // ADMIN METHODS\n\n    // Update dev address by the admin.\n    function dev(address _devaddr) public onlyOwner {\n        devaddr = _devaddr;\n    }\n\n    function setPriceOracle(uint256 _pid, IXPriceOracle _xPoolOracle)\n        public\n        onlyOwner\n    {\n        PoolInfo storage pool = poolInfo[_pid];\n        pool.xPoolOracle = _xPoolOracle;\n    }\n\n    function pauseDistribution() public onlyOwner {\n        _pause();\n    }\n\n    function resumeDistribution() public onlyOwner {\n        _unpause();\n    }\n\n    function setXFITRewardPerBlock(uint256 _newReward) public onlyOwner {\n        massUpdatePools();\n        XFITPerBlock = _newReward;\n    }\n\n    function setExitFeeFactor(uint256 _newExitFeeFactor) public onlyOwner {\n        exitFeeFactor = _newExitFeeFactor;\n    }\n\n    function withdrawAdminXFIT(uint256 amount) public onlyOwner {\n        XFIT.transfer(msg.sender, amount);\n    }\n\n    function withdrawAdminFunding(uint256 _pid, uint256 _amount)\n        public\n        onlyOwner\n    {\n        PoolInfo memory pool = poolInfo[_pid];\n        pool.inputToken.safeTransfer(msg.sender, _amount);\n    }\n}\n",
  "sourcePath": "/Users/ayardi/Work/fetch/xfai-amplify/contracts/xfai.sol",
  "compiler": {
    "name": "solc",
    "version": "0.7.0+commit.9e61f92b.Emscripten.clang"
  },
  "schemaVersion": "3.3.2",
  "updatedAt": "2021-03-18T11:40:02.036Z",
  "devdoc": {
    "kind": "dev",
    "methods": {
      "owner()": {
        "details": "Returns the address of the current owner."
      },
      "paused()": {
        "details": "Returns true if the contract is paused, and false otherwise."
      },
      "renounceOwnership()": {
        "details": "Leaves the contract without owner. It will not be possible to call `onlyOwner` functions anymore. Can only be called by the current owner. NOTE: Renouncing ownership will leave the contract without an owner, thereby removing any functionality that is only available to the owner."
      },
      "transferOwnership(address)": {
        "details": "Transfers ownership of the contract to a new account (`newOwner`). Can only be called by the current owner."
      }
    },
    "version": 1
  },
  "userdoc": {
    "kind": "user",
    "methods": {},
    "version": 1
  }
}