{
  "contractName": "XFaiAmplify",
  "abi": [
    {
      "inputs": [
        {
          "internalType": "contract Ixfit",
          "name": "_XFIT",
          "type": "address"
        },
        {
          "internalType": "address",
          "name": "_devaddr",
          "type": "address"
        },
        {
          "internalType": "uint256",
          "name": "_XFITPerBlock",
          "type": "uint256"
        },
        {
          "internalType": "uint256",
          "name": "_exitFeeFactor",
          "type": "uint256"
        },
        {
          "internalType": "uint256",
          "name": "_startBlock",
          "type": "uint256"
        },
        {
          "internalType": "uint256",
          "name": "_bonusEndBlock",
          "type": "uint256"
        }
      ],
      "stateMutability": "nonpayable",
      "type": "constructor"
    },
    {
      "anonymous": false,
      "inputs": [
        {
          "indexed": true,
          "internalType": "address",
          "name": "user",
          "type": "address"
        },
        {
          "indexed": true,
          "internalType": "uint256",
          "name": "pid",
          "type": "uint256"
        },
        {
          "indexed": false,
          "internalType": "uint256",
          "name": "amount",
          "type": "uint256"
        }
      ],
      "name": "Deposit",
      "type": "event"
    },
    {
      "anonymous": false,
      "inputs": [
        {
          "indexed": true,
          "internalType": "address",
          "name": "user",
          "type": "address"
        },
        {
          "indexed": true,
          "internalType": "uint256",
          "name": "pid",
          "type": "uint256"
        },
        {
          "indexed": false,
          "internalType": "uint256",
          "name": "amount",
          "type": "uint256"
        }
      ],
      "name": "EmergencyWithdraw",
      "type": "event"
    },
    {
      "anonymous": false,
      "inputs": [
        {
          "indexed": true,
          "internalType": "address",
          "name": "previousOwner",
          "type": "address"
        },
        {
          "indexed": true,
          "internalType": "address",
          "name": "newOwner",
          "type": "address"
        }
      ],
      "name": "OwnershipTransferred",
      "type": "event"
    },
    {
      "anonymous": false,
      "inputs": [
        {
          "indexed": false,
          "internalType": "address",
          "name": "sender",
          "type": "address"
        },
        {
          "indexed": false,
          "internalType": "address",
          "name": "pool",
          "type": "address"
        },
        {
          "indexed": false,
          "internalType": "address",
          "name": "tokenA",
          "type": "address"
        },
        {
          "indexed": false,
          "internalType": "uint256",
          "name": "amountA",
          "type": "uint256"
        },
        {
          "indexed": false,
          "internalType": "address",
          "name": "tokenB",
          "type": "address"
        },
        {
          "indexed": false,
          "internalType": "uint256",
          "name": "amountB",
          "type": "uint256"
        }
      ],
      "name": "POOL_LIQUIDITY",
      "type": "event"
    },
    {
      "anonymous": false,
      "inputs": [
        {
          "indexed": false,
          "internalType": "address",
          "name": "account",
          "type": "address"
        }
      ],
      "name": "Paused",
      "type": "event"
    },
    {
      "anonymous": false,
      "inputs": [
        {
          "indexed": false,
          "internalType": "address",
          "name": "sender",
          "type": "address"
        },
        {
          "indexed": false,
          "internalType": "address",
          "name": "pool",
          "type": "address"
        },
        {
          "indexed": false,
          "internalType": "address",
          "name": "tokenA",
          "type": "address"
        },
        {
          "indexed": false,
          "internalType": "uint256",
          "name": "amountA",
          "type": "uint256"
        },
        {
          "indexed": false,
          "internalType": "address",
          "name": "tokenB",
          "type": "address"
        },
        {
          "indexed": false,
          "internalType": "uint256",
          "name": "amountB",
          "type": "uint256"
        }
      ],
      "name": "REMOVE_LIQUIDITY",
      "type": "event"
    },
    {
      "anonymous": false,
      "inputs": [
        {
          "indexed": false,
          "internalType": "address",
          "name": "sender",
          "type": "address"
        },
        {
          "indexed": false,
          "internalType": "uint256",
          "name": "amount",
          "type": "uint256"
        },
        {
          "indexed": false,
          "internalType": "address",
          "name": "fromToken",
          "type": "address"
        },
        {
          "indexed": false,
          "internalType": "address",
          "name": "toToken",
          "type": "address"
        }
      ],
      "name": "SWAP_TOKENS",
      "type": "event"
    },
    {
      "anonymous": false,
      "inputs": [
        {
          "indexed": false,
          "internalType": "address",
          "name": "account",
          "type": "address"
        }
      ],
      "name": "Unpaused",
      "type": "event"
    },
    {
      "anonymous": false,
      "inputs": [
        {
          "indexed": true,
          "internalType": "address",
          "name": "user",
          "type": "address"
        },
        {
          "indexed": true,
          "internalType": "uint256",
          "name": "pid",
          "type": "uint256"
        },
        {
          "indexed": false,
          "internalType": "uint256",
          "name": "amount",
          "type": "uint256"
        }
      ],
      "name": "Withdraw",
      "type": "event"
    },
    {
      "inputs": [],
      "name": "BONUS_MULTIPLIER",
      "outputs": [
        {
          "internalType": "uint256",
          "name": "",
          "type": "uint256"
        }
      ],
      "stateMutability": "view",
      "type": "function"
    },
    {
      "inputs": [],
      "name": "REWARD_FACTOR",
      "outputs": [
        {
          "internalType": "uint256",
          "name": "",
          "type": "uint256"
        }
      ],
      "stateMutability": "view",
      "type": "function"
    },
    {
      "inputs": [],
      "name": "XFIT",
      "outputs": [
        {
          "internalType": "contract Ixfit",
          "name": "",
          "type": "address"
        }
      ],
      "stateMutability": "view",
      "type": "function"
    },
    {
      "inputs": [],
      "name": "XFITPerBlock",
      "outputs": [
        {
          "internalType": "uint256",
          "name": "",
          "type": "uint256"
        }
      ],
      "stateMutability": "view",
      "type": "function"
    },
    {
      "inputs": [],
      "name": "bonusEndBlock",
      "outputs": [
        {
          "internalType": "uint256",
          "name": "",
          "type": "uint256"
        }
      ],
      "stateMutability": "view",
      "type": "function"
    },
    {
      "inputs": [],
      "name": "devaddr",
      "outputs": [
        {
          "internalType": "address",
          "name": "",
          "type": "address"
        }
      ],
      "stateMutability": "view",
      "type": "function"
    },
    {
      "inputs": [],
      "name": "exitFeeFactor",
      "outputs": [
        {
          "internalType": "uint256",
          "name": "",
          "type": "uint256"
        }
      ],
      "stateMutability": "view",
      "type": "function"
    },
    {
      "inputs": [],
      "name": "migrator",
      "outputs": [
        {
          "internalType": "contract IXFITMigrator",
          "name": "",
          "type": "address"
        }
      ],
      "stateMutability": "view",
      "type": "function"
    },
    {
      "inputs": [],
      "name": "owner",
      "outputs": [
        {
          "internalType": "address",
          "name": "",
          "type": "address"
        }
      ],
      "stateMutability": "view",
      "type": "function"
    },
    {
      "inputs": [],
      "name": "paused",
      "outputs": [
        {
          "internalType": "bool",
          "name": "",
          "type": "bool"
        }
      ],
      "stateMutability": "view",
      "type": "function"
    },
    {
      "inputs": [
        {
          "internalType": "uint256",
          "name": "",
          "type": "uint256"
        }
      ],
      "name": "poolInfo",
      "outputs": [
        {
          "internalType": "contract IERC20",
          "name": "lpToken",
          "type": "address"
        },
        {
          "internalType": "contract IERC20",
          "name": "inputToken",
          "type": "address"
        },
        {
          "internalType": "uint256",
          "name": "allocPoint",
          "type": "uint256"
        },
        {
          "internalType": "uint256",
          "name": "lastRewardBlock",
          "type": "uint256"
        },
        {
          "internalType": "uint256",
          "name": "accXFITPerShare",
          "type": "uint256"
        }
      ],
      "stateMutability": "view",
      "type": "function"
    },
    {
      "inputs": [
        {
          "internalType": "address",
          "name": "_FromTokenContractAddress",
          "type": "address"
        },
        {
          "internalType": "address",
          "name": "_pairAddress",
          "type": "address"
        },
        {
          "internalType": "uint256",
          "name": "_amount",
          "type": "uint256"
        },
        {
          "internalType": "uint256",
          "name": "_minPoolTokens",
          "type": "uint256"
        }
      ],
      "name": "poolLiquidity",
      "outputs": [
        {
          "internalType": "uint256",
          "name": "",
          "type": "uint256"
        }
      ],
      "stateMutability": "payable",
      "type": "function"
    },
    {
      "inputs": [
        {
          "internalType": "address",
          "name": "_FromUniPoolAddress",
          "type": "address"
        },
        {
          "internalType": "uint256",
          "name": "_lpTokensAmount",
          "type": "uint256"
        }
      ],
      "name": "redeemLPTokens",
      "outputs": [
        {
          "internalType": "uint256",
          "name": "",
          "type": "uint256"
        },
        {
          "internalType": "uint256",
          "name": "",
          "type": "uint256"
        }
      ],
      "stateMutability": "nonpayable",
      "type": "function"
    },
    {
      "inputs": [],
      "name": "renounceOwnership",
      "outputs": [],
      "stateMutability": "nonpayable",
      "type": "function"
    },
    {
      "inputs": [],
      "name": "startBlock",
      "outputs": [
        {
          "internalType": "uint256",
          "name": "",
          "type": "uint256"
        }
      ],
      "stateMutability": "view",
      "type": "function"
    },
    {
      "inputs": [],
      "name": "totalAllocPoint",
      "outputs": [
        {
          "internalType": "uint256",
          "name": "",
          "type": "uint256"
        }
      ],
      "stateMutability": "view",
      "type": "function"
    },
    {
      "inputs": [
        {
          "internalType": "address",
          "name": "newOwner",
          "type": "address"
        }
      ],
      "name": "transferOwnership",
      "outputs": [],
      "stateMutability": "nonpayable",
      "type": "function"
    },
    {
      "inputs": [
        {
          "internalType": "uint256",
          "name": "",
          "type": "uint256"
        }
      ],
      "name": "userAddresses",
      "outputs": [
        {
          "internalType": "address",
          "name": "",
          "type": "address"
        }
      ],
      "stateMutability": "view",
      "type": "function"
    },
    {
      "inputs": [
        {
          "internalType": "uint256",
          "name": "",
          "type": "uint256"
        },
        {
          "internalType": "address",
          "name": "",
          "type": "address"
        }
      ],
      "name": "userInfo",
      "outputs": [
        {
          "internalType": "uint256",
          "name": "amount",
          "type": "uint256"
        },
        {
          "internalType": "uint256",
          "name": "rewardDebt",
          "type": "uint256"
        },
        {
          "internalType": "bool",
          "name": "enrolled",
          "type": "bool"
        }
      ],
      "stateMutability": "view",
      "type": "function"
    },
    {
      "inputs": [],
      "name": "poolLength",
      "outputs": [
        {
          "internalType": "uint256",
          "name": "",
          "type": "uint256"
        }
      ],
      "stateMutability": "view",
      "type": "function"
    },
    {
      "inputs": [],
      "name": "userAddressesLength",
      "outputs": [
        {
          "internalType": "uint256",
          "name": "",
          "type": "uint256"
        }
      ],
      "stateMutability": "view",
      "type": "function"
    },
    {
      "inputs": [
        {
          "internalType": "uint256",
          "name": "_allocPoint",
          "type": "uint256"
        },
        {
          "internalType": "contract IERC20",
          "name": "_lpToken",
          "type": "address"
        },
        {
          "internalType": "contract IERC20",
          "name": "_inputToken",
          "type": "address"
        },
        {
          "internalType": "bool",
          "name": "_withUpdate",
          "type": "bool"
        }
      ],
      "name": "add",
      "outputs": [],
      "stateMutability": "nonpayable",
      "type": "function"
    },
    {
      "inputs": [
        {
          "internalType": "uint256",
          "name": "_pid",
          "type": "uint256"
        },
        {
          "internalType": "uint256",
          "name": "_allocPoint",
          "type": "uint256"
        },
        {
          "internalType": "bool",
          "name": "_withUpdate",
          "type": "bool"
        }
      ],
      "name": "set",
      "outputs": [],
      "stateMutability": "nonpayable",
      "type": "function"
    },
    {
      "inputs": [
        {
          "internalType": "contract IXFITMigrator",
          "name": "_migrator",
          "type": "address"
        }
      ],
      "name": "setMigrator",
      "outputs": [],
      "stateMutability": "nonpayable",
      "type": "function"
    },
    {
      "inputs": [
        {
          "internalType": "uint256",
          "name": "_pid",
          "type": "uint256"
        }
      ],
      "name": "migrate",
      "outputs": [],
      "stateMutability": "nonpayable",
      "type": "function"
    },
    {
      "inputs": [
        {
          "internalType": "uint256",
          "name": "_from",
          "type": "uint256"
        },
        {
          "internalType": "uint256",
          "name": "_to",
          "type": "uint256"
        }
      ],
      "name": "getMultiplier",
      "outputs": [
        {
          "internalType": "uint256",
          "name": "",
          "type": "uint256"
        }
      ],
      "stateMutability": "view",
      "type": "function"
    },
    {
      "inputs": [
        {
          "internalType": "uint256",
          "name": "_pid",
          "type": "uint256"
        },
        {
          "internalType": "address",
          "name": "_user",
          "type": "address"
        }
      ],
      "name": "pendingXFIT",
      "outputs": [
        {
          "internalType": "uint256",
          "name": "",
          "type": "uint256"
        }
      ],
      "stateMutability": "view",
      "type": "function"
    },
    {
      "inputs": [],
      "name": "massUpdatePools",
      "outputs": [],
      "stateMutability": "nonpayable",
      "type": "function"
    },
    {
      "inputs": [
        {
          "internalType": "uint256",
          "name": "_pid",
          "type": "uint256"
        }
      ],
      "name": "updatePool",
      "outputs": [],
      "stateMutability": "nonpayable",
      "type": "function"
    },
    {
      "inputs": [
        {
          "internalType": "uint256",
          "name": "_pid",
          "type": "uint256"
        },
        {
          "internalType": "uint256",
          "name": "_amount",
          "type": "uint256"
        },
        {
          "internalType": "uint256",
          "name": "_minPoolTokens",
          "type": "uint256"
        }
      ],
      "name": "depositLPWithToken",
      "outputs": [],
      "stateMutability": "nonpayable",
      "type": "function"
    },
    {
      "inputs": [
        {
          "internalType": "uint256",
          "name": "_pid",
          "type": "uint256"
        },
        {
          "internalType": "uint256",
          "name": "_amount",
          "type": "uint256"
        }
      ],
      "name": "depositLP",
      "outputs": [],
      "stateMutability": "nonpayable",
      "type": "function"
    },
    {
      "inputs": [
        {
          "internalType": "uint256",
          "name": "_pid",
          "type": "uint256"
        },
        {
          "internalType": "uint256",
          "name": "_amount",
          "type": "uint256"
        }
      ],
      "name": "withdrawLPWithToken",
      "outputs": [],
      "stateMutability": "nonpayable",
      "type": "function"
    },
    {
      "inputs": [
        {
          "internalType": "uint256",
          "name": "_pid",
          "type": "uint256"
        },
        {
          "internalType": "uint256",
          "name": "_amount",
          "type": "uint256"
        }
      ],
      "name": "withdrawLP",
      "outputs": [],
      "stateMutability": "nonpayable",
      "type": "function"
    },
    {
      "inputs": [
        {
          "internalType": "uint256",
          "name": "_pid",
          "type": "uint256"
        }
      ],
      "name": "emergencyWithdraw",
      "outputs": [],
      "stateMutability": "nonpayable",
      "type": "function"
    },
    {
      "inputs": [
        {
          "internalType": "address",
          "name": "_devaddr",
          "type": "address"
        }
      ],
      "name": "dev",
      "outputs": [],
      "stateMutability": "nonpayable",
      "type": "function"
    },
    {
      "inputs": [],
      "name": "pauseDistribution",
      "outputs": [],
      "stateMutability": "nonpayable",
      "type": "function"
    },
    {
      "inputs": [],
      "name": "resumeDistribution",
      "outputs": [],
      "stateMutability": "nonpayable",
      "type": "function"
    },
    {
      "inputs": [
        {
          "internalType": "uint256",
          "name": "_newReward",
          "type": "uint256"
        }
      ],
      "name": "setXFITRewardPerBlock",
      "outputs": [],
      "stateMutability": "nonpayable",
      "type": "function"
    },
    {
      "inputs": [
        {
          "internalType": "uint256",
          "name": "_newExitFeeFactor",
          "type": "uint256"
        }
      ],
      "name": "setExitFeeFactor",
      "outputs": [],
      "stateMutability": "nonpayable",
      "type": "function"
    },
    {
      "inputs": [
        {
          "internalType": "uint256",
          "name": "amount",
          "type": "uint256"
        }
      ],
      "name": "withdrawAdminXFIT",
      "outputs": [],
      "stateMutability": "nonpayable",
      "type": "function"
    }
  ],
  "bytecode": "0x60806040526000600b553480156200001657600080fd5b506040516200592c3803806200592c833981810160405260c08110156200003c57600080fd5b810190808051906020019092919080519060200190929190805190602001909291908051906020019092919080519060200190929190805190602001909291905050506001600081905550600062000099620001fd60201b60201c565b905080600160006101000a81548173ffffffffffffffffffffffffffffffffffffffff021916908373ffffffffffffffffffffffffffffffffffffffff1602179055508073ffffffffffffffffffffffffffffffffffffffff16600073ffffffffffffffffffffffffffffffffffffffff167f8be0079c531659141344cd1fd0a4f28419497f9722a3daafe3b4186f6b6457e060405160405180910390a3506000600160146101000a81548160ff02191690831515021790555085600360006101000a81548173ffffffffffffffffffffffffffffffffffffffff021916908373ffffffffffffffffffffffffffffffffffffffff16021790555084600460006101000a81548173ffffffffffffffffffffffffffffffffffffffff021916908373ffffffffffffffffffffffffffffffffffffffff160217905550836006819055508060058190555081600c819055508260078190555050505050505062000205565b600033905090565b61571780620002156000396000f3fe60806040526004361061023b5760003560e01c8063715018a61161012e57806395c64a3b116100ab578063c71b4b431161006f578063c71b4b4314610b51578063d49e77cd14610bd8578063e3c947c914610c19578063ee5c23fd14610c54578063f2fde38b14610c8f5761023b565b806395c64a3b146109a5578063b058c054146109e6578063b7c69cb714610a72578063b97d0b8214610ae1578063bfe50f7214610b0c5761023b565b80638da5cb5b116100f25780638da5cb5b146107d15780638dbb1e3a146108125780638efc78b01461086b57806391918d64146108e157806393f1a40b146109265761023b565b8063715018a6146106c2578063739d58c0146106d95780637cd07e47146107145780638aa28550146107555780638d88a90e146107805761023b565b806331cec7a3116101bc5780635312ea8e116101805780635312ea8e146105a35780635b395fdc146105de5780635c975abb1461062d578063630b5ba11461065a57806364482f79146106715761023b565b806331cec7a314610486578063454b06081461049d57806348cd4cb1146104d8578063502c9bd51461050357806351eb05a6146105685761023b565b806318369be11161020357806318369be11461036f5780631aed65531461039a57806323cf3118146103c55780632b782ebd146104165780632b8c74ff146104415761023b565b8063081e3eda14610240578063132678051461026b5780631526fe2714610282578063159a1f801461031957806317caf6f114610344575b600080fd5b34801561024c57600080fd5b50610255610ce0565b6040518082815260200191505060405180910390f35b34801561027757600080fd5b50610280610ced565b005b34801561028e57600080fd5b506102bb600480360360208110156102a557600080fd5b8101908080359060200190929190505050610da6565b604051808673ffffffffffffffffffffffffffffffffffffffff1681526020018573ffffffffffffffffffffffffffffffffffffffff1681526020018481526020018381526020018281526020019550505050505060405180910390f35b34801561032557600080fd5b5061032e610e29565b6040518082815260200191505060405180910390f35b34801561035057600080fd5b50610359610e2f565b6040518082815260200191505060405180910390f35b34801561037b57600080fd5b50610384610e35565b6040518082815260200191505060405180910390f35b3480156103a657600080fd5b506103af610e3a565b6040518082815260200191505060405180910390f35b3480156103d157600080fd5b50610414600480360360208110156103e857600080fd5b81019080803573ffffffffffffffffffffffffffffffffffffffff169060200190929190505050610e40565b005b34801561042257600080fd5b5061042b610f33565b6040518082815260200191505060405180910390f35b34801561044d57600080fd5b506104846004803603604081101561046457600080fd5b810190808035906020019092919080359060200190929190505050610f39565b005b34801561049257600080fd5b5061049b610f99565b005b3480156104a957600080fd5b506104d6600480360360208110156104c057600080fd5b8101908080359060200190929190505050611052565b005b3480156104e457600080fd5b506104ed6114be565b6040518082815260200191505060405180910390f35b34801561050f57600080fd5b5061053c6004803603602081101561052657600080fd5b81019080803590602001909291905050506114c4565b604051808273ffffffffffffffffffffffffffffffffffffffff16815260200191505060405180910390f35b34801561057457600080fd5b506105a16004803603602081101561058b57600080fd5b8101908080359060200190929190505050611500565b005b3480156105af57600080fd5b506105dc600480360360208110156105c657600080fd5b81019080803590602001909291905050506117c5565b005b3480156105ea57600080fd5b5061062b6004803603606081101561060157600080fd5b810190808035906020019092919080359060200190929190803590602001909291905050506118f9565b005b34801561063957600080fd5b50610642611a53565b60405180821515815260200191505060405180910390f35b34801561066657600080fd5b5061066f611a6a565b005b34801561067d57600080fd5b506106c06004803603606081101561069457600080fd5b810190808035906020019092919080359060200190929190803515159060200190929190505050611a97565b005b3480156106ce57600080fd5b506106d7611bc8565b005b3480156106e557600080fd5b50610712600480360360208110156106fc57600080fd5b8101908080359060200190929190505050611d38565b005b34801561072057600080fd5b50610729611df9565b604051808273ffffffffffffffffffffffffffffffffffffffff16815260200191505060405180910390f35b34801561076157600080fd5b5061076a611e1f565b6040518082815260200191505060405180910390f35b34801561078c57600080fd5b506107cf600480360360208110156107a357600080fd5b81019080803573ffffffffffffffffffffffffffffffffffffffff169060200190929190505050611e24565b005b3480156107dd57600080fd5b506107e6611f17565b604051808273ffffffffffffffffffffffffffffffffffffffff16815260200191505060405180910390f35b34801561081e57600080fd5b506108556004803603604081101561083557600080fd5b810190808035906020019092919080359060200190929190505050611f41565b6040518082815260200191505060405180910390f35b34801561087757600080fd5b506108c46004803603604081101561088e57600080fd5b81019080803573ffffffffffffffffffffffffffffffffffffffff16906020019092919080359060200190929190505050611ff3565b604051808381526020018281526020019250505060405180910390f35b3480156108ed57600080fd5b506109246004803603604081101561090457600080fd5b810190808035906020019092919080359060200190929190505050612721565b005b34801561093257600080fd5b5061097f6004803603604081101561094957600080fd5b8101908080359060200190929190803573ffffffffffffffffffffffffffffffffffffffff1690602001909291905050506127ac565b604051808481526020018381526020018215158152602001935050505060405180910390f35b3480156109b157600080fd5b506109ba6127f0565b604051808273ffffffffffffffffffffffffffffffffffffffff16815260200191505060405180910390f35b610a5c600480360360808110156109fc57600080fd5b81019080803573ffffffffffffffffffffffffffffffffffffffff169060200190929190803573ffffffffffffffffffffffffffffffffffffffff1690602001909291908035906020019092919080359060200190929190505050612816565b6040518082815260200191505060405180910390f35b348015610a7e57600080fd5b50610acb60048036036040811015610a9557600080fd5b8101908080359060200190929190803573ffffffffffffffffffffffffffffffffffffffff169060200190929190505050612941565b6040518082815260200191505060405180910390f35b348015610aed57600080fd5b50610af6612b87565b6040518082815260200191505060405180910390f35b348015610b1857600080fd5b50610b4f60048036036040811015610b2f57600080fd5b810190808035906020019092919080359060200190929190505050612b94565b005b348015610b5d57600080fd5b50610bd660048036036080811015610b7457600080fd5b8101908080359060200190929190803573ffffffffffffffffffffffffffffffffffffffff169060200190929190803573ffffffffffffffffffffffffffffffffffffffff169060200190929190803515159060200190929190505050612c1f565b005b348015610be457600080fd5b50610bed612e43565b604051808273ffffffffffffffffffffffffffffffffffffffff16815260200191505060405180910390f35b348015610c2557600080fd5b50610c5260048036036020811015610c3c57600080fd5b8101908080359060200190929190505050612e69565b005b348015610c6057600080fd5b50610c8d60048036036020811015610c7757600080fd5b8101908080359060200190929190505050612fea565b005b348015610c9b57600080fd5b50610cde60048036036020811015610cb257600080fd5b81019080803573ffffffffffffffffffffffffffffffffffffffff1690602001909291905050506130a3565b005b6000600980549050905090565b610cf5613298565b73ffffffffffffffffffffffffffffffffffffffff16610d13611f17565b73ffffffffffffffffffffffffffffffffffffffff1614610d9c576040517f08c379a00000000000000000000000000000000000000000000000000000000081526004018080602001828103825260208152602001807f4f776e61626c653a2063616c6c6572206973206e6f7420746865206f776e657281525060200191505060405180910390fd5b610da46132a0565b565b60098181548110610db357fe5b90600052602060002090600502016000915090508060000160009054906101000a900473ffffffffffffffffffffffffffffffffffffffff16908060010160009054906101000a900473ffffffffffffffffffffffffffffffffffffffff16908060020154908060030154908060040154905085565b60075481565b600b5481565b600a81565b60055481565b610e48613298565b73ffffffffffffffffffffffffffffffffffffffff16610e66611f17565b73ffffffffffffffffffffffffffffffffffffffff1614610eef576040517f08c379a00000000000000000000000000000000000000000000000000000000081526004018080602001828103825260208152602001807f4f776e61626c653a2063616c6c6572206973206e6f7420746865206f776e657281525060200191505060405180910390fd5b80600860006101000a81548173ffffffffffffffffffffffffffffffffffffffff021916908373ffffffffffffffffffffffffffffffffffffffff16021790555050565b60065481565b610f458282600061338b565b600060098381548110610f5457fe5b90600052602060002090600502019050610f928160000160009054906101000a900473ffffffffffffffffffffffffffffffffffffffff1683611ff3565b5050505050565b610fa1613298565b73ffffffffffffffffffffffffffffffffffffffff16610fbf611f17565b73ffffffffffffffffffffffffffffffffffffffff1614611048576040517f08c379a00000000000000000000000000000000000000000000000000000000081526004018080602001828103825260208152602001807f4f776e61626c653a2063616c6c6572206973206e6f7420746865206f776e657281525060200191505060405180910390fd5b6110506136bb565b565b600073ffffffffffffffffffffffffffffffffffffffff16600860009054906101000a900473ffffffffffffffffffffffffffffffffffffffff1673ffffffffffffffffffffffffffffffffffffffff161415611117576040517f08c379a00000000000000000000000000000000000000000000000000000000081526004018080602001828103825260148152602001807f6d6967726174653a206e6f206d69677261746f7200000000000000000000000081525060200191505060405180910390fd5b60006009828154811061112657fe5b9060005260206000209060050201905060008160000160009054906101000a900473ffffffffffffffffffffffffffffffffffffffff1673ffffffffffffffffffffffffffffffffffffffff166370a08231306040518263ffffffff1660e01b8152600401808273ffffffffffffffffffffffffffffffffffffffff16815260200191505060206040518083038186803b1580156111c357600080fd5b505afa1580156111d7573d6000803e3d6000fd5b505050506040513d60208110156111ed57600080fd5b81019080805190602001909291905050509050611271600860009054906101000a900473ffffffffffffffffffffffffffffffffffffffff16828460000160009054906101000a900473ffffffffffffffffffffffffffffffffffffffff1673ffffffffffffffffffffffffffffffffffffffff166137a69092919063ffffffff16565b6000600860009054906101000a900473ffffffffffffffffffffffffffffffffffffffff1673ffffffffffffffffffffffffffffffffffffffff1663ce5494bb8460000160009054906101000a900473ffffffffffffffffffffffffffffffffffffffff166040518263ffffffff1660e01b8152600401808273ffffffffffffffffffffffffffffffffffffffff168152602001915050602060405180830381600087803b15801561132257600080fd5b505af1158015611336573d6000803e3d6000fd5b505050506040513d602081101561134c57600080fd5b810190808051906020019092919050505090508073ffffffffffffffffffffffffffffffffffffffff166370a08231306040518263ffffffff1660e01b8152600401808273ffffffffffffffffffffffffffffffffffffffff16815260200191505060206040518083038186803b1580156113c657600080fd5b505afa1580156113da573d6000803e3d6000fd5b505050506040513d60208110156113f057600080fd5b81019080805190602001909291905050508214611475576040517f08c379a000000000000000000000000000000000000000000000000000000000815260040180806020018281038252600c8152602001807f6d6967726174653a20626164000000000000000000000000000000000000000081525060200191505060405180910390fd5b808360000160006101000a81548173ffffffffffffffffffffffffffffffffffffffff021916908373ffffffffffffffffffffffffffffffffffffffff16021790555050505050565b600c5481565b600281815481106114d157fe5b906000526020600020016000915054906101000a900473ffffffffffffffffffffffffffffffffffffffff1681565b60006009828154811061150f57fe5b906000526020600020906005020190508060030154431161153057506117c2565b60008160000160009054906101000a900473ffffffffffffffffffffffffffffffffffffffff1673ffffffffffffffffffffffffffffffffffffffff166370a08231306040518263ffffffff1660e01b8152600401808273ffffffffffffffffffffffffffffffffffffffff16815260200191505060206040518083038186803b1580156115bd57600080fd5b505afa1580156115d1573d6000803e3d6000fd5b505050506040513d60208110156115e757600080fd5b8101908080519060200190929190505050905060008114156116135743826003018190555050506117c2565b6000611623836003015443611f41565b90506000611666600b54611658866002015461164a6006548761396b90919063ffffffff16565b61396b90919063ffffffff16565b6139f190919063ffffffff16565b9050600360009054906101000a900473ffffffffffffffffffffffffffffffffffffffff1673ffffffffffffffffffffffffffffffffffffffff1663a9059cbb600460009054906101000a900473ffffffffffffffffffffffffffffffffffffffff166116dd600a856139f190919063ffffffff16565b6040518363ffffffff1660e01b8152600401808373ffffffffffffffffffffffffffffffffffffffff16815260200182815260200192505050602060405180830381600087803b15801561173057600080fd5b505af1158015611744573d6000803e3d6000fd5b505050506040513d602081101561175a57600080fd5b8101908080519060200190929190505050506117ac6117998461178b64e8d4a510008561396b90919063ffffffff16565b6139f190919063ffffffff16565b8560040154613a7a90919063ffffffff16565b8460040181905550438460030181905550505050505b50565b6000600982815481106117d457fe5b906000526020600020906005020190506000600a600084815260200190815260200160002060003373ffffffffffffffffffffffffffffffffffffffff1673ffffffffffffffffffffffffffffffffffffffff168152602001908152602001600020905060008160000154905060008260000181905550600082600101819055506118a433828560000160009054906101000a900473ffffffffffffffffffffffffffffffffffffffff1673ffffffffffffffffffffffffffffffffffffffff16613b029092919063ffffffff16565b833373ffffffffffffffffffffffffffffffffffffffff167fbb757047c2b5f3974fe26b7c10f732e7bce710b0952a71082702781e62ae0595836040518082815260200191505060405180910390a350505050565b611901611a53565b15611974576040517f08c379a00000000000000000000000000000000000000000000000000000000081526004018080602001828103825260108152602001807f5061757361626c653a207061757365640000000000000000000000000000000081525060200191505060405180910390fd5b60006009848154811061198357fe5b906000526020600020906005020190506000600a600086815260200190815260200160002060003373ffffffffffffffffffffffffffffffffffffffff1673ffffffffffffffffffffffffffffffffffffffff16815260200190815260200160002090506000611a3d8360010160009054906101000a900473ffffffffffffffffffffffffffffffffffffffff168460000160009054906101000a900473ffffffffffffffffffffffffffffffffffffffff168787612816565b9050611a4b86826000613ba4565b505050505050565b6000600160149054906101000a900460ff16905090565b6000600980549050905060005b81811015611a9357611a8881611500565b806001019050611a77565b5050565b611a9f613298565b73ffffffffffffffffffffffffffffffffffffffff16611abd611f17565b73ffffffffffffffffffffffffffffffffffffffff1614611b46576040517f08c379a00000000000000000000000000000000000000000000000000000000081526004018080602001828103825260208152602001807f4f776e61626c653a2063616c6c6572206973206e6f7420746865206f776e657281525060200191505060405180910390fd5b8015611b5557611b54611a6a565b5b611b9a82611b8c60098681548110611b6957fe5b906000526020600020906005020160020154600b54613e4690919063ffffffff16565b613a7a90919063ffffffff16565b600b819055508160098481548110611bae57fe5b906000526020600020906005020160020181905550505050565b611bd0613298565b73ffffffffffffffffffffffffffffffffffffffff16611bee611f17565b73ffffffffffffffffffffffffffffffffffffffff1614611c77576040517f08c379a00000000000000000000000000000000000000000000000000000000081526004018080602001828103825260208152602001807f4f776e61626c653a2063616c6c6572206973206e6f7420746865206f776e657281525060200191505060405180910390fd5b600073ffffffffffffffffffffffffffffffffffffffff16600160009054906101000a900473ffffffffffffffffffffffffffffffffffffffff1673ffffffffffffffffffffffffffffffffffffffff167f8be0079c531659141344cd1fd0a4f28419497f9722a3daafe3b4186f6b6457e060405160405180910390a36000600160006101000a81548173ffffffffffffffffffffffffffffffffffffffff021916908373ffffffffffffffffffffffffffffffffffffffff160217905550565b611d40613298565b73ffffffffffffffffffffffffffffffffffffffff16611d5e611f17565b73ffffffffffffffffffffffffffffffffffffffff1614611de7576040517f08c379a00000000000000000000000000000000000000000000000000000000081526004018080602001828103825260208152602001807f4f776e61626c653a2063616c6c6572206973206e6f7420746865206f776e657281525060200191505060405180910390fd5b611def611a6a565b8060068190555050565b600860009054906101000a900473ffffffffffffffffffffffffffffffffffffffff1681565b600281565b611e2c613298565b73ffffffffffffffffffffffffffffffffffffffff16611e4a611f17565b73ffffffffffffffffffffffffffffffffffffffff1614611ed3576040517f08c379a00000000000000000000000000000000000000000000000000000000081526004018080602001828103825260208152602001807f4f776e61626c653a2063616c6c6572206973206e6f7420746865206f776e657281525060200191505060405180910390fd5b80600460006101000a81548173ffffffffffffffffffffffffffffffffffffffff021916908373ffffffffffffffffffffffffffffffffffffffff16021790555050565b6000600160009054906101000a900473ffffffffffffffffffffffffffffffffffffffff16905090565b60006005548211611f7957611f726002611f648585613e4690919063ffffffff16565b61396b90919063ffffffff16565b9050611fed565b6005548310611f9c57611f958383613e4690919063ffffffff16565b9050611fed565b611fea611fb460055484613e4690919063ffffffff16565b611fdc6002611fce87600554613e4690919063ffffffff16565b61396b90919063ffffffff16565b613a7a90919063ffffffff16565b90505b92915050565b6000806002600054141561206f576040517f08c379a000000000000000000000000000000000000000000000000000000000815260040180806020018281038252601f8152602001807f5265656e7472616e637947756172643a207265656e7472616e742063616c6c0081525060200191505060405180910390fd5b60026000819055506000849050600073ffffffffffffffffffffffffffffffffffffffff168173ffffffffffffffffffffffffffffffffffffffff16141561211f576040517f08c379a000000000000000000000000000000000000000000000000000000000815260040180806020018281038252601e8152602001807f4572726f723a20496e76616c696420556e69706f6f6c2041646472657373000081525060200191505060405180910390fd5b60008173ffffffffffffffffffffffffffffffffffffffff16630dfe16816040518163ffffffff1660e01b815260040160206040518083038186803b15801561216757600080fd5b505afa15801561217b573d6000803e3d6000fd5b505050506040513d602081101561219157600080fd5b8101908080519060200190929190505050905060008273ffffffffffffffffffffffffffffffffffffffff1663d21220a76040518163ffffffff1660e01b815260040160206040518083038186803b1580156121ec57600080fd5b505afa158015612200573d6000803e3d6000fd5b505050506040513d602081101561221657600080fd5b81019080805190602001909291905050509050612268737a250d5630b4cf539739df2c5dacb4c659f2488d878973ffffffffffffffffffffffffffffffffffffffff166137a69092919063ffffffff16565b60008073c02aaa39b223fe8d0a0e5c4f27ead9083c756cc273ffffffffffffffffffffffffffffffffffffffff168473ffffffffffffffffffffffffffffffffffffffff1614806122f8575073c02aaa39b223fe8d0a0e5c4f27ead9083c756cc273ffffffffffffffffffffffffffffffffffffffff168373ffffffffffffffffffffffffffffffffffffffff16145b156124b357600073c02aaa39b223fe8d0a0e5c4f27ead9083c756cc273ffffffffffffffffffffffffffffffffffffffff168573ffffffffffffffffffffffffffffffffffffffff161461234c578461234e565b835b9050737a250d5630b4cf539739df2c5dacb4c659f2488d73ffffffffffffffffffffffffffffffffffffffff166302751cec828b600180307ff0000000000000000000000000000000000000000000000000000000000000006040518763ffffffff1660e01b8152600401808773ffffffffffffffffffffffffffffffffffffffff1681526020018681526020018581526020018481526020018373ffffffffffffffffffffffffffffffffffffffff16815260200182815260200196505050505050506040805180830381600087803b15801561242b57600080fd5b505af115801561243f573d6000803e3d6000fd5b505050506040513d604081101561245557600080fd5b81019080805190602001909291908051906020019092919050505080935081945050506124a333848373ffffffffffffffffffffffffffffffffffffffff16613b029092919063ffffffff16565b6124ad3383613ec9565b50612650565b737a250d5630b4cf539739df2c5dacb4c659f2488d73ffffffffffffffffffffffffffffffffffffffff1663baa2abde85858b600180307ff0000000000000000000000000000000000000000000000000000000000000006040518863ffffffff1660e01b8152600401808873ffffffffffffffffffffffffffffffffffffffff1681526020018773ffffffffffffffffffffffffffffffffffffffff1681526020018681526020018581526020018481526020018373ffffffffffffffffffffffffffffffffffffffff1681526020018281526020019750505050505050506040805180830381600087803b1580156125ac57600080fd5b505af11580156125c0573d6000803e3d6000fd5b505050506040513d60408110156125d657600080fd5b810190808051906020019092919080519060200190929190505050809250819350505061262433838673ffffffffffffffffffffffffffffffffffffffff16613b029092919063ffffffff16565b61264f33828573ffffffffffffffffffffffffffffffffffffffff16613b029092919063ffffffff16565b5b7f8251496d51a0099361551b4a9901c85074f36c95f425405ad965a04c650a340b338a86858786604051808773ffffffffffffffffffffffffffffffffffffffff1681526020018673ffffffffffffffffffffffffffffffffffffffff1681526020018573ffffffffffffffffffffffffffffffffffffffff1681526020018481526020018373ffffffffffffffffffffffffffffffffffffffff168152602001828152602001965050505050505060405180910390a1818196509650505050505060016000819055509250929050565b612729611a53565b1561279c576040517f08c379a00000000000000000000000000000000000000000000000000000000081526004018080602001828103825260108152602001807f5061757361626c653a207061757365640000000000000000000000000000000081525060200191505060405180910390fd5b6127a88282600161338b565b5050565b600a602052816000526040600020602052806000526040600020600091509150508060000154908060010154908060020160009054906101000a900460ff16905083565b600360009054906101000a900473ffffffffffffffffffffffffffffffffffffffff1681565b600060026000541415612891576040517f08c379a000000000000000000000000000000000000000000000000000000000815260040180806020018281038252601f8152602001807f5265656e7472616e637947756172643a207265656e7472616e742063616c6c0081525060200191505060405180910390fd5b600260008190555060006128a58685614003565b905060006128b48787846141da565b90508381101561292c576040517f08c379a00000000000000000000000000000000000000000000000000000000081526004018080602001828103825260128152602001807f4552523a204869676820536c697070616765000000000000000000000000000081525060200191505060405180910390fd5b80925050506001600081905550949350505050565b6000806009848154811061295157fe5b906000526020600020906005020190506000600a600086815260200190815260200160002060008573ffffffffffffffffffffffffffffffffffffffff1673ffffffffffffffffffffffffffffffffffffffff168152602001908152602001600020905060008260040154905060008360000160009054906101000a900473ffffffffffffffffffffffffffffffffffffffff1673ffffffffffffffffffffffffffffffffffffffff166370a08231306040518263ffffffff1660e01b8152600401808273ffffffffffffffffffffffffffffffffffffffff16815260200191505060206040518083038186803b158015612a4b57600080fd5b505afa158015612a5f573d6000803e3d6000fd5b505050506040513d6020811015612a7557600080fd5b81019080805190602001909291905050509050836003015443118015612a9c575060008114155b15612b37576000612ab1856003015443611f41565b90506000612af4600b54612ae68860020154612ad86006548761396b90919063ffffffff16565b61396b90919063ffffffff16565b6139f190919063ffffffff16565b9050612b32612b2384612b1564e8d4a510008561396b90919063ffffffff16565b6139f190919063ffffffff16565b85613a7a90919063ffffffff16565b935050505b612b7b8360010154612b6d64e8d4a51000612b5f86886000015461396b90919063ffffffff16565b6139f190919063ffffffff16565b613e4690919063ffffffff16565b94505050505092915050565b6000600280549050905090565b612b9c611a53565b15612c0f576040517f08c379a00000000000000000000000000000000000000000000000000000000081526004018080602001828103825260108152602001807f5061757361626c653a207061757365640000000000000000000000000000000081525060200191505060405180910390fd5b612c1b82826001613ba4565b5050565b612c27613298565b73ffffffffffffffffffffffffffffffffffffffff16612c45611f17565b73ffffffffffffffffffffffffffffffffffffffff1614612cce576040517f08c379a00000000000000000000000000000000000000000000000000000000081526004018080602001828103825260208152602001807f4f776e61626c653a2063616c6c6572206973206e6f7420746865206f776e657281525060200191505060405180910390fd5b8015612cdd57612cdc611a6a565b5b6000600c544311612cf057600c54612cf2565b435b9050612d0985600b54613a7a90919063ffffffff16565b600b8190555060096040518060a001604052808673ffffffffffffffffffffffffffffffffffffffff1681526020018573ffffffffffffffffffffffffffffffffffffffff1681526020018781526020018381526020016000815250908060018154018082558091505060019003906000526020600020906005020160009091909190915060008201518160000160006101000a81548173ffffffffffffffffffffffffffffffffffffffff021916908373ffffffffffffffffffffffffffffffffffffffff16021790555060208201518160010160006101000a81548173ffffffffffffffffffffffffffffffffffffffff021916908373ffffffffffffffffffffffffffffffffffffffff16021790555060408201518160020155606082015181600301556080820151816004015550505050505050565b600460009054906101000a900473ffffffffffffffffffffffffffffffffffffffff1681565b612e71613298565b73ffffffffffffffffffffffffffffffffffffffff16612e8f611f17565b73ffffffffffffffffffffffffffffffffffffffff1614612f18576040517f08c379a00000000000000000000000000000000000000000000000000000000081526004018080602001828103825260208152602001807f4f776e61626c653a2063616c6c6572206973206e6f7420746865206f776e657281525060200191505060405180910390fd5b600360009054906101000a900473ffffffffffffffffffffffffffffffffffffffff1673ffffffffffffffffffffffffffffffffffffffff1663a9059cbb33836040518363ffffffff1660e01b8152600401808373ffffffffffffffffffffffffffffffffffffffff16815260200182815260200192505050602060405180830381600087803b158015612fab57600080fd5b505af1158015612fbf573d6000803e3d6000fd5b505050506040513d6020811015612fd557600080fd5b81019080805190602001909291905050505050565b612ff2613298565b73ffffffffffffffffffffffffffffffffffffffff16613010611f17565b73ffffffffffffffffffffffffffffffffffffffff1614613099576040517f08c379a00000000000000000000000000000000000000000000000000000000081526004018080602001828103825260208152602001807f4f776e61626c653a2063616c6c6572206973206e6f7420746865206f776e657281525060200191505060405180910390fd5b8060078190555050565b6130ab613298565b73ffffffffffffffffffffffffffffffffffffffff166130c9611f17565b73ffffffffffffffffffffffffffffffffffffffff1614613152576040517f08c379a00000000000000000000000000000000000000000000000000000000081526004018080602001828103825260208152602001807f4f776e61626c653a2063616c6c6572206973206e6f7420746865206f776e657281525060200191505060405180910390fd5b600073ffffffffffffffffffffffffffffffffffffffff168173ffffffffffffffffffffffffffffffffffffffff1614156131d8576040517f08c379a00000000000000000000000000000000000000000000000000000000081526004018080602001828103825260268152602001806155db6026913960400191505060405180910390fd5b8073ffffffffffffffffffffffffffffffffffffffff16600160009054906101000a900473ffffffffffffffffffffffffffffffffffffffff1673ffffffffffffffffffffffffffffffffffffffff167f8be0079c531659141344cd1fd0a4f28419497f9722a3daafe3b4186f6b6457e060405160405180910390a380600160006101000a81548173ffffffffffffffffffffffffffffffffffffffff021916908373ffffffffffffffffffffffffffffffffffffffff16021790555050565b600033905090565b6132a8611a53565b61331a576040517f08c379a00000000000000000000000000000000000000000000000000000000081526004018080602001828103825260148152602001807f5061757361626c653a206e6f742070617573656400000000000000000000000081525060200191505060405180910390fd5b6000600160146101000a81548160ff0219169083151502179055507f5db9ee0a495bf2e6ff9c91a7834c1ba4fdd244a5e8aa4e537bd38aeae4b073aa61335e613298565b604051808273ffffffffffffffffffffffffffffffffffffffff16815260200191505060405180910390a1565b60006009848154811061339a57fe5b906000526020600020906005020190506000600a600086815260200190815260200160002060003373ffffffffffffffffffffffffffffffffffffffff1673ffffffffffffffffffffffffffffffffffffffff16815260200190815260200160002090508381600001541015613478576040517f08c379a00000000000000000000000000000000000000000000000000000000081526004018080602001828103825260128152602001807f77697468647261773a206e6f7420676f6f64000000000000000000000000000081525060200191505060405180910390fd5b61348185611500565b60006134cb82600101546134bd64e8d4a510006134af8760040154876000015461396b90919063ffffffff16565b6139f190919063ffffffff16565b613e4690919063ffffffff16565b905060008111156134e1576134e033826142de565b5b600085111561362a57613501858360000154613e4690919063ffffffff16565b8260000181905550600061354d670de0b6b3a764000061353f60646135316007548b61396b90919063ffffffff16565b6139f190919063ffffffff16565b6139f190919063ffffffff16565b905084156135b7576135b63361356c8389613e4690919063ffffffff16565b8660000160009054906101000a900473ffffffffffffffffffffffffffffffffffffffff1673ffffffffffffffffffffffffffffffffffffffff16613b029092919063ffffffff16565b5b613628600460009054906101000a900473ffffffffffffffffffffffffffffffffffffffff16828660000160009054906101000a900473ffffffffffffffffffffffffffffffffffffffff1673ffffffffffffffffffffffffffffffffffffffff16613b029092919063ffffffff16565b505b61365c64e8d4a5100061364e8560040154856000015461396b90919063ffffffff16565b6139f190919063ffffffff16565b8260010181905550853373ffffffffffffffffffffffffffffffffffffffff167ff279e6a1f5e320cca91135676d9cb6e44ca8a08c0b88342bcdb1144f6511b568876040518082815260200191505060405180910390a3505050505050565b6136c3611a53565b15613736576040517f08c379a00000000000000000000000000000000000000000000000000000000081526004018080602001828103825260108152602001807f5061757361626c653a207061757365640000000000000000000000000000000081525060200191505060405180910390fd5b60018060146101000a81548160ff0219169083151502179055507f62e78cea01bee320cd4e420270b5ea74000d11b0c9f74754ebdbfc544b05a258613779613298565b604051808273ffffffffffffffffffffffffffffffffffffffff16815260200191505060405180910390a1565b6000811480613874575060008373ffffffffffffffffffffffffffffffffffffffff1663dd62ed3e30856040518363ffffffff1660e01b8152600401808373ffffffffffffffffffffffffffffffffffffffff1681526020018273ffffffffffffffffffffffffffffffffffffffff1681526020019250505060206040518083038186803b15801561383757600080fd5b505afa15801561384b573d6000803e3d6000fd5b505050506040513d602081101561386157600080fd5b8101908080519060200190929190505050145b6138c9576040517f08c379a00000000000000000000000000000000000000000000000000000000081526004018080602001828103825260368152602001806156ac6036913960400191505060405180910390fd5b6139668363095ea7b360e01b8484604051602401808373ffffffffffffffffffffffffffffffffffffffff16815260200182815260200192505050604051602081830303815290604052907bffffffffffffffffffffffffffffffffffffffffffffffffffffffff19166020820180517bffffffffffffffffffffffffffffffffffffffffffffffffffffffff8381831617835250505050614557565b505050565b60008083141561397e57600090506139eb565b600082840290508284828161398f57fe5b04146139e6576040517f08c379a00000000000000000000000000000000000000000000000000000000081526004018080602001828103825260218152602001806156616021913960400191505060405180910390fd5b809150505b92915050565b6000808211613a68576040517f08c379a000000000000000000000000000000000000000000000000000000000815260040180806020018281038252601a8152602001807f536166654d6174683a206469766973696f6e206279207a65726f00000000000081525060200191505060405180910390fd5b818381613a7157fe5b04905092915050565b600080828401905083811015613af8576040517f08c379a000000000000000000000000000000000000000000000000000000000815260040180806020018281038252601b8152602001807f536166654d6174683a206164646974696f6e206f766572666c6f77000000000081525060200191505060405180910390fd5b8091505092915050565b613b9f8363a9059cbb60e01b8484604051602401808373ffffffffffffffffffffffffffffffffffffffff16815260200182815260200192505050604051602081830303815290604052907bffffffffffffffffffffffffffffffffffffffffffffffffffffffff19166020820180517bffffffffffffffffffffffffffffffffffffffffffffffffffffffff8381831617835250505050614557565b505050565b600060098481548110613bb357fe5b906000526020600020906005020190506000600a600086815260200190815260200160002060003373ffffffffffffffffffffffffffffffffffffffff1673ffffffffffffffffffffffffffffffffffffffff1681526020019081526020016000209050600015158160020160009054906101000a900460ff1615151415613cb6576002339080600181540180825580915050600190039060005260206000200160009091909190916101000a81548173ffffffffffffffffffffffffffffffffffffffff021916908373ffffffffffffffffffffffffffffffffffffffff16021790555060018160020160006101000a81548160ff0219169083151502179055505b613cbf85611500565b600081600001541115613d2e576000613d168260010154613d0864e8d4a51000613cfa8760040154876000015461396b90919063ffffffff16565b6139f190919063ffffffff16565b613e4690919063ffffffff16565b90506000811115613d2c57613d2b33826142de565b5b505b6000841115613db657600115158315151415613d9657613d953330868560000160009054906101000a900473ffffffffffffffffffffffffffffffffffffffff1673ffffffffffffffffffffffffffffffffffffffff16614646909392919063ffffffff16565b5b613dad848260000154613a7a90919063ffffffff16565b81600001819055505b613de864e8d4a51000613dda8460040154846000015461396b90919063ffffffff16565b6139f190919063ffffffff16565b8160010181905550843373ffffffffffffffffffffffffffffffffffffffff167f90890809c654f11d6e72a28fa60149770a0d11ec6c92319d6ceb2bb0a4ea1a15866040518082815260200191505060405180910390a35050505050565b600082821115613ebe576040517f08c379a000000000000000000000000000000000000000000000000000000000815260040180806020018281038252601e8152602001807f536166654d6174683a207375627472616374696f6e206f766572666c6f77000081525060200191505060405180910390fd5b818303905092915050565b80471015613f3f576040517f08c379a000000000000000000000000000000000000000000000000000000000815260040180806020018281038252601d8152602001807f416464726573733a20696e73756666696369656e742062616c616e636500000081525060200191505060405180910390fd5b60008273ffffffffffffffffffffffffffffffffffffffff168260405180600001905060006040518083038185875af1925050503d8060008114613f9f576040519150601f19603f3d011682016040523d82523d6000602084013e613fa4565b606091505b5050905080613ffe576040517f08c379a000000000000000000000000000000000000000000000000000000000815260040180806020018281038252603a815260200180615601603a913960400191505060405180910390fd5b505050565b60008073ffffffffffffffffffffffffffffffffffffffff168373ffffffffffffffffffffffffffffffffffffffff1614156140b757600034116140af576040517f08c379a000000000000000000000000000000000000000000000000000000000815260040180806020018281038252600b8152602001807f4e6f206574682073656e7400000000000000000000000000000000000000000081525060200191505060405180910390fd5b3490506141d4565b6000821161412d576040517f08c379a00000000000000000000000000000000000000000000000000000000081526004018080602001828103825260148152602001807f496e76616c696420746f6b656e20616d6f756e7400000000000000000000000081525060200191505060405180910390fd5b600034146141a3576040517f08c379a00000000000000000000000000000000000000000000000000000000081526004018080602001828103825260138152602001807f4574682073656e74207769746820746f6b656e0000000000000000000000000081525060200191505060405180910390fd5b6141d03330848673ffffffffffffffffffffffffffffffffffffffff16614646909392919063ffffffff16565b8190505b92915050565b60008060006141e885614707565b915091506000806141fb8885858961481b565b91509150600080600061421087878787614a99565b9250925092507fe52a8d6444a86a0f9c4d5e4022c26ec5f9e2c0a873c0733b601b0ddc04a942d9338b89858a86604051808773ffffffffffffffffffffffffffffffffffffffff1681526020018673ffffffffffffffffffffffffffffffffffffffff1681526020018573ffffffffffffffffffffffffffffffffffffffff1681526020018481526020018373ffffffffffffffffffffffffffffffffffffffff168152602001828152602001965050505050505060405180910390a1829750505050505050509392505050565b6000600360009054906101000a900473ffffffffffffffffffffffffffffffffffffffff1673ffffffffffffffffffffffffffffffffffffffff166370a08231306040518263ffffffff1660e01b8152600401808273ffffffffffffffffffffffffffffffffffffffff16815260200191505060206040518083038186803b15801561436957600080fd5b505afa15801561437d573d6000803e3d6000fd5b505050506040513d602081101561439357600080fd5b810190808051906020019092919050505090508082111561448257600360009054906101000a900473ffffffffffffffffffffffffffffffffffffffff1673ffffffffffffffffffffffffffffffffffffffff1663a9059cbb84836040518363ffffffff1660e01b8152600401808373ffffffffffffffffffffffffffffffffffffffff16815260200182815260200192505050602060405180830381600087803b15801561444157600080fd5b505af1158015614455573d6000803e3d6000fd5b505050506040513d602081101561446b57600080fd5b810190808051906020019092919050505050614552565b600360009054906101000a900473ffffffffffffffffffffffffffffffffffffffff1673ffffffffffffffffffffffffffffffffffffffff1663a9059cbb84846040518363ffffffff1660e01b8152600401808373ffffffffffffffffffffffffffffffffffffffff16815260200182815260200192505050602060405180830381600087803b15801561451557600080fd5b505af1158015614529573d6000803e3d6000fd5b505050506040513d602081101561453f57600080fd5b8101908080519060200190929190505050505b505050565b60606145b9826040518060400160405280602081526020017f5361666545524332303a206c6f772d6c6576656c2063616c6c206661696c65648152508573ffffffffffffffffffffffffffffffffffffffff16614dc09092919063ffffffff16565b9050600081511115614641578080602001905160208110156145da57600080fd5b8101908080519060200190929190505050614640576040517f08c379a000000000000000000000000000000000000000000000000000000000815260040180806020018281038252602a815260200180615682602a913960400191505060405180910390fd5b5b505050565b614701846323b872dd60e01b858585604051602401808473ffffffffffffffffffffffffffffffffffffffff1681526020018373ffffffffffffffffffffffffffffffffffffffff1681526020018281526020019350505050604051602081830303815290604052907bffffffffffffffffffffffffffffffffffffffffffffffffffffffff19166020820180517bffffffffffffffffffffffffffffffffffffffffffffffffffffffff8381831617835250505050614557565b50505050565b60008060008390508073ffffffffffffffffffffffffffffffffffffffff16630dfe16816040518163ffffffff1660e01b815260040160206040518083038186803b15801561475557600080fd5b505afa158015614769573d6000803e3d6000fd5b505050506040513d602081101561477f57600080fd5b810190808051906020019092919050505092508073ffffffffffffffffffffffffffffffffffffffff1663d21220a76040518163ffffffff1660e01b815260040160206040518083038186803b1580156147d857600080fd5b505afa1580156147ec573d6000803e3d6000fd5b505050506040513d602081101561480257600080fd5b8101908080519060200190929190505050915050915091565b6000806000735c69bee701ef814a2b6a3edd4b1652cb9cc5aa6f73ffffffffffffffffffffffffffffffffffffffff1663e6a4390587876040518363ffffffff1660e01b8152600401808373ffffffffffffffffffffffffffffffffffffffff1681526020018273ffffffffffffffffffffffffffffffffffffffff1681526020019250505060206040518083038186803b1580156148b957600080fd5b505afa1580156148cd573d6000803e3d6000fd5b505050506040513d60208110156148e357600080fd5b810190808051906020019092919050505090506000808273ffffffffffffffffffffffffffffffffffffffff16630902f1ac6040518163ffffffff1660e01b815260040160606040518083038186803b15801561493f57600080fd5b505afa158015614953573d6000803e3d6000fd5b505050506040513d606081101561496957600080fd5b81019080805190602001909291908051906020019092919080519060200190929190505050506dffffffffffffffffffffffffffff1691506dffffffffffffffffffffffffffff1691508773ffffffffffffffffffffffffffffffffffffffff168973ffffffffffffffffffffffffffffffffffffffff161415614a3c5760006149f38388614dd8565b905060008111614a1457614a116002886139f190919063ffffffff16565b90505b614a1f8a8983614e5a565b9450614a348188613e4690919063ffffffff16565b955050614a8d565b6000614a488288614dd8565b905060008111614a6957614a666002886139f190919063ffffffff16565b90505b614a748a8a83614e5a565b9550614a898188613e4690919063ffffffff16565b9450505b50505094509492505050565b6000806000614ade737a250d5630b4cf539739df2c5dacb4c659f2488d60008973ffffffffffffffffffffffffffffffffffffffff166137a69092919063ffffffff16565b614b1e737a250d5630b4cf539739df2c5dacb4c659f2488d60008873ffffffffffffffffffffffffffffffffffffffff166137a69092919063ffffffff16565b614b5d737a250d5630b4cf539739df2c5dacb4c659f2488d868973ffffffffffffffffffffffffffffffffffffffff166137a69092919063ffffffff16565b614b9c737a250d5630b4cf539739df2c5dacb4c659f2488d858873ffffffffffffffffffffffffffffffffffffffff166137a69092919063ffffffff16565b6000806000737a250d5630b4cf539739df2c5dacb4c659f2488d73ffffffffffffffffffffffffffffffffffffffff1663e8e337008b8b8b8b600180307ff0000000000000000000000000000000000000000000000000000000000000006040518963ffffffff1660e01b8152600401808973ffffffffffffffffffffffffffffffffffffffff1681526020018873ffffffffffffffffffffffffffffffffffffffff1681526020018781526020018681526020018581526020018481526020018373ffffffffffffffffffffffffffffffffffffffff16815260200182815260200198505050505050505050606060405180830381600087803b158015614ca357600080fd5b505af1158015614cb7573d6000803e3d6000fd5b505050506040513d6060811015614ccd57600080fd5b810190808051906020019092919080519060200190929190805190602001909291905050509250925092506000614d0d848a613e4690919063ffffffff16565b1115614d5157614d5033614d2a858b613e4690919063ffffffff16565b8c73ffffffffffffffffffffffffffffffffffffffff16613b029092919063ffffffff16565b5b6000614d668389613e4690919063ffffffff16565b1115614daa57614da933614d83848a613e4690919063ffffffff16565b8b73ffffffffffffffffffffffffffffffffffffffff16613b029092919063ffffffff16565b5b8083839550955095505050509450945094915050565b6060614dcf84846000856152f0565b90509392505050565b60006107ca614e4a614df56107cd8661396b90919063ffffffff16565b614e3c614e37614e11623cda298961396b90919063ffffffff16565b614e27623cda208961396b90919063ffffffff16565b018861396b90919063ffffffff16565b615499565b613e4690919063ffffffff16565b81614e5157fe5b04905092915050565b60008273ffffffffffffffffffffffffffffffffffffffff168473ffffffffffffffffffffffffffffffffffffffff161415614e98578190506152e9565b614ed8737a250d5630b4cf539739df2c5dacb4c659f2488d60008673ffffffffffffffffffffffffffffffffffffffff166137a69092919063ffffffff16565b614f17737a250d5630b4cf539739df2c5dacb4c659f2488d838673ffffffffffffffffffffffffffffffffffffffff166137a69092919063ffffffff16565b6060600267ffffffffffffffff81118015614f3157600080fd5b50604051908082528060200260200182016040528015614f605781602001602082028036833780820191505090505b5090508481600081518110614f7157fe5b602002602001019073ffffffffffffffffffffffffffffffffffffffff16908173ffffffffffffffffffffffffffffffffffffffff16815250508381600181518110614fb957fe5b602002602001019073ffffffffffffffffffffffffffffffffffffffff16908173ffffffffffffffffffffffffffffffffffffffff1681525050737a250d5630b4cf539739df2c5dacb4c659f2488d73ffffffffffffffffffffffffffffffffffffffff166338ed173984600184307ff0000000000000000000000000000000000000000000000000000000000000006040518663ffffffff1660e01b815260040180868152602001858152602001806020018473ffffffffffffffffffffffffffffffffffffffff168152602001838152602001828103825285818151815260200191508051906020019060200280838360005b838110156150c95780820151818401526020810190506150ae565b505050509050019650505050505050600060405180830381600087803b1580156150f257600080fd5b505af1158015615106573d6000803e3d6000fd5b505050506040513d6000823e3d601f19601f82011682018060405250602081101561513057600080fd5b810190808051604051939291908464010000000082111561515057600080fd5b8382019150602082018581111561516657600080fd5b825186602082028301116401000000008211171561518357600080fd5b8083526020830192505050908051906020019060200280838360005b838110156151ba57808201518184015260208101905061519f565b505050509050016040525050506001825103815181106151d657fe5b6020026020010151915060008211615256576040517f08c379a00000000000000000000000000000000000000000000000000000000081526004018080602001828103825260178152602001807f4572726f72205377617070696e6720546f6b656e73203200000000000000000081525060200191505060405180910390fd5b7fb242fac543571b33f0bb49bcc84178771cbd74e5c7785b45981424829ba3c07533848787604051808573ffffffffffffffffffffffffffffffffffffffff1681526020018481526020018373ffffffffffffffffffffffffffffffffffffffff1681526020018273ffffffffffffffffffffffffffffffffffffffff16815260200194505050505060405180910390a1505b9392505050565b60608247101561534b576040517f08c379a000000000000000000000000000000000000000000000000000000000815260040180806020018281038252602681526020018061563b6026913960400191505060405180910390fd5b615354856154fb565b6153c6576040517f08c379a000000000000000000000000000000000000000000000000000000000815260040180806020018281038252601d8152602001807f416464726573733a2063616c6c20746f206e6f6e2d636f6e747261637400000081525060200191505060405180910390fd5b600060608673ffffffffffffffffffffffffffffffffffffffff1685876040518082805190602001908083835b6020831061541657805182526020820191506020810190506020830392506153f3565b6001836020036101000a03801982511681845116808217855250505050505090500191505060006040518083038185875af1925050503d8060008114615478576040519150601f19603f3d011682016040523d82523d6000602084013e61547d565b606091505b509150915061548d82828661550e565b92505050949350505050565b600060038211156154e85781905060006001600284816154b557fe5b040190505b818110156154e2578091506002818285816154d157fe5b0401816154da57fe5b0490506154ba565b506154f6565b600082146154f557600190505b5b919050565b600080823b905060008111915050919050565b6060831561551e578290506155d3565b6000835111156155315782518084602001fd5b816040517f08c379a00000000000000000000000000000000000000000000000000000000081526004018080602001828103825283818151815260200191508051906020019080838360005b8381101561559857808201518184015260208101905061557d565b50505050905090810190601f1680156155c55780820380516001836020036101000a031916815260200191505b509250505060405180910390fd5b939250505056fe4f776e61626c653a206e6577206f776e657220697320746865207a65726f2061646472657373416464726573733a20756e61626c6520746f2073656e642076616c75652c20726563697069656e74206d61792068617665207265766572746564416464726573733a20696e73756666696369656e742062616c616e636520666f722063616c6c536166654d6174683a206d756c7469706c69636174696f6e206f766572666c6f775361666545524332303a204552433230206f7065726174696f6e20646964206e6f7420737563636565645361666545524332303a20617070726f76652066726f6d206e6f6e2d7a65726f20746f206e6f6e2d7a65726f20616c6c6f77616e6365a26469706673582212206024ea95e1d0e4754d31a67506f431618694c33042883feae76f7c72a078509f64736f6c63430007000033",
  "immutableReferences": {},
  "source": "// SPDX-License-Identifier: MIT\n\npragma solidity ^0.7.0;\n\nimport \"@openzeppelin/contracts/token/ERC20/IERC20.sol\";\nimport \"@openzeppelin/contracts/token/ERC20/SafeERC20.sol\";\nimport \"@openzeppelin/contracts/utils/EnumerableSet.sol\";\nimport \"@openzeppelin/contracts/math/SafeMath.sol\";\nimport \"@openzeppelin/contracts/access/Ownable.sol\";\nimport \"@openzeppelin/contracts/utils/Pausable.sol\";\nimport \"./interfaces/Ixfit.sol\";\nimport \"../contracts/XPoolHandler.sol\";\n\ninterface IXFITMigrator {\n    // Perform LP token migration from legacy UniswapV2 to XFai AMM.\n    // Take the current LP token address and return the new LP token address from XFai AMM.\n    // Migrator should have full access to the caller's LP token.\n    // Return the new LP token address.\n    //\n    // XXX Migrator must have allowance access to UniswapV2 LP tokens.\n    // XFai must mint EXACTLY the same amount of XFai AMM LP tokens or\n    // else something bad will happen. Traditional UniswapV2 does not\n    // do that so be careful!\n    function migrate(IERC20 token) external returns (IERC20);\n}\n\n// Amplify is XFIT distibutor.\n//\n// Note that it's ownable and the owner wields tremendous power. The ownership\n// will be transferred to a governance smart contract once XFIT is sufficiently\n// distributed and the community can show to govern itself.\n\ncontract XFaiAmplify is XPoolHandler, Pausable {\n    using SafeMath for uint256;\n    using SafeERC20 for IERC20;\n\n    // Info of each user.\n    struct UserInfo {\n        uint256 amount; // How many LP tokens the user has provided.\n        uint256 rewardDebt; // Reward debt. See explanation below.\n        bool enrolled;\n        //\n        // We do some fancy math here. Basically, any point in time, the amount of XFITs\n        // entitled to a user but is pending to be distributed is:\n        //\n        //   pending reward = (user.amount * pool.accXFITPerShare) - user.rewardDebt\n        //\n        // Whenever a user deposits or withdraws LP tokens to a pool. Here's what happens:\n        //   1. The pool's `accXFITPerShare` (and `lastRewardBlock`) gets updated.\n        //   2. User receives the pending reward sent to his/her address.\n        //   3. User's `amount` gets updated.\n        //   4. User's `rewardDebt` gets updated.\n    }\n\n    // Array which stores addresses of all the participants. Doesn't duplicate the address.\n    address[] public userAddresses;\n\n    // Info of each pool.\n    struct PoolInfo {\n        IERC20 lpToken; // Address of LP token contract.\n        IERC20 inputToken; // Token in which Single sided liquidity can be provided\n        uint256 allocPoint; // How many allocation points assigned to this pool. XFITs to distribute per block.\n        uint256 lastRewardBlock; // Last block number that XFITs distribution occurs.\n        uint256 accXFITPerShare; // Accumulated XFITs per share, times 1e12. See below.\n    }\n\n    // The XFIT TOKEN!\n    Ixfit public XFIT;\n    // Dev address.\n    address public devaddr;\n    // Block number when bonus XFIT period ends.\n    uint256 public bonusEndBlock;\n    // XFIT tokens distributed per block.\n    uint256 public XFITPerBlock;\n    // Bonus muliplier for early XFIT farmers.\n    uint256 public constant BONUS_MULTIPLIER = 2;\n\n    uint256 public constant REWARD_FACTOR = 10;\n\n    // Exit fee in percentage, scaled by e18. e.g. if exit fee is 2%, then exitFeeFactor should be 2e18\n    uint256 public exitFeeFactor;\n    // The migrator contract. It has a lot of power. Can only be set through governance (owner).\n    IXFITMigrator public migrator;\n\n    // Info of each pool.\n    PoolInfo[] public poolInfo;\n    // Info of each user that stakes LP tokens.\n    mapping(uint256 => mapping(address => UserInfo)) public userInfo;\n    // Total allocation points. Must be the sum of all allocation points in all pools.\n    uint256 public totalAllocPoint = 0;\n    // The block number when XFIT mining starts.\n    uint256 public startBlock;\n\n    event Deposit(address indexed user, uint256 indexed pid, uint256 amount);\n    event Withdraw(address indexed user, uint256 indexed pid, uint256 amount);\n    event EmergencyWithdraw(\n        address indexed user,\n        uint256 indexed pid,\n        uint256 amount\n    );\n\n    constructor(\n        Ixfit _XFIT,\n        address _devaddr,\n        uint256 _XFITPerBlock,\n        uint256 _exitFeeFactor,\n        uint256 _startBlock,\n        uint256 _bonusEndBlock\n    ) {\n        XFIT = _XFIT;\n        devaddr = _devaddr;\n        XFITPerBlock = _XFITPerBlock;\n        bonusEndBlock = _bonusEndBlock;\n        startBlock = _startBlock;\n        exitFeeFactor = _exitFeeFactor;\n    }\n\n    function poolLength() external view returns (uint256) {\n        return poolInfo.length;\n    }\n\n    function userAddressesLength() external view returns (uint256) {\n        return userAddresses.length;\n    }\n\n    // Add a new lp to the pool. Can only be called by the owner.\n    // XXX DO NOT add the same LP token more than once. Rewards will be messed up if you do.\n    function add(\n        uint256 _allocPoint,\n        IERC20 _lpToken,\n        IERC20 _inputToken,\n        bool _withUpdate\n    ) public onlyOwner {\n        if (_withUpdate) {\n            massUpdatePools();\n        }\n        uint256 lastRewardBlock =\n            block.number > startBlock ? block.number : startBlock;\n        totalAllocPoint = totalAllocPoint.add(_allocPoint);\n        poolInfo.push(\n            PoolInfo({\n                lpToken: _lpToken,\n                inputToken: _inputToken,\n                allocPoint: _allocPoint,\n                lastRewardBlock: lastRewardBlock,\n                accXFITPerShare: 0\n            })\n        );\n    }\n\n    // Update the given pool's XFIT allocation point. Can only be called by the owner.\n    function set(\n        uint256 _pid,\n        uint256 _allocPoint,\n        bool _withUpdate\n    ) public onlyOwner {\n        if (_withUpdate) {\n            massUpdatePools();\n        }\n        totalAllocPoint = totalAllocPoint.sub(poolInfo[_pid].allocPoint).add(\n            _allocPoint\n        );\n        poolInfo[_pid].allocPoint = _allocPoint;\n    }\n\n    // Set the migrator contract. Can only be called by the owner.\n    function setMigrator(IXFITMigrator _migrator) public onlyOwner {\n        migrator = _migrator;\n    }\n\n    // Migrate lp token to another lp contract. Can be called by anyone. We trust that migrator contract is good.\n    function migrate(uint256 _pid) public {\n        require(address(migrator) != address(0), \"migrate: no migrator\");\n        PoolInfo storage pool = poolInfo[_pid];\n        uint256 bal = pool.lpToken.balanceOf(address(this));\n        pool.lpToken.safeApprove(address(migrator), bal);\n        IERC20 newLpToken = migrator.migrate(pool.lpToken);\n        require(bal == newLpToken.balanceOf(address(this)), \"migrate: bad\");\n        pool.lpToken = newLpToken;\n    }\n\n    // Return reward multiplier over the given _from to _to block.\n    function getMultiplier(uint256 _from, uint256 _to)\n        public\n        view\n        returns (uint256)\n    {\n        if (_to <= bonusEndBlock) {\n            return _to.sub(_from).mul(BONUS_MULTIPLIER);\n        } else if (_from >= bonusEndBlock) {\n            return _to.sub(_from);\n        } else {\n            return\n                bonusEndBlock.sub(_from).mul(BONUS_MULTIPLIER).add(\n                    _to.sub(bonusEndBlock)\n                );\n        }\n    }\n\n    // View function to see pending XFITs on frontend.\n    function pendingXFIT(uint256 _pid, address _user)\n        external\n        view\n        returns (uint256)\n    {\n        PoolInfo storage pool = poolInfo[_pid];\n        UserInfo storage user = userInfo[_pid][_user];\n        uint256 accXFITPerShare = pool.accXFITPerShare;\n        uint256 lpSupply = pool.lpToken.balanceOf(address(this));\n        if (block.number > pool.lastRewardBlock && lpSupply != 0) {\n            uint256 multiplier =\n                getMultiplier(pool.lastRewardBlock, block.number);\n            uint256 XFITReward =\n                multiplier.mul(XFITPerBlock).mul(pool.allocPoint).div(\n                    totalAllocPoint\n                );\n            accXFITPerShare = accXFITPerShare.add(\n                XFITReward.mul(1e12).div(lpSupply)\n            );\n        }\n        return user.amount.mul(accXFITPerShare).div(1e12).sub(user.rewardDebt);\n    }\n\n    // Update reward variables for all pools. Be careful of gas spending!\n    function massUpdatePools() public {\n        uint256 length = poolInfo.length;\n        for (uint256 pid = 0; pid < length; ++pid) {\n            updatePool(pid);\n        }\n    }\n\n    // Update reward variables of the given pool to be up-to-date.\n    function updatePool(uint256 _pid) public {\n        PoolInfo storage pool = poolInfo[_pid];\n        if (block.number <= pool.lastRewardBlock) {\n            return;\n        }\n        uint256 lpSupply = pool.lpToken.balanceOf(address(this));\n        if (lpSupply == 0) {\n            pool.lastRewardBlock = block.number;\n            return;\n        }\n        uint256 multiplier = getMultiplier(pool.lastRewardBlock, block.number);\n        uint256 XFITReward =\n            multiplier.mul(XFITPerBlock).mul(pool.allocPoint).div(\n                totalAllocPoint\n            );\n        XFIT.transfer(devaddr, XFITReward.div(REWARD_FACTOR));\n        pool.accXFITPerShare = pool.accXFITPerShare.add(\n            XFITReward.mul(1e12).div(lpSupply)\n        );\n        pool.lastRewardBlock = block.number;\n    }\n\n    function depositLPWithToken(\n        uint256 _pid,\n        uint256 _amount,\n        uint256 _minPoolTokens\n    ) public whenNotPaused {\n        PoolInfo storage pool = poolInfo[_pid];\n        UserInfo storage user = userInfo[_pid][msg.sender];\n        uint256 lpTokensBought =\n            poolLiquidity(\n                address(pool.inputToken),\n                address(pool.lpToken),\n                _amount,\n                _minPoolTokens\n            );\n        _depositInternal(_pid, lpTokensBought, false);\n    }\n\n    // Deposit LP tokens to Amplify for XFIT allocation.\n    function depositLP(uint256 _pid, uint256 _amount) public whenNotPaused {\n        _depositInternal(_pid, _amount, true);\n    }\n\n    function withdrawLPWithToken(uint256 _pid, uint256 _amount) public {\n        _withdrawInternal(_pid, _amount, false);\n        PoolInfo storage pool = poolInfo[_pid];\n        redeemLPTokens(address(pool.lpToken), _amount);\n    }\n\n    // Withdraw LP tokens from Amplify.\n    function withdrawLP(uint256 _pid, uint256 _amount) public whenNotPaused {\n        _withdrawInternal(_pid, _amount, true);\n    }\n\n    function _depositInternal(\n        uint256 _pid,\n        uint256 _amount,\n        bool withLPTokens\n    ) internal {\n        PoolInfo storage pool = poolInfo[_pid];\n        UserInfo storage user = userInfo[_pid][msg.sender];\n        if (user.enrolled == false) {\n            userAddresses.push(msg.sender);\n            user.enrolled = true;\n        }\n        updatePool(_pid);\n        if (user.amount > 0) {\n            uint256 pending =\n                user.amount.mul(pool.accXFITPerShare).div(1e12).sub(\n                    user.rewardDebt\n                );\n            if (pending > 0) {\n                safeXFITTransfer(msg.sender, pending);\n            }\n        }\n        if (_amount > 0) {\n            if (withLPTokens == true) {\n                pool.lpToken.safeTransferFrom(\n                    address(msg.sender),\n                    address(this),\n                    _amount\n                );\n            }\n            user.amount = user.amount.add(_amount);\n        }\n        user.rewardDebt = user.amount.mul(pool.accXFITPerShare).div(1e12);\n        emit Deposit(msg.sender, _pid, _amount);\n    }\n\n    function _withdrawInternal(\n        uint256 _pid,\n        uint256 _amount,\n        bool withLPTokens\n    ) internal {\n        PoolInfo storage pool = poolInfo[_pid];\n        UserInfo storage user = userInfo[_pid][msg.sender];\n        require(user.amount >= _amount, \"withdraw: not good\");\n        updatePool(_pid);\n        uint256 pending =\n            user.amount.mul(pool.accXFITPerShare).div(1e12).sub(\n                user.rewardDebt\n            );\n        if (pending > 0) {\n            safeXFITTransfer(msg.sender, pending);\n        }\n        if (_amount > 0) {\n            user.amount = user.amount.sub(_amount);\n            uint256 exitFee = _amount.mul(exitFeeFactor).div(100).div(1e18);\n\n            if (withLPTokens) {\n                pool.lpToken.safeTransfer(\n                    address(msg.sender),\n                    _amount.sub(exitFee)\n                );\n            }\n            pool.lpToken.safeTransfer(devaddr, exitFee);\n        }\n        user.rewardDebt = user.amount.mul(pool.accXFITPerShare).div(1e12);\n        emit Withdraw(msg.sender, _pid, _amount);\n    }\n\n    // Withdraw without caring about rewards. EMERGENCY ONLY.\n    function emergencyWithdraw(uint256 _pid) public {\n        PoolInfo storage pool = poolInfo[_pid];\n        UserInfo storage user = userInfo[_pid][msg.sender];\n        uint256 amount = user.amount;\n        user.amount = 0;\n        user.rewardDebt = 0;\n        pool.lpToken.safeTransfer(address(msg.sender), amount);\n        emit EmergencyWithdraw(msg.sender, _pid, amount);\n    }\n\n    // Safe XFIT transfer function, just in case if rounding error causes pool to not have enough XFITs.\n    function safeXFITTransfer(address _to, uint256 _amount) internal {\n        uint256 XFITBal = XFIT.balanceOf(address(this));\n        if (_amount > XFITBal) {\n            XFIT.transfer(_to, XFITBal);\n        } else {\n            XFIT.transfer(_to, _amount);\n        }\n    }\n\n    // ADMIN METHODS\n\n    // Update dev address by the admin.\n    function dev(address _devaddr) public onlyOwner {\n        devaddr = _devaddr;\n    }\n\n    function pauseDistribution() public onlyOwner {\n        _pause();\n    }\n\n    function resumeDistribution() public onlyOwner {\n        _unpause();\n    }\n\n    function setXFITRewardPerBlock(uint256 _newReward) public onlyOwner {\n        massUpdatePools();\n        XFITPerBlock = _newReward;\n    }\n\n    function setExitFeeFactor(uint256 _newExitFeeFactor) public onlyOwner {\n        exitFeeFactor = _newExitFeeFactor;\n    }\n\n    function withdrawAdminXFIT(uint256 amount) public onlyOwner {\n        XFIT.transfer(msg.sender, amount);\n    }\n}\n",
  "sourcePath": "/Users/ayardi/Work/fetch/xfai-amplify/contracts/xfai.sol",
  "compiler": {
    "name": "solc",
    "version": "0.7.0+commit.9e61f92b.Emscripten.clang"
  },
  "schemaVersion": "3.3.2",
  "updatedAt": "2021-03-04T14:00:01.990Z",
  "devdoc": {
    "kind": "dev",
    "methods": {
      "owner()": {
        "details": "Returns the address of the current owner."
      },
      "paused()": {
        "details": "Returns true if the contract is paused, and false otherwise."
      },
      "poolLiquidity(address,address,uint256,uint256)": {
        "params": {
          "_FromTokenContractAddress": "The ERC20 token used for investment (address(0x00) if ether)",
          "_amount": "The amount of fromToken to invest",
          "_minPoolTokens": "Reverts if less tokens received than this",
          "_pairAddress": "The Uniswap pair address"
        },
        "returns": {
          "_0": "Amount of LP bought"
        }
      },
      "redeemLPTokens(address,uint256)": {
        "params": {
          "_FromUniPoolAddress": "The uniswap pair address to reomve liquidity from",
          "_lpTokensAmount": "The amount of LP"
        },
        "returns": {
          "_0": "(amountA, amountB) The amount of pair tokens received after removing liquidity"
        }
      },
      "renounceOwnership()": {
        "details": "Leaves the contract without owner. It will not be possible to call `onlyOwner` functions anymore. Can only be called by the current owner. NOTE: Renouncing ownership will leave the contract without an owner, thereby removing any functionality that is only available to the owner."
      },
      "transferOwnership(address)": {
        "details": "Transfers ownership of the contract to a new account (`newOwner`). Can only be called by the current owner."
      }
    },
    "version": 1
  },
  "userdoc": {
    "kind": "user",
    "methods": {
      "poolLiquidity(address,address,uint256,uint256)": {
        "notice": "This function is used to invest in given Uniswap V2 pair through either of the tokens"
      },
      "redeemLPTokens(address,uint256)": {
        "notice": "Remove liquidity from a pool"
      }
    },
    "version": 1
  }
}