{
  "contractName": "XPoolHandler",
  "abi": [
    {
      "anonymous": false,
      "inputs": [
        {
          "indexed": true,
          "internalType": "address",
          "name": "previousOwner",
          "type": "address"
        },
        {
          "indexed": true,
          "internalType": "address",
          "name": "newOwner",
          "type": "address"
        }
      ],
      "name": "OwnershipTransferred",
      "type": "event"
    },
    {
      "anonymous": false,
      "inputs": [
        {
          "indexed": false,
          "internalType": "address",
          "name": "sender",
          "type": "address"
        },
        {
          "indexed": false,
          "internalType": "address",
          "name": "pool",
          "type": "address"
        },
        {
          "indexed": false,
          "internalType": "uint256",
          "name": "amount",
          "type": "uint256"
        }
      ],
      "name": "POOL_LIQUIDITY",
      "type": "event"
    },
    {
      "anonymous": false,
      "inputs": [
        {
          "indexed": false,
          "internalType": "address",
          "name": "sender",
          "type": "address"
        },
        {
          "indexed": false,
          "internalType": "uint256",
          "name": "amount",
          "type": "uint256"
        },
        {
          "indexed": false,
          "internalType": "address",
          "name": "fromToken",
          "type": "address"
        },
        {
          "indexed": false,
          "internalType": "address",
          "name": "toToken",
          "type": "address"
        }
      ],
      "name": "SWAP_TOKENS",
      "type": "event"
    },
    {
      "inputs": [],
      "name": "owner",
      "outputs": [
        {
          "internalType": "address",
          "name": "",
          "type": "address"
        }
      ],
      "stateMutability": "view",
      "type": "function"
    },
    {
      "inputs": [],
      "name": "renounceOwnership",
      "outputs": [],
      "stateMutability": "nonpayable",
      "type": "function"
    },
    {
      "inputs": [
        {
          "internalType": "address",
          "name": "newOwner",
          "type": "address"
        }
      ],
      "name": "transferOwnership",
      "outputs": [],
      "stateMutability": "nonpayable",
      "type": "function"
    },
    {
      "inputs": [
        {
          "internalType": "address",
          "name": "_FromTokenContractAddress",
          "type": "address"
        },
        {
          "internalType": "address",
          "name": "_pairAddress",
          "type": "address"
        },
        {
          "internalType": "uint256",
          "name": "_amount",
          "type": "uint256"
        },
        {
          "internalType": "uint256",
          "name": "_minPoolTokens",
          "type": "uint256"
        }
      ],
      "name": "poolLiquidity",
      "outputs": [
        {
          "internalType": "uint256",
          "name": "",
          "type": "uint256"
        }
      ],
      "stateMutability": "payable",
      "type": "function"
    }
  ],
  "bytecode": "0x608060405234801561001057600080fd5b50600160008190555060006100296100cd60201b60201c565b905080600160006101000a81548173ffffffffffffffffffffffffffffffffffffffff021916908373ffffffffffffffffffffffffffffffffffffffff1602179055508073ffffffffffffffffffffffffffffffffffffffff16600073ffffffffffffffffffffffffffffffffffffffff167f8be0079c531659141344cd1fd0a4f28419497f9722a3daafe3b4186f6b6457e060405160405180910390a3506100d5565b600033905090565b611e37806100e46000396000f3fe60806040526004361061003f5760003560e01c8063715018a6146100445780638da5cb5b1461005b578063b058c0541461009c578063f2fde38b14610128575b600080fd5b34801561005057600080fd5b50610059610179565b005b34801561006757600080fd5b506100706102e9565b604051808273ffffffffffffffffffffffffffffffffffffffff16815260200191505060405180910390f35b610112600480360360808110156100b257600080fd5b81019080803573ffffffffffffffffffffffffffffffffffffffff169060200190929190803573ffffffffffffffffffffffffffffffffffffffff1690602001909291908035906020019092919080359060200190929190505050610313565b6040518082815260200191505060405180910390f35b34801561013457600080fd5b506101776004803603602081101561014b57600080fd5b81019080803573ffffffffffffffffffffffffffffffffffffffff1690602001909291905050506104b1565b005b6101816106a6565b73ffffffffffffffffffffffffffffffffffffffff1661019f6102e9565b73ffffffffffffffffffffffffffffffffffffffff1614610228576040517f08c379a00000000000000000000000000000000000000000000000000000000081526004018080602001828103825260208152602001807f4f776e61626c653a2063616c6c6572206973206e6f7420746865206f776e657281525060200191505060405180910390fd5b600073ffffffffffffffffffffffffffffffffffffffff16600160009054906101000a900473ffffffffffffffffffffffffffffffffffffffff1673ffffffffffffffffffffffffffffffffffffffff167f8be0079c531659141344cd1fd0a4f28419497f9722a3daafe3b4186f6b6457e060405160405180910390a36000600160006101000a81548173ffffffffffffffffffffffffffffffffffffffff021916908373ffffffffffffffffffffffffffffffffffffffff160217905550565b6000600160009054906101000a900473ffffffffffffffffffffffffffffffffffffffff16905090565b60006002600054141561038e576040517f08c379a000000000000000000000000000000000000000000000000000000000815260040180806020018281038252601f8152602001807f5265656e7472616e637947756172643a207265656e7472616e742063616c6c0081525060200191505060405180910390fd5b600260008190555060006103a286856106ae565b905060006103b1878784610885565b905083811015610429576040517f08c379a00000000000000000000000000000000000000000000000000000000081526004018080602001828103825260128152602001807f4552523a204869676820536c697070616765000000000000000000000000000081525060200191505060405180910390fd5b7fee3ec706ed9a4d74037a02c09bcb5288fbf40485a59561e6c34966ade4484b7e338783604051808473ffffffffffffffffffffffffffffffffffffffff1681526020018373ffffffffffffffffffffffffffffffffffffffff168152602001828152602001935050505060405180910390a180925050506001600081905550949350505050565b6104b96106a6565b73ffffffffffffffffffffffffffffffffffffffff166104d76102e9565b73ffffffffffffffffffffffffffffffffffffffff1614610560576040517f08c379a00000000000000000000000000000000000000000000000000000000081526004018080602001828103825260208152602001807f4f776e61626c653a2063616c6c6572206973206e6f7420746865206f776e657281525060200191505060405180910390fd5b600073ffffffffffffffffffffffffffffffffffffffff168173ffffffffffffffffffffffffffffffffffffffff1614156105e6576040517f08c379a0000000000000000000000000000000000000000000000000000000008152600401808060200182810382526026815260200180611d356026913960400191505060405180910390fd5b8073ffffffffffffffffffffffffffffffffffffffff16600160009054906101000a900473ffffffffffffffffffffffffffffffffffffffff1673ffffffffffffffffffffffffffffffffffffffff167f8be0079c531659141344cd1fd0a4f28419497f9722a3daafe3b4186f6b6457e060405160405180910390a380600160006101000a81548173ffffffffffffffffffffffffffffffffffffffff021916908373ffffffffffffffffffffffffffffffffffffffff16021790555050565b600033905090565b60008073ffffffffffffffffffffffffffffffffffffffff168373ffffffffffffffffffffffffffffffffffffffff161415610762576000341161075a576040517f08c379a000000000000000000000000000000000000000000000000000000000815260040180806020018281038252600b8152602001807f4e6f206574682073656e7400000000000000000000000000000000000000000081525060200191505060405180910390fd5b34905061087f565b600082116107d8576040517f08c379a00000000000000000000000000000000000000000000000000000000081526004018080602001828103825260148152602001807f496e76616c696420746f6b656e20616d6f756e7400000000000000000000000081525060200191505060405180910390fd5b6000341461084e576040517f08c379a00000000000000000000000000000000000000000000000000000000081526004018080602001828103825260138152602001807f4574682073656e74207769746820746f6b656e0000000000000000000000000081525060200191505060405180910390fd5b61087b3330848673ffffffffffffffffffffffffffffffffffffffff166108c3909392919063ffffffff16565b8190505b92915050565b600080600061089385610984565b915091506000806108a688858589610a98565b915091506108b684848484610d16565b9450505050509392505050565b61097e846323b872dd60e01b858585604051602401808473ffffffffffffffffffffffffffffffffffffffff1681526020018373ffffffffffffffffffffffffffffffffffffffff1681526020018281526020019350505050604051602081830303815290604052907bffffffffffffffffffffffffffffffffffffffffffffffffffffffff19166020820180517bffffffffffffffffffffffffffffffffffffffffffffffffffffffff8381831617835250505050611032565b50505050565b60008060008390508073ffffffffffffffffffffffffffffffffffffffff16630dfe16816040518163ffffffff1660e01b815260040160206040518083038186803b1580156109d257600080fd5b505afa1580156109e6573d6000803e3d6000fd5b505050506040513d60208110156109fc57600080fd5b810190808051906020019092919050505092508073ffffffffffffffffffffffffffffffffffffffff1663d21220a76040518163ffffffff1660e01b815260040160206040518083038186803b158015610a5557600080fd5b505afa158015610a69573d6000803e3d6000fd5b505050506040513d6020811015610a7f57600080fd5b8101908080519060200190929190505050915050915091565b6000806000735c69bee701ef814a2b6a3edd4b1652cb9cc5aa6f73ffffffffffffffffffffffffffffffffffffffff1663e6a4390587876040518363ffffffff1660e01b8152600401808373ffffffffffffffffffffffffffffffffffffffff1681526020018273ffffffffffffffffffffffffffffffffffffffff1681526020019250505060206040518083038186803b158015610b3657600080fd5b505afa158015610b4a573d6000803e3d6000fd5b505050506040513d6020811015610b6057600080fd5b810190808051906020019092919050505090506000808273ffffffffffffffffffffffffffffffffffffffff16630902f1ac6040518163ffffffff1660e01b815260040160606040518083038186803b158015610bbc57600080fd5b505afa158015610bd0573d6000803e3d6000fd5b505050506040513d6060811015610be657600080fd5b81019080805190602001909291908051906020019092919080519060200190929190505050506dffffffffffffffffffffffffffff1691506dffffffffffffffffffffffffffff1691508773ffffffffffffffffffffffffffffffffffffffff168973ffffffffffffffffffffffffffffffffffffffff161415610cb9576000610c708388611121565b905060008111610c9157610c8e6002886111a390919063ffffffff16565b90505b610c9c8a898361122c565b9450610cb181886116c290919063ffffffff16565b955050610d0a565b6000610cc58288611121565b905060008111610ce657610ce36002886111a390919063ffffffff16565b90505b610cf18a8a8361122c565b9550610d0681886116c290919063ffffffff16565b9450505b50505094509492505050565b6000610d58737a250d5630b4cf539739df2c5dacb4c659f2488d60008773ffffffffffffffffffffffffffffffffffffffff166117459092919063ffffffff16565b610d98737a250d5630b4cf539739df2c5dacb4c659f2488d60008673ffffffffffffffffffffffffffffffffffffffff166117459092919063ffffffff16565b610dd7737a250d5630b4cf539739df2c5dacb4c659f2488d848773ffffffffffffffffffffffffffffffffffffffff166117459092919063ffffffff16565b610e16737a250d5630b4cf539739df2c5dacb4c659f2488d838673ffffffffffffffffffffffffffffffffffffffff166117459092919063ffffffff16565b6000806000737a250d5630b4cf539739df2c5dacb4c659f2488d73ffffffffffffffffffffffffffffffffffffffff1663e8e3370089898989600180307ff0000000000000000000000000000000000000000000000000000000000000006040518963ffffffff1660e01b8152600401808973ffffffffffffffffffffffffffffffffffffffff1681526020018873ffffffffffffffffffffffffffffffffffffffff1681526020018781526020018681526020018581526020018481526020018373ffffffffffffffffffffffffffffffffffffffff16815260200182815260200198505050505050505050606060405180830381600087803b158015610f1d57600080fd5b505af1158015610f31573d6000803e3d6000fd5b505050506040513d6060811015610f4757600080fd5b810190808051906020019092919080519060200190929190805190602001909291905050509250925092506000610f8784886116c290919063ffffffff16565b1115610fcb57610fca33610fa485896116c290919063ffffffff16565b8a73ffffffffffffffffffffffffffffffffffffffff1661190a9092919063ffffffff16565b5b6000610fe083876116c290919063ffffffff16565b11156110245761102333610ffd84886116c290919063ffffffff16565b8973ffffffffffffffffffffffffffffffffffffffff1661190a9092919063ffffffff16565b5b809350505050949350505050565b6060611094826040518060400160405280602081526020017f5361666545524332303a206c6f772d6c6576656c2063616c6c206661696c65648152508573ffffffffffffffffffffffffffffffffffffffff166119ac9092919063ffffffff16565b905060008151111561111c578080602001905160208110156110b557600080fd5b810190808051906020019092919050505061111b576040517f08c379a000000000000000000000000000000000000000000000000000000000815260040180806020018281038252602a815260200180611da2602a913960400191505060405180910390fd5b5b505050565b60006107ca61119361113e6107cd866119c490919063ffffffff16565b61118561118061115a623cda29896119c490919063ffffffff16565b611170623cda20896119c490919063ffffffff16565b01886119c490919063ffffffff16565b611a4a565b6116c290919063ffffffff16565b8161119a57fe5b04905092915050565b600080821161121a576040517f08c379a000000000000000000000000000000000000000000000000000000000815260040180806020018281038252601a8152602001807f536166654d6174683a206469766973696f6e206279207a65726f00000000000081525060200191505060405180910390fd5b81838161122357fe5b04905092915050565b60008273ffffffffffffffffffffffffffffffffffffffff168473ffffffffffffffffffffffffffffffffffffffff16141561126a578190506116bb565b6112aa737a250d5630b4cf539739df2c5dacb4c659f2488d60008673ffffffffffffffffffffffffffffffffffffffff166117459092919063ffffffff16565b6112e9737a250d5630b4cf539739df2c5dacb4c659f2488d838673ffffffffffffffffffffffffffffffffffffffff166117459092919063ffffffff16565b6060600267ffffffffffffffff8111801561130357600080fd5b506040519080825280602002602001820160405280156113325781602001602082028036833780820191505090505b509050848160008151811061134357fe5b602002602001019073ffffffffffffffffffffffffffffffffffffffff16908173ffffffffffffffffffffffffffffffffffffffff1681525050838160018151811061138b57fe5b602002602001019073ffffffffffffffffffffffffffffffffffffffff16908173ffffffffffffffffffffffffffffffffffffffff1681525050737a250d5630b4cf539739df2c5dacb4c659f2488d73ffffffffffffffffffffffffffffffffffffffff166338ed173984600184307ff0000000000000000000000000000000000000000000000000000000000000006040518663ffffffff1660e01b815260040180868152602001858152602001806020018473ffffffffffffffffffffffffffffffffffffffff168152602001838152602001828103825285818151815260200191508051906020019060200280838360005b8381101561149b578082015181840152602081019050611480565b505050509050019650505050505050600060405180830381600087803b1580156114c457600080fd5b505af11580156114d8573d6000803e3d6000fd5b505050506040513d6000823e3d601f19601f82011682018060405250602081101561150257600080fd5b810190808051604051939291908464010000000082111561152257600080fd5b8382019150602082018581111561153857600080fd5b825186602082028301116401000000008211171561155557600080fd5b8083526020830192505050908051906020019060200280838360005b8381101561158c578082015181840152602081019050611571565b505050509050016040525050506001825103815181106115a857fe5b6020026020010151915060008211611628576040517f08c379a00000000000000000000000000000000000000000000000000000000081526004018080602001828103825260178152602001807f4572726f72205377617070696e6720546f6b656e73203200000000000000000081525060200191505060405180910390fd5b7fb242fac543571b33f0bb49bcc84178771cbd74e5c7785b45981424829ba3c07533848787604051808573ffffffffffffffffffffffffffffffffffffffff1681526020018481526020018373ffffffffffffffffffffffffffffffffffffffff1681526020018273ffffffffffffffffffffffffffffffffffffffff16815260200194505050505060405180910390a1505b9392505050565b60008282111561173a576040517f08c379a000000000000000000000000000000000000000000000000000000000815260040180806020018281038252601e8152602001807f536166654d6174683a207375627472616374696f6e206f766572666c6f77000081525060200191505060405180910390fd5b818303905092915050565b6000811480611813575060008373ffffffffffffffffffffffffffffffffffffffff1663dd62ed3e30856040518363ffffffff1660e01b8152600401808373ffffffffffffffffffffffffffffffffffffffff1681526020018273ffffffffffffffffffffffffffffffffffffffff1681526020019250505060206040518083038186803b1580156117d657600080fd5b505afa1580156117ea573d6000803e3d6000fd5b505050506040513d602081101561180057600080fd5b8101908080519060200190929190505050145b611868576040517f08c379a0000000000000000000000000000000000000000000000000000000008152600401808060200182810382526036815260200180611dcc6036913960400191505060405180910390fd5b6119058363095ea7b360e01b8484604051602401808373ffffffffffffffffffffffffffffffffffffffff16815260200182815260200192505050604051602081830303815290604052907bffffffffffffffffffffffffffffffffffffffffffffffffffffffff19166020820180517bffffffffffffffffffffffffffffffffffffffffffffffffffffffff8381831617835250505050611032565b505050565b6119a78363a9059cbb60e01b8484604051602401808373ffffffffffffffffffffffffffffffffffffffff16815260200182815260200192505050604051602081830303815290604052907bffffffffffffffffffffffffffffffffffffffffffffffffffffffff19166020820180517bffffffffffffffffffffffffffffffffffffffffffffffffffffffff8381831617835250505050611032565b505050565b60606119bb8484600085611aac565b90509392505050565b6000808314156119d75760009050611a44565b60008284029050828482816119e857fe5b0414611a3f576040517f08c379a0000000000000000000000000000000000000000000000000000000008152600401808060200182810382526021815260200180611d816021913960400191505060405180910390fd5b809150505b92915050565b60006003821115611a99578190506000600160028481611a6657fe5b040190505b81811015611a9357809150600281828581611a8257fe5b040181611a8b57fe5b049050611a6b565b50611aa7565b60008214611aa657600190505b5b919050565b606082471015611b07576040517f08c379a0000000000000000000000000000000000000000000000000000000008152600401808060200182810382526026815260200180611d5b6026913960400191505060405180910390fd5b611b1085611c55565b611b82576040517f08c379a000000000000000000000000000000000000000000000000000000000815260040180806020018281038252601d8152602001807f416464726573733a2063616c6c20746f206e6f6e2d636f6e747261637400000081525060200191505060405180910390fd5b600060608673ffffffffffffffffffffffffffffffffffffffff1685876040518082805190602001908083835b60208310611bd25780518252602082019150602081019050602083039250611baf565b6001836020036101000a03801982511681845116808217855250505050505090500191505060006040518083038185875af1925050503d8060008114611c34576040519150601f19603f3d011682016040523d82523d6000602084013e611c39565b606091505b5091509150611c49828286611c68565b92505050949350505050565b600080823b905060008111915050919050565b60608315611c7857829050611d2d565b600083511115611c8b5782518084602001fd5b816040517f08c379a00000000000000000000000000000000000000000000000000000000081526004018080602001828103825283818151815260200191508051906020019080838360005b83811015611cf2578082015181840152602081019050611cd7565b50505050905090810190601f168015611d1f5780820380516001836020036101000a031916815260200191505b509250505060405180910390fd5b939250505056fe4f776e61626c653a206e6577206f776e657220697320746865207a65726f2061646472657373416464726573733a20696e73756666696369656e742062616c616e636520666f722063616c6c536166654d6174683a206d756c7469706c69636174696f6e206f766572666c6f775361666545524332303a204552433230206f7065726174696f6e20646964206e6f7420737563636565645361666545524332303a20617070726f76652066726f6d206e6f6e2d7a65726f20746f206e6f6e2d7a65726f20616c6c6f77616e6365a2646970667358221220694edc52e1f689a1ebf13ce45bb3203125fc13f905fdbb0505a1b89729c2a4be64736f6c63430007000033",
  "immutableReferences": {},
  "source": "pragma solidity ^0.7.0;\n\nimport \"@openzeppelin/contracts/utils/ReentrancyGuard.sol\";\nimport \"@openzeppelin/contracts/utils/Address.sol\";\nimport \"@openzeppelin/contracts/access/Ownable.sol\";\nimport \"@openzeppelin/contracts/math/SafeMath.sol\";\nimport \"@openzeppelin/contracts/token/ERC20/IERC20.sol\";\nimport \"@openzeppelin/contracts/token/ERC20/SafeERC20.sol\";\n\nimport \"./interfaces/IUniswapV2Router02.sol\";\nimport \"./interfaces/IUniswapV2Pair.sol\";\nimport \"./interfaces/IUniswapV2Factory.sol\";\n\nimport \"./lib/Babylonian.sol\";\n\ncontract XPoolHandler is ReentrancyGuard, Ownable {\n    using SafeMath for uint256;\n    using Address for address;\n    using SafeERC20 for IERC20;\n\n    IUniswapV2Factory private constant UniSwapV2FactoryAddress =\n        IUniswapV2Factory(0x5C69bEe701ef814a2B6a3EDD4B1652CB9cc5aA6f);\n\n    IUniswapV2Router02 private constant uniswapRouter =\n        IUniswapV2Router02(0x7a250d5630B4cF539739dF2C5dAcb4c659F2488D);\n\n    address private constant wethTokenAddress =\n        0xC02aaA39b223FE8D0A0e5C4F27eAD9083C756Cc2;\n\n    uint256 private constant deadline =\n        0xf000000000000000000000000000000000000000000000000000000000000000;\n\n    event SWAP_TOKENS(\n        address sender,\n        uint256 amount,\n        address fromToken,\n        address toToken\n    );\n    event POOL_LIQUIDITY(address sender, address pool, uint256 amount);\n\n    /**\n    @notice This function is used to invest in given Uniswap V2 pair through either of the tokens\n    @param _FromTokenContractAddress The ERC20 token used for investment (address(0x00) if ether)\n    @param _pairAddress The Uniswap pair address\n    @param _amount The amount of fromToken to invest\n    @param _minPoolTokens Reverts if less tokens received than this\n    @return Amount of LP bought\n     */\n    function poolLiquidity(\n        address _FromTokenContractAddress,\n        address _pairAddress,\n        uint256 _amount,\n        uint256 _minPoolTokens\n    ) public payable nonReentrant returns (uint256) {\n        uint256 toInvest = _pullTokens(_FromTokenContractAddress, _amount);\n\n        uint256 LPBought =\n            _poolLiquidityInternal(\n                _FromTokenContractAddress,\n                _pairAddress,\n                toInvest\n            );\n\n        require(LPBought >= _minPoolTokens, \"ERR: High Slippage\");\n\n        emit POOL_LIQUIDITY(msg.sender, _pairAddress, LPBought);\n\n        // IERC20(_pairAddress).safeTransfer(msg.sender, LPBought);\n\n        return LPBought;\n    }\n\n    function _getPairTokens(address _pairAddress)\n        internal\n        pure\n        returns (address token0, address token1)\n    {\n        IUniswapV2Pair uniPair = IUniswapV2Pair(_pairAddress);\n        token0 = uniPair.token0();\n        token1 = uniPair.token1();\n    }\n\n    function _pullTokens(address token, uint256 amount)\n        internal\n        returns (uint256 value)\n    {\n        if (token == address(0)) {\n            require(msg.value > 0, \"No eth sent\");\n            return msg.value;\n        }\n        require(amount > 0, \"Invalid token amount\");\n        require(msg.value == 0, \"Eth sent with token\");\n\n        //transfer token\n        IERC20(token).safeTransferFrom(msg.sender, address(this), amount);\n\n        return amount;\n    }\n\n    function _poolLiquidityInternal(\n        address _FromTokenContractAddress,\n        address _pairAddress,\n        uint256 _amount\n    ) internal returns (uint256) {\n        (address _ToUniswapToken0, address _ToUniswapToken1) =\n            _getPairTokens(_pairAddress);\n\n        // divide intermediate into appropriate amount to add liquidity\n        (uint256 token0Bought, uint256 token1Bought) =\n            _swapTokens(\n                _FromTokenContractAddress,\n                _ToUniswapToken0,\n                _ToUniswapToken1,\n                _amount\n            );\n\n        return\n            _uniDeposit(\n                _ToUniswapToken0,\n                _ToUniswapToken1,\n                token0Bought,\n                token1Bought\n            );\n    }\n\n    function _uniDeposit(\n        address _ToUnipoolToken0,\n        address _ToUnipoolToken1,\n        uint256 token0Bought,\n        uint256 token1Bought\n    ) internal returns (uint256) {\n        IERC20(_ToUnipoolToken0).safeApprove(address(uniswapRouter), 0);\n        IERC20(_ToUnipoolToken1).safeApprove(address(uniswapRouter), 0);\n\n        IERC20(_ToUnipoolToken0).safeApprove(\n            address(uniswapRouter),\n            token0Bought\n        );\n        IERC20(_ToUnipoolToken1).safeApprove(\n            address(uniswapRouter),\n            token1Bought\n        );\n\n        (uint256 amountA, uint256 amountB, uint256 LP) =\n            uniswapRouter.addLiquidity(\n                _ToUnipoolToken0,\n                _ToUnipoolToken1,\n                token0Bought,\n                token1Bought,\n                1,\n                1,\n                address(this),\n                deadline\n            );\n\n        //Returning Residue in token0, if any.\n        if (token0Bought.sub(amountA) > 0) {\n            IERC20(_ToUnipoolToken0).safeTransfer(\n                msg.sender,\n                token0Bought.sub(amountA)\n            );\n        }\n\n        //Returning Residue in token1, if any\n        if (token1Bought.sub(amountB) > 0) {\n            IERC20(_ToUnipoolToken1).safeTransfer(\n                msg.sender,\n                token1Bought.sub(amountB)\n            );\n        }\n\n        return LP;\n    }\n\n    function _swapTokens(\n        address _fromContractAddress,\n        address _ToUnipoolToken0,\n        address _ToUnipoolToken1,\n        uint256 _amount\n    ) internal returns (uint256 token0Bought, uint256 token1Bought) {\n        IUniswapV2Pair pair =\n            IUniswapV2Pair(\n                UniSwapV2FactoryAddress.getPair(\n                    _ToUnipoolToken0,\n                    _ToUnipoolToken1\n                )\n            );\n        (uint256 res0, uint256 res1, ) = pair.getReserves();\n        if (_fromContractAddress == _ToUnipoolToken0) {\n            uint256 amountToSwap = calculateSwapInAmount(res0, _amount);\n            //if no reserve or a new pair is created\n            if (amountToSwap <= 0) amountToSwap = _amount.div(2);\n            token1Bought = _swapTokensInternal(\n                _fromContractAddress,\n                _ToUnipoolToken1,\n                amountToSwap\n            );\n            token0Bought = _amount.sub(amountToSwap);\n        } else {\n            uint256 amountToSwap = calculateSwapInAmount(res1, _amount);\n            //if no reserve or a new pair is created\n            if (amountToSwap <= 0) amountToSwap = _amount.div(2);\n            token0Bought = _swapTokensInternal(\n                _fromContractAddress,\n                _ToUnipoolToken0,\n                amountToSwap\n            );\n            token1Bought = _amount.sub(amountToSwap);\n        }\n    }\n\n    function calculateSwapInAmount(uint256 reserveIn, uint256 userIn)\n        internal\n        pure\n        returns (uint256)\n    {\n        return\n            Babylonian\n                .sqrt(\n                reserveIn.mul(userIn.mul(3988000) + reserveIn.mul(3988009))\n            )\n                .sub(reserveIn.mul(1997)) / 1994;\n    }\n\n    /**\n    @notice This function is used to swap ERC20 <> ERC20\n    @param _FromTokenContractAddress The token address to swap from.\n    @param _ToTokenContractAddress The token address to swap to. \n    @param tokens2Trade The amount of tokens to swap\n    @return tokenBought The quantity of tokens bought\n    */\n    function _swapTokensInternal(\n        address _FromTokenContractAddress,\n        address _ToTokenContractAddress,\n        uint256 tokens2Trade\n    ) internal returns (uint256 tokenBought) {\n        if (_FromTokenContractAddress == _ToTokenContractAddress) {\n            return tokens2Trade;\n        }\n        IERC20(_FromTokenContractAddress).safeApprove(\n            address(uniswapRouter),\n            0\n        );\n        IERC20(_FromTokenContractAddress).safeApprove(\n            address(uniswapRouter),\n            tokens2Trade\n        );\n\n        address[] memory path = new address[](2);\n        path[0] = _FromTokenContractAddress;\n        path[1] = _ToTokenContractAddress;\n\n        tokenBought = uniswapRouter.swapExactTokensForTokens(\n            tokens2Trade,\n            1,\n            path,\n            address(this),\n            deadline\n        )[path.length - 1];\n\n        require(tokenBought > 0, \"Error Swapping Tokens 2\");\n        emit SWAP_TOKENS(\n            msg.sender,\n            tokens2Trade,\n            _FromTokenContractAddress,\n            _ToTokenContractAddress\n        );\n    }\n}\n",
  "sourcePath": "/Users/ayardi/Work/fetch/xfai-amplify/contracts/XPoolHandler.sol",
  "compiler": {
    "name": "solc",
    "version": "0.7.0+commit.9e61f92b.Emscripten.clang"
  },
  "schemaVersion": "3.3.2",
  "updatedAt": "2021-03-03T11:58:06.355Z",
  "devdoc": {
    "kind": "dev",
    "methods": {
      "owner()": {
        "details": "Returns the address of the current owner."
      },
      "poolLiquidity(address,address,uint256,uint256)": {
        "params": {
          "_FromTokenContractAddress": "The ERC20 token used for investment (address(0x00) if ether)",
          "_amount": "The amount of fromToken to invest",
          "_minPoolTokens": "Reverts if less tokens received than this",
          "_pairAddress": "The Uniswap pair address"
        },
        "returns": {
          "_0": "Amount of LP bought"
        }
      },
      "renounceOwnership()": {
        "details": "Leaves the contract without owner. It will not be possible to call `onlyOwner` functions anymore. Can only be called by the current owner. NOTE: Renouncing ownership will leave the contract without an owner, thereby removing any functionality that is only available to the owner."
      },
      "transferOwnership(address)": {
        "details": "Transfers ownership of the contract to a new account (`newOwner`). Can only be called by the current owner."
      }
    },
    "version": 1
  },
  "userdoc": {
    "kind": "user",
    "methods": {
      "poolLiquidity(address,address,uint256,uint256)": {
        "notice": "This function is used to invest in given Uniswap V2 pair through either of the tokens"
      }
    },
    "version": 1
  }
}