{
  "contractName": "XPoolHandler",
  "abi": [
    {
      "anonymous": false,
      "inputs": [
        {
          "indexed": true,
          "internalType": "address",
          "name": "previousOwner",
          "type": "address"
        },
        {
          "indexed": true,
          "internalType": "address",
          "name": "newOwner",
          "type": "address"
        }
      ],
      "name": "OwnershipTransferred",
      "type": "event"
    },
    {
      "anonymous": false,
      "inputs": [
        {
          "indexed": false,
          "internalType": "address",
          "name": "sender",
          "type": "address"
        },
        {
          "indexed": false,
          "internalType": "address",
          "name": "pool",
          "type": "address"
        },
        {
          "indexed": false,
          "internalType": "address",
          "name": "tokenA",
          "type": "address"
        },
        {
          "indexed": false,
          "internalType": "uint256",
          "name": "amountA",
          "type": "uint256"
        },
        {
          "indexed": false,
          "internalType": "address",
          "name": "tokenB",
          "type": "address"
        },
        {
          "indexed": false,
          "internalType": "uint256",
          "name": "amountB",
          "type": "uint256"
        }
      ],
      "name": "POOL_LIQUIDITY",
      "type": "event"
    },
    {
      "anonymous": false,
      "inputs": [
        {
          "indexed": false,
          "internalType": "address",
          "name": "sender",
          "type": "address"
        },
        {
          "indexed": false,
          "internalType": "address",
          "name": "pool",
          "type": "address"
        },
        {
          "indexed": false,
          "internalType": "address",
          "name": "tokenA",
          "type": "address"
        },
        {
          "indexed": false,
          "internalType": "uint256",
          "name": "amountA",
          "type": "uint256"
        },
        {
          "indexed": false,
          "internalType": "address",
          "name": "tokenB",
          "type": "address"
        },
        {
          "indexed": false,
          "internalType": "uint256",
          "name": "amountB",
          "type": "uint256"
        }
      ],
      "name": "REMOVE_LIQUIDITY",
      "type": "event"
    },
    {
      "anonymous": false,
      "inputs": [
        {
          "indexed": false,
          "internalType": "address",
          "name": "sender",
          "type": "address"
        },
        {
          "indexed": false,
          "internalType": "uint256",
          "name": "amount",
          "type": "uint256"
        },
        {
          "indexed": false,
          "internalType": "address",
          "name": "fromToken",
          "type": "address"
        },
        {
          "indexed": false,
          "internalType": "address",
          "name": "toToken",
          "type": "address"
        }
      ],
      "name": "SWAP_TOKENS",
      "type": "event"
    },
    {
      "inputs": [],
      "name": "owner",
      "outputs": [
        {
          "internalType": "address",
          "name": "",
          "type": "address"
        }
      ],
      "stateMutability": "view",
      "type": "function"
    },
    {
      "inputs": [],
      "name": "renounceOwnership",
      "outputs": [],
      "stateMutability": "nonpayable",
      "type": "function"
    },
    {
      "inputs": [
        {
          "internalType": "address",
          "name": "newOwner",
          "type": "address"
        }
      ],
      "name": "transferOwnership",
      "outputs": [],
      "stateMutability": "nonpayable",
      "type": "function"
    },
    {
      "inputs": [
        {
          "internalType": "address",
          "name": "_FromUniPoolAddress",
          "type": "address"
        },
        {
          "internalType": "uint256",
          "name": "_lpTokensAmount",
          "type": "uint256"
        }
      ],
      "name": "redeemLPTokens",
      "outputs": [
        {
          "internalType": "uint256",
          "name": "",
          "type": "uint256"
        },
        {
          "internalType": "uint256",
          "name": "",
          "type": "uint256"
        }
      ],
      "stateMutability": "nonpayable",
      "type": "function"
    },
    {
      "inputs": [
        {
          "internalType": "address",
          "name": "_FromTokenContractAddress",
          "type": "address"
        },
        {
          "internalType": "address",
          "name": "_pairAddress",
          "type": "address"
        },
        {
          "internalType": "uint256",
          "name": "_amount",
          "type": "uint256"
        },
        {
          "internalType": "uint256",
          "name": "_minPoolTokens",
          "type": "uint256"
        }
      ],
      "name": "poolLiquidity",
      "outputs": [
        {
          "internalType": "uint256",
          "name": "",
          "type": "uint256"
        }
      ],
      "stateMutability": "payable",
      "type": "function"
    }
  ],
  "bytecode": "0x608060405234801561001057600080fd5b50600160008190555060006100296100cd60201b60201c565b905080600160006101000a81548173ffffffffffffffffffffffffffffffffffffffff021916908373ffffffffffffffffffffffffffffffffffffffff1602179055508073ffffffffffffffffffffffffffffffffffffffff16600073ffffffffffffffffffffffffffffffffffffffff167f8be0079c531659141344cd1fd0a4f28419497f9722a3daafe3b4186f6b6457e060405160405180910390a3506100d5565b600033905090565b6127b8806100e46000396000f3fe60806040526004361061004a5760003560e01c8063715018a61461004f5780638da5cb5b146100665780638efc78b0146100a7578063b058c0541461011d578063f2fde38b146101a9575b600080fd5b34801561005b57600080fd5b506100646101fa565b005b34801561007257600080fd5b5061007b61036a565b604051808273ffffffffffffffffffffffffffffffffffffffff16815260200191505060405180910390f35b3480156100b357600080fd5b50610100600480360360408110156100ca57600080fd5b81019080803573ffffffffffffffffffffffffffffffffffffffff16906020019092919080359060200190929190505050610394565b604051808381526020018281526020019250505060405180910390f35b6101936004803603608081101561013357600080fd5b81019080803573ffffffffffffffffffffffffffffffffffffffff169060200190929190803573ffffffffffffffffffffffffffffffffffffffff1690602001909291908035906020019092919080359060200190929190505050610ac2565b6040518082815260200191505060405180910390f35b3480156101b557600080fd5b506101f8600480360360208110156101cc57600080fd5b81019080803573ffffffffffffffffffffffffffffffffffffffff169060200190929190505050610bed565b005b610202610de2565b73ffffffffffffffffffffffffffffffffffffffff1661022061036a565b73ffffffffffffffffffffffffffffffffffffffff16146102a9576040517f08c379a00000000000000000000000000000000000000000000000000000000081526004018080602001828103825260208152602001807f4f776e61626c653a2063616c6c6572206973206e6f7420746865206f776e657281525060200191505060405180910390fd5b600073ffffffffffffffffffffffffffffffffffffffff16600160009054906101000a900473ffffffffffffffffffffffffffffffffffffffff1673ffffffffffffffffffffffffffffffffffffffff167f8be0079c531659141344cd1fd0a4f28419497f9722a3daafe3b4186f6b6457e060405160405180910390a36000600160006101000a81548173ffffffffffffffffffffffffffffffffffffffff021916908373ffffffffffffffffffffffffffffffffffffffff160217905550565b6000600160009054906101000a900473ffffffffffffffffffffffffffffffffffffffff16905090565b60008060026000541415610410576040517f08c379a000000000000000000000000000000000000000000000000000000000815260040180806020018281038252601f8152602001807f5265656e7472616e637947756172643a207265656e7472616e742063616c6c0081525060200191505060405180910390fd5b60026000819055506000849050600073ffffffffffffffffffffffffffffffffffffffff168173ffffffffffffffffffffffffffffffffffffffff1614156104c0576040517f08c379a000000000000000000000000000000000000000000000000000000000815260040180806020018281038252601e8152602001807f4572726f723a20496e76616c696420556e69706f6f6c2041646472657373000081525060200191505060405180910390fd5b60008173ffffffffffffffffffffffffffffffffffffffff16630dfe16816040518163ffffffff1660e01b815260040160206040518083038186803b15801561050857600080fd5b505afa15801561051c573d6000803e3d6000fd5b505050506040513d602081101561053257600080fd5b8101908080519060200190929190505050905060008273ffffffffffffffffffffffffffffffffffffffff1663d21220a76040518163ffffffff1660e01b815260040160206040518083038186803b15801561058d57600080fd5b505afa1580156105a1573d6000803e3d6000fd5b505050506040513d60208110156105b757600080fd5b81019080805190602001909291905050509050610609737a250d5630b4cf539739df2c5dacb4c659f2488d878973ffffffffffffffffffffffffffffffffffffffff16610dea9092919063ffffffff16565b60008073c02aaa39b223fe8d0a0e5c4f27ead9083c756cc273ffffffffffffffffffffffffffffffffffffffff168473ffffffffffffffffffffffffffffffffffffffff161480610699575073c02aaa39b223fe8d0a0e5c4f27ead9083c756cc273ffffffffffffffffffffffffffffffffffffffff168373ffffffffffffffffffffffffffffffffffffffff16145b1561085457600073c02aaa39b223fe8d0a0e5c4f27ead9083c756cc273ffffffffffffffffffffffffffffffffffffffff168573ffffffffffffffffffffffffffffffffffffffff16146106ed57846106ef565b835b9050737a250d5630b4cf539739df2c5dacb4c659f2488d73ffffffffffffffffffffffffffffffffffffffff166302751cec828b600180307ff0000000000000000000000000000000000000000000000000000000000000006040518763ffffffff1660e01b8152600401808773ffffffffffffffffffffffffffffffffffffffff1681526020018681526020018581526020018481526020018373ffffffffffffffffffffffffffffffffffffffff16815260200182815260200196505050505050506040805180830381600087803b1580156107cc57600080fd5b505af11580156107e0573d6000803e3d6000fd5b505050506040513d60408110156107f657600080fd5b810190808051906020019092919080519060200190929190505050809350819450505061084433848373ffffffffffffffffffffffffffffffffffffffff16610faf9092919063ffffffff16565b61084e3383611051565b506109f1565b737a250d5630b4cf539739df2c5dacb4c659f2488d73ffffffffffffffffffffffffffffffffffffffff1663baa2abde85858b600180307ff0000000000000000000000000000000000000000000000000000000000000006040518863ffffffff1660e01b8152600401808873ffffffffffffffffffffffffffffffffffffffff1681526020018773ffffffffffffffffffffffffffffffffffffffff1681526020018681526020018581526020018481526020018373ffffffffffffffffffffffffffffffffffffffff1681526020018281526020019750505050505050506040805180830381600087803b15801561094d57600080fd5b505af1158015610961573d6000803e3d6000fd5b505050506040513d604081101561097757600080fd5b81019080805190602001909291908051906020019092919050505080925081935050506109c533838673ffffffffffffffffffffffffffffffffffffffff16610faf9092919063ffffffff16565b6109f033828573ffffffffffffffffffffffffffffffffffffffff16610faf9092919063ffffffff16565b5b7f8251496d51a0099361551b4a9901c85074f36c95f425405ad965a04c650a340b338a86858786604051808773ffffffffffffffffffffffffffffffffffffffff1681526020018673ffffffffffffffffffffffffffffffffffffffff1681526020018573ffffffffffffffffffffffffffffffffffffffff1681526020018481526020018373ffffffffffffffffffffffffffffffffffffffff168152602001828152602001965050505050505060405180910390a1818196509650505050505060016000819055509250929050565b600060026000541415610b3d576040517f08c379a000000000000000000000000000000000000000000000000000000000815260040180806020018281038252601f8152602001807f5265656e7472616e637947756172643a207265656e7472616e742063616c6c0081525060200191505060405180910390fd5b60026000819055506000610b51868561118b565b90506000610b60878784611362565b905083811015610bd8576040517f08c379a00000000000000000000000000000000000000000000000000000000081526004018080602001828103825260128152602001807f4552523a204869676820536c697070616765000000000000000000000000000081525060200191505060405180910390fd5b80925050506001600081905550949350505050565b610bf5610de2565b73ffffffffffffffffffffffffffffffffffffffff16610c1361036a565b73ffffffffffffffffffffffffffffffffffffffff1614610c9c576040517f08c379a00000000000000000000000000000000000000000000000000000000081526004018080602001828103825260208152602001807f4f776e61626c653a2063616c6c6572206973206e6f7420746865206f776e657281525060200191505060405180910390fd5b600073ffffffffffffffffffffffffffffffffffffffff168173ffffffffffffffffffffffffffffffffffffffff161415610d22576040517f08c379a000000000000000000000000000000000000000000000000000000000815260040180806020018281038252602681526020018061267c6026913960400191505060405180910390fd5b8073ffffffffffffffffffffffffffffffffffffffff16600160009054906101000a900473ffffffffffffffffffffffffffffffffffffffff1673ffffffffffffffffffffffffffffffffffffffff167f8be0079c531659141344cd1fd0a4f28419497f9722a3daafe3b4186f6b6457e060405160405180910390a380600160006101000a81548173ffffffffffffffffffffffffffffffffffffffff021916908373ffffffffffffffffffffffffffffffffffffffff16021790555050565b600033905090565b6000811480610eb8575060008373ffffffffffffffffffffffffffffffffffffffff1663dd62ed3e30856040518363ffffffff1660e01b8152600401808373ffffffffffffffffffffffffffffffffffffffff1681526020018273ffffffffffffffffffffffffffffffffffffffff1681526020019250505060206040518083038186803b158015610e7b57600080fd5b505afa158015610e8f573d6000803e3d6000fd5b505050506040513d6020811015610ea557600080fd5b8101908080519060200190929190505050145b610f0d576040517f08c379a000000000000000000000000000000000000000000000000000000000815260040180806020018281038252603681526020018061274d6036913960400191505060405180910390fd5b610faa8363095ea7b360e01b8484604051602401808373ffffffffffffffffffffffffffffffffffffffff16815260200182815260200192505050604051602081830303815290604052907bffffffffffffffffffffffffffffffffffffffffffffffffffffffff19166020820180517bffffffffffffffffffffffffffffffffffffffffffffffffffffffff8381831617835250505050611466565b505050565b61104c8363a9059cbb60e01b8484604051602401808373ffffffffffffffffffffffffffffffffffffffff16815260200182815260200192505050604051602081830303815290604052907bffffffffffffffffffffffffffffffffffffffffffffffffffffffff19166020820180517bffffffffffffffffffffffffffffffffffffffffffffffffffffffff8381831617835250505050611466565b505050565b804710156110c7576040517f08c379a000000000000000000000000000000000000000000000000000000000815260040180806020018281038252601d8152602001807f416464726573733a20696e73756666696369656e742062616c616e636500000081525060200191505060405180910390fd5b60008273ffffffffffffffffffffffffffffffffffffffff168260405180600001905060006040518083038185875af1925050503d8060008114611127576040519150601f19603f3d011682016040523d82523d6000602084013e61112c565b606091505b5050905080611186576040517f08c379a000000000000000000000000000000000000000000000000000000000815260040180806020018281038252603a8152602001806126a2603a913960400191505060405180910390fd5b505050565b60008073ffffffffffffffffffffffffffffffffffffffff168373ffffffffffffffffffffffffffffffffffffffff16141561123f5760003411611237576040517f08c379a000000000000000000000000000000000000000000000000000000000815260040180806020018281038252600b8152602001807f4e6f206574682073656e7400000000000000000000000000000000000000000081525060200191505060405180910390fd5b34905061135c565b600082116112b5576040517f08c379a00000000000000000000000000000000000000000000000000000000081526004018080602001828103825260148152602001807f496e76616c696420746f6b656e20616d6f756e7400000000000000000000000081525060200191505060405180910390fd5b6000341461132b576040517f08c379a00000000000000000000000000000000000000000000000000000000081526004018080602001828103825260138152602001807f4574682073656e74207769746820746f6b656e0000000000000000000000000081525060200191505060405180910390fd5b6113583330848673ffffffffffffffffffffffffffffffffffffffff16611555909392919063ffffffff16565b8190505b92915050565b600080600061137085611616565b915091506000806113838885858961172a565b915091506000806000611398878787876119a8565b9250925092507fe52a8d6444a86a0f9c4d5e4022c26ec5f9e2c0a873c0733b601b0ddc04a942d9338b89858a86604051808773ffffffffffffffffffffffffffffffffffffffff1681526020018673ffffffffffffffffffffffffffffffffffffffff1681526020018573ffffffffffffffffffffffffffffffffffffffff1681526020018481526020018373ffffffffffffffffffffffffffffffffffffffff168152602001828152602001965050505050505060405180910390a1829750505050505050509392505050565b60606114c8826040518060400160405280602081526020017f5361666545524332303a206c6f772d6c6576656c2063616c6c206661696c65648152508573ffffffffffffffffffffffffffffffffffffffff16611ccf9092919063ffffffff16565b9050600081511115611550578080602001905160208110156114e957600080fd5b810190808051906020019092919050505061154f576040517f08c379a000000000000000000000000000000000000000000000000000000000815260040180806020018281038252602a815260200180612723602a913960400191505060405180910390fd5b5b505050565b611610846323b872dd60e01b858585604051602401808473ffffffffffffffffffffffffffffffffffffffff1681526020018373ffffffffffffffffffffffffffffffffffffffff1681526020018281526020019350505050604051602081830303815290604052907bffffffffffffffffffffffffffffffffffffffffffffffffffffffff19166020820180517bffffffffffffffffffffffffffffffffffffffffffffffffffffffff8381831617835250505050611466565b50505050565b60008060008390508073ffffffffffffffffffffffffffffffffffffffff16630dfe16816040518163ffffffff1660e01b815260040160206040518083038186803b15801561166457600080fd5b505afa158015611678573d6000803e3d6000fd5b505050506040513d602081101561168e57600080fd5b810190808051906020019092919050505092508073ffffffffffffffffffffffffffffffffffffffff1663d21220a76040518163ffffffff1660e01b815260040160206040518083038186803b1580156116e757600080fd5b505afa1580156116fb573d6000803e3d6000fd5b505050506040513d602081101561171157600080fd5b8101908080519060200190929190505050915050915091565b6000806000735c69bee701ef814a2b6a3edd4b1652cb9cc5aa6f73ffffffffffffffffffffffffffffffffffffffff1663e6a4390587876040518363ffffffff1660e01b8152600401808373ffffffffffffffffffffffffffffffffffffffff1681526020018273ffffffffffffffffffffffffffffffffffffffff1681526020019250505060206040518083038186803b1580156117c857600080fd5b505afa1580156117dc573d6000803e3d6000fd5b505050506040513d60208110156117f257600080fd5b810190808051906020019092919050505090506000808273ffffffffffffffffffffffffffffffffffffffff16630902f1ac6040518163ffffffff1660e01b815260040160606040518083038186803b15801561184e57600080fd5b505afa158015611862573d6000803e3d6000fd5b505050506040513d606081101561187857600080fd5b81019080805190602001909291908051906020019092919080519060200190929190505050506dffffffffffffffffffffffffffff1691506dffffffffffffffffffffffffffff1691508773ffffffffffffffffffffffffffffffffffffffff168973ffffffffffffffffffffffffffffffffffffffff16141561194b5760006119028388611ce7565b90506000811161192357611920600288611d6990919063ffffffff16565b90505b61192e8a8983611df2565b9450611943818861228890919063ffffffff16565b95505061199c565b60006119578288611ce7565b90506000811161197857611975600288611d6990919063ffffffff16565b90505b6119838a8a83611df2565b9550611998818861228890919063ffffffff16565b9450505b50505094509492505050565b60008060006119ed737a250d5630b4cf539739df2c5dacb4c659f2488d60008973ffffffffffffffffffffffffffffffffffffffff16610dea9092919063ffffffff16565b611a2d737a250d5630b4cf539739df2c5dacb4c659f2488d60008873ffffffffffffffffffffffffffffffffffffffff16610dea9092919063ffffffff16565b611a6c737a250d5630b4cf539739df2c5dacb4c659f2488d868973ffffffffffffffffffffffffffffffffffffffff16610dea9092919063ffffffff16565b611aab737a250d5630b4cf539739df2c5dacb4c659f2488d858873ffffffffffffffffffffffffffffffffffffffff16610dea9092919063ffffffff16565b6000806000737a250d5630b4cf539739df2c5dacb4c659f2488d73ffffffffffffffffffffffffffffffffffffffff1663e8e337008b8b8b8b600180307ff0000000000000000000000000000000000000000000000000000000000000006040518963ffffffff1660e01b8152600401808973ffffffffffffffffffffffffffffffffffffffff1681526020018873ffffffffffffffffffffffffffffffffffffffff1681526020018781526020018681526020018581526020018481526020018373ffffffffffffffffffffffffffffffffffffffff16815260200182815260200198505050505050505050606060405180830381600087803b158015611bb257600080fd5b505af1158015611bc6573d6000803e3d6000fd5b505050506040513d6060811015611bdc57600080fd5b810190808051906020019092919080519060200190929190805190602001909291905050509250925092506000611c1c848a61228890919063ffffffff16565b1115611c6057611c5f33611c39858b61228890919063ffffffff16565b8c73ffffffffffffffffffffffffffffffffffffffff16610faf9092919063ffffffff16565b5b6000611c75838961228890919063ffffffff16565b1115611cb957611cb833611c92848a61228890919063ffffffff16565b8b73ffffffffffffffffffffffffffffffffffffffff16610faf9092919063ffffffff16565b5b8083839550955095505050509450945094915050565b6060611cde848460008561230b565b90509392505050565b60006107ca611d59611d046107cd866124b490919063ffffffff16565b611d4b611d46611d20623cda29896124b490919063ffffffff16565b611d36623cda20896124b490919063ffffffff16565b01886124b490919063ffffffff16565b61253a565b61228890919063ffffffff16565b81611d6057fe5b04905092915050565b6000808211611de0576040517f08c379a000000000000000000000000000000000000000000000000000000000815260040180806020018281038252601a8152602001807f536166654d6174683a206469766973696f6e206279207a65726f00000000000081525060200191505060405180910390fd5b818381611de957fe5b04905092915050565b60008273ffffffffffffffffffffffffffffffffffffffff168473ffffffffffffffffffffffffffffffffffffffff161415611e3057819050612281565b611e70737a250d5630b4cf539739df2c5dacb4c659f2488d60008673ffffffffffffffffffffffffffffffffffffffff16610dea9092919063ffffffff16565b611eaf737a250d5630b4cf539739df2c5dacb4c659f2488d838673ffffffffffffffffffffffffffffffffffffffff16610dea9092919063ffffffff16565b6060600267ffffffffffffffff81118015611ec957600080fd5b50604051908082528060200260200182016040528015611ef85781602001602082028036833780820191505090505b5090508481600081518110611f0957fe5b602002602001019073ffffffffffffffffffffffffffffffffffffffff16908173ffffffffffffffffffffffffffffffffffffffff16815250508381600181518110611f5157fe5b602002602001019073ffffffffffffffffffffffffffffffffffffffff16908173ffffffffffffffffffffffffffffffffffffffff1681525050737a250d5630b4cf539739df2c5dacb4c659f2488d73ffffffffffffffffffffffffffffffffffffffff166338ed173984600184307ff0000000000000000000000000000000000000000000000000000000000000006040518663ffffffff1660e01b815260040180868152602001858152602001806020018473ffffffffffffffffffffffffffffffffffffffff168152602001838152602001828103825285818151815260200191508051906020019060200280838360005b83811015612061578082015181840152602081019050612046565b505050509050019650505050505050600060405180830381600087803b15801561208a57600080fd5b505af115801561209e573d6000803e3d6000fd5b505050506040513d6000823e3d601f19601f8201168201806040525060208110156120c857600080fd5b81019080805160405193929190846401000000008211156120e857600080fd5b838201915060208201858111156120fe57600080fd5b825186602082028301116401000000008211171561211b57600080fd5b8083526020830192505050908051906020019060200280838360005b83811015612152578082015181840152602081019050612137565b5050505090500160405250505060018251038151811061216e57fe5b60200260200101519150600082116121ee576040517f08c379a00000000000000000000000000000000000000000000000000000000081526004018080602001828103825260178152602001807f4572726f72205377617070696e6720546f6b656e73203200000000000000000081525060200191505060405180910390fd5b7fb242fac543571b33f0bb49bcc84178771cbd74e5c7785b45981424829ba3c07533848787604051808573ffffffffffffffffffffffffffffffffffffffff1681526020018481526020018373ffffffffffffffffffffffffffffffffffffffff1681526020018273ffffffffffffffffffffffffffffffffffffffff16815260200194505050505060405180910390a1505b9392505050565b600082821115612300576040517f08c379a000000000000000000000000000000000000000000000000000000000815260040180806020018281038252601e8152602001807f536166654d6174683a207375627472616374696f6e206f766572666c6f77000081525060200191505060405180910390fd5b818303905092915050565b606082471015612366576040517f08c379a00000000000000000000000000000000000000000000000000000000081526004018080602001828103825260268152602001806126dc6026913960400191505060405180910390fd5b61236f8561259c565b6123e1576040517f08c379a000000000000000000000000000000000000000000000000000000000815260040180806020018281038252601d8152602001807f416464726573733a2063616c6c20746f206e6f6e2d636f6e747261637400000081525060200191505060405180910390fd5b600060608673ffffffffffffffffffffffffffffffffffffffff1685876040518082805190602001908083835b60208310612431578051825260208201915060208101905060208303925061240e565b6001836020036101000a03801982511681845116808217855250505050505090500191505060006040518083038185875af1925050503d8060008114612493576040519150601f19603f3d011682016040523d82523d6000602084013e612498565b606091505b50915091506124a88282866125af565b92505050949350505050565b6000808314156124c75760009050612534565b60008284029050828482816124d857fe5b041461252f576040517f08c379a00000000000000000000000000000000000000000000000000000000081526004018080602001828103825260218152602001806127026021913960400191505060405180910390fd5b809150505b92915050565b6000600382111561258957819050600060016002848161255657fe5b040190505b818110156125835780915060028182858161257257fe5b04018161257b57fe5b04905061255b565b50612597565b6000821461259657600190505b5b919050565b600080823b905060008111915050919050565b606083156125bf57829050612674565b6000835111156125d25782518084602001fd5b816040517f08c379a00000000000000000000000000000000000000000000000000000000081526004018080602001828103825283818151815260200191508051906020019080838360005b8381101561263957808201518184015260208101905061261e565b50505050905090810190601f1680156126665780820380516001836020036101000a031916815260200191505b509250505060405180910390fd5b939250505056fe4f776e61626c653a206e6577206f776e657220697320746865207a65726f2061646472657373416464726573733a20756e61626c6520746f2073656e642076616c75652c20726563697069656e74206d61792068617665207265766572746564416464726573733a20696e73756666696369656e742062616c616e636520666f722063616c6c536166654d6174683a206d756c7469706c69636174696f6e206f766572666c6f775361666545524332303a204552433230206f7065726174696f6e20646964206e6f7420737563636565645361666545524332303a20617070726f76652066726f6d206e6f6e2d7a65726f20746f206e6f6e2d7a65726f20616c6c6f77616e6365a2646970667358221220a6cdec78a679673218bf996fda7e98646576f8bbb54c2ef9fc137d052f9894cc64736f6c63430007000033",
  "immutableReferences": {},
  "source": "pragma solidity ^0.7.0;\n\nimport \"@openzeppelin/contracts/utils/ReentrancyGuard.sol\";\nimport \"@openzeppelin/contracts/utils/Address.sol\";\nimport \"@openzeppelin/contracts/access/Ownable.sol\";\nimport \"@openzeppelin/contracts/math/SafeMath.sol\";\nimport \"@openzeppelin/contracts/token/ERC20/IERC20.sol\";\nimport \"@openzeppelin/contracts/token/ERC20/SafeERC20.sol\";\n\nimport \"./interfaces/IUniswapV2Router02.sol\";\nimport \"./interfaces/IUniswapV2Pair.sol\";\nimport \"./interfaces/IUniswapV2Factory.sol\";\n\nimport \"./lib/Babylonian.sol\";\n\ncontract XPoolHandler is ReentrancyGuard, Ownable {\n    using SafeMath for uint256;\n    using Address for address;\n    using SafeERC20 for IERC20;\n\n    IUniswapV2Factory private constant UniSwapV2FactoryAddress =\n        IUniswapV2Factory(0x5C69bEe701ef814a2B6a3EDD4B1652CB9cc5aA6f);\n\n    IUniswapV2Router02 private constant uniswapRouter =\n        IUniswapV2Router02(0x7a250d5630B4cF539739dF2C5dAcb4c659F2488D);\n\n    address private constant wethTokenAddress =\n        0xC02aaA39b223FE8D0A0e5C4F27eAD9083C756Cc2;\n\n    uint256 private constant deadline =\n        0xf000000000000000000000000000000000000000000000000000000000000000;\n\n    event SWAP_TOKENS(\n        address sender,\n        uint256 amount,\n        address fromToken,\n        address toToken\n    );\n    event POOL_LIQUIDITY(\n        address sender,\n        address pool,\n        address tokenA,\n        uint256 amountA,\n        address tokenB,\n        uint256 amountB\n    );\n    event REMOVE_LIQUIDITY(\n        address sender,\n        address pool,\n        address tokenA,\n        uint256 amountA,\n        address tokenB,\n        uint256 amountB\n    );\n\n    /**\n    @notice Remove liquidity from a pool\n    @param _FromUniPoolAddress The uniswap pair address to reomve liquidity from\n    @param _lpTokensAmount The amount of LP\n    @return (amountA, amountB) The amount of pair tokens received after removing liquidity\n     */\n    function redeemLPTokens(\n        address _FromUniPoolAddress,\n        uint256 _lpTokensAmount\n    ) public nonReentrant returns (uint256, uint256) {\n        IUniswapV2Pair pair = IUniswapV2Pair(_FromUniPoolAddress);\n\n        require(address(pair) != address(0), \"Error: Invalid Unipool Address\");\n\n        // get reserves\n        address token0 = pair.token0();\n        address token1 = pair.token1();\n\n        IERC20(_FromUniPoolAddress).safeApprove(\n            address(uniswapRouter),\n            _lpTokensAmount\n        );\n        uint256 amountA;\n        uint256 amountB;\n        if (token0 == wethTokenAddress || token1 == wethTokenAddress) {\n            address _token = token0 == wethTokenAddress ? token1 : token0;\n            (amountA, amountB) = uniswapRouter.removeLiquidityETH(\n                _token,\n                _lpTokensAmount,\n                1,\n                1,\n                address(this),\n                deadline\n            );\n            // send tokens\n            IERC20(_token).safeTransfer(msg.sender, amountA);\n            Address.sendValue(msg.sender, amountB);\n        } else {\n            (amountA, amountB) = uniswapRouter.removeLiquidity(\n                token0,\n                token1,\n                _lpTokensAmount,\n                1,\n                1,\n                address(this),\n                deadline\n            );\n\n            // send tokens\n            IERC20(token0).safeTransfer(msg.sender, amountA);\n            IERC20(token1).safeTransfer(msg.sender, amountB);\n        }\n        emit REMOVE_LIQUIDITY(\n            msg.sender,\n            _FromUniPoolAddress,\n            token0,\n            amountA,\n            token1,\n            amountB\n        );\n        return (amountA, amountB);\n    }\n\n    /**\n    @notice This function is used to invest in given Uniswap V2 pair through either of the tokens\n    @param _FromTokenContractAddress The ERC20 token used for investment (address(0x00) if ether)\n    @param _pairAddress The Uniswap pair address\n    @param _amount The amount of fromToken to invest\n    @param _minPoolTokens Reverts if less tokens received than this\n    @return Amount of LP bought\n     */\n    function poolLiquidity(\n        address _FromTokenContractAddress,\n        address _pairAddress,\n        uint256 _amount,\n        uint256 _minPoolTokens\n    ) public payable nonReentrant returns (uint256) {\n        uint256 toInvest = _pullTokens(_FromTokenContractAddress, _amount);\n\n        uint256 LPBought =\n            _poolLiquidityInternal(\n                _FromTokenContractAddress,\n                _pairAddress,\n                toInvest\n            );\n\n        require(LPBought >= _minPoolTokens, \"ERR: High Slippage\");\n\n        // IERC20(_pairAddress).safeTransfer(msg.sender, LPBought);\n\n        return LPBought;\n    }\n\n    function _getPairTokens(address _pairAddress)\n        internal\n        pure\n        returns (address token0, address token1)\n    {\n        IUniswapV2Pair uniPair = IUniswapV2Pair(_pairAddress);\n        token0 = uniPair.token0();\n        token1 = uniPair.token1();\n    }\n\n    function _pullTokens(address token, uint256 amount)\n        internal\n        returns (uint256 value)\n    {\n        if (token == address(0)) {\n            require(msg.value > 0, \"No eth sent\");\n            return msg.value;\n        }\n        require(amount > 0, \"Invalid token amount\");\n        require(msg.value == 0, \"Eth sent with token\");\n\n        //transfer token\n        IERC20(token).safeTransferFrom(msg.sender, address(this), amount);\n\n        return amount;\n    }\n\n    function _poolLiquidityInternal(\n        address _FromTokenContractAddress,\n        address _pairAddress,\n        uint256 _amount\n    ) internal returns (uint256) {\n        (address _ToUniswapToken0, address _ToUniswapToken1) =\n            _getPairTokens(_pairAddress);\n\n        // divide intermediate into appropriate amount to add liquidity\n        (uint256 token0Bought, uint256 token1Bought) =\n            _swapTokens(\n                _FromTokenContractAddress,\n                _ToUniswapToken0,\n                _ToUniswapToken1,\n                _amount\n            );\n\n        (uint256 lpAmount, uint256 amountA, uint256 amountB) =\n            _uniDeposit(\n                _ToUniswapToken0,\n                _ToUniswapToken1,\n                token0Bought,\n                token1Bought\n            );\n\n        emit POOL_LIQUIDITY(\n            msg.sender,\n            _pairAddress,\n            _ToUniswapToken0,\n            amountA,\n            _ToUniswapToken1,\n            amountB\n        );\n\n        return lpAmount;\n    }\n\n    function _uniDeposit(\n        address _ToUnipoolToken0,\n        address _ToUnipoolToken1,\n        uint256 token0Bought,\n        uint256 token1Bought\n    )\n        internal\n        returns (\n            uint256,\n            uint256,\n            uint256\n        )\n    {\n        IERC20(_ToUnipoolToken0).safeApprove(address(uniswapRouter), 0);\n        IERC20(_ToUnipoolToken1).safeApprove(address(uniswapRouter), 0);\n\n        IERC20(_ToUnipoolToken0).safeApprove(\n            address(uniswapRouter),\n            token0Bought\n        );\n        IERC20(_ToUnipoolToken1).safeApprove(\n            address(uniswapRouter),\n            token1Bought\n        );\n\n        (uint256 amountA, uint256 amountB, uint256 LP) =\n            uniswapRouter.addLiquidity(\n                _ToUnipoolToken0,\n                _ToUnipoolToken1,\n                token0Bought,\n                token1Bought,\n                1,\n                1,\n                address(this),\n                deadline\n            );\n\n        //Returning Residue in token0, if any.\n        if (token0Bought.sub(amountA) > 0) {\n            IERC20(_ToUnipoolToken0).safeTransfer(\n                msg.sender,\n                token0Bought.sub(amountA)\n            );\n        }\n\n        //Returning Residue in token1, if any\n        if (token1Bought.sub(amountB) > 0) {\n            IERC20(_ToUnipoolToken1).safeTransfer(\n                msg.sender,\n                token1Bought.sub(amountB)\n            );\n        }\n\n        return (LP, amountA, amountB);\n    }\n\n    function _swapTokens(\n        address _fromContractAddress,\n        address _ToUnipoolToken0,\n        address _ToUnipoolToken1,\n        uint256 _amount\n    ) internal returns (uint256 token0Bought, uint256 token1Bought) {\n        IUniswapV2Pair pair =\n            IUniswapV2Pair(\n                UniSwapV2FactoryAddress.getPair(\n                    _ToUnipoolToken0,\n                    _ToUnipoolToken1\n                )\n            );\n        (uint256 res0, uint256 res1, ) = pair.getReserves();\n        if (_fromContractAddress == _ToUnipoolToken0) {\n            uint256 amountToSwap = calculateSwapInAmount(res0, _amount);\n            //if no reserve or a new pair is created\n            if (amountToSwap <= 0) amountToSwap = _amount.div(2);\n            token1Bought = _swapTokensInternal(\n                _fromContractAddress,\n                _ToUnipoolToken1,\n                amountToSwap\n            );\n            token0Bought = _amount.sub(amountToSwap);\n        } else {\n            uint256 amountToSwap = calculateSwapInAmount(res1, _amount);\n            //if no reserve or a new pair is created\n            if (amountToSwap <= 0) amountToSwap = _amount.div(2);\n            token0Bought = _swapTokensInternal(\n                _fromContractAddress,\n                _ToUnipoolToken0,\n                amountToSwap\n            );\n            token1Bought = _amount.sub(amountToSwap);\n        }\n    }\n\n    function calculateSwapInAmount(uint256 reserveIn, uint256 userIn)\n        internal\n        pure\n        returns (uint256)\n    {\n        return\n            Babylonian\n                .sqrt(\n                reserveIn.mul(userIn.mul(3988000) + reserveIn.mul(3988009))\n            )\n                .sub(reserveIn.mul(1997)) / 1994;\n    }\n\n    /**\n    @notice This function is used to swap ERC20 <> ERC20\n    @param _FromTokenContractAddress The token address to swap from.\n    @param _ToTokenContractAddress The token address to swap to. \n    @param tokens2Trade The amount of tokens to swap\n    @return tokenBought The quantity of tokens bought\n    */\n    function _swapTokensInternal(\n        address _FromTokenContractAddress,\n        address _ToTokenContractAddress,\n        uint256 tokens2Trade\n    ) internal returns (uint256 tokenBought) {\n        if (_FromTokenContractAddress == _ToTokenContractAddress) {\n            return tokens2Trade;\n        }\n        IERC20(_FromTokenContractAddress).safeApprove(\n            address(uniswapRouter),\n            0\n        );\n        IERC20(_FromTokenContractAddress).safeApprove(\n            address(uniswapRouter),\n            tokens2Trade\n        );\n\n        address[] memory path = new address[](2);\n        path[0] = _FromTokenContractAddress;\n        path[1] = _ToTokenContractAddress;\n\n        tokenBought = uniswapRouter.swapExactTokensForTokens(\n            tokens2Trade,\n            1,\n            path,\n            address(this),\n            deadline\n        )[path.length - 1];\n\n        require(tokenBought > 0, \"Error Swapping Tokens 2\");\n        emit SWAP_TOKENS(\n            msg.sender,\n            tokens2Trade,\n            _FromTokenContractAddress,\n            _ToTokenContractAddress\n        );\n    }\n}\n",
  "sourcePath": "/Users/ayardi/Work/fetch/xfai-amplify/contracts/XPoolHandler.sol",
  "compiler": {
    "name": "solc",
    "version": "0.7.0+commit.9e61f92b.Emscripten.clang"
  },
  "schemaVersion": "3.3.2",
  "updatedAt": "2021-03-04T13:40:50.889Z",
  "devdoc": {
    "kind": "dev",
    "methods": {
      "owner()": {
        "details": "Returns the address of the current owner."
      },
      "poolLiquidity(address,address,uint256,uint256)": {
        "params": {
          "_FromTokenContractAddress": "The ERC20 token used for investment (address(0x00) if ether)",
          "_amount": "The amount of fromToken to invest",
          "_minPoolTokens": "Reverts if less tokens received than this",
          "_pairAddress": "The Uniswap pair address"
        },
        "returns": {
          "_0": "Amount of LP bought"
        }
      },
      "redeemLPTokens(address,uint256)": {
        "params": {
          "_FromUniPoolAddress": "The uniswap pair address to reomve liquidity from",
          "_lpTokensAmount": "The amount of LP"
        },
        "returns": {
          "_0": "(amountA, amountB) The amount of pair tokens received after removing liquidity"
        }
      },
      "renounceOwnership()": {
        "details": "Leaves the contract without owner. It will not be possible to call `onlyOwner` functions anymore. Can only be called by the current owner. NOTE: Renouncing ownership will leave the contract without an owner, thereby removing any functionality that is only available to the owner."
      },
      "transferOwnership(address)": {
        "details": "Transfers ownership of the contract to a new account (`newOwner`). Can only be called by the current owner."
      }
    },
    "version": 1
  },
  "userdoc": {
    "kind": "user",
    "methods": {
      "poolLiquidity(address,address,uint256,uint256)": {
        "notice": "This function is used to invest in given Uniswap V2 pair through either of the tokens"
      },
      "redeemLPTokens(address,uint256)": {
        "notice": "Remove liquidity from a pool"
      }
    },
    "version": 1
  }
}