{
  "contractName": "XPoolHandler",
  "abi": [
    {
      "inputs": [
        {
          "internalType": "uint256",
          "name": "_xFitThreeshold",
          "type": "uint256"
        },
        {
          "internalType": "uint256",
          "name": "_fundsSplitFactor",
          "type": "uint256"
        }
      ],
      "stateMutability": "nonpayable",
      "type": "constructor"
    },
    {
      "anonymous": false,
      "inputs": [
        {
          "indexed": true,
          "internalType": "address",
          "name": "previousOwner",
          "type": "address"
        },
        {
          "indexed": true,
          "internalType": "address",
          "name": "newOwner",
          "type": "address"
        }
      ],
      "name": "OwnershipTransferred",
      "type": "event"
    },
    {
      "anonymous": false,
      "inputs": [
        {
          "indexed": false,
          "internalType": "address",
          "name": "sender",
          "type": "address"
        },
        {
          "indexed": false,
          "internalType": "address",
          "name": "pool",
          "type": "address"
        },
        {
          "indexed": false,
          "internalType": "address",
          "name": "tokenA",
          "type": "address"
        },
        {
          "indexed": false,
          "internalType": "uint256",
          "name": "amountA",
          "type": "uint256"
        },
        {
          "indexed": false,
          "internalType": "address",
          "name": "tokenB",
          "type": "address"
        },
        {
          "indexed": false,
          "internalType": "uint256",
          "name": "amountB",
          "type": "uint256"
        }
      ],
      "name": "POOL_LIQUIDITY",
      "type": "event"
    },
    {
      "anonymous": false,
      "inputs": [
        {
          "indexed": false,
          "internalType": "address",
          "name": "sender",
          "type": "address"
        },
        {
          "indexed": false,
          "internalType": "address",
          "name": "pool",
          "type": "address"
        },
        {
          "indexed": false,
          "internalType": "address",
          "name": "tokenA",
          "type": "address"
        },
        {
          "indexed": false,
          "internalType": "uint256",
          "name": "amountA",
          "type": "uint256"
        },
        {
          "indexed": false,
          "internalType": "address",
          "name": "tokenB",
          "type": "address"
        },
        {
          "indexed": false,
          "internalType": "uint256",
          "name": "amountB",
          "type": "uint256"
        }
      ],
      "name": "REMOVE_LIQUIDITY",
      "type": "event"
    },
    {
      "anonymous": false,
      "inputs": [
        {
          "indexed": false,
          "internalType": "address",
          "name": "sender",
          "type": "address"
        },
        {
          "indexed": false,
          "internalType": "uint256",
          "name": "amount",
          "type": "uint256"
        },
        {
          "indexed": false,
          "internalType": "address",
          "name": "fromToken",
          "type": "address"
        },
        {
          "indexed": false,
          "internalType": "address",
          "name": "toToken",
          "type": "address"
        }
      ],
      "name": "SWAP_TOKENS",
      "type": "event"
    },
    {
      "inputs": [],
      "name": "fundsSplitFactor",
      "outputs": [
        {
          "internalType": "uint256",
          "name": "",
          "type": "uint256"
        }
      ],
      "stateMutability": "view",
      "type": "function"
    },
    {
      "inputs": [],
      "name": "owner",
      "outputs": [
        {
          "internalType": "address",
          "name": "",
          "type": "address"
        }
      ],
      "stateMutability": "view",
      "type": "function"
    },
    {
      "inputs": [],
      "name": "renounceOwnership",
      "outputs": [],
      "stateMutability": "nonpayable",
      "type": "function"
    },
    {
      "inputs": [],
      "name": "totalRaised",
      "outputs": [
        {
          "internalType": "uint256",
          "name": "",
          "type": "uint256"
        }
      ],
      "stateMutability": "view",
      "type": "function"
    },
    {
      "inputs": [
        {
          "internalType": "address",
          "name": "newOwner",
          "type": "address"
        }
      ],
      "name": "transferOwnership",
      "outputs": [],
      "stateMutability": "nonpayable",
      "type": "function"
    },
    {
      "inputs": [
        {
          "internalType": "uint256",
          "name": "_xFitThreeshold",
          "type": "uint256"
        }
      ],
      "name": "_setXFitThreeshold",
      "outputs": [],
      "stateMutability": "nonpayable",
      "type": "function"
    },
    {
      "inputs": [
        {
          "internalType": "uint256",
          "name": "_fundsSplitFactor",
          "type": "uint256"
        }
      ],
      "name": "setFundsSplitFactor",
      "outputs": [],
      "stateMutability": "nonpayable",
      "type": "function"
    }
  ],
  "bytecode": "0x608060405234801561001057600080fd5b5060405161083e38038061083e8339818101604052604081101561003357600080fd5b8101908080519060200190929190805190602001909291905050506001600081905550600061006661011a60201b60201c565b905080600160006101000a81548173ffffffffffffffffffffffffffffffffffffffff021916908373ffffffffffffffffffffffffffffffffffffffff1602179055508073ffffffffffffffffffffffffffffffffffffffff16600073ffffffffffffffffffffffffffffffffffffffff167f8be0079c531659141344cd1fd0a4f28419497f9722a3daafe3b4186f6b6457e060405160405180910390a35081600381905550806004819055505050610122565b600033905090565b61070d806101316000396000f3fe608060405234801561001057600080fd5b506004361061007d5760003560e01c8063715018a61161005b578063715018a6146100fc5780638da5cb5b14610106578063c5c4744c1461013a578063f2fde38b146101585761007d565b8063127f5b2b146100825780633eaf0098146100b05780634c046eb5146100de575b600080fd5b6100ae6004803603602081101561009857600080fd5b810190808035906020019092919050505061019c565b005b6100dc600480360360208110156100c657600080fd5b8101908080359060200190929190505050610255565b005b6100e661030e565b6040518082815260200191505060405180910390f35b610104610314565b005b61010e610484565b604051808273ffffffffffffffffffffffffffffffffffffffff16815260200191505060405180910390f35b6101426104ae565b6040518082815260200191505060405180910390f35b61019a6004803603602081101561016e57600080fd5b81019080803573ffffffffffffffffffffffffffffffffffffffff1690602001909291905050506104b4565b005b6101a46106a9565b73ffffffffffffffffffffffffffffffffffffffff166101c2610484565b73ffffffffffffffffffffffffffffffffffffffff161461024b576040517f08c379a00000000000000000000000000000000000000000000000000000000081526004018080602001828103825260208152602001807f4f776e61626c653a2063616c6c6572206973206e6f7420746865206f776e657281525060200191505060405180910390fd5b8060048190555050565b61025d6106a9565b73ffffffffffffffffffffffffffffffffffffffff1661027b610484565b73ffffffffffffffffffffffffffffffffffffffff1614610304576040517f08c379a00000000000000000000000000000000000000000000000000000000081526004018080602001828103825260208152602001807f4f776e61626c653a2063616c6c6572206973206e6f7420746865206f776e657281525060200191505060405180910390fd5b8060038190555050565b60045481565b61031c6106a9565b73ffffffffffffffffffffffffffffffffffffffff1661033a610484565b73ffffffffffffffffffffffffffffffffffffffff16146103c3576040517f08c379a00000000000000000000000000000000000000000000000000000000081526004018080602001828103825260208152602001807f4f776e61626c653a2063616c6c6572206973206e6f7420746865206f776e657281525060200191505060405180910390fd5b600073ffffffffffffffffffffffffffffffffffffffff16600160009054906101000a900473ffffffffffffffffffffffffffffffffffffffff1673ffffffffffffffffffffffffffffffffffffffff167f8be0079c531659141344cd1fd0a4f28419497f9722a3daafe3b4186f6b6457e060405160405180910390a36000600160006101000a81548173ffffffffffffffffffffffffffffffffffffffff021916908373ffffffffffffffffffffffffffffffffffffffff160217905550565b6000600160009054906101000a900473ffffffffffffffffffffffffffffffffffffffff16905090565b60025481565b6104bc6106a9565b73ffffffffffffffffffffffffffffffffffffffff166104da610484565b73ffffffffffffffffffffffffffffffffffffffff1614610563576040517f08c379a00000000000000000000000000000000000000000000000000000000081526004018080602001828103825260208152602001807f4f776e61626c653a2063616c6c6572206973206e6f7420746865206f776e657281525060200191505060405180910390fd5b600073ffffffffffffffffffffffffffffffffffffffff168173ffffffffffffffffffffffffffffffffffffffff1614156105e9576040517f08c379a00000000000000000000000000000000000000000000000000000000081526004018080602001828103825260268152602001806106b26026913960400191505060405180910390fd5b8073ffffffffffffffffffffffffffffffffffffffff16600160009054906101000a900473ffffffffffffffffffffffffffffffffffffffff1673ffffffffffffffffffffffffffffffffffffffff167f8be0079c531659141344cd1fd0a4f28419497f9722a3daafe3b4186f6b6457e060405160405180910390a380600160006101000a81548173ffffffffffffffffffffffffffffffffffffffff021916908373ffffffffffffffffffffffffffffffffffffffff16021790555050565b60003390509056fe4f776e61626c653a206e6577206f776e657220697320746865207a65726f2061646472657373a264697066735822122089f38e4dbcf90aaa795381872f4601d9cac4b5182c5d0e56e6ec976785246c4a64736f6c63430007000033",
  "immutableReferences": {},
  "source": "pragma solidity ^0.7.0;\n\nimport \"@openzeppelin/contracts/utils/ReentrancyGuard.sol\";\nimport \"@openzeppelin/contracts/utils/Address.sol\";\nimport \"@openzeppelin/contracts/access/Ownable.sol\";\nimport \"@openzeppelin/contracts/math/SafeMath.sol\";\nimport \"@openzeppelin/contracts/token/ERC20/IERC20.sol\";\nimport \"@openzeppelin/contracts/token/ERC20/SafeERC20.sol\";\n\nimport \"./interfaces/IUniswapV2Router02.sol\";\nimport \"./interfaces/IUniswapV2Pair.sol\";\nimport \"./interfaces/IUniswapV2Factory.sol\";\n\nimport \"./lib/Babylonian.sol\";\n\ninterface IXPriceOracle {\n    function update() external;\n\n    function consult(address token, uint256 amountIn)\n        external\n        view\n        returns (uint256);\n}\n\ncontract XPoolHandler is ReentrancyGuard, Ownable {\n    using SafeMath for uint256;\n    using Address for address;\n    using SafeERC20 for IERC20;\n\n    IUniswapV2Factory private constant UniSwapV2FactoryAddress =\n        IUniswapV2Factory(0x5C69bEe701ef814a2B6a3EDD4B1652CB9cc5aA6f);\n\n    IUniswapV2Router02 private constant uniswapRouter =\n        IUniswapV2Router02(0x7a250d5630B4cF539739dF2C5dAcb4c659F2488D);\n\n    address private constant wethTokenAddress =\n        0xC02aaA39b223FE8D0A0e5C4F27eAD9083C756Cc2;\n\n    uint256 private constant deadline =\n        0xf000000000000000000000000000000000000000000000000000000000000000;\n\n    uint256 public totalRaised;\n    uint256 private xFitThreeshold;\n    uint256 public fundsSplitFactor;\n\n    event SWAP_TOKENS(\n        address sender,\n        uint256 amount,\n        address fromToken,\n        address toToken\n    );\n    event POOL_LIQUIDITY(\n        address sender,\n        address pool,\n        address tokenA,\n        uint256 amountA,\n        address tokenB,\n        uint256 amountB\n    );\n    event REMOVE_LIQUIDITY(\n        address sender,\n        address pool,\n        address tokenA,\n        uint256 amountA,\n        address tokenB,\n        uint256 amountB\n    );\n\n    constructor(uint256 _xFitThreeshold, uint256 _fundsSplitFactor) {\n        xFitThreeshold = _xFitThreeshold;\n        fundsSplitFactor = _fundsSplitFactor;\n    }\n\n    /**\n    @notice Remove liquidity from a pool\n    @param _FromUniPoolAddress The uniswap pair address to reomve liquidity from\n    @param _lpTokensAmount The amount of LP\n    @return (amountA, amountB) The amount of pair tokens received after removing liquidity\n     */\n    function redeemLPTokens(\n        address _FromUniPoolAddress,\n        uint256 _lpTokensAmount\n    ) internal nonReentrant returns (uint256, uint256) {\n        IUniswapV2Pair pair = IUniswapV2Pair(_FromUniPoolAddress);\n\n        require(address(pair) != address(0), \"Error: Invalid Unipool Address\");\n\n        // get reserves\n        address token0 = pair.token0();\n        address token1 = pair.token1();\n\n        IERC20(_FromUniPoolAddress).safeApprove(\n            address(uniswapRouter),\n            _lpTokensAmount\n        );\n        uint256 amountA;\n        uint256 amountB;\n        if (token0 == wethTokenAddress || token1 == wethTokenAddress) {\n            address _token = token0 == wethTokenAddress ? token1 : token0;\n            (amountA, amountB) = uniswapRouter.removeLiquidityETH(\n                _token,\n                _lpTokensAmount,\n                1,\n                1,\n                address(this),\n                deadline\n            );\n            // send tokens\n            IERC20(_token).safeTransfer(msg.sender, amountA);\n            Address.sendValue(msg.sender, amountB);\n        } else {\n            (amountA, amountB) = uniswapRouter.removeLiquidity(\n                token0,\n                token1,\n                _lpTokensAmount,\n                1,\n                1,\n                address(this),\n                deadline\n            );\n\n            // send tokens\n            IERC20(token0).safeTransfer(msg.sender, amountA);\n            IERC20(token1).safeTransfer(msg.sender, amountB);\n        }\n        emit REMOVE_LIQUIDITY(\n            msg.sender,\n            _FromUniPoolAddress,\n            token0,\n            amountA,\n            token1,\n            amountB\n        );\n        return (amountA, amountB);\n    }\n\n    /**\n    @notice This function is used to invest in given Uniswap V2 pair through either of the tokens\n    @param _FromTokenContractAddress The ERC20 token used for investment (address(0x00) if ether)\n    @param _pairAddress The Uniswap pair address\n    @param _amount The amount of fromToken to invest\n    @param _minPoolTokens Reverts if less tokens received than this\n    @return Amount of LP bought\n     */\n    function poolLiquidity(\n        address _FromTokenContractAddress,\n        address _pairAddress,\n        address _xPoolOracle,\n        uint256 _amount,\n        uint256 _minPoolTokens\n    ) internal nonReentrant returns (uint256) {\n        uint256 toInvest = _pullTokens(_FromTokenContractAddress, _amount);\n        uint256 LPBought;\n\n        (address _ToUniswapToken0, address _ToUniswapToken1) =\n            _getPairTokens(_pairAddress);\n\n        if (_FromTokenContractAddress == _ToUniswapToken0) {\n            LPBought = _poolLiquidityInternal(\n                _FromTokenContractAddress,\n                _ToUniswapToken1,\n                _pairAddress,\n                _xPoolOracle,\n                toInvest\n            );\n        } else {\n            LPBought = _poolLiquidityInternal(\n                _FromTokenContractAddress,\n                _ToUniswapToken0,\n                _pairAddress,\n                _xPoolOracle,\n                toInvest\n            );\n        }\n\n        require(LPBought >= _minPoolTokens, \"ERR: High Slippage\");\n\n        IXPriceOracle(_xPoolOracle).update();\n\n        return LPBought;\n    }\n\n    function _getPairTokens(address _pairAddress)\n        internal\n        pure\n        returns (address token0, address token1)\n    {\n        IUniswapV2Pair uniPair = IUniswapV2Pair(_pairAddress);\n        token0 = uniPair.token0();\n        token1 = uniPair.token1();\n    }\n\n    function _pullTokens(address token, uint256 amount)\n        internal\n        returns (uint256 value)\n    {\n        if (token == address(0)) {\n            require(msg.value > 0, \"No eth sent\");\n            return msg.value;\n        }\n        require(amount > 0, \"Invalid token amount\");\n        require(msg.value == 0, \"Eth sent with token\");\n\n        //transfer token\n        IERC20(token).safeTransferFrom(msg.sender, address(this), amount);\n\n        return amount;\n    }\n\n    // Variables required to compute the dynamic swap amount and paths\n    struct TokenSwapVars {\n        uint256 amountToSwap;\n        uint256 destTokensAmount;\n        uint256 fromTokensBought;\n        uint256 toTokensBought;\n        uint256 destTokenReserve;\n    }\n\n    // This checks if its possible to swap Incoming tokens for XFit from the contract. If its not possible, then uses Uniswap to swap the tokens.\n    function _poolLiquidityInternal(\n        address _FromTokenContractAddress,\n        address _ToTokenContractAddress,\n        address _pairAddress,\n        address _xPoolOracle,\n        uint256 _amount\n    ) internal returns (uint256) {\n        TokenSwapVars memory tokenSwapVars;\n\n        tokenSwapVars.amountToSwap = _amount.div(2);\n\n        // Convert amountToSwap to equivalent number of XFit tokens by quering prie oracle\n        tokenSwapVars.destTokensAmount = IXPriceOracle(_xPoolOracle).consult(\n            _FromTokenContractAddress,\n            tokenSwapVars.amountToSwap\n        );\n\n        // How much of the incoming funds should be used to swap for XFit again\n        uint256 splittedFunds =\n            tokenSwapVars.amountToSwap.mul(fundsSplitFactor).div(1e18);\n\n        // Contract's balance of XFit tokens\n        tokenSwapVars.destTokenReserve = IERC20(_ToTokenContractAddress)\n            .balanceOf(address(this));\n\n        // If XFit are available in the contract, swap internally\n        if (\n            tokenSwapVars.destTokensAmount <\n            (tokenSwapVars.destTokenReserve.sub(xFitThreeshold))\n        ) {\n            tokenSwapVars.fromTokensBought = tokenSwapVars.amountToSwap;\n            tokenSwapVars.toTokensBought = tokenSwapVars.destTokensAmount;\n            // Swap the splittedFunds portion of incoming funding to buyBack XFit\n            swapSplittedFunds(\n                _FromTokenContractAddress,\n                _ToTokenContractAddress,\n                splittedFunds\n            );\n            totalRaised = totalRaised.add(tokenSwapVars.amountToSwap);\n        }\n\n        // else use uniswap\n        if (\n            tokenSwapVars.destTokensAmount >=\n            (tokenSwapVars.destTokenReserve.sub(xFitThreeshold))\n        ) {\n            // divide intermediate into appropriate amount to add liquidity using single side liquidity provision logic descrobed here: https://blog.alphafinance.io/onesideduniswap/\n            (\n                tokenSwapVars.fromTokensBought,\n                tokenSwapVars.toTokensBought\n            ) = _swapTokens(\n                _FromTokenContractAddress,\n                IUniswapV2Pair(_pairAddress),\n                _amount\n            );\n        }\n\n        // Add liquidity to Uniswap\n        (uint256 lpAmount, uint256 amountA, uint256 amountB) =\n            _uniDeposit(\n                _FromTokenContractAddress,\n                _ToTokenContractAddress,\n                tokenSwapVars.fromTokensBought,\n                tokenSwapVars.toTokensBought\n            );\n\n        emit POOL_LIQUIDITY(\n            msg.sender,\n            _pairAddress,\n            _FromTokenContractAddress,\n            amountA,\n            _ToTokenContractAddress,\n            amountB\n        );\n\n        return lpAmount;\n    }\n\n    function swapSplittedFunds(\n        address _FromTokenContractAddress,\n        address _ToTokenContractAddress,\n        uint256 _splittedFunds\n    ) internal {\n        _swapTokensInternal(\n            _FromTokenContractAddress,\n            _ToTokenContractAddress,\n            _splittedFunds\n        );\n    }\n\n    function _uniDeposit(\n        address _ToUnipoolToken0,\n        address _ToUnipoolToken1,\n        uint256 token0Bought,\n        uint256 token1Bought\n    )\n        internal\n        returns (\n            uint256,\n            uint256,\n            uint256\n        )\n    {\n        IERC20(_ToUnipoolToken0).safeApprove(address(uniswapRouter), 0);\n        IERC20(_ToUnipoolToken1).safeApprove(address(uniswapRouter), 0);\n\n        IERC20(_ToUnipoolToken0).safeApprove(\n            address(uniswapRouter),\n            token0Bought\n        );\n        IERC20(_ToUnipoolToken1).safeApprove(\n            address(uniswapRouter),\n            token1Bought\n        );\n\n        (uint256 amountA, uint256 amountB, uint256 LP) =\n            uniswapRouter.addLiquidity(\n                _ToUnipoolToken0,\n                _ToUnipoolToken1,\n                token0Bought,\n                token1Bought,\n                1,\n                1,\n                address(this),\n                deadline\n            );\n\n        //Returning Residue in token0, if any.\n        if (token0Bought.sub(amountA) > 0) {\n            IERC20(_ToUnipoolToken0).safeTransfer(\n                msg.sender,\n                token0Bought.sub(amountA)\n            );\n        }\n\n        //Returning Residue in token1, if any\n        if (token1Bought.sub(amountB) > 0) {\n            IERC20(_ToUnipoolToken1).safeTransfer(\n                msg.sender,\n                token1Bought.sub(amountB)\n            );\n        }\n\n        return (LP, amountA, amountB);\n    }\n\n    function _swapTokens(\n        address _fromContractAddress,\n        IUniswapV2Pair _pair,\n        uint256 _amount\n    ) internal returns (uint256 fromTokensBought, uint256 toTokensBought) {\n        (address _ToUnipoolToken0, address _ToUnipoolToken1) =\n            _getPairTokens(address(_pair));\n\n        (uint256 res0, uint256 res1, ) = _pair.getReserves();\n\n        if (_fromContractAddress == _ToUnipoolToken0) {\n            uint256 amountToSwap = calculateSwapInAmount(res0, _amount);\n            //if no reserve or a new _pair is created\n            if (amountToSwap <= 0) amountToSwap = _amount.div(2);\n            toTokensBought = _swapTokensInternal(\n                _fromContractAddress,\n                _ToUnipoolToken1,\n                amountToSwap\n            );\n            fromTokensBought = _amount.sub(amountToSwap);\n        } else {\n            uint256 amountToSwap = calculateSwapInAmount(res1, _amount);\n            //if no reserve or a new _pair is created\n            if (amountToSwap <= 0) amountToSwap = _amount.div(2);\n            fromTokensBought = _swapTokensInternal(\n                _fromContractAddress,\n                _ToUnipoolToken0,\n                amountToSwap\n            );\n            toTokensBought = _amount.sub(amountToSwap);\n        }\n    }\n\n    function calculateSwapInAmount(uint256 reserveIn, uint256 userIn)\n        internal\n        pure\n        returns (uint256)\n    {\n        return\n            Babylonian\n                .sqrt(\n                reserveIn.mul(userIn.mul(3988000) + reserveIn.mul(3988009))\n            )\n                .sub(reserveIn.mul(1997)) / 1994;\n    }\n\n    /**\n    @notice This function is used to swap ERC20 <> ERC20\n    @param _FromTokenContractAddress The token address to swap from.\n    @param _ToTokenContractAddress The token address to swap to. \n    @param tokens2Trade The amount of tokens to swap\n    @return tokenBought The quantity of tokens bought\n    */\n    function _swapTokensInternal(\n        address _FromTokenContractAddress,\n        address _ToTokenContractAddress,\n        uint256 tokens2Trade\n    ) internal returns (uint256 tokenBought) {\n        if (_FromTokenContractAddress == _ToTokenContractAddress) {\n            return tokens2Trade;\n        }\n        IERC20(_FromTokenContractAddress).safeApprove(\n            address(uniswapRouter),\n            0\n        );\n        IERC20(_FromTokenContractAddress).safeApprove(\n            address(uniswapRouter),\n            tokens2Trade\n        );\n\n        address[] memory path = new address[](2);\n        path[0] = _FromTokenContractAddress;\n        path[1] = _ToTokenContractAddress;\n\n        tokenBought = uniswapRouter.swapExactTokensForTokens(\n            tokens2Trade,\n            1,\n            path,\n            address(this),\n            deadline\n        )[path.length - 1];\n\n        require(tokenBought > 0, \"Error Swapping Tokens 2\");\n        emit SWAP_TOKENS(\n            msg.sender,\n            tokens2Trade,\n            _FromTokenContractAddress,\n            _ToTokenContractAddress\n        );\n    }\n\n    // Owner function\n\n    function _setXFitThreeshold(uint256 _xFitThreeshold) public onlyOwner {\n        xFitThreeshold = _xFitThreeshold;\n    }\n\n    function setFundsSplitFactor(uint256 _fundsSplitFactor) public onlyOwner {\n        fundsSplitFactor = _fundsSplitFactor;\n    }\n}\n",
  "sourcePath": "/Users/ayardi/Work/fetch/xfai-amplify/contracts/XPoolHandler.sol",
  "compiler": {
    "name": "solc",
    "version": "0.7.0+commit.9e61f92b.Emscripten.clang"
  },
  "schemaVersion": "3.3.2",
  "updatedAt": "2021-03-18T10:49:45.174Z",
  "devdoc": {
    "kind": "dev",
    "methods": {
      "owner()": {
        "details": "Returns the address of the current owner."
      },
      "renounceOwnership()": {
        "details": "Leaves the contract without owner. It will not be possible to call `onlyOwner` functions anymore. Can only be called by the current owner. NOTE: Renouncing ownership will leave the contract without an owner, thereby removing any functionality that is only available to the owner."
      },
      "transferOwnership(address)": {
        "details": "Transfers ownership of the contract to a new account (`newOwner`). Can only be called by the current owner."
      }
    },
    "version": 1
  },
  "userdoc": {
    "kind": "user",
    "methods": {},
    "version": 1
  }
}